{
  "_format": "hh-sol-artifact-1",
  "contractName": "StandardLotteryPool",
  "sourceName": "contracts/pools/StandardLotteryPool.sol",
  "abi": [
    {
      "inputs": [],
      "stateMutability": "nonpayable",
      "type": "constructor"
    },
    {
      "anonymous": false,
      "inputs": [
        {
          "indexed": true,
          "internalType": "address",
          "name": "creator",
          "type": "address"
        },
        {
          "indexed": false,
          "internalType": "uint256",
          "name": "paymentToCreator",
          "type": "uint256"
        }
      ],
      "name": "CreatorPaymentTransfered",
      "type": "event"
    },
    {
      "anonymous": false,
      "inputs": [
        {
          "indexed": true,
          "internalType": "address",
          "name": "previousOwner",
          "type": "address"
        },
        {
          "indexed": true,
          "internalType": "address",
          "name": "newOwner",
          "type": "address"
        }
      ],
      "name": "OwnershipTransferred",
      "type": "event"
    },
    {
      "anonymous": false,
      "inputs": [
        {
          "indexed": false,
          "internalType": "address",
          "name": "addr",
          "type": "address"
        },
        {
          "indexed": false,
          "internalType": "uint256",
          "name": "amount",
          "type": "uint256"
        }
      ],
      "name": "Received",
      "type": "event"
    },
    {
      "anonymous": false,
      "inputs": [
        {
          "indexed": false,
          "internalType": "uint256",
          "name": "lotteryId",
          "type": "uint256"
        },
        {
          "indexed": true,
          "internalType": "address",
          "name": "buyer",
          "type": "address"
        },
        {
          "indexed": false,
          "internalType": "uint256",
          "name": "numberOfTickets",
          "type": "uint256"
        },
        {
          "indexed": false,
          "internalType": "uint256",
          "name": "amount",
          "type": "uint256"
        }
      ],
      "name": "TicketsBought",
      "type": "event"
    },
    {
      "anonymous": false,
      "inputs": [
        {
          "indexed": false,
          "internalType": "uint256",
          "name": "lotteryId",
          "type": "uint256"
        },
        {
          "indexed": true,
          "internalType": "address",
          "name": "buyer",
          "type": "address"
        },
        {
          "indexed": false,
          "internalType": "uint256",
          "name": "numberOfTickets",
          "type": "uint256"
        },
        {
          "indexed": false,
          "internalType": "uint256",
          "name": "amount",
          "type": "uint256"
        }
      ],
      "name": "TicketsRedeemed",
      "type": "event"
    },
    {
      "inputs": [
        {
          "internalType": "uint256",
          "name": "_numberOfTickets",
          "type": "uint256"
        }
      ],
      "name": "buyTickets",
      "outputs": [],
      "stateMutability": "payable",
      "type": "function"
    },
    {
      "inputs": [],
      "name": "cancelLottery",
      "outputs": [],
      "stateMutability": "nonpayable",
      "type": "function"
    },
    {
      "inputs": [],
      "name": "creator",
      "outputs": [
        {
          "internalType": "address",
          "name": "",
          "type": "address"
        }
      ],
      "stateMutability": "view",
      "type": "function"
    },
    {
      "inputs": [],
      "name": "declareWinner",
      "outputs": [],
      "stateMutability": "nonpayable",
      "type": "function"
    },
    {
      "inputs": [],
      "name": "fees",
      "outputs": [
        {
          "internalType": "uint256",
          "name": "",
          "type": "uint256"
        }
      ],
      "stateMutability": "view",
      "type": "function"
    },
    {
      "inputs": [],
      "name": "getBalance",
      "outputs": [
        {
          "internalType": "uint256",
          "name": "",
          "type": "uint256"
        }
      ],
      "stateMutability": "view",
      "type": "function"
    },
    {
      "inputs": [
        {
          "internalType": "address",
          "name": "_parent",
          "type": "address"
        },
        {
          "internalType": "uint256",
          "name": "_lotteryId",
          "type": "uint256"
        },
        {
          "internalType": "address",
          "name": "_creator",
          "type": "address"
        },
        {
          "internalType": "address",
          "name": "_nftAddress",
          "type": "address"
        },
        {
          "internalType": "uint256",
          "name": "_nftIndex",
          "type": "uint256"
        },
        {
          "internalType": "uint256",
          "name": "_ticketPrice",
          "type": "uint256"
        },
        {
          "internalType": "uint256",
          "name": "_minProfit",
          "type": "uint256"
        },
        {
          "internalType": "uint256",
          "name": "_created",
          "type": "uint256"
        },
        {
          "internalType": "uint256",
          "name": "_lotteryPoolType",
          "type": "uint256"
        }
      ],
      "name": "init",
      "outputs": [],
      "stateMutability": "nonpayable",
      "type": "function"
    },
    {
      "inputs": [],
      "name": "lotteryId",
      "outputs": [
        {
          "internalType": "uint256",
          "name": "",
          "type": "uint256"
        }
      ],
      "stateMutability": "view",
      "type": "function"
    },
    {
      "inputs": [],
      "name": "lotteryPoolType",
      "outputs": [
        {
          "internalType": "uint256",
          "name": "",
          "type": "uint256"
        }
      ],
      "stateMutability": "view",
      "type": "function"
    },
    {
      "inputs": [],
      "name": "minProfit",
      "outputs": [
        {
          "internalType": "uint256",
          "name": "",
          "type": "uint256"
        }
      ],
      "stateMutability": "view",
      "type": "function"
    },
    {
      "inputs": [],
      "name": "nft",
      "outputs": [
        {
          "internalType": "address",
          "name": "addr",
          "type": "address"
        },
        {
          "internalType": "uint256",
          "name": "index",
          "type": "uint256"
        }
      ],
      "stateMutability": "view",
      "type": "function"
    },
    {
      "inputs": [],
      "name": "numberOfTickets",
      "outputs": [
        {
          "internalType": "uint256",
          "name": "",
          "type": "uint256"
        }
      ],
      "stateMutability": "view",
      "type": "function"
    },
    {
      "inputs": [],
      "name": "owner",
      "outputs": [
        {
          "internalType": "address",
          "name": "",
          "type": "address"
        }
      ],
      "stateMutability": "view",
      "type": "function"
    },
    {
      "inputs": [
        {
          "internalType": "uint256",
          "name": "",
          "type": "uint256"
        }
      ],
      "name": "players",
      "outputs": [
        {
          "internalType": "address",
          "name": "",
          "type": "address"
        }
      ],
      "stateMutability": "view",
      "type": "function"
    },
    {
      "inputs": [],
      "name": "profit",
      "outputs": [
        {
          "internalType": "uint256",
          "name": "",
          "type": "uint256"
        }
      ],
      "stateMutability": "view",
      "type": "function"
    },
    {
      "inputs": [],
      "name": "redeemProfit",
      "outputs": [],
      "stateMutability": "nonpayable",
      "type": "function"
    },
    {
      "inputs": [
        {
          "internalType": "uint256",
          "name": "_numberOfTickets",
          "type": "uint256"
        }
      ],
      "name": "redeemTickets",
      "outputs": [],
      "stateMutability": "nonpayable",
      "type": "function"
    },
    {
      "inputs": [],
      "name": "renounceOwnership",
      "outputs": [],
      "stateMutability": "nonpayable",
      "type": "function"
    },
    {
      "inputs": [],
      "name": "stakedAmount",
      "outputs": [
        {
          "internalType": "uint256",
          "name": "",
          "type": "uint256"
        }
      ],
      "stateMutability": "view",
      "type": "function"
    },
    {
      "inputs": [],
      "name": "status",
      "outputs": [
        {
          "internalType": "enum LotteryPoolBase.LotteryPoolStatus",
          "name": "",
          "type": "uint8"
        }
      ],
      "stateMutability": "view",
      "type": "function"
    },
    {
      "inputs": [],
      "name": "ticketPrice",
      "outputs": [
        {
          "internalType": "uint256",
          "name": "",
          "type": "uint256"
        }
      ],
      "stateMutability": "view",
      "type": "function"
    },
    {
      "inputs": [
        {
          "internalType": "address",
          "name": "_addr",
          "type": "address"
        }
      ],
      "name": "ticketsOf",
      "outputs": [
        {
          "internalType": "uint256",
          "name": "",
          "type": "uint256"
        }
      ],
      "stateMutability": "view",
      "type": "function"
    },
    {
      "inputs": [],
      "name": "totalSupply",
      "outputs": [
        {
          "internalType": "uint256",
          "name": "",
          "type": "uint256"
        }
      ],
      "stateMutability": "view",
      "type": "function"
    },
    {
      "inputs": [
        {
          "internalType": "address",
          "name": "newOwner",
          "type": "address"
        }
      ],
      "name": "transferOwnership",
      "outputs": [],
      "stateMutability": "nonpayable",
      "type": "function"
    },
    {
      "inputs": [],
      "name": "winner",
      "outputs": [
        {
          "internalType": "address",
          "name": "",
          "type": "address"
        }
      ],
      "stateMutability": "view",
      "type": "function"
    },
    {
      "stateMutability": "payable",
      "type": "receive"
    }
  ],
  "bytecode": "0x608060405234801561001057600080fd5b50600061001b61006e565b600080546001600160a01b0319166001600160a01b0383169081178255604051929350917f8be0079c531659141344cd1fd0a4f28419497f9722a3daafe3b4186f6b6457e0908290a35060018055610072565b3390565b611ebe806100816000396000f3fe60806040526004361061016a5760003560e01c8063702766fa116100d1578063a9ee6ac31161008a578063e580f47b11610064578063e580f47b146103bc578063f2fde38b146103d1578063f4fe103a146103f1578063f71d96cb14610411576101aa565b8063a9ee6ac314610372578063d10c391d14610392578063dfbf53ae146103a7576101aa565b8063702766fa146102f4578063715018a61461030957806375c81ad01461031e578063859bd0f0146103335780638da5cb5b146103485780639af1d35a1461035d576101aa565b80632f366637116101235780632f3666371461025f5780633165792614610272578063373d61321461029257806345745c10146102a757806347ccca02146102bc57806366d16cc3146102df576101aa565b806302d05d3f146101af57806312065fe0146101da5780631209b1f6146101fc57806314034bd21461021157806318160ddd14610228578063200d2ed21461023d576101aa565b366101aa577f88a5966d370b9919b20f3e2c13ff65706f196a4e32cc2c12bf57088f8852587433346040516101a0929190611809565b60405180910390a1005b600080fd5b3480156101bb57600080fd5b506101c4610431565b6040516101d191906117d1565b60405180910390f35b3480156101e657600080fd5b506101ef610440565b6040516101d19190611d70565b34801561020857600080fd5b506101ef610444565b34801561021d57600080fd5b5061022661044a565b005b34801561023457600080fd5b506101ef610914565b34801561024957600080fd5b5061025261091a565b6040516101d19190611822565b61022661026d366004611790565b610923565b34801561027e57600080fd5b506101ef61028d3660046116b1565b610b9a565b34801561029e57600080fd5b506101ef610bb5565b3480156102b357600080fd5b506101ef610bbb565b3480156102c857600080fd5b506102d1610bc1565b6040516101d1929190611809565b3480156102eb57600080fd5b506101ef610bd6565b34801561030057600080fd5b506101ef610bdc565b34801561031557600080fd5b50610226610be2565b34801561032a57600080fd5b506101ef610c6b565b34801561033f57600080fd5b50610226610c71565b34801561035457600080fd5b506101c4610e63565b34801561036957600080fd5b506101ef610e72565b34801561037e57600080fd5b5061022661038d3660046116f0565b610e78565b34801561039e57600080fd5b50610226610e94565b3480156103b357600080fd5b506101c461104d565b3480156103c857600080fd5b506101ef61105c565b3480156103dd57600080fd5b506102266103ec3660046116b1565b611062565b3480156103fd57600080fd5b5061022661040c366004611790565b611122565b34801561041d57600080fd5b506101c461042c366004611790565b6111e8565b6007546001600160a01b031681565b4790565b60055481565b6007546001600160a01b0316331461047d5760405162461bcd60e51b815260040161047490611ac0565b60405180910390fd5b600260015414156104a05760405162461bcd60e51b815260040161047490611d39565b600260018190555460408051635c975abb60e01b815290516001600160a01b0390921691635c975abb91600480820192602092909190829003018186803b1580156104ea57600080fd5b505afa1580156104fe573d6000803e3d6000fd5b505050506040513d601f19601f820116820180604052508101906105229190611770565b1561053f5760405162461bcd60e51b81526004016104749061184a565b600f546001600160a01b0316156105685760405162461bcd60e51b815260040161047490611b06565b6000600b5460ff16600381111561058f57634e487b7160e01b600052602160045260246000fd5b146105ac5760405162461bcd60e51b81526004016104749061188e565b600260009054906101000a90046001600160a01b03166001600160a01b03166399da053a6040518163ffffffff1660e01b815260040160206040518083038186803b1580156105fa57600080fd5b505afa15801561060e573d6000803e3d6000fd5b505050506040513d601f19601f8201168201806040525081019061063291906117a8565b61063f9062015180611ddf565b60085461064c9190611db3565b42101561066b5760405162461bcd60e51b815260040161047490611b7d565b600954600a5460405163020604bf60e21b815230926001600160a01b03169163081812fc9161069d9190600401611d70565b60206040518083038186803b1580156106b557600080fd5b505afa1580156106c9573d6000803e3d6000fd5b505050506040513d601f19601f820116820180604052508101906106ed91906116d4565b6001600160a01b0316146107135760405162461bcd60e51b815260040161047490611cba565b61071b611212565b600f80546001600160a01b0319166001600160a01b03928316179055600b8054600260ff199091168117909155546040805163be74264d60e01b81529051600093929092169163be74264d91600481810192602092909190829003018186803b15801561078757600080fd5b505afa15801561079b573d6000803e3d6000fd5b505050506040513d601f19601f820116820180604052508101906107bf91906117a8565b90506064816010546107d19190611ddf565b6107db9190611dcb565b6010546107e89190611dfe565b6012556010546107f89047611dfe565b6064826010546108089190611ddf565b6108129190611dcb565b61081c9190611db3565b60145561082761128e565b600954600754600f54600a546040516323b872dd60e01b81526001600160a01b03948516946323b872dd9461086594908216939116916004016117e5565b600060405180830381600087803b15801561087f57600080fd5b505af1158015610893573d6000803e3d6000fd5b505060025460048054600f5460125460145460405163bdafb1ff60e01b81526001600160a01b03968716985063bdafb1ff97506108db96949593909416939192909101611d79565b600060405180830381600087803b1580156108f557600080fd5b505af1158015610909573d6000803e3d6000fd5b505060018055505050565b60105481565b600b5460ff1681565b600260009054906101000a90046001600160a01b03166001600160a01b0316635c975abb6040518163ffffffff1660e01b815260040160206040518083038186803b15801561097157600080fd5b505afa158015610985573d6000803e3d6000fd5b505050506040513d601f19601f820116820180604052508101906109a99190611770565b156109c65760405162461bcd60e51b81526004016104749061184a565b6000600b5460ff1660038111156109ed57634e487b7160e01b600052602160045260246000fd5b14610a0a5760405162461bcd60e51b815260040161047490611a89565b80600554610a189190611ddf565b3414610a365760405162461bcd60e51b815260040161047490611c09565b336000908152600d602052604081208054839290610a55908490611db3565b90915550600090505b81811015610aba57600e80546001810182556000919091527fbb7b4a454dc3493923482f07822329ed19e8244eff582cc204f8554c3620c3fd0180546001600160a01b0319163317905580610ab281611e15565b915050610a5e565b5080600c6000828254610acd9190611db3565b925050819055503460106000828254610ae69190611db3565b9091555050600254600480546040516319cd9bbb60e11b81526001600160a01b039093169263339b377692610b1e92913491016117c3565b600060405180830381600087803b158015610b3857600080fd5b505af1158015610b4c573d6000803e3d6000fd5b50505050336001600160a01b03167fc8c5c2b0e44fb6312c0098ec42642058527713d0a1d29a5c6ccbfe34d714d41e6004548334604051610b8f93929190611d9d565b60405180910390a250565b6001600160a01b03166000908152600d602052604090205490565b60115481565b600c5481565b600954600a546001600160a01b039091169082565b60125481565b60035481565b610bea611398565b6001600160a01b0316610bfb610e63565b6001600160a01b031614610c215760405162461bcd60e51b815260040161047490611b48565b600080546040516001600160a01b03909116907f8be0079c531659141344cd1fd0a4f28419497f9722a3daafe3b4186f6b6457e0908390a3600080546001600160a01b0319169055565b60065481565b6007546001600160a01b03163314610c9b5760405162461bcd60e51b815260040161047490611ac0565b60026001541415610cbe5760405162461bcd60e51b815260040161047490611d39565b60026001556000600b5460ff166003811115610cea57634e487b7160e01b600052602160045260246000fd5b14610d075760405162461bcd60e51b81526004016104749061188e565b60105460065411610d2a5760405162461bcd60e51b815260040161047490611a2c565b600260009054906101000a90046001600160a01b03166001600160a01b03166399da053a6040518163ffffffff1660e01b815260040160206040518083038186803b158015610d7857600080fd5b505afa158015610d8c573d6000803e3d6000fd5b505050506040513d601f19601f82011682018060405250810190610db091906117a8565b610dbd9062015180611ddf565b600854610dca9190611db3565b421015610de95760405162461bcd60e51b815260040161047490611b7d565b600b805460ff1916600317905560025460048054601454604051637978f27960e01b81526001600160a01b0390941693637978f27993610e2b939291016117c3565b600060405180830381600087803b158015610e4557600080fd5b505af1158015610e59573d6000803e3d6000fd5b5050600180555050565b6000546001600160a01b031690565b60145481565b610e8989898989898989898961139c565b505050505050505050565b60026001541415610eb75760405162461bcd60e51b815260040161047490611d39565b60026001556007546001600160a01b03163314610ee65760405162461bcd60e51b815260040161047490611ac0565b6002600b5460ff166003811115610f0d57634e487b7160e01b600052602160045260246000fd5b14610f2a5760405162461bcd60e51b815260040161047490611d02565b600060125411610f4c5760405162461bcd60e51b815260040161047490611915565b60135460ff1615610f6f5760405162461bcd60e51b8152600401610474906118d0565b6013805460ff191660011790556007546012546040516001600160a01b03909216916000918391610f9f906117c0565b60006040518083038185875af1925050503d8060008114610fdc576040519150601f19603f3d011682016040523d82523d6000602084013e610fe1565b606091505b50509050806110025760405162461bcd60e51b8152600401610474906119c7565b336001600160a01b03167f324a0fb77c2a44bad89caa2211824604eafbca8eea5d0a07b18145dff2cb590760125460405161103d9190611d70565b60405180910390a2505060018055565b600f546001600160a01b031681565b60045481565b61106a611398565b6001600160a01b031661107b610e63565b6001600160a01b0316146110a15760405162461bcd60e51b815260040161047490611b48565b6001600160a01b0381166110c75760405162461bcd60e51b815260040161047490611958565b600080546040516001600160a01b03808516939216917f8be0079c531659141344cd1fd0a4f28419497f9722a3daafe3b4186f6b6457e091a3600080546001600160a01b0319166001600160a01b0392909216919091179055565b600260015414156111455760405162461bcd60e51b815260040161047490611d39565b60026001556000600b5460ff16600381111561117157634e487b7160e01b600052602160045260246000fd5b1461118e5760405162461bcd60e51b815260040161047490611bc0565b336000908152600d6020526040902054158015906111bb5750336000908152600d60205260409020548111155b6111d75760405162461bcd60e51b815260040161047490611c83565b6111e1813361140f565b5060018055565b600e81815481106111f857600080fd5b6000918252602090912001546001600160a01b0316905081565b600e54604051600091829161122d90429044906020016117c3565b6040516020818303038152906040528051906020012060001c6112509190611e30565b9050600e818154811061127357634e487b7160e01b600052603260045260246000fd5b6000918252602090912001546001600160a01b031691505090565b6014541561139657600254604080516304ca658160e21b815290516000926001600160a01b0316916313299604916004808301926020929190829003018186803b1580156112db57600080fd5b505afa1580156112ef573d6000803e3d6000fd5b505050506040513d601f19601f8201168201806040525081019061131391906116d4565b90506000816001600160a01b0316601454604051611330906117c0565b60006040518083038185875af1925050503d806000811461136d576040519150601f19603f3d011682016040523d82523d6000602084013e611372565b606091505b50509050806113935760405162461bcd60e51b8152600401610474906119fe565b50505b565b3390565b600280546001600160a01b039a8b166001600160a01b031991821617909155600498909855600355600780549689169688169690961790955560059190915560065560098054929095169190931617909255600a55600b805460ff19908116909155600891909155601380549091169055565b60008260055461141f9190611ddf565b90508060105410156114435760405162461bcd60e51b815260040161047490611c4c565b336000908152600d602052604081208054859290611462908490611dfe565b9250508190555082600c600082825461147b9190611dfe565b9250508190555080601060008282546114949190611dfe565b909155506000905080600b5460ff1660038111156114c257634e487b7160e01b600052602160045260246000fd5b14156115825760005b600e5481101561158057836001600160a01b0316600e828154811061150057634e487b7160e01b600052603260045260246000fd5b6000918252602090912001546001600160a01b031614801561152157508482105b1561156e57600e818154811061154757634e487b7160e01b600052603260045260246000fd5b600091825260209091200180546001600160a01b031916905561156b600183611db3565b91505b8061157881611e15565b9150506114cb565b505b60025460048054604051634b826d8160e01b81526001600160a01b0390931692634b826d81926115b592918791016117c3565b600060405180830381600087803b1580156115cf57600080fd5b505af11580156115e3573d6000803e3d6000fd5b505050506000836001600160a01b031683604051611600906117c0565b60006040518083038185875af1925050503d806000811461163d576040519150601f19603f3d011682016040523d82523d6000602084013e611642565b606091505b50509050806116635760405162461bcd60e51b81526004016104749061199e565b836001600160a01b03167fb7029a2e3425140d13e631737cd4269675a18664ebe4356d84ea6943db82165860045487866040516116a293929190611d9d565b60405180910390a25050505050565b6000602082840312156116c2578081fd5b81356116cd81611e70565b9392505050565b6000602082840312156116e5578081fd5b81516116cd81611e70565b60008060008060008060008060006101208a8c03121561170e578485fd5b893561171981611e70565b985060208a0135975060408a013561173081611e70565b965060608a013561174081611e70565b989b979a50959860808101359760a0820135975060c0820135965060e08201359550610100909101359350915050565b600060208284031215611781578081fd5b815180151581146116cd578182fd5b6000602082840312156117a1578081fd5b5035919050565b6000602082840312156117b9578081fd5b5051919050565b90565b918252602082015260400190565b6001600160a01b0391909116815260200190565b6001600160a01b039384168152919092166020820152604081019190915260600190565b6001600160a01b03929092168252602082015260400190565b602081016004831061184457634e487b7160e01b600052602160045260246000fd5b91905290565b60208082526024908201527f50726f746f636f6c20686173206265656e2070617573656420627920736563756040820152637269747960e01b606082015260800190565b60208082526022908201527f546865206c6f747465727920706f6f6c20697320616c726561647920636c6f73604082015261195960f21b606082015260800190565b60208082526025908201527f5061796d656e7420616c7265616479207472616e73666572656420746f20637260408201526432b0ba37b960d91b606082015260800190565b60208082526023908201527f4e6f7468696e6720746f207472616e736665722c2070726f666974206973207a60408201526265726f60e81b606082015260800190565b60208082526026908201527f4f776e61626c653a206e6577206f776e657220697320746865207a65726f206160408201526564647265737360d01b606082015260800190565b6020808252600f908201526e151c985b9cd9995c8819985a5b1959608a1b604082015260600190565b6020808252601a908201527f5472616e7366657220746f2063726561746f72206661696c6564000000000000604082015260600190565b602080825260149082015273151c985b9cd9995c881999595cc819985a5b195960621b604082015260600190565b6020808252603a908201527f43616e6e6f742063616e63656c206c6f74746572792e20546865206d696e696d60408201527f756d20616d6f756e7420686173206265656e2072656163686564000000000000606082015260800190565b6020808252601c908201527f546865206c6f747465727920706f6f6c206973206e6f74206f70656e00000000604082015260600190565b60208082526026908201527f4f6e6c7920706f6f6c2063726561746f722063616e2063616c6c2074686973206040820152651b595d1a1bd960d21b606082015260800190565b60208082526022908201527f412077696e6e65722068617320616c7265616479206265656e206465636c6172604082015261195960f21b606082015260800190565b6020808252818101527f4f776e61626c653a2063616c6c6572206973206e6f7420746865206f776e6572604082015260600190565b60208082526023908201527f596f75206d757374207761697420746865206d696e696d756d206f70656e206460408201526261797360e81b606082015260800190565b60208082526029908201527f43616e6e6f742072656465656d2066726f6d2061207374616e6461726420636c6040820152681bdcd959081c1bdbdb60ba1b606082015260800190565b60208082526023908201527f416d6f756e742073656e7420697320646966666572656e74207468616e20707260408201526269636560e81b606082015260800190565b6020808252601f908201527f4e6f7420656e6f756768206d6f6e657920696e207468652062616c616e636500604082015260600190565b6020808252601e908201527f596f7520646f206e6f74206861766520656e6f756768207469636b6574730000604082015260600190565b60208082526028908201527f436f6e7472616374206973206e6f7420617070726f76656420746f207472616e6040820152671cd9995c8813919560c21b606082015260800190565b6020808252601e908201527f546865206c6f747465727920706f6f6c206973206e6f7420636c6f7365640000604082015260600190565b6020808252601f908201527f5265656e7472616e637947756172643a207265656e7472616e742063616c6c00604082015260600190565b90815260200190565b9384526001600160a01b039290921660208401526040830152606082015260800190565b9283526020830191909152604082015260600190565b60008219821115611dc657611dc6611e44565b500190565b600082611dda57611dda611e5a565b500490565b6000816000190483118215151615611df957611df9611e44565b500290565b600082821015611e1057611e10611e44565b500390565b6000600019821415611e2957611e29611e44565b5060010190565b600082611e3f57611e3f611e5a565b500690565b634e487b7160e01b600052601160045260246000fd5b634e487b7160e01b600052601260045260246000fd5b6001600160a01b0381168114611e8557600080fd5b5056fea26469706673582212200783d2982bfdbe4859c390b442a32d78124685ccc843a16f0c4c1765a66f12f764736f6c63430008000033",
  "linkReferences": {},
  "deployedLinkReferences": {}
}