{
  "_format": "hh-sol-artifact-1",
  "contractName": "CompoundStakingAdapter",
  "sourceName": "contracts/adapters/CompoundStakingAdapter.sol",
  "abi": [
    {
      "inputs": [
        {
          "internalType": "address",
          "name": "_cEthAddress",
          "type": "address"
        }
      ],
      "stateMutability": "nonpayable",
      "type": "constructor"
    },
    {
      "inputs": [],
      "name": "deposit",
      "outputs": [],
      "stateMutability": "payable",
      "type": "function"
    },
    {
      "inputs": [
        {
          "internalType": "address",
          "name": "_addr",
          "type": "address"
        }
      ],
      "name": "getAllowance",
      "outputs": [
        {
          "internalType": "uint256",
          "name": "",
          "type": "uint256"
        }
      ],
      "stateMutability": "view",
      "type": "function"
    },
    {
      "inputs": [],
      "name": "getApprovalData",
      "outputs": [
        {
          "internalType": "address",
          "name": "",
          "type": "address"
        },
        {
          "internalType": "address",
          "name": "",
          "type": "address"
        }
      ],
      "stateMutability": "view",
      "type": "function"
    },
    {
      "inputs": [
        {
          "internalType": "address",
          "name": "_addr",
          "type": "address"
        }
      ],
      "name": "getStakedAmount",
      "outputs": [
        {
          "internalType": "uint256",
          "name": "",
          "type": "uint256"
        }
      ],
      "stateMutability": "view",
      "type": "function"
    },
    {
      "inputs": [],
      "name": "getWithdrawData",
      "outputs": [
        {
          "internalType": "address[5]",
          "name": "",
          "type": "address[5]"
        }
      ],
      "stateMutability": "view",
      "type": "function"
    },
    {
      "inputs": [],
      "name": "kk",
      "outputs": [
        {
          "internalType": "uint256",
          "name": "",
          "type": "uint256"
        }
      ],
      "stateMutability": "view",
      "type": "function"
    },
    {
      "inputs": [
        {
          "internalType": "address[5]",
          "name": "_data",
          "type": "address[5]"
        }
      ],
      "name": "withdraw",
      "outputs": [
        {
          "internalType": "uint256",
          "name": "",
          "type": "uint256"
        }
      ],
      "stateMutability": "nonpayable",
      "type": "function"
    }
  ],
  "bytecode": "0x608060405234801561001057600080fd5b5060405161071e38038061071e83398101604081905261002f91610054565b600080546001600160a01b0319166001600160a01b0392909216919091179055610082565b600060208284031215610065578081fd5b81516001600160a01b038116811461007b578182fd5b9392505050565b61068d806100916000396000f3fe6080604052600436106100705760003560e01c8063b213ed181161004e578063b213ed18146100e3578063d0e30db014610105578063d9e71e851461010f578063eb5a662e1461012f57610070565b80633779c39e146100755780634da6a556146100a0578063a13be877146100c0575b600080fd5b34801561008157600080fd5b5061008a61014f565b6040516100979190610638565b60405180910390f35b3480156100ac57600080fd5b5061008a6100bb3660046104ba565b610153565b3480156100cc57600080fd5b506100d561021d565b604051610097929190610591565b3480156100ef57600080fd5b506100f861022d565b60405161009791906105ab565b61010d61026e565b005b34801561011b57600080fd5b5061008a61012a3660046104db565b6102d7565b34801561013b57600080fd5b5061008a61014a3660046104ba565b6103eb565b4790565b60006101936040518060400160405280601881526020017f616161616161616161616161616161616161616161616161000000000000000081525061041e565b600080546040516370a0823160e01b81526001600160a01b03909116906370a08231906101c490869060040161057d565b60206040518083038186803b1580156101dc57600080fd5b505afa1580156101f0573d6000803e3d6000fd5b505050506040513d601f19601f820116820180604052508101906102149190610565565b9150505b919050565b6000546001600160a01b03168091565b610235610485565b506040805160a081018252600080546001600160a01b031682526020820181905291810182905260608101829052608081019190915290565b60008054906101000a90046001600160a01b03166001600160a01b0316631249c58b346040518263ffffffff1660e01b81526004016000604051808303818588803b1580156102bc57600080fd5b505af11580156102d0573d6000803e3d6000fd5b5050505050565b80516040516370a0823160e01b815260009182916001600160a01b03909116906370a082319061030b90309060040161057d565b60206040518083038186803b15801561032357600080fd5b505afa158015610337573d6000803e3d6000fd5b505050506040513d601f19601f8201168201806040525081019061035b9190610565565b835160405163db006a7560e01b81529192506000916001600160a01b039091169063db006a7590610390908590600401610638565b602060405180830381600087803b1580156103aa57600080fd5b505af11580156103be573d6000803e3d6000fd5b505050506040513d601f19601f820116820180604052508101906103e29190610565565b50909392505050565b60008054604051636eb1769f60e11b815282916001600160a01b03169063dd62ed3e906101c49086908490600401610591565b6104618160405160240161043291906105e5565b60408051601f198184030181529190526020810180516001600160e01b031663104c13eb60e21b179052610464565b50565b80516a636f6e736f6c652e6c6f67602083016000808483855afa5050505050565b6040518060a001604052806005906020820280368337509192915050565b80356001600160a01b038116811461021857600080fd5b6000602082840312156104cb578081fd5b6104d4826104a3565b9392505050565b600060a082840312156104ec578081fd5b82601f8301126104fa578081fd5b60405160a0810181811067ffffffffffffffff8211171561051d5761051d610641565b604052808360a08101861015610531578384fd5b835b600581101561055a57610545826104a3565b83526020928301929190910190600101610533565b509195945050505050565b600060208284031215610576578081fd5b5051919050565b6001600160a01b0391909116815260200190565b6001600160a01b0392831681529116602082015260400190565b60a08101818360005b60058110156105dc5781516001600160a01b03168352602092830192909101906001016105b4565b50505092915050565b6000602080835283518082850152825b81811015610611578581018301518582016040015282016105f5565b818111156106225783604083870101525b50601f01601f1916929092016040019392505050565b90815260200190565b634e487b7160e01b600052604160045260246000fdfea2646970667358221220b12d68e5a885a0b511cc9b6e8d8a048776f872f8f59456fc91f5a0583c9f12d364736f6c63430008000033",
  "linkReferences": {},
  "deployedLinkReferences": {}
}