{
  "_format": "hh-sol-artifact-1",
  "contractName": "CompoundStakingAdapter",
  "sourceName": "contracts/adapters/CompoundStakingAdapter.sol",
  "abi": [
    {
      "inputs": [
        {
          "internalType": "address",
          "name": "_cEthAddress",
          "type": "address"
        }
      ],
      "stateMutability": "nonpayable",
      "type": "constructor"
    },
    {
      "inputs": [
        {
          "internalType": "address[5]",
          "name": "_data",
          "type": "address[5]"
        }
      ],
      "name": "deposit",
      "outputs": [],
      "stateMutability": "nonpayable",
      "type": "function"
    },
    {
      "inputs": [
        {
          "internalType": "address",
          "name": "_addr",
          "type": "address"
        }
      ],
      "name": "getAllowance",
      "outputs": [
        {
          "internalType": "uint256",
          "name": "",
          "type": "uint256"
        }
      ],
      "stateMutability": "view",
      "type": "function"
    },
    {
      "inputs": [],
      "name": "getApprovalData",
      "outputs": [
        {
          "internalType": "address",
          "name": "",
          "type": "address"
        },
        {
          "internalType": "address",
          "name": "",
          "type": "address"
        }
      ],
      "stateMutability": "view",
      "type": "function"
    },
    {
      "inputs": [
        {
          "internalType": "address",
          "name": "_addr",
          "type": "address"
        }
      ],
      "name": "getStakedAmount",
      "outputs": [
        {
          "internalType": "uint256",
          "name": "",
          "type": "uint256"
        }
      ],
      "stateMutability": "view",
      "type": "function"
    },
    {
      "inputs": [],
      "name": "getWithdrawData",
      "outputs": [
        {
          "internalType": "address[5]",
          "name": "",
          "type": "address[5]"
        }
      ],
      "stateMutability": "view",
      "type": "function"
    },
    {
      "inputs": [
        {
          "internalType": "address[5]",
          "name": "_data",
          "type": "address[5]"
        }
      ],
      "name": "withdraw",
      "outputs": [
        {
          "internalType": "uint256",
          "name": "",
          "type": "uint256"
        }
      ],
      "stateMutability": "nonpayable",
      "type": "function"
    }
  ],
  "bytecode": "0x608060405234801561001057600080fd5b506040516105b53803806105b583398101604081905261002f91610054565b600080546001600160a01b0319166001600160a01b0392909216919091179055610082565b600060208284031215610065578081fd5b81516001600160a01b038116811461007b578182fd5b9392505050565b610524806100916000396000f3fe608060405234801561001057600080fd5b50600436106100625760003560e01c80634da6a55614610067578063a13be87714610090578063b213ed18146100a6578063d9e71e85146100bb578063eb5a662e146100ce578063ef3b55ab146100e1575b600080fd5b61007a6100753660046103a4565b6100f6565b60405161008791906104cf565b60405180910390f35b610098610180565b60405161008792919061047b565b6100ae610190565b6040516100879190610495565b61007a6100c93660046103c5565b6101d1565b61007a6100dc3660046103a4565b6102de565b6100f46100ef3660046103c5565b610311565b005b600080546040516370a0823160e01b815282916001600160a01b0316906370a0823190610127908690600401610467565b60206040518083038186803b15801561013f57600080fd5b505afa158015610153573d6000803e3d6000fd5b505050506040513d601f19601f82011682018060405250810190610177919061044f565b9150505b919050565b6000546001600160a01b03168091565b61019861036f565b506040805160a081018252600080546001600160a01b031682526020820181905291810182905260608101829052608081019190915290565b80516040516370a0823160e01b815260009182916001600160a01b03909116906370a0823190610205903090600401610467565b60206040518083038186803b15801561021d57600080fd5b505afa158015610231573d6000803e3d6000fd5b505050506040513d601f19601f82011682018060405250810190610255919061044f565b835160405163db006a7560e01b81529192506001600160a01b03169063db006a75906102859084906004016104cf565b602060405180830381600087803b15801561029f57600080fd5b505af11580156102b3573d6000803e3d6000fd5b505050506040513d601f19601f820116820180604052508101906102d7919061044f565b5092915050565b60008054604051636eb1769f60e11b815282916001600160a01b03169063dd62ed3e90610127908690849060040161047b565b80600060200201516001600160a01b0316631249c58b476040518263ffffffff1660e01b81526004016000604051808303818588803b15801561035357600080fd5b505af1158015610367573d6000803e3d6000fd5b505050505050565b6040518060a001604052806005906020820280368337509192915050565b80356001600160a01b038116811461017b57600080fd5b6000602082840312156103b5578081fd5b6103be8261038d565b9392505050565b600060a082840312156103d6578081fd5b82601f8301126103e4578081fd5b60405160a0810181811067ffffffffffffffff82111715610407576104076104d8565b604052808360a0810186101561041b578384fd5b835b60058110156104445761042f8261038d565b8352602092830192919091019060010161041d565b509195945050505050565b600060208284031215610460578081fd5b5051919050565b6001600160a01b0391909116815260200190565b6001600160a01b0392831681529116602082015260400190565b60a08101818360005b60058110156104c65781516001600160a01b031683526020928301929091019060010161049e565b50505092915050565b90815260200190565b634e487b7160e01b600052604160045260246000fdfea2646970667358221220a04b351402a1f8f24418a61c8f41f1fb8b0bba0c3113ca672751938e60c9b12164736f6c63430008000033",
  "linkReferences": {},
  "deployedLinkReferences": {}
}