{
  "_format": "hh-sol-artifact-1",
  "contractName": "CompoundStakingAdapter",
  "sourceName": "contracts/adapters/CompoundStakingAdapter.sol",
  "abi": [
    {
      "inputs": [
        {
          "internalType": "address",
          "name": "_cEthAddress",
          "type": "address"
        }
      ],
      "stateMutability": "nonpayable",
      "type": "constructor"
    },
    {
      "inputs": [
        {
          "internalType": "address[5]",
          "name": "_data",
          "type": "address[5]"
        }
      ],
      "name": "deposit",
      "outputs": [],
      "stateMutability": "nonpayable",
      "type": "function"
    },
    {
      "inputs": [
        {
          "internalType": "address",
          "name": "_addr",
          "type": "address"
        }
      ],
      "name": "getAllowance",
      "outputs": [
        {
          "internalType": "uint256",
          "name": "",
          "type": "uint256"
        }
      ],
      "stateMutability": "view",
      "type": "function"
    },
    {
      "inputs": [],
      "name": "getApprovalData",
      "outputs": [
        {
          "internalType": "address",
          "name": "",
          "type": "address"
        },
        {
          "internalType": "address",
          "name": "",
          "type": "address"
        }
      ],
      "stateMutability": "view",
      "type": "function"
    },
    {
      "inputs": [
        {
          "internalType": "address",
          "name": "_addr",
          "type": "address"
        }
      ],
      "name": "getStakedAmount",
      "outputs": [
        {
          "internalType": "uint256",
          "name": "",
          "type": "uint256"
        }
      ],
      "stateMutability": "view",
      "type": "function"
    },
    {
      "inputs": [],
      "name": "getWithdrawData",
      "outputs": [
        {
          "internalType": "address[5]",
          "name": "",
          "type": "address[5]"
        }
      ],
      "stateMutability": "view",
      "type": "function"
    },
    {
      "inputs": [],
      "name": "name",
      "outputs": [
        {
          "internalType": "bytes32",
          "name": "",
          "type": "bytes32"
        }
      ],
      "stateMutability": "pure",
      "type": "function"
    },
    {
      "inputs": [
        {
          "internalType": "address[5]",
          "name": "_data",
          "type": "address[5]"
        }
      ],
      "name": "withdraw",
      "outputs": [
        {
          "internalType": "uint256",
          "name": "",
          "type": "uint256"
        }
      ],
      "stateMutability": "nonpayable",
      "type": "function"
    }
  ],
  "bytecode": "0x608060405234801561001057600080fd5b506040516105e73803806105e783398101604081905261002f91610054565b600080546001600160a01b0319166001600160a01b0392909216919091179055610082565b600060208284031215610065578081fd5b81516001600160a01b038116811461007b578182fd5b9392505050565b610556806100916000396000f3fe608060405234801561001057600080fd5b506004361061007d5760003560e01c8063b213ed181161005b578063b213ed18146100c9578063d9e71e85146100de578063eb5a662e146100f1578063ef3b55ab146101045761007d565b806306fdde03146100825780634da6a556146100a0578063a13be877146100b3575b600080fd5b61008a610119565b6040516100979190610501565b60405180910390f35b61008a6100ae3660046103d6565b610128565b6100bb6101b2565b6040516100979291906104ad565b6100d16101c2565b60405161009791906104c7565b61008a6100ec3660046103f7565b610203565b61008a6100ff3660046103d6565b610310565b6101176101123660046103f7565b610343565b005b6710d3d35413d5539160c21b90565b600080546040516370a0823160e01b815282916001600160a01b0316906370a0823190610159908690600401610499565b60206040518083038186803b15801561017157600080fd5b505afa158015610185573d6000803e3d6000fd5b505050506040513d601f19601f820116820180604052508101906101a99190610481565b9150505b919050565b6000546001600160a01b03168091565b6101ca6103a1565b506040805160a081018252600080546001600160a01b031682526020820181905291810182905260608101829052608081019190915290565b80516040516370a0823160e01b815260009182916001600160a01b03909116906370a0823190610237903090600401610499565b60206040518083038186803b15801561024f57600080fd5b505afa158015610263573d6000803e3d6000fd5b505050506040513d601f19601f820116820180604052508101906102879190610481565b835160405163db006a7560e01b81529192506001600160a01b03169063db006a75906102b7908490600401610501565b602060405180830381600087803b1580156102d157600080fd5b505af11580156102e5573d6000803e3d6000fd5b505050506040513d601f19601f820116820180604052508101906103099190610481565b5092915050565b60008054604051636eb1769f60e11b815282916001600160a01b03169063dd62ed3e9061015990869084906004016104ad565b80600060200201516001600160a01b0316631249c58b476040518263ffffffff1660e01b81526004016000604051808303818588803b15801561038557600080fd5b505af1158015610399573d6000803e3d6000fd5b505050505050565b6040518060a001604052806005906020820280368337509192915050565b80356001600160a01b03811681146101ad57600080fd5b6000602082840312156103e7578081fd5b6103f0826103bf565b9392505050565b600060a08284031215610408578081fd5b82601f830112610416578081fd5b60405160a0810181811067ffffffffffffffff821117156104395761043961050a565b604052808360a0810186101561044d578384fd5b835b600581101561047657610461826103bf565b8352602092830192919091019060010161044f565b509195945050505050565b600060208284031215610492578081fd5b5051919050565b6001600160a01b0391909116815260200190565b6001600160a01b0392831681529116602082015260400190565b60a08101818360005b60058110156104f85781516001600160a01b03168352602092830192909101906001016104d0565b50505092915050565b90815260200190565b634e487b7160e01b600052604160045260246000fdfea264697066735822122038463a5666b5f5a40ec899b300604c80d99896cf1243c284539adfd318044e7c64736f6c63430008000033",
  "linkReferences": {},
  "deployedLinkReferences": {}
}