{
  "_format": "hh-sol-artifact-1",
  "contractName": "CompoundStakingAdapter",
  "sourceName": "contracts/adapters/CompoundStakingAdapter.sol",
  "abi": [
    {
      "inputs": [
        {
          "internalType": "address",
          "name": "_cEtherGateway",
          "type": "address"
        },
        {
          "internalType": "address",
          "name": "_cEthAddress",
          "type": "address"
        }
      ],
      "stateMutability": "nonpayable",
      "type": "constructor"
    },
    {
      "inputs": [],
      "name": "deposit",
      "outputs": [],
      "stateMutability": "payable",
      "type": "function"
    },
    {
      "inputs": [
        {
          "internalType": "address",
          "name": "_addr",
          "type": "address"
        }
      ],
      "name": "getAllowance",
      "outputs": [
        {
          "internalType": "uint256",
          "name": "",
          "type": "uint256"
        }
      ],
      "stateMutability": "view",
      "type": "function"
    },
    {
      "inputs": [],
      "name": "getApprovalData",
      "outputs": [
        {
          "internalType": "address",
          "name": "",
          "type": "address"
        },
        {
          "internalType": "address",
          "name": "",
          "type": "address"
        }
      ],
      "stateMutability": "view",
      "type": "function"
    },
    {
      "inputs": [
        {
          "internalType": "address",
          "name": "_addr",
          "type": "address"
        }
      ],
      "name": "getStakedAmount",
      "outputs": [
        {
          "internalType": "uint256",
          "name": "",
          "type": "uint256"
        }
      ],
      "stateMutability": "view",
      "type": "function"
    },
    {
      "inputs": [],
      "name": "getWithdrawData",
      "outputs": [
        {
          "internalType": "address[5]",
          "name": "",
          "type": "address[5]"
        }
      ],
      "stateMutability": "view",
      "type": "function"
    },
    {
      "inputs": [
        {
          "internalType": "address[5]",
          "name": "_data",
          "type": "address[5]"
        }
      ],
      "name": "withdraw",
      "outputs": [
        {
          "internalType": "uint256",
          "name": "",
          "type": "uint256"
        }
      ],
      "stateMutability": "nonpayable",
      "type": "function"
    }
  ],
  "bytecode": "0x608060405234801561001057600080fd5b506040516105f73803806105f783398101604081905261002f9161007c565b600080546001600160a01b039384166001600160a01b031991821617909155600180549290931691161790556100ae565b80516001600160a01b038116811461007757600080fd5b919050565b6000806040838503121561008e578182fd5b61009783610060565b91506100a560208401610060565b90509250929050565b61053a806100bd6000396000f3fe6080604052600436106100555760003560e01c80634da6a5561461005a578063a13be87714610090578063b213ed18146100b3578063d0e30db0146100d5578063d9e71e85146100df578063eb5a662e146100ff575b600080fd5b34801561006657600080fd5b5061007a6100753660046103ba565b61011f565b60405161008791906104e5565b60405180910390f35b34801561009c57600080fd5b506100a56101ad565b604051610087929190610491565b3480156100bf57600080fd5b506100c86101bf565b60405161008791906104ab565b6100dd610201565b005b3480156100eb57600080fd5b5061007a6100fa3660046103db565b61026a565b34801561010b57600080fd5b5061007a61011a3660046103ba565b61037f565b6001546040516370a0823160e01b815260009182916001600160a01b03909116906370a082319061015490869060040161047d565b60206040518083038186803b15801561016c57600080fd5b505afa158015610180573d6000803e3d6000fd5b505050506040513d601f19601f820116820180604052508101906101a49190610465565b9150505b919050565b6001546001600160a01b031660009091565b6101c7610385565b506040805160a0810182526001546001600160a01b0316815260006020820181905291810182905260608101829052608081019190915290565b60008054906101000a90046001600160a01b03166001600160a01b0316631249c58b346040518263ffffffff1660e01b81526004016000604051808303818588803b15801561024f57600080fd5b505af1158015610263573d6000803e3d6000fd5b5050505050565b80516040516370a0823160e01b815260009182916001600160a01b03909116906370a082319061029e90309060040161047d565b60206040518083038186803b1580156102b657600080fd5b505afa1580156102ca573d6000803e3d6000fd5b505050506040513d601f19601f820116820180604052508101906102ee9190610465565b6000805460405163db006a7560e01b815292935090916001600160a01b039091169063db006a75906103249085906004016104e5565b602060405180830381600087803b15801561033e57600080fd5b505af1158015610352573d6000803e3d6000fd5b505050506040513d601f19601f820116820180604052508101906103769190610465565b50909392505050565b50600090565b6040518060a001604052806005906020820280368337509192915050565b80356001600160a01b03811681146101a857600080fd5b6000602082840312156103cb578081fd5b6103d4826103a3565b9392505050565b600060a082840312156103ec578081fd5b82601f8301126103fa578081fd5b60405160a0810181811067ffffffffffffffff8211171561041d5761041d6104ee565b604052808360a08101861015610431578384fd5b835b600581101561045a57610445826103a3565b83526020928301929190910190600101610433565b509195945050505050565b600060208284031215610476578081fd5b5051919050565b6001600160a01b0391909116815260200190565b6001600160a01b0392831681529116602082015260400190565b60a08101818360005b60058110156104dc5781516001600160a01b03168352602092830192909101906001016104b4565b50505092915050565b90815260200190565b634e487b7160e01b600052604160045260246000fdfea26469706673582212208d88ec8c9620295a32f4513c45f6bff587779379bafc12db7d1effcaa72a280864736f6c63430008000033",
  "linkReferences": {},
  "deployedLinkReferences": {}
}