{
  "_format": "hh-sol-artifact-1",
  "contractName": "StandardLotteryPool",
  "sourceName": "contracts/StandardLotteryPool.sol",
  "abi": [
    {
      "inputs": [
        {
          "internalType": "uint256",
          "name": "_lotteryId",
          "type": "uint256"
        },
        {
          "internalType": "address",
          "name": "_creator",
          "type": "address"
        },
        {
          "internalType": "address",
          "name": "_nftAddress",
          "type": "address"
        },
        {
          "internalType": "uint256",
          "name": "_nftIndex",
          "type": "uint256"
        },
        {
          "internalType": "uint256",
          "name": "_ticketPrice",
          "type": "uint256"
        },
        {
          "internalType": "uint256",
          "name": "_minProfit",
          "type": "uint256"
        },
        {
          "internalType": "uint256",
          "name": "_created",
          "type": "uint256"
        }
      ],
      "stateMutability": "nonpayable",
      "type": "constructor"
    },
    {
      "anonymous": false,
      "inputs": [
        {
          "indexed": true,
          "internalType": "address",
          "name": "creator",
          "type": "address"
        },
        {
          "indexed": false,
          "internalType": "uint256",
          "name": "paymentToCreator",
          "type": "uint256"
        }
      ],
      "name": "CreatorPaymentTransfered",
      "type": "event"
    },
    {
      "anonymous": false,
      "inputs": [
        {
          "indexed": true,
          "internalType": "address",
          "name": "previousOwner",
          "type": "address"
        },
        {
          "indexed": true,
          "internalType": "address",
          "name": "newOwner",
          "type": "address"
        }
      ],
      "name": "OwnershipTransferred",
      "type": "event"
    },
    {
      "anonymous": false,
      "inputs": [
        {
          "indexed": false,
          "internalType": "address",
          "name": "addr",
          "type": "address"
        },
        {
          "indexed": false,
          "internalType": "uint256",
          "name": "amount",
          "type": "uint256"
        }
      ],
      "name": "Received",
      "type": "event"
    },
    {
      "anonymous": false,
      "inputs": [
        {
          "indexed": false,
          "internalType": "uint256",
          "name": "lotteryId",
          "type": "uint256"
        },
        {
          "indexed": true,
          "internalType": "address",
          "name": "buyer",
          "type": "address"
        },
        {
          "indexed": false,
          "internalType": "uint256",
          "name": "numberOfTickets",
          "type": "uint256"
        },
        {
          "indexed": false,
          "internalType": "uint256",
          "name": "amount",
          "type": "uint256"
        }
      ],
      "name": "TicketsBought",
      "type": "event"
    },
    {
      "anonymous": false,
      "inputs": [
        {
          "indexed": false,
          "internalType": "uint256",
          "name": "lotteryId",
          "type": "uint256"
        },
        {
          "indexed": true,
          "internalType": "address",
          "name": "buyer",
          "type": "address"
        },
        {
          "indexed": false,
          "internalType": "uint256",
          "name": "numberOfTickets",
          "type": "uint256"
        },
        {
          "indexed": false,
          "internalType": "uint256",
          "name": "amount",
          "type": "uint256"
        }
      ],
      "name": "TicketsRedeemed",
      "type": "event"
    },
    {
      "inputs": [
        {
          "internalType": "uint256",
          "name": "_numberOfTickets",
          "type": "uint256"
        }
      ],
      "name": "buyTickets",
      "outputs": [],
      "stateMutability": "payable",
      "type": "function"
    },
    {
      "inputs": [],
      "name": "cancelLottery",
      "outputs": [],
      "stateMutability": "nonpayable",
      "type": "function"
    },
    {
      "inputs": [],
      "name": "creator",
      "outputs": [
        {
          "internalType": "address",
          "name": "",
          "type": "address"
        }
      ],
      "stateMutability": "view",
      "type": "function"
    },
    {
      "inputs": [],
      "name": "declareWinner",
      "outputs": [],
      "stateMutability": "nonpayable",
      "type": "function"
    },
    {
      "inputs": [],
      "name": "fees",
      "outputs": [
        {
          "internalType": "uint256",
          "name": "",
          "type": "uint256"
        }
      ],
      "stateMutability": "view",
      "type": "function"
    },
    {
      "inputs": [],
      "name": "getBalance",
      "outputs": [
        {
          "internalType": "uint256",
          "name": "",
          "type": "uint256"
        }
      ],
      "stateMutability": "view",
      "type": "function"
    },
    {
      "inputs": [],
      "name": "lotteryId",
      "outputs": [
        {
          "internalType": "uint256",
          "name": "",
          "type": "uint256"
        }
      ],
      "stateMutability": "view",
      "type": "function"
    },
    {
      "inputs": [],
      "name": "lotteryPoolType",
      "outputs": [
        {
          "internalType": "enum ILotteryPool.LotteryPoolType",
          "name": "",
          "type": "uint8"
        }
      ],
      "stateMutability": "view",
      "type": "function"
    },
    {
      "inputs": [],
      "name": "minProfit",
      "outputs": [
        {
          "internalType": "uint256",
          "name": "",
          "type": "uint256"
        }
      ],
      "stateMutability": "view",
      "type": "function"
    },
    {
      "inputs": [],
      "name": "nft",
      "outputs": [
        {
          "internalType": "address",
          "name": "addr",
          "type": "address"
        },
        {
          "internalType": "uint256",
          "name": "index",
          "type": "uint256"
        }
      ],
      "stateMutability": "view",
      "type": "function"
    },
    {
      "inputs": [],
      "name": "numberOfTickets",
      "outputs": [
        {
          "internalType": "uint256",
          "name": "",
          "type": "uint256"
        }
      ],
      "stateMutability": "view",
      "type": "function"
    },
    {
      "inputs": [],
      "name": "owner",
      "outputs": [
        {
          "internalType": "address",
          "name": "",
          "type": "address"
        }
      ],
      "stateMutability": "view",
      "type": "function"
    },
    {
      "inputs": [
        {
          "internalType": "uint256",
          "name": "",
          "type": "uint256"
        }
      ],
      "name": "players",
      "outputs": [
        {
          "internalType": "address",
          "name": "",
          "type": "address"
        }
      ],
      "stateMutability": "view",
      "type": "function"
    },
    {
      "inputs": [],
      "name": "profit",
      "outputs": [
        {
          "internalType": "uint256",
          "name": "",
          "type": "uint256"
        }
      ],
      "stateMutability": "view",
      "type": "function"
    },
    {
      "inputs": [],
      "name": "redeemProfit",
      "outputs": [],
      "stateMutability": "nonpayable",
      "type": "function"
    },
    {
      "inputs": [
        {
          "internalType": "uint256",
          "name": "_numberOfTickets",
          "type": "uint256"
        }
      ],
      "name": "redeemTickets",
      "outputs": [],
      "stateMutability": "nonpayable",
      "type": "function"
    },
    {
      "inputs": [],
      "name": "renounceOwnership",
      "outputs": [],
      "stateMutability": "nonpayable",
      "type": "function"
    },
    {
      "inputs": [],
      "name": "stakedAmount",
      "outputs": [
        {
          "internalType": "uint256",
          "name": "",
          "type": "uint256"
        }
      ],
      "stateMutability": "view",
      "type": "function"
    },
    {
      "inputs": [],
      "name": "status",
      "outputs": [
        {
          "internalType": "enum ILotteryPool.LotteryPoolStatus",
          "name": "",
          "type": "uint8"
        }
      ],
      "stateMutability": "view",
      "type": "function"
    },
    {
      "inputs": [],
      "name": "ticketPrice",
      "outputs": [
        {
          "internalType": "uint256",
          "name": "",
          "type": "uint256"
        }
      ],
      "stateMutability": "view",
      "type": "function"
    },
    {
      "inputs": [
        {
          "internalType": "address",
          "name": "_addr",
          "type": "address"
        }
      ],
      "name": "ticketsOf",
      "outputs": [
        {
          "internalType": "uint256",
          "name": "",
          "type": "uint256"
        }
      ],
      "stateMutability": "view",
      "type": "function"
    },
    {
      "inputs": [],
      "name": "totalSupply",
      "outputs": [
        {
          "internalType": "uint256",
          "name": "",
          "type": "uint256"
        }
      ],
      "stateMutability": "view",
      "type": "function"
    },
    {
      "inputs": [
        {
          "internalType": "address",
          "name": "newOwner",
          "type": "address"
        }
      ],
      "name": "transferOwnership",
      "outputs": [],
      "stateMutability": "nonpayable",
      "type": "function"
    },
    {
      "inputs": [],
      "name": "winner",
      "outputs": [
        {
          "internalType": "address",
          "name": "",
          "type": "address"
        }
      ],
      "stateMutability": "view",
      "type": "function"
    },
    {
      "stateMutability": "payable",
      "type": "receive"
    }
  ],
  "bytecode": "0x60806040523480156200001157600080fd5b506040516200206d3803806200206d833981016040819052620000349162000197565b868686868686866000806200004862000167565b600080546001600160a01b0319166001600160a01b0383169081178255604051929350917f8be0079c531659141344cd1fd0a4f28419497f9722a3daafe3b4186f6b6457e0908290a35060018055620000a06200016b565b600280546001600160a01b0319166001600160a01b03929092169190911780825560038a905582919060ff60a01b1916600160a01b836001811115620000f657634e487b7160e01b600052602160045260246000fd5b021790555050600680546001600160a01b03199081166001600160a01b0398891617909155600493909355600591909155600880549092169390941692909217909155600955600a805460ff1990811690915560079190915560128054909116905550620001fe9650505050505050565b3390565b6000546001600160a01b031690565b80516001600160a01b03811681146200019257600080fd5b919050565b600080600080600080600060e0888a031215620001b2578283fd5b87519650620001c4602089016200017a565b9550620001d4604089016200017a565b9450606088015193506080880151925060a0880151915060c0880151905092959891949750929550565b611e5f806200020e6000396000f3fe60806040526004361061014f5760003560e01c8063702766fa116100b6578063d10c391d1161006f578063d10c391d14610364578063dfbf53ae14610379578063e580f47b1461038e578063f2fde38b146103a3578063f4fe103a146103c3578063f71d96cb146103e35761018f565b8063702766fa146102d9578063715018a6146102fb57806375c81ad014610310578063859bd0f0146103255780638da5cb5b1461033a5780639af1d35a1461034f5761018f565b80632f366637116101085780632f366637146102445780633165792614610257578063373d61321461027757806345745c101461028c57806347ccca02146102a157806366d16cc3146102c45761018f565b806302d05d3f1461019457806312065fe0146101bf5780631209b1f6146101e157806314034bd2146101f657806318160ddd1461020d578063200d2ed2146102225761018f565b3661018f577f88a5966d370b9919b20f3e2c13ff65706f196a4e32cc2c12bf57088f885258743334604051610185929190611742565b60405180910390a1005b600080fd5b3480156101a057600080fd5b506101a9610403565b6040516101b6919061170a565b60405180910390f35b3480156101cb57600080fd5b506101d4610412565b6040516101b69190611cfb565b3480156101ed57600080fd5b506101d4610416565b34801561020257600080fd5b5061020b61041c565b005b34801561021957600080fd5b506101d46108e0565b34801561022e57600080fd5b506102376108e6565b6040516101b6919061175b565b61020b6102523660046116c9565b6108ef565b34801561026357600080fd5b506101d461027236600461166a565b610b66565b34801561028357600080fd5b506101d4610b81565b34801561029857600080fd5b506101d4610b87565b3480156102ad57600080fd5b506102b6610b8d565b6040516101b6929190611742565b3480156102d057600080fd5b506101d4610ba2565b3480156102e557600080fd5b506102ee610ba8565b6040516101b69190611775565b34801561030757600080fd5b5061020b610bb8565b34801561031c57600080fd5b506101d4610c41565b34801561033157600080fd5b5061020b610c47565b34801561034657600080fd5b506101a9610e3c565b34801561035b57600080fd5b506101d4610e4b565b34801561037057600080fd5b5061020b610e51565b34801561038557600080fd5b506101a961100a565b34801561039a57600080fd5b506101d4611019565b3480156103af57600080fd5b5061020b6103be36600461166a565b61101f565b3480156103cf57600080fd5b5061020b6103de3660046116c9565b6110df565b3480156103ef57600080fd5b506101a96103fe3660046116c9565b6114b6565b6006546001600160a01b031681565b4790565b60045481565b6006546001600160a01b0316331461044f5760405162461bcd60e51b8152600401610446906119ff565b60405180910390fd5b600260015414156104725760405162461bcd60e51b815260040161044690611c78565b600260018190555460408051635c975abb60e01b815290516001600160a01b0390921691635c975abb91600480820192602092909190829003018186803b1580156104bc57600080fd5b505afa1580156104d0573d6000803e3d6000fd5b505050506040513d601f19601f820116820180604052508101906104f491906116a9565b156105115760405162461bcd60e51b815260040161044690611789565b600e546001600160a01b03161561053a5760405162461bcd60e51b815260040161044690611a45565b6000600a5460ff16600381111561056157634e487b7160e01b600052602160045260246000fd5b1461057e5760405162461bcd60e51b8152600401610446906117cd565b600260009054906101000a90046001600160a01b03166001600160a01b03166399da053a6040518163ffffffff1660e01b815260040160206040518083038186803b1580156105cc57600080fd5b505afa1580156105e0573d6000803e3d6000fd5b505050506040513d601f19601f8201168201806040525081019061060491906116e1565b6106119062015180611d6a565b60075461061e9190611d3e565b42101561063d5760405162461bcd60e51b815260040161044690611abc565b60085460095460405163020604bf60e21b815230926001600160a01b03169163081812fc9161066f9190600401611cfb565b60206040518083038186803b15801561068757600080fd5b505afa15801561069b573d6000803e3d6000fd5b505050506040513d601f19601f820116820180604052508101906106bf919061168d565b6001600160a01b0316146106e55760405162461bcd60e51b815260040161044690611bf9565b6106ed6114e0565b600e80546001600160a01b0319166001600160a01b03928316179055600a8054600260ff199091168117909155546040805163be74264d60e01b81529051600093929092169163be74264d91600481810192602092909190829003018186803b15801561075957600080fd5b505afa15801561076d573d6000803e3d6000fd5b505050506040513d601f19601f8201168201806040525081019061079191906116e1565b9050606481600f546107a39190611d6a565b6107ad9190611d56565b600f546107ba9190611d89565b601155600f546107ca9047611d89565b606482600f546107da9190611d6a565b6107e49190611d56565b6107ee9190611d3e565b6013556107f961155c565b600854600654600e546009546040516323b872dd60e01b81526001600160a01b03948516946323b872dd94610837949082169391169160040161171e565b600060405180830381600087803b15801561085157600080fd5b505af1158015610865573d6000803e3d6000fd5b5050600254600354600e5460115460135460405163bdafb1ff60e01b81526001600160a01b03958616975063bdafb1ff96506108a79590931692600401611d04565b600060405180830381600087803b1580156108c157600080fd5b505af11580156108d5573d6000803e3d6000fd5b505060018055505050565b600f5481565b600a5460ff1681565b600260009054906101000a90046001600160a01b03166001600160a01b0316635c975abb6040518163ffffffff1660e01b815260040160206040518083038186803b15801561093d57600080fd5b505afa158015610951573d6000803e3d6000fd5b505050506040513d601f19601f8201168201806040525081019061097591906116a9565b156109925760405162461bcd60e51b815260040161044690611789565b6000600a5460ff1660038111156109b957634e487b7160e01b600052602160045260246000fd5b146109d65760405162461bcd60e51b8152600401610446906119c8565b806004546109e49190611d6a565b3414610a025760405162461bcd60e51b815260040161044690611b48565b336000908152600c602052604081208054839290610a21908490611d3e565b90915550600090505b81811015610a8657600d80546001810182556000919091527fd7b6990105719101dabeb77144f2a3385c8033acd3af97e9423a695e81ad1eb50180546001600160a01b0319163317905580610a7e81611da0565b915050610a2a565b5080600b6000828254610a999190611d3e565b9250508190555034600f6000828254610ab29190611d3e565b90915550506002546003546040516319cd9bbb60e11b81526001600160a01b039092169163339b377691610aea9134906004016116fc565b600060405180830381600087803b158015610b0457600080fd5b505af1158015610b18573d6000803e3d6000fd5b50505050336001600160a01b03167fc8c5c2b0e44fb6312c0098ec42642058527713d0a1d29a5c6ccbfe34d714d41e6003548334604051610b5b93929190611d28565b60405180910390a250565b6001600160a01b03166000908152600c602052604090205490565b60105481565b600b5481565b6008546009546001600160a01b039091169082565b60115481565b600254600160a01b900460ff1681565b610bc0611666565b6001600160a01b0316610bd1610e3c565b6001600160a01b031614610bf75760405162461bcd60e51b815260040161044690611a87565b600080546040516001600160a01b03909116907f8be0079c531659141344cd1fd0a4f28419497f9722a3daafe3b4186f6b6457e0908390a3600080546001600160a01b0319169055565b60055481565b6006546001600160a01b03163314610c715760405162461bcd60e51b8152600401610446906119ff565b60026001541415610c945760405162461bcd60e51b815260040161044690611c78565b60026001556000600a5460ff166003811115610cc057634e487b7160e01b600052602160045260246000fd5b14610cdd5760405162461bcd60e51b8152600401610446906117cd565b600f5460055411610d005760405162461bcd60e51b81526004016104469061196b565b600260009054906101000a90046001600160a01b03166001600160a01b03166399da053a6040518163ffffffff1660e01b815260040160206040518083038186803b158015610d4e57600080fd5b505afa158015610d62573d6000803e3d6000fd5b505050506040513d601f19601f82011682018060405250810190610d8691906116e1565b610d939062015180611d6a565b600754610da09190611d3e565b421015610dbf5760405162461bcd60e51b815260040161044690611abc565b600a805460ff191660039081179091556002549054601354604051637978f27960e01b81526001600160a01b0390931692637978f27992610e049290916004016116fc565b600060405180830381600087803b158015610e1e57600080fd5b505af1158015610e32573d6000803e3d6000fd5b5050600180555050565b6000546001600160a01b031690565b60135481565b60026001541415610e745760405162461bcd60e51b815260040161044690611c78565b60026001556006546001600160a01b03163314610ea35760405162461bcd60e51b8152600401610446906119ff565b6002600a5460ff166003811115610eca57634e487b7160e01b600052602160045260246000fd5b14610ee75760405162461bcd60e51b815260040161044690611c41565b600060115411610f095760405162461bcd60e51b815260040161044690611854565b60125460ff1615610f2c5760405162461bcd60e51b81526004016104469061180f565b6012805460ff191660011790556006546011546040516001600160a01b03909216916000918391610f5c906116f9565b60006040518083038185875af1925050503d8060008114610f99576040519150601f19603f3d011682016040523d82523d6000602084013e610f9e565b606091505b5050905080610fbf5760405162461bcd60e51b815260040161044690611906565b336001600160a01b03167f324a0fb77c2a44bad89caa2211824604eafbca8eea5d0a07b18145dff2cb5907601154604051610ffa9190611cfb565b60405180910390a2505060018055565b600e546001600160a01b031681565b60035481565b611027611666565b6001600160a01b0316611038610e3c565b6001600160a01b03161461105e5760405162461bcd60e51b815260040161044690611a87565b6001600160a01b0381166110845760405162461bcd60e51b815260040161044690611897565b600080546040516001600160a01b03808516939216917f8be0079c531659141344cd1fd0a4f28419497f9722a3daafe3b4186f6b6457e091a3600080546001600160a01b0319166001600160a01b0392909216919091179055565b600260015414156111025760405162461bcd60e51b815260040161044690611c78565b60026001908155600a5460ff16600381111561112e57634e487b7160e01b600052602160045260246000fd5b141561114c5760405162461bcd60e51b815260040161044690611caf565b6000600254600160a01b900460ff16600181111561117a57634e487b7160e01b600052602160045260246000fd5b1480156111ab57506002600a5460ff1660038111156111a957634e487b7160e01b600052602160045260246000fd5b145b156111c85760405162461bcd60e51b815260040161044690611aff565b336000908152600c6020526040902054158015906111f55750336000908152600c60205260409020548111155b6112115760405162461bcd60e51b815260040161044690611bc2565b6000816004546112219190611d6a565b905080600f5410156112455760405162461bcd60e51b815260040161044690611b8b565b336000908152600c602052604081208054849290611264908490611d89565b9250508190555081600b600082825461127d9190611d89565b9250508190555080600f60008282546112969190611d89565b909155506000905080600a5460ff1660038111156112c457634e487b7160e01b600052602160045260246000fd5b14156113845760005b600d5481101561138257336001600160a01b0316600d828154811061130257634e487b7160e01b600052603260045260246000fd5b6000918252602090912001546001600160a01b031614801561132357508382105b1561137057600d818154811061134957634e487b7160e01b600052603260045260246000fd5b600091825260209091200180546001600160a01b031916905561136d600183611d3e565b91505b8061137a81611da0565b9150506112cd565b505b600254600354604051634b826d8160e01b81526001600160a01b0390921691634b826d81916113b79186906004016116fc565b600060405180830381600087803b1580156113d157600080fd5b505af11580156113e5573d6000803e3d6000fd5b505050506000336001600160a01b031683604051611402906116f9565b60006040518083038185875af1925050503d806000811461143f576040519150601f19603f3d011682016040523d82523d6000602084013e611444565b606091505b50509050806114655760405162461bcd60e51b8152600401610446906118dd565b336001600160a01b03167fb7029a2e3425140d13e631737cd4269675a18664ebe4356d84ea6943db82165860035486866040516114a493929190611d28565b60405180910390a25050600180555050565b600d81815481106114c657600080fd5b6000918252602090912001546001600160a01b0316905081565b600d5460405160009182916114fb90429044906020016116fc565b6040516020818303038152906040528051906020012060001c61151e9190611dbb565b9050600d818154811061154157634e487b7160e01b600052603260045260246000fd5b6000918252602090912001546001600160a01b031691505090565b6013541561166457600254604080516304ca658160e21b815290516000926001600160a01b0316916313299604916004808301926020929190829003018186803b1580156115a957600080fd5b505afa1580156115bd573d6000803e3d6000fd5b505050506040513d601f19601f820116820180604052508101906115e1919061168d565b90506000816001600160a01b03166013546040516115fe906116f9565b60006040518083038185875af1925050503d806000811461163b576040519150601f19603f3d011682016040523d82523d6000602084013e611640565b606091505b50509050806116615760405162461bcd60e51b81526004016104469061193d565b50505b565b3390565b60006020828403121561167b578081fd5b813561168681611e11565b9392505050565b60006020828403121561169e578081fd5b815161168681611e11565b6000602082840312156116ba578081fd5b81518015158114611686578182fd5b6000602082840312156116da578081fd5b5035919050565b6000602082840312156116f2578081fd5b5051919050565b90565b918252602082015260400190565b6001600160a01b0391909116815260200190565b6001600160a01b039384168152919092166020820152604081019190915260600190565b6001600160a01b03929092168252602082015260400190565b602081016004831061176f5761176f611dfb565b91905290565b602081016002831061176f5761176f611dfb565b60208082526024908201527f50726f746f636f6c20686173206265656e2070617573656420627920736563756040820152637269747960e01b606082015260800190565b60208082526022908201527f546865206c6f747465727920706f6f6c20697320616c726561647920636c6f73604082015261195960f21b606082015260800190565b60208082526025908201527f5061796d656e7420616c7265616479207472616e73666572656420746f20637260408201526432b0ba37b960d91b606082015260800190565b60208082526023908201527f4e6f7468696e6720746f207472616e736665722c2070726f666974206973207a60408201526265726f60e81b606082015260800190565b60208082526026908201527f4f776e61626c653a206e6577206f776e657220697320746865207a65726f206160408201526564647265737360d01b606082015260800190565b6020808252600f908201526e151c985b9cd9995c8819985a5b1959608a1b604082015260600190565b6020808252601a908201527f5472616e7366657220746f2063726561746f72206661696c6564000000000000604082015260600190565b602080825260149082015273151c985b9cd9995c881999595cc819985a5b195960621b604082015260600190565b6020808252603a908201527f43616e6e6f742063616e63656c206c6f74746572792e20546865206d696e696d60408201527f756d20616d6f756e7420686173206265656e2072656163686564000000000000606082015260800190565b6020808252601c908201527f546865206c6f747465727920706f6f6c206973206e6f74206f70656e00000000604082015260600190565b60208082526026908201527f4f6e6c7920706f6f6c2063726561746f722063616e2063616c6c2074686973206040820152651b595d1a1bd960d21b606082015260800190565b60208082526022908201527f412077696e6e65722068617320616c7265616479206265656e206465636c6172604082015261195960f21b606082015260800190565b6020808252818101527f4f776e61626c653a2063616c6c6572206973206e6f7420746865206f776e6572604082015260600190565b60208082526023908201527f596f75206d757374207761697420746865206d696e696d756d206f70656e206460408201526261797360e81b606082015260800190565b60208082526029908201527f43616e6e6f742072656465656d2066726f6d2061207374616e6461726420636c6040820152681bdcd959081c1bdbdb60ba1b606082015260800190565b60208082526023908201527f416d6f756e742073656e7420697320646966666572656e74207468616e20707260408201526269636560e81b606082015260800190565b6020808252601f908201527f4e6f7420656e6f756768206d6f6e657920696e207468652062616c616e636500604082015260600190565b6020808252601e908201527f596f7520646f206e6f74206861766520656e6f756768207469636b6574730000604082015260600190565b60208082526028908201527f436f6e7472616374206973206e6f7420617070726f76656420746f207472616e6040820152671cd9995c8813919560c21b606082015260800190565b6020808252601e908201527f546865206c6f747465727920706f6f6c206973206e6f7420636c6f7365640000604082015260600190565b6020808252601f908201527f5265656e7472616e637947756172643a207265656e7472616e742063616c6c00604082015260600190565b6020808252602c908201527f43616e6e6f742072656465656d207469636b65747320647572696e672073746160408201526b6b696e672070726f6365737360a01b606082015260800190565b90815260200190565b9384526001600160a01b039290921660208401526040830152606082015260800190565b9283526020830191909152604082015260600190565b60008219821115611d5157611d51611dcf565b500190565b600082611d6557611d65611de5565b500490565b6000816000190483118215151615611d8457611d84611dcf565b500290565b600082821015611d9b57611d9b611dcf565b500390565b6000600019821415611db457611db4611dcf565b5060010190565b600082611dca57611dca611de5565b500690565b634e487b7160e01b600052601160045260246000fd5b634e487b7160e01b600052601260045260246000fd5b634e487b7160e01b600052602160045260246000fd5b6001600160a01b0381168114611e2657600080fd5b5056fea2646970667358221220c689ec71c7b1f30b490f6b769e632aa49be8ccd795af97e380db0e9b6878e24d64736f6c63430008000033",
  "linkReferences": {},
  "deployedLinkReferences": {}
}