{
  "_format": "hh-sol-artifact-1",
  "contractName": "YieldLotteryPool",
  "sourceName": "contracts/YieldLotteryPool.sol",
  "abi": [
    {
      "inputs": [],
      "stateMutability": "nonpayable",
      "type": "constructor"
    },
    {
      "anonymous": false,
      "inputs": [
        {
          "indexed": true,
          "internalType": "address",
          "name": "creator",
          "type": "address"
        },
        {
          "indexed": false,
          "internalType": "uint256",
          "name": "paymentToCreator",
          "type": "uint256"
        }
      ],
      "name": "CreatorPaymentTransfered",
      "type": "event"
    },
    {
      "anonymous": false,
      "inputs": [
        {
          "indexed": true,
          "internalType": "address",
          "name": "previousOwner",
          "type": "address"
        },
        {
          "indexed": true,
          "internalType": "address",
          "name": "newOwner",
          "type": "address"
        }
      ],
      "name": "OwnershipTransferred",
      "type": "event"
    },
    {
      "anonymous": false,
      "inputs": [
        {
          "indexed": false,
          "internalType": "address",
          "name": "addr",
          "type": "address"
        },
        {
          "indexed": false,
          "internalType": "uint256",
          "name": "amount",
          "type": "uint256"
        }
      ],
      "name": "Received",
      "type": "event"
    },
    {
      "anonymous": false,
      "inputs": [
        {
          "indexed": false,
          "internalType": "uint256",
          "name": "withdrawal",
          "type": "uint256"
        }
      ],
      "name": "StakingWithdrawal",
      "type": "event"
    },
    {
      "anonymous": false,
      "inputs": [
        {
          "indexed": false,
          "internalType": "uint256",
          "name": "lotteryId",
          "type": "uint256"
        },
        {
          "indexed": true,
          "internalType": "address",
          "name": "buyer",
          "type": "address"
        },
        {
          "indexed": false,
          "internalType": "uint256",
          "name": "numberOfTickets",
          "type": "uint256"
        },
        {
          "indexed": false,
          "internalType": "uint256",
          "name": "amount",
          "type": "uint256"
        }
      ],
      "name": "TicketsBought",
      "type": "event"
    },
    {
      "anonymous": false,
      "inputs": [
        {
          "indexed": false,
          "internalType": "uint256",
          "name": "lotteryId",
          "type": "uint256"
        },
        {
          "indexed": true,
          "internalType": "address",
          "name": "buyer",
          "type": "address"
        },
        {
          "indexed": false,
          "internalType": "uint256",
          "name": "numberOfTickets",
          "type": "uint256"
        },
        {
          "indexed": false,
          "internalType": "uint256",
          "name": "amount",
          "type": "uint256"
        }
      ],
      "name": "TicketsRedeemed",
      "type": "event"
    },
    {
      "inputs": [
        {
          "internalType": "uint256",
          "name": "_numberOfTickets",
          "type": "uint256"
        }
      ],
      "name": "buyTickets",
      "outputs": [],
      "stateMutability": "payable",
      "type": "function"
    },
    {
      "inputs": [],
      "name": "cancelLottery",
      "outputs": [],
      "stateMutability": "nonpayable",
      "type": "function"
    },
    {
      "inputs": [],
      "name": "creator",
      "outputs": [
        {
          "internalType": "address",
          "name": "",
          "type": "address"
        }
      ],
      "stateMutability": "view",
      "type": "function"
    },
    {
      "inputs": [],
      "name": "declareWinner",
      "outputs": [],
      "stateMutability": "nonpayable",
      "type": "function"
    },
    {
      "inputs": [],
      "name": "fees",
      "outputs": [
        {
          "internalType": "uint256",
          "name": "",
          "type": "uint256"
        }
      ],
      "stateMutability": "view",
      "type": "function"
    },
    {
      "inputs": [],
      "name": "getBalance",
      "outputs": [
        {
          "internalType": "uint256",
          "name": "",
          "type": "uint256"
        }
      ],
      "stateMutability": "view",
      "type": "function"
    },
    {
      "inputs": [
        {
          "internalType": "address",
          "name": "_parent",
          "type": "address"
        },
        {
          "internalType": "uint256",
          "name": "_lotteryId",
          "type": "uint256"
        },
        {
          "internalType": "address",
          "name": "_creator",
          "type": "address"
        },
        {
          "internalType": "address",
          "name": "_nftAddress",
          "type": "address"
        },
        {
          "internalType": "uint256",
          "name": "_nftIndex",
          "type": "uint256"
        },
        {
          "internalType": "uint256",
          "name": "_ticketPrice",
          "type": "uint256"
        },
        {
          "internalType": "uint256",
          "name": "_minProfit",
          "type": "uint256"
        },
        {
          "internalType": "uint256",
          "name": "_created",
          "type": "uint256"
        },
        {
          "internalType": "uint256",
          "name": "_lotteryPoolType",
          "type": "uint256"
        }
      ],
      "name": "init",
      "outputs": [],
      "stateMutability": "nonpayable",
      "type": "function"
    },
    {
      "inputs": [],
      "name": "launchStaking",
      "outputs": [],
      "stateMutability": "nonpayable",
      "type": "function"
    },
    {
      "inputs": [],
      "name": "lotteryId",
      "outputs": [
        {
          "internalType": "uint256",
          "name": "",
          "type": "uint256"
        }
      ],
      "stateMutability": "view",
      "type": "function"
    },
    {
      "inputs": [],
      "name": "lotteryPoolType",
      "outputs": [
        {
          "internalType": "uint256",
          "name": "",
          "type": "uint256"
        }
      ],
      "stateMutability": "view",
      "type": "function"
    },
    {
      "inputs": [],
      "name": "minProfit",
      "outputs": [
        {
          "internalType": "uint256",
          "name": "",
          "type": "uint256"
        }
      ],
      "stateMutability": "view",
      "type": "function"
    },
    {
      "inputs": [],
      "name": "nft",
      "outputs": [
        {
          "internalType": "address",
          "name": "addr",
          "type": "address"
        },
        {
          "internalType": "uint256",
          "name": "index",
          "type": "uint256"
        }
      ],
      "stateMutability": "view",
      "type": "function"
    },
    {
      "inputs": [],
      "name": "numberOfTickets",
      "outputs": [
        {
          "internalType": "uint256",
          "name": "",
          "type": "uint256"
        }
      ],
      "stateMutability": "view",
      "type": "function"
    },
    {
      "inputs": [],
      "name": "owner",
      "outputs": [
        {
          "internalType": "address",
          "name": "",
          "type": "address"
        }
      ],
      "stateMutability": "view",
      "type": "function"
    },
    {
      "inputs": [
        {
          "internalType": "uint256",
          "name": "",
          "type": "uint256"
        }
      ],
      "name": "players",
      "outputs": [
        {
          "internalType": "address",
          "name": "",
          "type": "address"
        }
      ],
      "stateMutability": "view",
      "type": "function"
    },
    {
      "inputs": [],
      "name": "profit",
      "outputs": [
        {
          "internalType": "uint256",
          "name": "",
          "type": "uint256"
        }
      ],
      "stateMutability": "view",
      "type": "function"
    },
    {
      "inputs": [],
      "name": "redeemProfit",
      "outputs": [],
      "stateMutability": "nonpayable",
      "type": "function"
    },
    {
      "inputs": [
        {
          "internalType": "uint256",
          "name": "_numberOfTickets",
          "type": "uint256"
        }
      ],
      "name": "redeemTickets",
      "outputs": [],
      "stateMutability": "nonpayable",
      "type": "function"
    },
    {
      "inputs": [],
      "name": "renounceOwnership",
      "outputs": [],
      "stateMutability": "nonpayable",
      "type": "function"
    },
    {
      "inputs": [],
      "name": "stakedAmount",
      "outputs": [
        {
          "internalType": "uint256",
          "name": "",
          "type": "uint256"
        }
      ],
      "stateMutability": "view",
      "type": "function"
    },
    {
      "inputs": [],
      "name": "status",
      "outputs": [
        {
          "internalType": "enum LotteryPoolBase.LotteryPoolStatus",
          "name": "",
          "type": "uint8"
        }
      ],
      "stateMutability": "view",
      "type": "function"
    },
    {
      "inputs": [],
      "name": "ticketPrice",
      "outputs": [
        {
          "internalType": "uint256",
          "name": "",
          "type": "uint256"
        }
      ],
      "stateMutability": "view",
      "type": "function"
    },
    {
      "inputs": [
        {
          "internalType": "address",
          "name": "_addr",
          "type": "address"
        }
      ],
      "name": "ticketsOf",
      "outputs": [
        {
          "internalType": "uint256",
          "name": "",
          "type": "uint256"
        }
      ],
      "stateMutability": "view",
      "type": "function"
    },
    {
      "inputs": [],
      "name": "totalSupply",
      "outputs": [
        {
          "internalType": "uint256",
          "name": "",
          "type": "uint256"
        }
      ],
      "stateMutability": "view",
      "type": "function"
    },
    {
      "inputs": [
        {
          "internalType": "address",
          "name": "newOwner",
          "type": "address"
        }
      ],
      "name": "transferOwnership",
      "outputs": [],
      "stateMutability": "nonpayable",
      "type": "function"
    },
    {
      "inputs": [],
      "name": "winner",
      "outputs": [
        {
          "internalType": "address",
          "name": "",
          "type": "address"
        }
      ],
      "stateMutability": "view",
      "type": "function"
    },
    {
      "stateMutability": "payable",
      "type": "receive"
    }
  ],
  "bytecode": "0x608060405234801561001057600080fd5b50600061001b61006e565b600080546001600160a01b0319166001600160a01b0383169081178255604051929350917f8be0079c531659141344cd1fd0a4f28419497f9722a3daafe3b4186f6b6457e0908290a35060018055610072565b3390565b612809806100816000396000f3fe6080604052600436106101855760003560e01c8063715018a6116100d1578063a9ee6ac31161008a578063e580f47b11610064578063e580f47b146103ec578063f2fde38b14610401578063f4fe103a14610421578063f71d96cb14610441576101c5565b8063a9ee6ac3146103a2578063d10c391d146103c2578063dfbf53ae146103d7576101c5565b8063715018a61461032457806375c81ad014610339578063859bd0f01461034e5780638da5cb5b146103635780639af1d35a14610378578063a30a24741461038d576101c5565b80632f3666371161013e57806345745c101161011857806345745c10146102c257806347ccca02146102d757806366d16cc3146102fa578063702766fa1461030f576101c5565b80632f3666371461027a578063316579261461028d578063373d6132146102ad576101c5565b806302d05d3f146101ca57806312065fe0146101f55780631209b1f61461021757806314034bd21461022c57806318160ddd14610243578063200d2ed214610258576101c5565b366101c5577f88a5966d370b9919b20f3e2c13ff65706f196a4e32cc2c12bf57088f8852587433346040516101bb929190611fb4565b60405180910390a1005b600080fd5b3480156101d657600080fd5b506101df610461565b6040516101ec9190611f7c565b60405180910390f35b34801561020157600080fd5b5061020a610470565b6040516101ec9190612678565b34801561022357600080fd5b5061020a610474565b34801561023857600080fd5b5061024161047a565b005b34801561024f57600080fd5b5061020a61095e565b34801561026457600080fd5b5061026d610964565b6040516101ec9190612007565b610241610288366004611f1f565b61096d565b34801561029957600080fd5b5061020a6102a8366004611d7b565b610be4565b3480156102b957600080fd5b5061020a610bff565b3480156102ce57600080fd5b5061020a610c05565b3480156102e357600080fd5b506102ec610c0b565b6040516101ec929190611fb4565b34801561030657600080fd5b5061020a610c20565b34801561031b57600080fd5b5061020a610c26565b34801561033057600080fd5b50610241610c2c565b34801561034557600080fd5b5061020a610cb5565b34801561035a57600080fd5b50610241610cbb565b34801561036f57600080fd5b506101df610f33565b34801561038457600080fd5b5061020a610f42565b34801561039957600080fd5b50610241610f48565b3480156103ae57600080fd5b506102416103bd366004611df3565b61113f565b3480156103ce57600080fd5b506102416111f9565b3480156103e357600080fd5b506101df6113b2565b3480156103f857600080fd5b5061020a6113c1565b34801561040d57600080fd5b5061024161041c366004611d7b565b6113c7565b34801561042d57600080fd5b5061024161043c366004611f1f565b611487565b34801561044d57600080fd5b506101df61045c366004611f1f565b61154e565b6007546001600160a01b031681565b4790565b60055481565b6007546001600160a01b031633146104ad5760405162461bcd60e51b81526004016104a490612357565b60405180910390fd5b600260015414156104d05760405162461bcd60e51b81526004016104a4906125be565b600260018190555460408051635c975abb60e01b815290516001600160a01b0390921691635c975abb91600480820192602092909190829003018186803b15801561051a57600080fd5b505afa15801561052e573d6000803e3d6000fd5b505050506040513d601f19601f820116820180604052508101906105529190611eff565b1561056f5760405162461bcd60e51b81526004016104a490612062565b600f546001600160a01b0316156105985760405162461bcd60e51b81526004016104a49061239d565b6001600b5460ff1660038111156105bf57634e487b7160e01b600052602160045260246000fd5b146105dc5760405162461bcd60e51b81526004016104a490612216565b600260009054906101000a90046001600160a01b03166001600160a01b03166399da053a6040518163ffffffff1660e01b815260040160206040518083038186803b15801561062a57600080fd5b505afa15801561063e573d6000803e3d6000fd5b505050506040513d601f19601f820116820180604052508101906106629190611f37565b61066f90620151806126e7565b60085461067c91906126bb565b42101561069b5760405162461bcd60e51b81526004016104a49061244b565b600954600a5460405163020604bf60e21b815230926001600160a01b03169163081812fc916106cd9190600401612678565b60206040518083038186803b1580156106e557600080fd5b505afa1580156106f9573d6000803e3d6000fd5b505050506040513d601f19601f8201168201806040525081019061071d9190611d9e565b6001600160a01b0316146107435760405162461bcd60e51b81526004016104a49061253f565b61074b611578565b471561095857610759611708565b600f80546001600160a01b0319166001600160a01b03928316179055600b8054600260ff199091168117909155546040805163be74264d60e01b81529051600093929092169163be74264d91600481810192602092909190829003018186803b1580156107c557600080fd5b505afa1580156107d9573d6000803e3d6000fd5b505050506040513d601f19601f820116820180604052508101906107fd9190611f37565b905060006011544761080f9190612706565b90506010546011546108219190612706565b606461082d84846126e7565b61083791906126d3565b61084191906126bb565b601455606461085083836126e7565b61085a91906126d3565b6108649082612706565b60125561086f611784565b600954600754600f54600a546040516323b872dd60e01b81526001600160a01b03948516946323b872dd946108ad9490821693911691600401611f90565b600060405180830381600087803b1580156108c757600080fd5b505af11580156108db573d6000803e3d6000fd5b505060025460048054600f5460125460145460405163bdafb1ff60e01b81526001600160a01b03968716985063bdafb1ff975061092396949593909416939192909101612681565b600060405180830381600087803b15801561093d57600080fd5b505af1158015610951573d6000803e3d6000fd5b5050505050505b60018055565b60105481565b600b5460ff1681565b600260009054906101000a90046001600160a01b03166001600160a01b0316635c975abb6040518163ffffffff1660e01b815260040160206040518083038186803b1580156109bb57600080fd5b505afa1580156109cf573d6000803e3d6000fd5b505050506040513d601f19601f820116820180604052508101906109f39190611eff565b15610a105760405162461bcd60e51b81526004016104a490612062565b6000600b5460ff166003811115610a3757634e487b7160e01b600052602160045260246000fd5b14610a545760405162461bcd60e51b81526004016104a490612320565b80600554610a6291906126e7565b3414610a805760405162461bcd60e51b81526004016104a49061248e565b336000908152600d602052604081208054839290610a9f9084906126bb565b90915550600090505b81811015610b0457600e80546001810182556000919091527fbb7b4a454dc3493923482f07822329ed19e8244eff582cc204f8554c3620c3fd0180546001600160a01b0319163317905580610afc8161274d565b915050610aa8565b5080600c6000828254610b1791906126bb565b925050819055503460106000828254610b3091906126bb565b9091555050600254600480546040516319cd9bbb60e11b81526001600160a01b039093169263339b377692610b689291349101611f6e565b600060405180830381600087803b158015610b8257600080fd5b505af1158015610b96573d6000803e3d6000fd5b50505050336001600160a01b03167fc8c5c2b0e44fb6312c0098ec42642058527713d0a1d29a5c6ccbfe34d714d41e6004548334604051610bd9939291906126a5565b60405180910390a250565b6001600160a01b03166000908152600d602052604090205490565b60115481565b600c5481565b600954600a546001600160a01b039091169082565b60125481565b60035481565b610c3461188d565b6001600160a01b0316610c45610f33565b6001600160a01b031614610c6b5760405162461bcd60e51b81526004016104a490612416565b600080546040516001600160a01b03909116907f8be0079c531659141344cd1fd0a4f28419497f9722a3daafe3b4186f6b6457e0908390a3600080546001600160a01b0319169055565b60065481565b6007546001600160a01b03163314610ce55760405162461bcd60e51b81526004016104a490612357565b60026001541415610d085760405162461bcd60e51b81526004016104a4906125be565b60026001819055600b5460ff166003811115610d3457634e487b7160e01b600052602160045260246000fd5b14158015610d6757506003600b5460ff166003811115610d6457634e487b7160e01b600052602160045260246000fd5b14155b610d835760405162461bcd60e51b81526004016104a4906120a6565b60105460065411610da65760405162461bcd60e51b81526004016104a4906122c3565b600260009054906101000a90046001600160a01b03166001600160a01b03166399da053a6040518163ffffffff1660e01b815260040160206040518083038186803b158015610df457600080fd5b505afa158015610e08573d6000803e3d6000fd5b505050506040513d601f19601f82011682018060405250810190610e2c9190611f37565b610e3990620151806126e7565b600854610e4691906126bb565b421015610e655760405162461bcd60e51b81526004016104a49061244b565b600b805460ff191660039081179182905560019160ff1690811115610e9a57634e487b7160e01b600052602160045260246000fd5b1415610ea857610ea8611578565b4715610ec657601054610ebb9047612706565b601455610ec6611784565b60025460048054601254604051637978f27960e01b81526001600160a01b0390941693637978f27993610efb93929101611f6e565b600060405180830381600087803b158015610f1557600080fd5b505af1158015610f29573d6000803e3d6000fd5b5050600180555050565b6000546001600160a01b031690565b60145481565b6007546001600160a01b03163314610f725760405162461bcd60e51b81526004016104a490612357565b600060105411610f945760405162461bcd60e51b81526004016104a490612641565b6000600b5460ff166003811115610fbb57634e487b7160e01b600052602160045260246000fd5b14610fd85760405162461bcd60e51b81526004016104a4906120e8565b600260009054906101000a90046001600160a01b03166001600160a01b03166399da053a6040518163ffffffff1660e01b815260040160206040518083038186803b15801561102657600080fd5b505afa15801561103a573d6000803e3d6000fd5b505050506040513d601f19601f8201168201806040525081019061105e9190611f37565b61106b90620151806126e7565b60085461107891906126bb565b4210156110975760405162461bcd60e51b81526004016104a49061244b565b61109f611891565b600b805460ff19166001179055600254600480546011546040516303b357dd60e01b81526001600160a01b03909416936303b357dd936110e193929101611f6e565b600060405180830381600087803b1580156110fb57600080fd5b505af115801561110f573d6000803e3d6000fd5b5050505061113d6040518060400160405280600981526020016868657265204920616d60b81b8152506119ff565b565b611150898989898989898989611a45565b6002546040805163724d258b60e11b815290516000926001600160a01b03169163e49a4b16916004808301926020929190829003018186803b15801561119557600080fd5b505afa1580156111a9573d6000803e3d6000fd5b505050506040513d601f19601f820116820180604052508101906111cd9190611d9e565b601580546001600160a01b0319166001600160a01b039290921691909117905550505050505050505050565b6002600154141561121c5760405162461bcd60e51b81526004016104a4906125be565b60026001556007546001600160a01b0316331461124b5760405162461bcd60e51b81526004016104a490612357565b6002600b5460ff16600381111561127257634e487b7160e01b600052602160045260246000fd5b1461128f5760405162461bcd60e51b81526004016104a490612587565b6000601254116112b15760405162461bcd60e51b81526004016104a490612164565b60135460ff16156112d45760405162461bcd60e51b81526004016104a49061211f565b6013805460ff191660011790556007546012546040516001600160a01b0390921691600091839161130490611f6b565b60006040518083038185875af1925050503d8060008114611341576040519150601f19603f3d011682016040523d82523d6000602084013e611346565b606091505b50509050806113675760405162461bcd60e51b81526004016104a49061225e565b336001600160a01b03167f324a0fb77c2a44bad89caa2211824604eafbca8eea5d0a07b18145dff2cb59076012546040516113a29190612678565b60405180910390a2505060018055565b600f546001600160a01b031681565b60045481565b6113cf61188d565b6001600160a01b03166113e0610f33565b6001600160a01b0316146114065760405162461bcd60e51b81526004016104a490612416565b6001600160a01b03811661142c5760405162461bcd60e51b81526004016104a4906121a7565b600080546040516001600160a01b03808516939216917f8be0079c531659141344cd1fd0a4f28419497f9722a3daafe3b4186f6b6457e091a3600080546001600160a01b0319166001600160a01b0392909216919091179055565b600260015414156114aa5760405162461bcd60e51b81526004016104a4906125be565b60026001908155600b5460ff1660038111156114d657634e487b7160e01b600052602160045260246000fd5b14156114f45760405162461bcd60e51b81526004016104a4906125f5565b336000908152600d6020526040902054158015906115215750336000908152600d60205260409020548111155b61153d5760405162461bcd60e51b81526004016104a490612508565b6115478133611ab8565b5060018055565b600e818154811061155e57600080fd5b6000918252602090912001546001600160a01b0316905081565b601554604080516316427da360e31b815290516000926001600160a01b03169163b213ed189160048083019260a092919082900301818787803b1580156115be57600080fd5b505af11580156115d2573d6000803e3d6000fd5b505050506040513d601f19601f820116820180604052508101906115f69190611e73565b60155460405191925060009182916001600160a01b03169061161c908590602401611fcd565b60408051601f198184030181529181526020820180516001600160e01b031663d9e71e8560e01b179052516116519190611f4f565b600060405180830381855af49150503d806000811461168c576040519150601f19603f3d011682016040523d82523d6000602084013e611691565b606091505b5091509150816116b35760405162461bcd60e51b81526004016104a4906123df565b6000818060200190518101906116c99190611f37565b90507faac50b7fd37b9353a223df3787678aad7d567416d8cf6c3571bda75ee687ce52816040516116fa9190612678565b60405180910390a150505050565b600e5460405160009182916117239042904490602001611f6e565b6040516020818303038152906040528051906020012060001c6117469190612768565b9050600e818154811061176957634e487b7160e01b600052603260045260246000fd5b6000918252602090912001546001600160a01b031691505090565b6014541561113d57600254604080516304ca658160e21b815290516000926001600160a01b0316916313299604916004808301926020929190829003018186803b1580156117d157600080fd5b505afa1580156117e5573d6000803e3d6000fd5b505050506040513d601f19601f820116820180604052508101906118099190611d9e565b90506000816001600160a01b031660145460405161182690611f6b565b60006040518083038185875af1925050503d8060008114611863576040519150601f19603f3d011682016040523d82523d6000602084013e611868565b606091505b50509050806118895760405162461bcd60e51b81526004016104a490612295565b5050565b3390565b6015546040805163a13be87760e01b8152815160009384936001600160a01b039091169263a13be877926004808301939282900301818787803b1580156118d757600080fd5b505af11580156118eb573d6000803e3d6000fd5b505050506040513d601f19601f8201168201806040525081019061190f9190611dba565b60405163095ea7b360e01b815291935091506001600160a01b0383169063095ea7b39061194490849060001990600401611fb4565b602060405180830381600087803b15801561195e57600080fd5b505af1158015611972573d6000803e3d6000fd5b505050506040513d601f19601f820116820180604052508101906119969190611eff565b504760115560155460408051630d0e30db60e41b815290516001600160a01b039092169163d0e30db0914791600480830192600092919082900301818588803b1580156119e257600080fd5b505af11580156119f6573d6000803e3d6000fd5b50505050505050565b611a4281604051602401611a13919061202f565b60408051601f198184030181529190526020810180516001600160e01b031663104c13eb60e21b179052611d5a565b50565b600280546001600160a01b039a8b166001600160a01b031991821617909155600498909855600355600780549689169688169690961790955560059190915560065560098054929095169190931617909255600a55600b805460ff19908116909155600891909155601380549091169055565b600082600554611ac891906126e7565b9050806010541015611aec5760405162461bcd60e51b81526004016104a4906124d1565b336000908152600d602052604081208054859290611b0b908490612706565b9250508190555082600c6000828254611b249190612706565b925050819055508060106000828254611b3d9190612706565b909155506000905080600b5460ff166003811115611b6b57634e487b7160e01b600052602160045260246000fd5b1415611c2b5760005b600e54811015611c2957836001600160a01b0316600e8281548110611ba957634e487b7160e01b600052603260045260246000fd5b6000918252602090912001546001600160a01b0316148015611bca57508482105b15611c1757600e8181548110611bf057634e487b7160e01b600052603260045260246000fd5b600091825260209091200180546001600160a01b0319169055611c146001836126bb565b91505b80611c218161274d565b915050611b74565b505b60025460048054604051634b826d8160e01b81526001600160a01b0390931692634b826d8192611c5e9291879101611f6e565b600060405180830381600087803b158015611c7857600080fd5b505af1158015611c8c573d6000803e3d6000fd5b505050506000836001600160a01b031683604051611ca990611f6b565b60006040518083038185875af1925050503d8060008114611ce6576040519150601f19603f3d011682016040523d82523d6000602084013e611ceb565b606091505b5050905080611d0c5760405162461bcd60e51b81526004016104a4906121ed565b836001600160a01b03167fb7029a2e3425140d13e631737cd4269675a18664ebe4356d84ea6943db8216586004548786604051611d4b939291906126a5565b60405180910390a25050505050565b80516a636f6e736f6c652e6c6f67602083016000808483855afa5050505050565b600060208284031215611d8c578081fd5b8135611d97816127be565b9392505050565b600060208284031215611daf578081fd5b8151611d97816127be565b60008060408385031215611dcc578081fd5b8251611dd7816127be565b6020840151909250611de8816127be565b809150509250929050565b60008060008060008060008060006101208a8c031215611e11578485fd5b8935611e1c816127be565b985060208a0135975060408a0135611e33816127be565b965060608a0135611e43816127be565b989b979a50959860808101359760a0820135975060c0820135965060e08201359550610100909101359350915050565b600060a08284031215611e84578081fd5b82601f830112611e92578081fd5b60405160a0810181811067ffffffffffffffff82111715611eb557611eb56127a8565b604052808360a08101861015611ec9578384fd5b835b6005811015611ef4578151611edf816127be565b83526020928301929190910190600101611ecb565b509195945050505050565b600060208284031215611f10578081fd5b81518015158114611d97578182fd5b600060208284031215611f30578081fd5b5035919050565b600060208284031215611f48578081fd5b5051919050565b60008251611f6181846020870161271d565b9190910192915050565b90565b918252602082015260400190565b6001600160a01b0391909116815260200190565b6001600160a01b039384168152919092166020820152604081019190915260600190565b6001600160a01b03929092168252602082015260400190565b60a08101818360005b6005811015611ffe5781516001600160a01b0316835260209283019290910190600101611fd6565b50505092915050565b602081016004831061202957634e487b7160e01b600052602160045260246000fd5b91905290565b600060208252825180602084015261204e81604085016020870161271d565b601f01601f19169190910160400192915050565b60208082526024908201527f50726f746f636f6c20686173206265656e2070617573656420627920736563756040820152637269747960e01b606082015260800190565b60208082526022908201527f546865206c6f747465727920706f6f6c20697320616c726561647920636c6f73604082015261195960f21b606082015260800190565b60208082526017908201527f546865206c6f7474657279206973206e6f74206f70656e000000000000000000604082015260600190565b60208082526025908201527f5061796d656e7420616c7265616479207472616e73666572656420746f20637260408201526432b0ba37b960d91b606082015260800190565b60208082526023908201527f4e6f7468696e6720746f207472616e736665722c2070726f666974206973207a60408201526265726f60e81b606082015260800190565b60208082526026908201527f4f776e61626c653a206e6577206f776e657220697320746865207a65726f206160408201526564647265737360d01b606082015260800190565b6020808252600f908201526e151c985b9cd9995c8819985a5b1959608a1b604082015260600190565b60208082526028908201527f546865206c6f747465727920706f6f6c206973206e6f7420696e207374616b696040820152676e6720706861736560c01b606082015260800190565b6020808252601a908201527f5472616e7366657220746f2063726561746f72206661696c6564000000000000604082015260600190565b602080825260149082015273151c985b9cd9995c881999595cc819985a5b195960621b604082015260600190565b6020808252603a908201527f43616e6e6f742063616e63656c206c6f74746572792e20546865206d696e696d60408201527f756d20616d6f756e7420686173206265656e2072656163686564000000000000606082015260800190565b6020808252601c908201527f546865206c6f747465727920706f6f6c206973206e6f74206f70656e00000000604082015260600190565b60208082526026908201527f4f6e6c7920706f6f6c2063726561746f722063616e2063616c6c2074686973206040820152651b595d1a1bd960d21b606082015260800190565b60208082526022908201527f412077696e6e65722068617320616c7265616479206265656e206465636c6172604082015261195960f21b606082015260800190565b60208082526017908201527f5374616b696e67207769746864726177206661696c6564000000000000000000604082015260600190565b6020808252818101527f4f776e61626c653a2063616c6c6572206973206e6f7420746865206f776e6572604082015260600190565b60208082526023908201527f596f75206d757374207761697420746865206d696e696d756d206f70656e206460408201526261797360e81b606082015260800190565b60208082526023908201527f416d6f756e742073656e7420697320646966666572656e74207468616e20707260408201526269636560e81b606082015260800190565b6020808252601f908201527f4e6f7420656e6f756768206d6f6e657920696e207468652062616c616e636500604082015260600190565b6020808252601e908201527f596f7520646f206e6f74206861766520656e6f756768207469636b6574730000604082015260600190565b60208082526028908201527f436f6e7472616374206973206e6f7420617070726f76656420746f207472616e6040820152671cd9995c8813919560c21b606082015260800190565b6020808252601e908201527f546865206c6f747465727920706f6f6c206973206e6f7420636c6f7365640000604082015260600190565b6020808252601f908201527f5265656e7472616e637947756172643a207265656e7472616e742063616c6c00604082015260600190565b6020808252602c908201527f43616e6e6f742072656465656d207469636b65747320647572696e672073746160408201526b6b696e672070726f6365737360a01b606082015260800190565b6020808252601e908201527f42616c616e6365206d7573742062652067726561746572207468616e20300000604082015260600190565b90815260200190565b9384526001600160a01b039290921660208401526040830152606082015260800190565b9283526020830191909152604082015260600190565b600082198211156126ce576126ce61277c565b500190565b6000826126e2576126e2612792565b500490565b60008160001904831182151516156127015761270161277c565b500290565b6000828210156127185761271861277c565b500390565b60005b83811015612738578181015183820152602001612720565b83811115612747576000848401525b50505050565b60006000198214156127615761276161277c565b5060010190565b60008261277757612777612792565b500690565b634e487b7160e01b600052601160045260246000fd5b634e487b7160e01b600052601260045260246000fd5b634e487b7160e01b600052604160045260246000fd5b6001600160a01b0381168114611a4257600080fdfea264697066735822122094889d6ee9e4a88a0ae85c7558d8eda5005c45564eb91f49482ba1d3c5f4ad8364736f6c63430008000033",
  "linkReferences": {},
  "deployedLinkReferences": {}
}