{
  "_format": "hh-sol-artifact-1",
  "contractName": "AaveStakingAdapter",
  "sourceName": "contracts/adapters/AaveStakingAdapter.sol",
  "abi": [
    {
      "inputs": [
        {
          "internalType": "address",
          "name": "_lendingPoolAddressesProvider",
          "type": "address"
        },
        {
          "internalType": "address",
          "name": "_wethGateway",
          "type": "address"
        },
        {
          "internalType": "address",
          "name": "_aWethAddress",
          "type": "address"
        }
      ],
      "stateMutability": "nonpayable",
      "type": "constructor"
    },
    {
      "inputs": [],
      "name": "deposit",
      "outputs": [],
      "stateMutability": "payable",
      "type": "function"
    },
    {
      "inputs": [
        {
          "internalType": "address",
          "name": "_addr",
          "type": "address"
        }
      ],
      "name": "getAllowance",
      "outputs": [
        {
          "internalType": "uint256",
          "name": "",
          "type": "uint256"
        }
      ],
      "stateMutability": "view",
      "type": "function"
    },
    {
      "inputs": [],
      "name": "getApprovalData",
      "outputs": [
        {
          "internalType": "address",
          "name": "",
          "type": "address"
        },
        {
          "internalType": "address",
          "name": "",
          "type": "address"
        }
      ],
      "stateMutability": "nonpayable",
      "type": "function"
    },
    {
      "inputs": [
        {
          "internalType": "address",
          "name": "_addr",
          "type": "address"
        }
      ],
      "name": "getStakedAmount",
      "outputs": [
        {
          "internalType": "uint256",
          "name": "",
          "type": "uint256"
        }
      ],
      "stateMutability": "view",
      "type": "function"
    },
    {
      "inputs": [],
      "name": "getWithdrawData",
      "outputs": [
        {
          "internalType": "address[5]",
          "name": "",
          "type": "address[5]"
        }
      ],
      "stateMutability": "nonpayable",
      "type": "function"
    },
    {
      "inputs": [
        {
          "internalType": "address[5]",
          "name": "_data",
          "type": "address[5]"
        }
      ],
      "name": "withdraw",
      "outputs": [
        {
          "internalType": "uint256",
          "name": "",
          "type": "uint256"
        }
      ],
      "stateMutability": "nonpayable",
      "type": "function"
    }
  ],
  "bytecode": "0x608060405234801561001057600080fd5b506040516107ab3803806107ab83398101604081905261002f9161008d565b600080546001600160a01b039485166001600160a01b0319918216179091556001805493851693821693909317909255600280549190931691161790556100cf565b80516001600160a01b038116811461008857600080fd5b919050565b6000806000606084860312156100a1578283fd5b6100aa84610071565b92506100b860208501610071565b91506100c660408501610071565b90509250925092565b6106cd806100de6000396000f3fe6080604052600436106100555760003560e01c80634da6a5561461005a578063a13be87714610090578063b213ed18146100b3578063d0e30db0146100d5578063d9e71e85146100df578063eb5a662e146100ff575b600080fd5b34801561006657600080fd5b5061007a6100753660046104d2565b61011f565b6040516100879190610660565b60405180910390f35b34801561009c57600080fd5b506100a56101ab565b6040516100879291906105c2565b3480156100bf57600080fd5b506100c86101c2565b6040516100879190610626565b6100dd61020d565b005b3480156100eb57600080fd5b5061007a6100fa36600461050a565b610284565b34801561010b57600080fd5b5061007a61011a3660046104d2565b6103f6565b6002546040516370a0823160e01b815260009182916001600160a01b03909116906370a08231906101549086906004016105ae565b60206040518083038186803b15801561016c57600080fd5b505afa158015610180573d6000803e3d6000fd5b505050506040513d601f19601f820116820180604052508101906101a49190610596565b9392505050565b6002546001546001600160a01b0391821691169091565b6101ca6104b4565b506040805160a081018252600080546001600160a01b03908116835260015481166020840152600254169282019290925260608101829052608081019190915290565b6000610217610431565b60015460405163474cf53d60e01b81529192506001600160a01b03169063474cf53d90349061024f90859033906000906004016105dc565b6000604051808303818588803b15801561026857600080fd5b505af115801561027c573d6000803e3d6000fd5b505050505050565b600080828160200201516001600160a01b0316630261bf8b6040518163ffffffff1660e01b815260040160206040518083038186803b1580156102c657600080fd5b505afa1580156102da573d6000803e3d6000fd5b505050506040513d601f19601f820116820180604052508101906102fe91906104ee565b9050600083600260200201516001600160a01b03166370a08231306040518263ffffffff1660e01b815260040161033591906105ae565b60206040518083038186803b15801561034d57600080fd5b505afa158015610361573d6000803e3d6000fd5b505050506040513d601f19601f820116820180604052508101906103859190610596565b6020850151604051630402806960e51b81529192506001600160a01b0316906380500d20906103bc90859085903090600401610603565b600060405180830381600087803b1580156103d657600080fd5b505af11580156103ea573d6000803e3d6000fd5b50929695505050505050565b600254600154604051636eb1769f60e11b815260009283926001600160a01b039182169263dd62ed3e926101549288929116906004016105c2565b6000805460408051630261bf8b60e01b8152905183926001600160a01b031691630261bf8b916004808301926020929190829003018186803b15801561047657600080fd5b505afa15801561048a573d6000803e3d6000fd5b505050506040513d601f19601f820116820180604052508101906104ae91906104ee565b91505090565b6040518060a001604052806005906020820280368337509192915050565b6000602082840312156104e3578081fd5b81356101a48161067f565b6000602082840312156104ff578081fd5b81516101a48161067f565b600060a0828403121561051b578081fd5b82601f830112610529578081fd5b60405160a0810181811067ffffffffffffffff8211171561054c5761054c610669565b604052808360a08101861015610560578384fd5b835b600581101561058b5781356105768161067f565b83526020928301929190910190600101610562565b509195945050505050565b6000602082840312156105a7578081fd5b5051919050565b6001600160a01b0391909116815260200190565b6001600160a01b0392831681529116602082015260400190565b6001600160a01b03938416815291909216602082015261ffff909116604082015260600190565b6001600160a01b0393841681526020810192909252909116604082015260600190565b60a08101818360005b60058110156106575781516001600160a01b031683526020928301929091019060010161062f565b50505092915050565b90815260200190565b634e487b7160e01b600052604160045260246000fd5b6001600160a01b038116811461069457600080fd5b5056fea26469706673582212208fa14c7e55da6e0c2deeac1596ad807a683718dfec258005364a27e0d0533cf664736f6c63430008000033",
  "linkReferences": {},
  "deployedLinkReferences": {}
}