{
  "_format": "hh-sol-artifact-1",
  "contractName": "AaveStakingAdapter",
  "sourceName": "contracts/adapters/AaveStakingAdapter.sol",
  "abi": [
    {
      "inputs": [
        {
          "internalType": "address",
          "name": "_lendingPoolAddressesProvider",
          "type": "address"
        },
        {
          "internalType": "address",
          "name": "_wethGateway",
          "type": "address"
        },
        {
          "internalType": "address",
          "name": "_aWethAddress",
          "type": "address"
        }
      ],
      "stateMutability": "nonpayable",
      "type": "constructor"
    },
    {
      "inputs": [
        {
          "internalType": "address[5]",
          "name": "_data",
          "type": "address[5]"
        }
      ],
      "name": "deposit",
      "outputs": [],
      "stateMutability": "nonpayable",
      "type": "function"
    },
    {
      "inputs": [
        {
          "internalType": "address",
          "name": "_addr",
          "type": "address"
        }
      ],
      "name": "getAllowance",
      "outputs": [
        {
          "internalType": "uint256",
          "name": "",
          "type": "uint256"
        }
      ],
      "stateMutability": "view",
      "type": "function"
    },
    {
      "inputs": [],
      "name": "getApprovalData",
      "outputs": [
        {
          "internalType": "address",
          "name": "",
          "type": "address"
        },
        {
          "internalType": "address",
          "name": "",
          "type": "address"
        }
      ],
      "stateMutability": "view",
      "type": "function"
    },
    {
      "inputs": [
        {
          "internalType": "address",
          "name": "_addr",
          "type": "address"
        }
      ],
      "name": "getStakedAmount",
      "outputs": [
        {
          "internalType": "uint256",
          "name": "",
          "type": "uint256"
        }
      ],
      "stateMutability": "view",
      "type": "function"
    },
    {
      "inputs": [],
      "name": "getWithdrawData",
      "outputs": [
        {
          "internalType": "address[5]",
          "name": "",
          "type": "address[5]"
        }
      ],
      "stateMutability": "view",
      "type": "function"
    },
    {
      "inputs": [
        {
          "internalType": "address[5]",
          "name": "_data",
          "type": "address[5]"
        }
      ],
      "name": "withdraw",
      "outputs": [
        {
          "internalType": "uint256",
          "name": "",
          "type": "uint256"
        }
      ],
      "stateMutability": "nonpayable",
      "type": "function"
    }
  ],
  "bytecode": "0x608060405234801561001057600080fd5b5060405161077138038061077183398101604081905261002f9161008d565b600080546001600160a01b039485166001600160a01b0319918216179091556001805493851693821693909317909255600280549190931691161790556100cf565b80516001600160a01b038116811461008857600080fd5b919050565b6000806000606084860312156100a1578283fd5b6100aa84610071565b92506100b860208501610071565b91506100c660408501610071565b90509250925092565b610693806100de6000396000f3fe608060405234801561001057600080fd5b50600436106100625760003560e01c80634da6a55614610067578063a13be87714610090578063b213ed18146100a6578063d9e71e85146100bb578063eb5a662e146100ce578063ef3b55ab146100e1575b600080fd5b61007a610075366004610498565b6100f6565b6040516100879190610626565b60405180910390f35b610098610182565b604051610087929190610588565b6100ae610199565b60405161008791906105ec565b61007a6100c93660046104d0565b6101e4565b61007a6100dc366004610498565b610356565b6100f46100ef3660046104d0565b610391565b005b6002546040516370a0823160e01b815260009182916001600160a01b03909116906370a082319061012b908690600401610574565b60206040518083038186803b15801561014357600080fd5b505afa158015610157573d6000803e3d6000fd5b505050506040513d601f19601f8201168201806040525081019061017b919061055c565b9392505050565b6002546001546001600160a01b0391821691169091565b6101a161047a565b506040805160a081018252600080546001600160a01b03908116835260015481166020840152600254169282019290925260608101829052608081019190915290565b600080828160200201516001600160a01b0316630261bf8b6040518163ffffffff1660e01b815260040160206040518083038186803b15801561022657600080fd5b505afa15801561023a573d6000803e3d6000fd5b505050506040513d601f19601f8201168201806040525081019061025e91906104b4565b9050600083600260200201516001600160a01b03166370a08231306040518263ffffffff1660e01b81526004016102959190610574565b60206040518083038186803b1580156102ad57600080fd5b505afa1580156102c1573d6000803e3d6000fd5b505050506040513d601f19601f820116820180604052508101906102e5919061055c565b6020850151604051630402806960e51b81529192506001600160a01b0316906380500d209061031c908590859030906004016105c9565b600060405180830381600087803b15801561033657600080fd5b505af115801561034a573d6000803e3d6000fd5b50929695505050505050565b600254600154604051636eb1769f60e11b815260009283926001600160a01b039182169263dd62ed3e9261012b928892911690600401610588565b6000818160200201516001600160a01b0316630261bf8b6040518163ffffffff1660e01b815260040160206040518083038186803b1580156103d257600080fd5b505afa1580156103e6573d6000803e3d6000fd5b505050506040513d601f19601f8201168201806040525081019061040a91906104b4565b602083015160405163474cf53d60e01b81529192506001600160a01b03169063474cf53d90479061044490859030906000906004016105a2565b6000604051808303818588803b15801561045d57600080fd5b505af1158015610471573d6000803e3d6000fd5b50505050505050565b6040518060a001604052806005906020820280368337509192915050565b6000602082840312156104a9578081fd5b813561017b81610645565b6000602082840312156104c5578081fd5b815161017b81610645565b600060a082840312156104e1578081fd5b82601f8301126104ef578081fd5b60405160a0810181811067ffffffffffffffff821117156105125761051261062f565b604052808360a08101861015610526578384fd5b835b600581101561055157813561053c81610645565b83526020928301929190910190600101610528565b509195945050505050565b60006020828403121561056d578081fd5b5051919050565b6001600160a01b0391909116815260200190565b6001600160a01b0392831681529116602082015260400190565b6001600160a01b03938416815291909216602082015261ffff909116604082015260600190565b6001600160a01b0393841681526020810192909252909116604082015260600190565b60a08101818360005b600581101561061d5781516001600160a01b03168352602092830192909101906001016105f5565b50505092915050565b90815260200190565b634e487b7160e01b600052604160045260246000fd5b6001600160a01b038116811461065a57600080fd5b5056fea2646970667358221220bb15ab0485fc522b807df859c77d38bb8ad9ac6b6bd098a5926a03cf816ffebb64736f6c63430008000033",
  "linkReferences": {},
  "deployedLinkReferences": {}
}