{
  "_format": "hh-sol-artifact-1",
  "contractName": "AaveStakingAdapter",
  "sourceName": "contracts/adapters/AaveStakingAdapter.sol",
  "abi": [
    {
      "inputs": [
        {
          "internalType": "address",
          "name": "_lendingPoolAddressesProvider",
          "type": "address"
        },
        {
          "internalType": "address",
          "name": "_wethGateway",
          "type": "address"
        },
        {
          "internalType": "address",
          "name": "_aWethAddress",
          "type": "address"
        }
      ],
      "stateMutability": "nonpayable",
      "type": "constructor"
    },
    {
      "inputs": [
        {
          "internalType": "address[5]",
          "name": "_data",
          "type": "address[5]"
        }
      ],
      "name": "deposit",
      "outputs": [],
      "stateMutability": "nonpayable",
      "type": "function"
    },
    {
      "inputs": [
        {
          "internalType": "address",
          "name": "_addr",
          "type": "address"
        }
      ],
      "name": "getAllowance",
      "outputs": [
        {
          "internalType": "uint256",
          "name": "",
          "type": "uint256"
        }
      ],
      "stateMutability": "view",
      "type": "function"
    },
    {
      "inputs": [],
      "name": "getApprovalData",
      "outputs": [
        {
          "internalType": "address",
          "name": "",
          "type": "address"
        },
        {
          "internalType": "address",
          "name": "",
          "type": "address"
        }
      ],
      "stateMutability": "view",
      "type": "function"
    },
    {
      "inputs": [
        {
          "internalType": "address",
          "name": "_addr",
          "type": "address"
        }
      ],
      "name": "getStakedAmount",
      "outputs": [
        {
          "internalType": "uint256",
          "name": "",
          "type": "uint256"
        }
      ],
      "stateMutability": "view",
      "type": "function"
    },
    {
      "inputs": [],
      "name": "getWithdrawData",
      "outputs": [
        {
          "internalType": "address[5]",
          "name": "",
          "type": "address[5]"
        }
      ],
      "stateMutability": "view",
      "type": "function"
    },
    {
      "inputs": [],
      "name": "name",
      "outputs": [
        {
          "internalType": "bytes32",
          "name": "",
          "type": "bytes32"
        }
      ],
      "stateMutability": "pure",
      "type": "function"
    },
    {
      "inputs": [
        {
          "internalType": "address[5]",
          "name": "_data",
          "type": "address[5]"
        }
      ],
      "name": "withdraw",
      "outputs": [
        {
          "internalType": "uint256",
          "name": "",
          "type": "uint256"
        }
      ],
      "stateMutability": "nonpayable",
      "type": "function"
    }
  ],
  "bytecode": "0x608060405234801561001057600080fd5b5060405161079f38038061079f83398101604081905261002f9161008d565b600080546001600160a01b039485166001600160a01b0319918216179091556001805493851693821693909317909255600280549190931691161790556100cf565b80516001600160a01b038116811461008857600080fd5b919050565b6000806000606084860312156100a1578283fd5b6100aa84610071565b92506100b860208501610071565b91506100c660408501610071565b90509250925092565b6106c1806100de6000396000f3fe608060405234801561001057600080fd5b506004361061007d5760003560e01c8063b213ed181161005b578063b213ed18146100c9578063d9e71e85146100de578063eb5a662e146100f1578063ef3b55ab146101045761007d565b806306fdde03146100825780634da6a556146100a0578063a13be877146100b3575b600080fd5b61008a610119565b6040516100979190610654565b60405180910390f35b61008a6100ae3660046104c6565b610124565b6100bb6101b0565b6040516100979291906105b6565b6100d16101c7565b604051610097919061061a565b61008a6100ec3660046104fe565b610212565b61008a6100ff3660046104c6565b610384565b6101176101123660046104fe565b6103bf565b005b634141564560e01b90565b6002546040516370a0823160e01b815260009182916001600160a01b03909116906370a08231906101599086906004016105a2565b60206040518083038186803b15801561017157600080fd5b505afa158015610185573d6000803e3d6000fd5b505050506040513d601f19601f820116820180604052508101906101a9919061058a565b9392505050565b6002546001546001600160a01b0391821691169091565b6101cf6104a8565b506040805160a081018252600080546001600160a01b03908116835260015481166020840152600254169282019290925260608101829052608081019190915290565b600080828160200201516001600160a01b0316630261bf8b6040518163ffffffff1660e01b815260040160206040518083038186803b15801561025457600080fd5b505afa158015610268573d6000803e3d6000fd5b505050506040513d601f19601f8201168201806040525081019061028c91906104e2565b9050600083600260200201516001600160a01b03166370a08231306040518263ffffffff1660e01b81526004016102c391906105a2565b60206040518083038186803b1580156102db57600080fd5b505afa1580156102ef573d6000803e3d6000fd5b505050506040513d601f19601f82011682018060405250810190610313919061058a565b6020850151604051630402806960e51b81529192506001600160a01b0316906380500d209061034a908590859030906004016105f7565b600060405180830381600087803b15801561036457600080fd5b505af1158015610378573d6000803e3d6000fd5b50929695505050505050565b600254600154604051636eb1769f60e11b815260009283926001600160a01b039182169263dd62ed3e926101599288929116906004016105b6565b6000818160200201516001600160a01b0316630261bf8b6040518163ffffffff1660e01b815260040160206040518083038186803b15801561040057600080fd5b505afa158015610414573d6000803e3d6000fd5b505050506040513d601f19601f8201168201806040525081019061043891906104e2565b602083015160405163474cf53d60e01b81529192506001600160a01b03169063474cf53d90479061047290859030906000906004016105d0565b6000604051808303818588803b15801561048b57600080fd5b505af115801561049f573d6000803e3d6000fd5b50505050505050565b6040518060a001604052806005906020820280368337509192915050565b6000602082840312156104d7578081fd5b81356101a981610673565b6000602082840312156104f3578081fd5b81516101a981610673565b600060a0828403121561050f578081fd5b82601f83011261051d578081fd5b60405160a0810181811067ffffffffffffffff821117156105405761054061065d565b604052808360a08101861015610554578384fd5b835b600581101561057f57813561056a81610673565b83526020928301929190910190600101610556565b509195945050505050565b60006020828403121561059b578081fd5b5051919050565b6001600160a01b0391909116815260200190565b6001600160a01b0392831681529116602082015260400190565b6001600160a01b03938416815291909216602082015261ffff909116604082015260600190565b6001600160a01b0393841681526020810192909252909116604082015260600190565b60a08101818360005b600581101561064b5781516001600160a01b0316835260209283019290910190600101610623565b50505092915050565b90815260200190565b634e487b7160e01b600052604160045260246000fd5b6001600160a01b038116811461068857600080fd5b5056fea2646970667358221220f486372191eb4405f69fa0238656127fea7084338a6b99c7299abb842f22bf4164736f6c63430008000033",
  "linkReferences": {},
  "deployedLinkReferences": {}
}