{
  "_format": "hh-sol-artifact-1",
  "contractName": "EchionNFT",
  "sourceName": "contracts/EchionNFT.sol",
  "abi": [
    {
      "inputs": [],
      "stateMutability": "nonpayable",
      "type": "constructor"
    },
    {
      "anonymous": false,
      "inputs": [
        {
          "indexed": true,
          "internalType": "address",
          "name": "owner",
          "type": "address"
        },
        {
          "indexed": true,
          "internalType": "address",
          "name": "approved",
          "type": "address"
        },
        {
          "indexed": true,
          "internalType": "uint256",
          "name": "tokenId",
          "type": "uint256"
        }
      ],
      "name": "Approval",
      "type": "event"
    },
    {
      "anonymous": false,
      "inputs": [
        {
          "indexed": true,
          "internalType": "address",
          "name": "owner",
          "type": "address"
        },
        {
          "indexed": true,
          "internalType": "address",
          "name": "operator",
          "type": "address"
        },
        {
          "indexed": false,
          "internalType": "bool",
          "name": "approved",
          "type": "bool"
        }
      ],
      "name": "ApprovalForAll",
      "type": "event"
    },
    {
      "anonymous": false,
      "inputs": [
        {
          "indexed": false,
          "internalType": "uint256",
          "name": "id",
          "type": "uint256"
        },
        {
          "indexed": true,
          "internalType": "address",
          "name": "creator",
          "type": "address"
        },
        {
          "indexed": false,
          "internalType": "string",
          "name": "imageURI",
          "type": "string"
        },
        {
          "indexed": false,
          "internalType": "string",
          "name": "metadataURI",
          "type": "string"
        }
      ],
      "name": "AutographMinted",
      "type": "event"
    },
    {
      "anonymous": false,
      "inputs": [
        {
          "indexed": true,
          "internalType": "address",
          "name": "from",
          "type": "address"
        },
        {
          "indexed": true,
          "internalType": "address",
          "name": "to",
          "type": "address"
        },
        {
          "indexed": true,
          "internalType": "uint256",
          "name": "tokenId",
          "type": "uint256"
        }
      ],
      "name": "Transfer",
      "type": "event"
    },
    {
      "inputs": [
        {
          "internalType": "address",
          "name": "to",
          "type": "address"
        },
        {
          "internalType": "uint256",
          "name": "tokenId",
          "type": "uint256"
        }
      ],
      "name": "approve",
      "outputs": [],
      "stateMutability": "nonpayable",
      "type": "function"
    },
    {
      "inputs": [
        {
          "internalType": "address",
          "name": "owner",
          "type": "address"
        }
      ],
      "name": "balanceOf",
      "outputs": [
        {
          "internalType": "uint256",
          "name": "",
          "type": "uint256"
        }
      ],
      "stateMutability": "view",
      "type": "function"
    },
    {
      "inputs": [
        {
          "internalType": "uint256",
          "name": "tokenId",
          "type": "uint256"
        }
      ],
      "name": "creatorOf",
      "outputs": [
        {
          "internalType": "address",
          "name": "",
          "type": "address"
        }
      ],
      "stateMutability": "view",
      "type": "function"
    },
    {
      "inputs": [
        {
          "internalType": "uint256",
          "name": "tokenId",
          "type": "uint256"
        }
      ],
      "name": "getApproved",
      "outputs": [
        {
          "internalType": "address",
          "name": "",
          "type": "address"
        }
      ],
      "stateMutability": "view",
      "type": "function"
    },
    {
      "inputs": [
        {
          "internalType": "uint256",
          "name": "tokenId",
          "type": "uint256"
        }
      ],
      "name": "imageURI",
      "outputs": [
        {
          "internalType": "string",
          "name": "",
          "type": "string"
        }
      ],
      "stateMutability": "view",
      "type": "function"
    },
    {
      "inputs": [
        {
          "internalType": "address",
          "name": "owner",
          "type": "address"
        },
        {
          "internalType": "address",
          "name": "operator",
          "type": "address"
        }
      ],
      "name": "isApprovedForAll",
      "outputs": [
        {
          "internalType": "bool",
          "name": "",
          "type": "bool"
        }
      ],
      "stateMutability": "view",
      "type": "function"
    },
    {
      "inputs": [
        {
          "internalType": "string",
          "name": "imageURI",
          "type": "string"
        },
        {
          "internalType": "string",
          "name": "metadataURI",
          "type": "string"
        }
      ],
      "name": "mint",
      "outputs": [
        {
          "internalType": "uint256",
          "name": "",
          "type": "uint256"
        }
      ],
      "stateMutability": "nonpayable",
      "type": "function"
    },
    {
      "inputs": [],
      "name": "name",
      "outputs": [
        {
          "internalType": "string",
          "name": "",
          "type": "string"
        }
      ],
      "stateMutability": "view",
      "type": "function"
    },
    {
      "inputs": [
        {
          "internalType": "uint256",
          "name": "tokenId",
          "type": "uint256"
        }
      ],
      "name": "ownerOf",
      "outputs": [
        {
          "internalType": "address",
          "name": "",
          "type": "address"
        }
      ],
      "stateMutability": "view",
      "type": "function"
    },
    {
      "inputs": [
        {
          "internalType": "address",
          "name": "from",
          "type": "address"
        },
        {
          "internalType": "address",
          "name": "to",
          "type": "address"
        },
        {
          "internalType": "uint256",
          "name": "tokenId",
          "type": "uint256"
        }
      ],
      "name": "safeTransferFrom",
      "outputs": [],
      "stateMutability": "nonpayable",
      "type": "function"
    },
    {
      "inputs": [
        {
          "internalType": "address",
          "name": "from",
          "type": "address"
        },
        {
          "internalType": "address",
          "name": "to",
          "type": "address"
        },
        {
          "internalType": "uint256",
          "name": "tokenId",
          "type": "uint256"
        },
        {
          "internalType": "bytes",
          "name": "_data",
          "type": "bytes"
        }
      ],
      "name": "safeTransferFrom",
      "outputs": [],
      "stateMutability": "nonpayable",
      "type": "function"
    },
    {
      "inputs": [
        {
          "internalType": "address",
          "name": "operator",
          "type": "address"
        },
        {
          "internalType": "bool",
          "name": "approved",
          "type": "bool"
        }
      ],
      "name": "setApprovalForAll",
      "outputs": [],
      "stateMutability": "nonpayable",
      "type": "function"
    },
    {
      "inputs": [
        {
          "internalType": "bytes4",
          "name": "interfaceId",
          "type": "bytes4"
        }
      ],
      "name": "supportsInterface",
      "outputs": [
        {
          "internalType": "bool",
          "name": "",
          "type": "bool"
        }
      ],
      "stateMutability": "view",
      "type": "function"
    },
    {
      "inputs": [],
      "name": "symbol",
      "outputs": [
        {
          "internalType": "string",
          "name": "",
          "type": "string"
        }
      ],
      "stateMutability": "view",
      "type": "function"
    },
    {
      "inputs": [
        {
          "internalType": "uint256",
          "name": "tokenId",
          "type": "uint256"
        }
      ],
      "name": "tokenURI",
      "outputs": [
        {
          "internalType": "string",
          "name": "",
          "type": "string"
        }
      ],
      "stateMutability": "view",
      "type": "function"
    },
    {
      "inputs": [
        {
          "internalType": "uint256",
          "name": "",
          "type": "uint256"
        }
      ],
      "name": "tokens",
      "outputs": [
        {
          "internalType": "address",
          "name": "creator",
          "type": "address"
        },
        {
          "internalType": "string",
          "name": "imageURI",
          "type": "string"
        }
      ],
      "stateMutability": "view",
      "type": "function"
    },
    {
      "inputs": [],
      "name": "totalSupply",
      "outputs": [
        {
          "internalType": "uint256",
          "name": "",
          "type": "uint256"
        }
      ],
      "stateMutability": "view",
      "type": "function"
    },
    {
      "inputs": [
        {
          "internalType": "address",
          "name": "from",
          "type": "address"
        },
        {
          "internalType": "address",
          "name": "to",
          "type": "address"
        },
        {
          "internalType": "uint256",
          "name": "tokenId",
          "type": "uint256"
        }
      ],
      "name": "transferFrom",
      "outputs": [],
      "stateMutability": "nonpayable",
      "type": "function"
    }
  ],
  "bytecode": "0x60806040523480156200001157600080fd5b506040518060400160405280601381526020017f456368696f6e2050726f746f636f6c204e4654000000000000000000000000008152506040518060400160405280600681526020017f4543484e46540000000000000000000000000000000000000000000000000000815250816000908051906020019062000096929190620000b8565b508060019080519060200190620000af929190620000b8565b505050620001cd565b828054620000c69062000168565b90600052602060002090601f016020900481019282620000ea576000855562000136565b82601f106200010557805160ff191683800117855562000136565b8280016001018555821562000136579182015b828111156200013557825182559160200191906001019062000118565b5b50905062000145919062000149565b5090565b5b80821115620001645760008160009055506001016200014a565b5090565b600060028204905060018216806200018157607f821691505b602082108114156200019857620001976200019e565b5b50919050565b7f4e487b7100000000000000000000000000000000000000000000000000000000600052602260045260246000fd5b612f8e80620001dd6000396000f3fe608060405234801561001057600080fd5b50600436106101165760003560e01c80636352211e116100a257806395d89b411161007157806395d89b411461032c578063a22cb4651461034a578063b88d4fde14610366578063c87b56dd14610382578063e985e9c5146103b257610116565b80636352211e1461026c57806370a082311461029c5780638aa0fdad146102cc5780638f742d16146102fc57610116565b806318160ddd116100e957806318160ddd146101b557806323b872dd146101d357806342842e0e146101ef5780634f64b2be1461020b578063589a17431461023c57610116565b806301ffc9a71461011b57806306fdde031461014b578063081812fc14610169578063095ea7b314610199575b600080fd5b61013560048036038101906101309190612041565b6103e2565b60405161014291906128a1565b60405180910390f35b6101536104c4565b60405161016091906128bc565b60405180910390f35b610183600480360381019061017e91906120ff565b610556565b604051610190919061280a565b60405180910390f35b6101b360048036038101906101ae9190612005565b6105db565b005b6101bd6106f3565b6040516101ca9190612ade565b60405180910390f35b6101ed60048036038101906101e89190611eff565b610700565b005b61020960048036038101906102049190611eff565b610760565b005b610225600480360381019061022091906120ff565b610780565b604051610233929190612871565b60405180910390f35b610256600480360381019061025191906120ff565b61085c565b604051610263919061280a565b60405180910390f35b610286600480360381019061028191906120ff565b6108d1565b604051610293919061280a565b60405180910390f35b6102b660048036038101906102b19190611e9a565b610983565b6040516102c39190612ade565b60405180910390f35b6102e660048036038101906102e19190612093565b610a3b565b6040516102f39190612ade565b60405180910390f35b610316600480360381019061031191906120ff565b610b72565b60405161032391906128bc565b60405180910390f35b610334610c4f565b60405161034191906128bc565b60405180910390f35b610364600480360381019061035f9190611fc9565b610ce1565b005b610380600480360381019061037b9190611f4e565b610e62565b005b61039c600480360381019061039791906120ff565b610ec4565b6040516103a991906128bc565b60405180910390f35b6103cc60048036038101906103c79190611ec3565b610ed6565b6040516103d991906128a1565b60405180910390f35b60007f80ac58cd000000000000000000000000000000000000000000000000000000007bffffffffffffffffffffffffffffffffffffffffffffffffffffffff1916827bffffffffffffffffffffffffffffffffffffffffffffffffffffffff191614806104ad57507f5b5e139f000000000000000000000000000000000000000000000000000000007bffffffffffffffffffffffffffffffffffffffffffffffffffffffff1916827bffffffffffffffffffffffffffffffffffffffffffffffffffffffff1916145b806104bd57506104bc82610f6a565b5b9050919050565b6060600080546104d390612d83565b80601f01602080910402602001604051908101604052809291908181526020018280546104ff90612d83565b801561054c5780601f106105215761010080835404028352916020019161054c565b820191906000526020600020905b81548152906001019060200180831161052f57829003601f168201915b5050505050905090565b600061056182610fd4565b6105a0576040517f08c379a000000000000000000000000000000000000000000000000000000000815260040161059790612a3e565b60405180910390fd5b6004600083815260200190815260200160002060009054906101000a900473ffffffffffffffffffffffffffffffffffffffff169050919050565b60006105e6826108d1565b90508073ffffffffffffffffffffffffffffffffffffffff168373ffffffffffffffffffffffffffffffffffffffff161415610657576040517f08c379a000000000000000000000000000000000000000000000000000000000815260040161064e90612a9e565b60405180910390fd5b8073ffffffffffffffffffffffffffffffffffffffff16610676611040565b73ffffffffffffffffffffffffffffffffffffffff1614806106a557506106a48161069f611040565b610ed6565b5b6106e4576040517f08c379a00000000000000000000000000000000000000000000000000000000081526004016106db9061297e565b60405180910390fd5b6106ee8383611048565b505050565b6000600780549050905090565b61071161070b611040565b82611101565b610750576040517f08c379a000000000000000000000000000000000000000000000000000000000815260040161074790612abe565b60405180910390fd5b61075b8383836111df565b505050565b61077b83838360405180602001604052806000815250610e62565b505050565b6007818154811061079057600080fd5b90600052602060002090600202016000915090508060000160009054906101000a900473ffffffffffffffffffffffffffffffffffffffff16908060010180546107d990612d83565b80601f016020809104026020016040519081016040528092919081815260200182805461080590612d83565b80156108525780601f1061082757610100808354040283529160200191610852565b820191906000526020600020905b81548152906001019060200180831161083557829003601f168201915b5050505050905082565b600060078281548110610898577f4e487b7100000000000000000000000000000000000000000000000000000000600052603260045260246000fd5b906000526020600020906002020160000160009054906101000a900473ffffffffffffffffffffffffffffffffffffffff169050919050565b6000806002600084815260200190815260200160002060009054906101000a900473ffffffffffffffffffffffffffffffffffffffff169050600073ffffffffffffffffffffffffffffffffffffffff168173ffffffffffffffffffffffffffffffffffffffff16141561097a576040517f08c379a0000000000000000000000000000000000000000000000000000000008152600401610971906129be565b60405180910390fd5b80915050919050565b60008073ffffffffffffffffffffffffffffffffffffffff168273ffffffffffffffffffffffffffffffffffffffff1614156109f4576040517f08c379a00000000000000000000000000000000000000000000000000000000081526004016109eb9061299e565b60405180910390fd5b600360008373ffffffffffffffffffffffffffffffffffffffff1673ffffffffffffffffffffffffffffffffffffffff168152602001908152602001600020549050919050565b6000806007805490509050600760405180604001604052803373ffffffffffffffffffffffffffffffffffffffff16815260200186815250908060018154018082558091505060019003906000526020600020906002020160009091909190915060008201518160000160006101000a81548173ffffffffffffffffffffffffffffffffffffffff021916908373ffffffffffffffffffffffffffffffffffffffff1602179055506020820151816001019080519060200190610aff929190611cbe565b505050610b0c338261143b565b610b168184611459565b3373ffffffffffffffffffffffffffffffffffffffff167feb7224e7b22d8c07eb875e5901438156578e936b89b2b3a294507a1e08bc427c828686604051610b6093929190612af9565b60405180910390a28091505092915050565b606060078281548110610bae577f4e487b7100000000000000000000000000000000000000000000000000000000600052603260045260246000fd5b90600052602060002090600202016001018054610bca90612d83565b80601f0160208091040260200160405190810160405280929190818152602001828054610bf690612d83565b8015610c435780601f10610c1857610100808354040283529160200191610c43565b820191906000526020600020905b815481529060010190602001808311610c2657829003601f168201915b50505050509050919050565b606060018054610c5e90612d83565b80601f0160208091040260200160405190810160405280929190818152602001828054610c8a90612d83565b8015610cd75780601f10610cac57610100808354040283529160200191610cd7565b820191906000526020600020905b815481529060010190602001808311610cba57829003601f168201915b5050505050905090565b610ce9611040565b73ffffffffffffffffffffffffffffffffffffffff168273ffffffffffffffffffffffffffffffffffffffff161415610d57576040517f08c379a0000000000000000000000000000000000000000000000000000000008152600401610d4e9061293e565b60405180910390fd5b8060056000610d64611040565b73ffffffffffffffffffffffffffffffffffffffff1673ffffffffffffffffffffffffffffffffffffffff16815260200190815260200160002060008473ffffffffffffffffffffffffffffffffffffffff1673ffffffffffffffffffffffffffffffffffffffff16815260200190815260200160002060006101000a81548160ff0219169083151502179055508173ffffffffffffffffffffffffffffffffffffffff16610e11611040565b73ffffffffffffffffffffffffffffffffffffffff167f17307eab39ab6107e8899845ad3d59bd9653f200f220920489ca2b5937696c3183604051610e5691906128a1565b60405180910390a35050565b610e73610e6d611040565b83611101565b610eb2576040517f08c379a0000000000000000000000000000000000000000000000000000000008152600401610ea990612abe565b60405180910390fd5b610ebe848484846114cd565b50505050565b6060610ecf82611529565b9050919050565b6000600560008473ffffffffffffffffffffffffffffffffffffffff1673ffffffffffffffffffffffffffffffffffffffff16815260200190815260200160002060008373ffffffffffffffffffffffffffffffffffffffff1673ffffffffffffffffffffffffffffffffffffffff16815260200190815260200160002060009054906101000a900460ff16905092915050565b60007f01ffc9a7000000000000000000000000000000000000000000000000000000007bffffffffffffffffffffffffffffffffffffffffffffffffffffffff1916827bffffffffffffffffffffffffffffffffffffffffffffffffffffffff1916149050919050565b60008073ffffffffffffffffffffffffffffffffffffffff166002600084815260200190815260200160002060009054906101000a900473ffffffffffffffffffffffffffffffffffffffff1673ffffffffffffffffffffffffffffffffffffffff1614159050919050565b600033905090565b816004600083815260200190815260200160002060006101000a81548173ffffffffffffffffffffffffffffffffffffffff021916908373ffffffffffffffffffffffffffffffffffffffff160217905550808273ffffffffffffffffffffffffffffffffffffffff166110bb836108d1565b73ffffffffffffffffffffffffffffffffffffffff167f8c5be1e5ebec7d5bd14f71427d1e84f3dd0314c0f7b2291e5b200ac8c7c3b92560405160405180910390a45050565b600061110c82610fd4565b61114b576040517f08c379a00000000000000000000000000000000000000000000000000000000081526004016111429061295e565b60405180910390fd5b6000611156836108d1565b90508073ffffffffffffffffffffffffffffffffffffffff168473ffffffffffffffffffffffffffffffffffffffff1614806111c557508373ffffffffffffffffffffffffffffffffffffffff166111ad84610556565b73ffffffffffffffffffffffffffffffffffffffff16145b806111d657506111d58185610ed6565b5b91505092915050565b8273ffffffffffffffffffffffffffffffffffffffff166111ff826108d1565b73ffffffffffffffffffffffffffffffffffffffff1614611255576040517f08c379a000000000000000000000000000000000000000000000000000000000815260040161124c90612a5e565b60405180910390fd5b600073ffffffffffffffffffffffffffffffffffffffff168273ffffffffffffffffffffffffffffffffffffffff1614156112c5576040517f08c379a00000000000000000000000000000000000000000000000000000000081526004016112bc9061291e565b60405180910390fd5b6112d083838361167b565b6112db600082611048565b6001600360008573ffffffffffffffffffffffffffffffffffffffff1673ffffffffffffffffffffffffffffffffffffffff168152602001908152602001600020600082825461132b9190612c99565b925050819055506001600360008473ffffffffffffffffffffffffffffffffffffffff1673ffffffffffffffffffffffffffffffffffffffff16815260200190815260200160002060008282546113829190612c12565b92505081905550816002600083815260200190815260200160002060006101000a81548173ffffffffffffffffffffffffffffffffffffffff021916908373ffffffffffffffffffffffffffffffffffffffff160217905550808273ffffffffffffffffffffffffffffffffffffffff168473ffffffffffffffffffffffffffffffffffffffff167fddf252ad1be2c89b69c2b068fc378daa952ba7f163c4a11628f55a4df523b3ef60405160405180910390a4505050565b611455828260405180602001604052806000815250611680565b5050565b61146282610fd4565b6114a1576040517f08c379a0000000000000000000000000000000000000000000000000000000008152600401611498906129de565b60405180910390fd5b806006600084815260200190815260200160002090805190602001906114c8929190611cbe565b505050565b6114d88484846111df565b6114e4848484846116db565b611523576040517f08c379a000000000000000000000000000000000000000000000000000000000815260040161151a906128de565b60405180910390fd5b50505050565b606061153482610fd4565b611573576040517f08c379a000000000000000000000000000000000000000000000000000000000815260040161156a90612a1e565b60405180910390fd5b600060066000848152602001908152602001600020805461159390612d83565b80601f01602080910402602001604051908101604052809291908181526020018280546115bf90612d83565b801561160c5780601f106115e15761010080835404028352916020019161160c565b820191906000526020600020905b8154815290600101906020018083116115ef57829003601f168201915b50505050509050600061161d611872565b9050600081511415611633578192505050611676565b6000825111156116685780826040516020016116509291906127e6565b60405160208183030381529060405292505050611676565b61167184611889565b925050505b919050565b505050565b61168a8383611930565b61169760008484846116db565b6116d6576040517f08c379a00000000000000000000000000000000000000000000000000000000081526004016116cd906128de565b60405180910390fd5b505050565b60006116fc8473ffffffffffffffffffffffffffffffffffffffff16611afe565b15611865578373ffffffffffffffffffffffffffffffffffffffff1663150b7a02611725611040565b8786866040518563ffffffff1660e01b81526004016117479493929190612825565b602060405180830381600087803b15801561176157600080fd5b505af192505050801561179257506040513d601f19601f8201168201806040525081019061178f919061206a565b60015b611815573d80600081146117c2576040519150601f19603f3d011682016040523d82523d6000602084013e6117c7565b606091505b5060008151141561180d576040517f08c379a0000000000000000000000000000000000000000000000000000000008152600401611804906128de565b60405180910390fd5b805181602001fd5b63150b7a0260e01b7bffffffffffffffffffffffffffffffffffffffffffffffffffffffff1916817bffffffffffffffffffffffffffffffffffffffffffffffffffffffff19161491505061186a565b600190505b949350505050565b606060405180602001604052806000815250905090565b606061189482610fd4565b6118d3576040517f08c379a00000000000000000000000000000000000000000000000000000000081526004016118ca90612a7e565b60405180910390fd5b60006118dd611872565b905060008151116118fd5760405180602001604052806000815250611928565b8061190784611b11565b6040516020016119189291906127e6565b6040516020818303038152906040525b915050919050565b600073ffffffffffffffffffffffffffffffffffffffff168273ffffffffffffffffffffffffffffffffffffffff1614156119a0576040517f08c379a0000000000000000000000000000000000000000000000000000000008152600401611997906129fe565b60405180910390fd5b6119a981610fd4565b156119e9576040517f08c379a00000000000000000000000000000000000000000000000000000000081526004016119e0906128fe565b60405180910390fd5b6119f56000838361167b565b6001600360008473ffffffffffffffffffffffffffffffffffffffff1673ffffffffffffffffffffffffffffffffffffffff1681526020019081526020016000206000828254611a459190612c12565b92505081905550816002600083815260200190815260200160002060006101000a81548173ffffffffffffffffffffffffffffffffffffffff021916908373ffffffffffffffffffffffffffffffffffffffff160217905550808273ffffffffffffffffffffffffffffffffffffffff16600073ffffffffffffffffffffffffffffffffffffffff167fddf252ad1be2c89b69c2b068fc378daa952ba7f163c4a11628f55a4df523b3ef60405160405180910390a45050565b600080823b905060008111915050919050565b60606000821415611b59576040518060400160405280600181526020017f30000000000000000000000000000000000000000000000000000000000000008152509050611cb9565b600082905060005b60008214611b8b578080611b7490612db5565b915050600a82611b849190612c68565b9150611b61565b60008167ffffffffffffffff811115611bcd577f4e487b7100000000000000000000000000000000000000000000000000000000600052604160045260246000fd5b6040519080825280601f01601f191660200182016040528015611bff5781602001600182028036833780820191505090505b5090505b60008514611cb257600182611c189190612c99565b9150600a85611c279190612dfe565b6030611c339190612c12565b60f81b818381518110611c6f577f4e487b7100000000000000000000000000000000000000000000000000000000600052603260045260246000fd5b60200101907effffffffffffffffffffffffffffffffffffffffffffffffffffffffffffff1916908160001a905350600a85611cab9190612c68565b9450611c03565b8093505050505b919050565b828054611cca90612d83565b90600052602060002090601f016020900481019282611cec5760008555611d33565b82601f10611d0557805160ff1916838001178555611d33565b82800160010185558215611d33579182015b82811115611d32578251825591602001919060010190611d17565b5b509050611d409190611d44565b5090565b5b80821115611d5d576000816000905550600101611d45565b5090565b6000611d74611d6f84612b6f565b612b3e565b905082815260208101848484011115611d8c57600080fd5b611d97848285612d41565b509392505050565b6000611db2611dad84612b9f565b612b3e565b905082815260208101848484011115611dca57600080fd5b611dd5848285612d41565b509392505050565b600081359050611dec81612efc565b92915050565b600081359050611e0181612f13565b92915050565b600081359050611e1681612f2a565b92915050565b600081519050611e2b81612f2a565b92915050565b600082601f830112611e4257600080fd5b8135611e52848260208601611d61565b91505092915050565b600082601f830112611e6c57600080fd5b8135611e7c848260208601611d9f565b91505092915050565b600081359050611e9481612f41565b92915050565b600060208284031215611eac57600080fd5b6000611eba84828501611ddd565b91505092915050565b60008060408385031215611ed657600080fd5b6000611ee485828601611ddd565b9250506020611ef585828601611ddd565b9150509250929050565b600080600060608486031215611f1457600080fd5b6000611f2286828701611ddd565b9350506020611f3386828701611ddd565b9250506040611f4486828701611e85565b9150509250925092565b60008060008060808587031215611f6457600080fd5b6000611f7287828801611ddd565b9450506020611f8387828801611ddd565b9350506040611f9487828801611e85565b925050606085013567ffffffffffffffff811115611fb157600080fd5b611fbd87828801611e31565b91505092959194509250565b60008060408385031215611fdc57600080fd5b6000611fea85828601611ddd565b9250506020611ffb85828601611df2565b9150509250929050565b6000806040838503121561201857600080fd5b600061202685828601611ddd565b925050602061203785828601611e85565b9150509250929050565b60006020828403121561205357600080fd5b600061206184828501611e07565b91505092915050565b60006020828403121561207c57600080fd5b600061208a84828501611e1c565b91505092915050565b600080604083850312156120a657600080fd5b600083013567ffffffffffffffff8111156120c057600080fd5b6120cc85828601611e5b565b925050602083013567ffffffffffffffff8111156120e957600080fd5b6120f585828601611e5b565b9150509250929050565b60006020828403121561211157600080fd5b600061211f84828501611e85565b91505092915050565b61213181612ccd565b82525050565b61214081612cdf565b82525050565b600061215182612bcf565b61215b8185612be5565b935061216b818560208601612d50565b61217481612eeb565b840191505092915050565b600061218a82612bda565b6121948185612bf6565b93506121a4818560208601612d50565b6121ad81612eeb565b840191505092915050565b60006121c382612bda565b6121cd8185612c07565b93506121dd818560208601612d50565b80840191505092915050565b60006121f6603283612bf6565b91507f4552433732313a207472616e7366657220746f206e6f6e20455243373231526560008301527f63656976657220696d706c656d656e74657200000000000000000000000000006020830152604082019050919050565b600061225c601c83612bf6565b91507f4552433732313a20746f6b656e20616c7265616479206d696e746564000000006000830152602082019050919050565b600061229c602483612bf6565b91507f4552433732313a207472616e7366657220746f20746865207a65726f2061646460008301527f72657373000000000000000000000000000000000000000000000000000000006020830152604082019050919050565b6000612302601983612bf6565b91507f4552433732313a20617070726f766520746f2063616c6c6572000000000000006000830152602082019050919050565b6000612342602c83612bf6565b91507f4552433732313a206f70657261746f7220717565727920666f72206e6f6e657860008301527f697374656e7420746f6b656e00000000000000000000000000000000000000006020830152604082019050919050565b60006123a8603883612bf6565b91507f4552433732313a20617070726f76652063616c6c6572206973206e6f74206f7760008301527f6e6572206e6f7220617070726f76656420666f7220616c6c00000000000000006020830152604082019050919050565b600061240e602a83612bf6565b91507f4552433732313a2062616c616e636520717565727920666f7220746865207a6560008301527f726f2061646472657373000000000000000000000000000000000000000000006020830152604082019050919050565b6000612474602983612bf6565b91507f4552433732313a206f776e657220717565727920666f72206e6f6e657869737460008301527f656e7420746f6b656e00000000000000000000000000000000000000000000006020830152604082019050919050565b60006124da602e83612bf6565b91507f45524337323155524953746f726167653a2055524920736574206f66206e6f6e60008301527f6578697374656e7420746f6b656e0000000000000000000000000000000000006020830152604082019050919050565b6000612540602083612bf6565b91507f4552433732313a206d696e7420746f20746865207a65726f20616464726573736000830152602082019050919050565b6000612580603183612bf6565b91507f45524337323155524953746f726167653a2055524920717565727920666f722060008301527f6e6f6e6578697374656e7420746f6b656e0000000000000000000000000000006020830152604082019050919050565b60006125e6602c83612bf6565b91507f4552433732313a20617070726f76656420717565727920666f72206e6f6e657860008301527f697374656e7420746f6b656e00000000000000000000000000000000000000006020830152604082019050919050565b600061264c602983612bf6565b91507f4552433732313a207472616e73666572206f6620746f6b656e2074686174206960008301527f73206e6f74206f776e00000000000000000000000000000000000000000000006020830152604082019050919050565b60006126b2602f83612bf6565b91507f4552433732314d657461646174613a2055524920717565727920666f72206e6f60008301527f6e6578697374656e7420746f6b656e00000000000000000000000000000000006020830152604082019050919050565b6000612718602183612bf6565b91507f4552433732313a20617070726f76616c20746f2063757272656e74206f776e6560008301527f72000000000000000000000000000000000000000000000000000000000000006020830152604082019050919050565b600061277e603183612bf6565b91507f4552433732313a207472616e736665722063616c6c6572206973206e6f74206f60008301527f776e6572206e6f7220617070726f7665640000000000000000000000000000006020830152604082019050919050565b6127e081612d37565b82525050565b60006127f282856121b8565b91506127fe82846121b8565b91508190509392505050565b600060208201905061281f6000830184612128565b92915050565b600060808201905061283a6000830187612128565b6128476020830186612128565b61285460408301856127d7565b81810360608301526128668184612146565b905095945050505050565b60006040820190506128866000830185612128565b8181036020830152612898818461217f565b90509392505050565b60006020820190506128b66000830184612137565b92915050565b600060208201905081810360008301526128d6818461217f565b905092915050565b600060208201905081810360008301526128f7816121e9565b9050919050565b600060208201905081810360008301526129178161224f565b9050919050565b600060208201905081810360008301526129378161228f565b9050919050565b60006020820190508181036000830152612957816122f5565b9050919050565b6000602082019050818103600083015261297781612335565b9050919050565b600060208201905081810360008301526129978161239b565b9050919050565b600060208201905081810360008301526129b781612401565b9050919050565b600060208201905081810360008301526129d781612467565b9050919050565b600060208201905081810360008301526129f7816124cd565b9050919050565b60006020820190508181036000830152612a1781612533565b9050919050565b60006020820190508181036000830152612a3781612573565b9050919050565b60006020820190508181036000830152612a57816125d9565b9050919050565b60006020820190508181036000830152612a778161263f565b9050919050565b60006020820190508181036000830152612a97816126a5565b9050919050565b60006020820190508181036000830152612ab78161270b565b9050919050565b60006020820190508181036000830152612ad781612771565b9050919050565b6000602082019050612af360008301846127d7565b92915050565b6000606082019050612b0e60008301866127d7565b8181036020830152612b20818561217f565b90508181036040830152612b34818461217f565b9050949350505050565b6000604051905081810181811067ffffffffffffffff82111715612b6557612b64612ebc565b5b8060405250919050565b600067ffffffffffffffff821115612b8a57612b89612ebc565b5b601f19601f8301169050602081019050919050565b600067ffffffffffffffff821115612bba57612bb9612ebc565b5b601f19601f8301169050602081019050919050565b600081519050919050565b600081519050919050565b600082825260208201905092915050565b600082825260208201905092915050565b600081905092915050565b6000612c1d82612d37565b9150612c2883612d37565b9250827fffffffffffffffffffffffffffffffffffffffffffffffffffffffffffffffff03821115612c5d57612c5c612e2f565b5b828201905092915050565b6000612c7382612d37565b9150612c7e83612d37565b925082612c8e57612c8d612e5e565b5b828204905092915050565b6000612ca482612d37565b9150612caf83612d37565b925082821015612cc257612cc1612e2f565b5b828203905092915050565b6000612cd882612d17565b9050919050565b60008115159050919050565b60007fffffffff0000000000000000000000000000000000000000000000000000000082169050919050565b600073ffffffffffffffffffffffffffffffffffffffff82169050919050565b6000819050919050565b82818337600083830152505050565b60005b83811015612d6e578082015181840152602081019050612d53565b83811115612d7d576000848401525b50505050565b60006002820490506001821680612d9b57607f821691505b60208210811415612daf57612dae612e8d565b5b50919050565b6000612dc082612d37565b91507fffffffffffffffffffffffffffffffffffffffffffffffffffffffffffffffff821415612df357612df2612e2f565b5b600182019050919050565b6000612e0982612d37565b9150612e1483612d37565b925082612e2457612e23612e5e565b5b828206905092915050565b7f4e487b7100000000000000000000000000000000000000000000000000000000600052601160045260246000fd5b7f4e487b7100000000000000000000000000000000000000000000000000000000600052601260045260246000fd5b7f4e487b7100000000000000000000000000000000000000000000000000000000600052602260045260246000fd5b7f4e487b7100000000000000000000000000000000000000000000000000000000600052604160045260246000fd5b6000601f19601f8301169050919050565b612f0581612ccd565b8114612f1057600080fd5b50565b612f1c81612cdf565b8114612f2757600080fd5b50565b612f3381612ceb565b8114612f3e57600080fd5b50565b612f4a81612d37565b8114612f5557600080fd5b5056fea2646970667358221220c5da75cd4429d5ba0f86047dea0d66272cc8c5522c52c93ee57fa32d9ae6662164736f6c63430008000033",
  "linkReferences": {},
  "deployedLinkReferences": {}
}