{
  "_format": "hh-sol-artifact-1",
  "contractName": "EchionNFT",
  "sourceName": "contracts/EchionNFT.sol",
  "abi": [
    {
      "inputs": [],
      "stateMutability": "nonpayable",
      "type": "constructor"
    },
    {
      "anonymous": false,
      "inputs": [
        {
          "indexed": true,
          "internalType": "address",
          "name": "owner",
          "type": "address"
        },
        {
          "indexed": true,
          "internalType": "address",
          "name": "approved",
          "type": "address"
        },
        {
          "indexed": true,
          "internalType": "uint256",
          "name": "tokenId",
          "type": "uint256"
        }
      ],
      "name": "Approval",
      "type": "event"
    },
    {
      "anonymous": false,
      "inputs": [
        {
          "indexed": true,
          "internalType": "address",
          "name": "owner",
          "type": "address"
        },
        {
          "indexed": true,
          "internalType": "address",
          "name": "operator",
          "type": "address"
        },
        {
          "indexed": false,
          "internalType": "bool",
          "name": "approved",
          "type": "bool"
        }
      ],
      "name": "ApprovalForAll",
      "type": "event"
    },
    {
      "anonymous": false,
      "inputs": [
        {
          "indexed": false,
          "internalType": "uint256",
          "name": "id",
          "type": "uint256"
        },
        {
          "indexed": true,
          "internalType": "address",
          "name": "creator",
          "type": "address"
        },
        {
          "indexed": false,
          "internalType": "string",
          "name": "imageURI",
          "type": "string"
        },
        {
          "indexed": false,
          "internalType": "string",
          "name": "metadataURI",
          "type": "string"
        }
      ],
      "name": "AutographMinted",
      "type": "event"
    },
    {
      "anonymous": false,
      "inputs": [
        {
          "indexed": true,
          "internalType": "address",
          "name": "from",
          "type": "address"
        },
        {
          "indexed": true,
          "internalType": "address",
          "name": "to",
          "type": "address"
        },
        {
          "indexed": true,
          "internalType": "uint256",
          "name": "tokenId",
          "type": "uint256"
        }
      ],
      "name": "Transfer",
      "type": "event"
    },
    {
      "inputs": [
        {
          "internalType": "address",
          "name": "to",
          "type": "address"
        },
        {
          "internalType": "uint256",
          "name": "tokenId",
          "type": "uint256"
        }
      ],
      "name": "approve",
      "outputs": [],
      "stateMutability": "nonpayable",
      "type": "function"
    },
    {
      "inputs": [
        {
          "internalType": "address",
          "name": "owner",
          "type": "address"
        }
      ],
      "name": "balanceOf",
      "outputs": [
        {
          "internalType": "uint256",
          "name": "",
          "type": "uint256"
        }
      ],
      "stateMutability": "view",
      "type": "function"
    },
    {
      "inputs": [
        {
          "internalType": "uint256",
          "name": "tokenId",
          "type": "uint256"
        }
      ],
      "name": "creatorOf",
      "outputs": [
        {
          "internalType": "address",
          "name": "",
          "type": "address"
        }
      ],
      "stateMutability": "view",
      "type": "function"
    },
    {
      "inputs": [
        {
          "internalType": "uint256",
          "name": "tokenId",
          "type": "uint256"
        }
      ],
      "name": "getApproved",
      "outputs": [
        {
          "internalType": "address",
          "name": "",
          "type": "address"
        }
      ],
      "stateMutability": "view",
      "type": "function"
    },
    {
      "inputs": [
        {
          "internalType": "uint256",
          "name": "tokenId",
          "type": "uint256"
        }
      ],
      "name": "imageURI",
      "outputs": [
        {
          "internalType": "string",
          "name": "",
          "type": "string"
        }
      ],
      "stateMutability": "view",
      "type": "function"
    },
    {
      "inputs": [
        {
          "internalType": "address",
          "name": "owner",
          "type": "address"
        },
        {
          "internalType": "address",
          "name": "operator",
          "type": "address"
        }
      ],
      "name": "isApprovedForAll",
      "outputs": [
        {
          "internalType": "bool",
          "name": "",
          "type": "bool"
        }
      ],
      "stateMutability": "view",
      "type": "function"
    },
    {
      "inputs": [
        {
          "internalType": "string",
          "name": "imageURI",
          "type": "string"
        },
        {
          "internalType": "string",
          "name": "metadataURI",
          "type": "string"
        }
      ],
      "name": "mint",
      "outputs": [
        {
          "internalType": "uint256",
          "name": "",
          "type": "uint256"
        }
      ],
      "stateMutability": "nonpayable",
      "type": "function"
    },
    {
      "inputs": [],
      "name": "name",
      "outputs": [
        {
          "internalType": "string",
          "name": "",
          "type": "string"
        }
      ],
      "stateMutability": "view",
      "type": "function"
    },
    {
      "inputs": [
        {
          "internalType": "uint256",
          "name": "tokenId",
          "type": "uint256"
        }
      ],
      "name": "ownerOf",
      "outputs": [
        {
          "internalType": "address",
          "name": "",
          "type": "address"
        }
      ],
      "stateMutability": "view",
      "type": "function"
    },
    {
      "inputs": [
        {
          "internalType": "address",
          "name": "from",
          "type": "address"
        },
        {
          "internalType": "address",
          "name": "to",
          "type": "address"
        },
        {
          "internalType": "uint256",
          "name": "tokenId",
          "type": "uint256"
        }
      ],
      "name": "safeTransferFrom",
      "outputs": [],
      "stateMutability": "nonpayable",
      "type": "function"
    },
    {
      "inputs": [
        {
          "internalType": "address",
          "name": "from",
          "type": "address"
        },
        {
          "internalType": "address",
          "name": "to",
          "type": "address"
        },
        {
          "internalType": "uint256",
          "name": "tokenId",
          "type": "uint256"
        },
        {
          "internalType": "bytes",
          "name": "_data",
          "type": "bytes"
        }
      ],
      "name": "safeTransferFrom",
      "outputs": [],
      "stateMutability": "nonpayable",
      "type": "function"
    },
    {
      "inputs": [
        {
          "internalType": "address",
          "name": "operator",
          "type": "address"
        },
        {
          "internalType": "bool",
          "name": "approved",
          "type": "bool"
        }
      ],
      "name": "setApprovalForAll",
      "outputs": [],
      "stateMutability": "nonpayable",
      "type": "function"
    },
    {
      "inputs": [
        {
          "internalType": "bytes4",
          "name": "interfaceId",
          "type": "bytes4"
        }
      ],
      "name": "supportsInterface",
      "outputs": [
        {
          "internalType": "bool",
          "name": "",
          "type": "bool"
        }
      ],
      "stateMutability": "view",
      "type": "function"
    },
    {
      "inputs": [],
      "name": "symbol",
      "outputs": [
        {
          "internalType": "string",
          "name": "",
          "type": "string"
        }
      ],
      "stateMutability": "view",
      "type": "function"
    },
    {
      "inputs": [
        {
          "internalType": "uint256",
          "name": "tokenId",
          "type": "uint256"
        }
      ],
      "name": "tokenURI",
      "outputs": [
        {
          "internalType": "string",
          "name": "",
          "type": "string"
        }
      ],
      "stateMutability": "view",
      "type": "function"
    },
    {
      "inputs": [
        {
          "internalType": "uint256",
          "name": "",
          "type": "uint256"
        }
      ],
      "name": "tokens",
      "outputs": [
        {
          "internalType": "address",
          "name": "creator",
          "type": "address"
        },
        {
          "internalType": "string",
          "name": "imageURI",
          "type": "string"
        }
      ],
      "stateMutability": "view",
      "type": "function"
    },
    {
      "inputs": [],
      "name": "totalSupply",
      "outputs": [
        {
          "internalType": "uint256",
          "name": "",
          "type": "uint256"
        }
      ],
      "stateMutability": "view",
      "type": "function"
    },
    {
      "inputs": [
        {
          "internalType": "address",
          "name": "from",
          "type": "address"
        },
        {
          "internalType": "address",
          "name": "to",
          "type": "address"
        },
        {
          "internalType": "uint256",
          "name": "tokenId",
          "type": "uint256"
        }
      ],
      "name": "transferFrom",
      "outputs": [],
      "stateMutability": "nonpayable",
      "type": "function"
    }
  ],
  "bytecode": "0x60806040523480156200001157600080fd5b50604080518082018252601381527f456368696f6e2050726f746f636f6c204e4654000000000000000000000000006020808301918252835180850190945260068452651150d213919560d21b908401528151919291620000759160009162000094565b5080516200008b90600190602084019062000094565b50505062000177565b828054620000a2906200013a565b90600052602060002090601f016020900481019282620000c6576000855562000111565b82601f10620000e157805160ff191683800117855562000111565b8280016001018555821562000111579182015b8281111562000111578251825591602001919060010190620000f4565b506200011f92915062000123565b5090565b5b808211156200011f576000815560010162000124565b6002810460018216806200014f57607f821691505b602082108114156200017157634e487b7160e01b600052602260045260246000fd5b50919050565b611ba280620001876000396000f3fe608060405234801561001057600080fd5b50600436106101165760003560e01c80636352211e116100a257806395d89b411161007157806395d89b4114610249578063a22cb46514610251578063b88d4fde14610264578063c87b56dd14610277578063e985e9c51461028a57610116565b80636352211e146101fd57806370a08231146102105780638aa0fdad146102235780638f742d161461023657610116565b806318160ddd116100e957806318160ddd1461018e57806323b872dd146101a357806342842e0e146101b65780634f64b2be146101c9578063589a1743146101ea57610116565b806301ffc9a71461011b57806306fdde0314610144578063081812fc14610159578063095ea7b314610179575b600080fd5b61012e6101293660046113db565b61029d565b60405161013b919061155c565b60405180910390f35b61014c6102e5565b60405161013b9190611567565b61016c610167366004611474565b610377565b60405161013b91906114e7565b61018c6101873660046113b2565b6103c3565b005b61019661045b565b60405161013b9190611a04565b61018c6101b13660046112c4565b610461565b61018c6101c43660046112c4565b610499565b6101dc6101d7366004611474565b6104b4565b60405161013b929190611538565b61016c6101f8366004611474565b610576565b61016c61020b366004611474565b6105b9565b61019661021e366004611278565b6105ee565b610196610231366004611413565b610632565b61014c610244366004611474565b610735565b61014c6107f9565b61018c61025f366004611378565b610808565b61018c6102723660046112ff565b6108d6565b61014c610285366004611474565b610915565b61012e610298366004611292565b610920565b60006001600160e01b031982166380ac58cd60e01b14806102ce57506001600160e01b03198216635b5e139f60e01b145b806102dd57506102dd8261094e565b90505b919050565b6060600080546102f490611aa7565b80601f016020809104026020016040519081016040528092919081815260200182805461032090611aa7565b801561036d5780601f106103425761010080835404028352916020019161036d565b820191906000526020600020905b81548152906001019060200180831161035057829003601f168201915b5050505050905090565b600061038282610967565b6103a75760405162461bcd60e51b815260040161039e9061188e565b60405180910390fd5b506000908152600460205260409020546001600160a01b031690565b60006103ce826105b9565b9050806001600160a01b0316836001600160a01b031614156104025760405162461bcd60e51b815260040161039e90611972565b806001600160a01b0316610414610984565b6001600160a01b03161480610430575061043081610298610984565b61044c5760405162461bcd60e51b815260040161039e906116ca565b6104568383610988565b505050565b60075490565b61047261046c610984565b826109f6565b61048e5760405162461bcd60e51b815260040161039e906119b3565b610456838383610a7b565b610456838383604051806020016040528060008152506108d6565b600781815481106104c457600080fd5b6000918252602090912060029091020180546001820180546001600160a01b039092169350906104f390611aa7565b80601f016020809104026020016040519081016040528092919081815260200182805461051f90611aa7565b801561056c5780601f106105415761010080835404028352916020019161056c565b820191906000526020600020905b81548152906001019060200180831161054f57829003601f168201915b5050505050905082565b60006007828154811061059957634e487b7160e01b600052603260045260246000fd5b60009182526020909120600290910201546001600160a01b031692915050565b6000818152600260205260408120546001600160a01b0316806102dd5760405162461bcd60e51b815260040161039e90611771565b60006001600160a01b0382166106165760405162461bcd60e51b815260040161039e90611727565b506001600160a01b031660009081526003602052604090205490565b60078054604080518082019091523381526020808201868152600184018555600094855282517fa66cc928b5edb82af9bd49922954155ab7b0942694bea4ce44661d9a8736c6886002860290810180546001600160a01b0319166001600160a01b039093169290921782559151805191936106d2937fa66cc928b5edb82af9bd49922954155ab7b0942694bea4ce44661d9a8736c6890192910190611139565b5050506106df3382610ba8565b6106e98184610bc6565b336001600160a01b03167feb7224e7b22d8c07eb875e5901438156578e936b89b2b3a294507a1e08bc427c82868660405161072693929190611a0d565b60405180910390a29392505050565b60606007828154811061075857634e487b7160e01b600052603260045260246000fd5b9060005260206000209060020201600101805461077490611aa7565b80601f01602080910402602001604051908101604052809291908181526020018280546107a090611aa7565b80156107ed5780601f106107c2576101008083540402835291602001916107ed565b820191906000526020600020905b8154815290600101906020018083116107d057829003601f168201915b50505050509050919050565b6060600180546102f490611aa7565b610810610984565b6001600160a01b0316826001600160a01b031614156108415760405162461bcd60e51b815260040161039e90611647565b806005600061084e610984565b6001600160a01b03908116825260208083019390935260409182016000908120918716808252919093529120805460ff191692151592909217909155610892610984565b6001600160a01b03167f17307eab39ab6107e8899845ad3d59bd9653f200f220920489ca2b5937696c31836040516108ca919061155c565b60405180910390a35050565b6108e76108e1610984565b836109f6565b6109035760405162461bcd60e51b815260040161039e906119b3565b61090f84848484610c0a565b50505050565b60606102dd82610c3d565b6001600160a01b03918216600090815260056020908152604080832093909416825291909152205460ff1690565b6001600160e01b031981166301ffc9a760e01b14919050565b6000908152600260205260409020546001600160a01b0316151590565b3390565b600081815260046020526040902080546001600160a01b0319166001600160a01b03841690811790915581906109bd826105b9565b6001600160a01b03167f8c5be1e5ebec7d5bd14f71427d1e84f3dd0314c0f7b2291e5b200ac8c7c3b92560405160405180910390a45050565b6000610a0182610967565b610a1d5760405162461bcd60e51b815260040161039e9061167e565b6000610a28836105b9565b9050806001600160a01b0316846001600160a01b03161480610a635750836001600160a01b0316610a5884610377565b6001600160a01b0316145b80610a735750610a738185610920565b949350505050565b826001600160a01b0316610a8e826105b9565b6001600160a01b031614610ab45760405162461bcd60e51b815260040161039e906118da565b6001600160a01b038216610ada5760405162461bcd60e51b815260040161039e90611603565b610ae5838383610456565b610af0600082610988565b6001600160a01b0383166000908152600360205260408120805460019290610b19908490611a64565b90915550506001600160a01b0382166000908152600360205260408120805460019290610b47908490611a38565b909155505060008181526002602052604080822080546001600160a01b0319166001600160a01b0386811691821790925591518493918716917fddf252ad1be2c89b69c2b068fc378daa952ba7f163c4a11628f55a4df523b3ef91a4505050565b610bc2828260405180602001604052806000815250610d56565b5050565b610bcf82610967565b610beb5760405162461bcd60e51b815260040161039e906117ba565b6000828152600660209081526040909120825161045692840190611139565b610c15848484610a7b565b610c2184848484610d89565b61090f5760405162461bcd60e51b815260040161039e9061157a565b6060610c4882610967565b610c645760405162461bcd60e51b815260040161039e9061183d565b60008281526006602052604081208054610c7d90611aa7565b80601f0160208091040260200160405190810160405280929190818152602001828054610ca990611aa7565b8015610cf65780601f10610ccb57610100808354040283529160200191610cf6565b820191906000526020600020905b815481529060010190602001808311610cd957829003601f168201915b505050505090506000610d07610ea4565b9050805160001415610d1b575090506102e0565b815115610d4d578082604051602001610d359291906114b8565b604051602081830303815290604052925050506102e0565b610a7384610eb6565b610d608383610f39565b610d6d6000848484610d89565b6104565760405162461bcd60e51b815260040161039e9061157a565b6000610d9d846001600160a01b0316611018565b15610e9957836001600160a01b031663150b7a02610db9610984565b8786866040518563ffffffff1660e01b8152600401610ddb94939291906114fb565b602060405180830381600087803b158015610df557600080fd5b505af1925050508015610e25575060408051601f3d908101601f19168201909252610e22918101906113f7565b60015b610e7f573d808015610e53576040519150601f19603f3d011682016040523d82523d6000602084013e610e58565b606091505b508051610e775760405162461bcd60e51b815260040161039e9061157a565b805181602001fd5b6001600160e01b031916630a85bd0160e11b149050610a73565b506001949350505050565b60408051602081019091526000815290565b6060610ec182610967565b610edd5760405162461bcd60e51b815260040161039e90611923565b6000610ee7610ea4565b90506000815111610f075760405180602001604052806000815250610f32565b80610f118461101e565b604051602001610f229291906114b8565b6040516020818303038152906040525b9392505050565b6001600160a01b038216610f5f5760405162461bcd60e51b815260040161039e90611808565b610f6881610967565b15610f855760405162461bcd60e51b815260040161039e906115cc565b610f9160008383610456565b6001600160a01b0382166000908152600360205260408120805460019290610fba908490611a38565b909155505060008181526002602052604080822080546001600160a01b0319166001600160a01b03861690811790915590518392907fddf252ad1be2c89b69c2b068fc378daa952ba7f163c4a11628f55a4df523b3ef908290a45050565b3b151590565b60608161104357506040805180820190915260018152600360fc1b60208201526102e0565b8160005b811561106d578061105781611ae2565b91506110669050600a83611a50565b9150611047565b60008167ffffffffffffffff81111561109657634e487b7160e01b600052604160045260246000fd5b6040519080825280601f01601f1916602001820160405280156110c0576020820181803683370190505b5090505b8415610a73576110d5600183611a64565b91506110e2600a86611afd565b6110ed906030611a38565b60f81b81838151811061111057634e487b7160e01b600052603260045260246000fd5b60200101906001600160f81b031916908160001a905350611132600a86611a50565b94506110c4565b82805461114590611aa7565b90600052602060002090601f01602090048101928261116757600085556111ad565b82601f1061118057805160ff19168380011785556111ad565b828001600101855582156111ad579182015b828111156111ad578251825591602001919060010190611192565b506111b99291506111bd565b5090565b5b808211156111b957600081556001016111be565b600067ffffffffffffffff808411156111ed576111ed611b3d565b604051601f8501601f19168101602001828111828210171561121157611211611b3d565b60405284815291508183850186101561122957600080fd5b8484602083013760006020868301015250509392505050565b80356001600160a01b03811681146102e057600080fd5b600082601f830112611269578081fd5b610f32838335602085016111d2565b600060208284031215611289578081fd5b610f3282611242565b600080604083850312156112a4578081fd5b6112ad83611242565b91506112bb60208401611242565b90509250929050565b6000806000606084860312156112d8578081fd5b6112e184611242565b92506112ef60208501611242565b9150604084013590509250925092565b60008060008060808587031215611314578081fd5b61131d85611242565b935061132b60208601611242565b925060408501359150606085013567ffffffffffffffff81111561134d578182fd5b8501601f8101871361135d578182fd5b61136c878235602084016111d2565b91505092959194509250565b6000806040838503121561138a578182fd5b61139383611242565b9150602083013580151581146113a7578182fd5b809150509250929050565b600080604083850312156113c4578182fd5b6113cd83611242565b946020939093013593505050565b6000602082840312156113ec578081fd5b8135610f3281611b53565b600060208284031215611408578081fd5b8151610f3281611b53565b60008060408385031215611425578182fd5b823567ffffffffffffffff8082111561143c578384fd5b61144886838701611259565b9350602085013591508082111561145d578283fd5b5061146a85828601611259565b9150509250929050565b600060208284031215611485578081fd5b5035919050565b600081518084526114a4816020860160208601611a7b565b601f01601f19169290920160200192915050565b600083516114ca818460208801611a7b565b8351908301906114de818360208801611a7b565b01949350505050565b6001600160a01b0391909116815260200190565b6001600160a01b038581168252841660208201526040810183905260806060820181905260009061152e9083018461148c565b9695505050505050565b6001600160a01b0383168152604060208201819052600090610a739083018461148c565b901515815260200190565b600060208252610f32602083018461148c565b60208082526032908201527f4552433732313a207472616e7366657220746f206e6f6e20455243373231526560408201527131b2b4bb32b91034b6b83632b6b2b73a32b960711b606082015260800190565b6020808252601c908201527f4552433732313a20746f6b656e20616c7265616479206d696e74656400000000604082015260600190565b60208082526024908201527f4552433732313a207472616e7366657220746f20746865207a65726f206164646040820152637265737360e01b606082015260800190565b60208082526019908201527f4552433732313a20617070726f766520746f2063616c6c657200000000000000604082015260600190565b6020808252602c908201527f4552433732313a206f70657261746f7220717565727920666f72206e6f6e657860408201526b34b9ba32b73a103a37b5b2b760a11b606082015260800190565b60208082526038908201527f4552433732313a20617070726f76652063616c6c6572206973206e6f74206f7760408201527f6e6572206e6f7220617070726f76656420666f7220616c6c0000000000000000606082015260800190565b6020808252602a908201527f4552433732313a2062616c616e636520717565727920666f7220746865207a65604082015269726f206164647265737360b01b606082015260800190565b60208082526029908201527f4552433732313a206f776e657220717565727920666f72206e6f6e657869737460408201526832b73a103a37b5b2b760b91b606082015260800190565b6020808252602e908201527f45524337323155524953746f726167653a2055524920736574206f66206e6f6e60408201526d32bc34b9ba32b73a103a37b5b2b760911b606082015260800190565b6020808252818101527f4552433732313a206d696e7420746f20746865207a65726f2061646472657373604082015260600190565b60208082526031908201527f45524337323155524953746f726167653a2055524920717565727920666f72206040820152703737b732bc34b9ba32b73a103a37b5b2b760791b606082015260800190565b6020808252602c908201527f4552433732313a20617070726f76656420717565727920666f72206e6f6e657860408201526b34b9ba32b73a103a37b5b2b760a11b606082015260800190565b60208082526029908201527f4552433732313a207472616e73666572206f6620746f6b656e2074686174206960408201526839903737ba1037bbb760b91b606082015260800190565b6020808252602f908201527f4552433732314d657461646174613a2055524920717565727920666f72206e6f60408201526e3732bc34b9ba32b73a103a37b5b2b760891b606082015260800190565b60208082526021908201527f4552433732313a20617070726f76616c20746f2063757272656e74206f776e656040820152603960f91b606082015260800190565b60208082526031908201527f4552433732313a207472616e736665722063616c6c6572206973206e6f74206f6040820152701ddb995c881b9bdc88185c1c1c9bdd9959607a1b606082015260800190565b90815260200190565b600084825260606020830152611a26606083018561148c565b828103604084015261152e818561148c565b60008219821115611a4b57611a4b611b11565b500190565b600082611a5f57611a5f611b27565b500490565b600082821015611a7657611a76611b11565b500390565b60005b83811015611a96578181015183820152602001611a7e565b8381111561090f5750506000910152565b600281046001821680611abb57607f821691505b60208210811415611adc57634e487b7160e01b600052602260045260246000fd5b50919050565b6000600019821415611af657611af6611b11565b5060010190565b600082611b0c57611b0c611b27565b500690565b634e487b7160e01b600052601160045260246000fd5b634e487b7160e01b600052601260045260246000fd5b634e487b7160e01b600052604160045260246000fd5b6001600160e01b031981168114611b6957600080fd5b5056fea2646970667358221220384bea5788b4e69fef1eb55ba1bda3dc461472aad63e8b4927e8ed526349f52964736f6c63430008000033",
  "linkReferences": {},
  "deployedLinkReferences": {}
}