{
  "_format": "hh-sol-artifact-1",
  "contractName": "LotteryPoolFactory",
  "sourceName": "contracts/LotteryPoolFactory.sol",
  "abi": [
    {
      "anonymous": false,
      "inputs": [
        {
          "indexed": false,
          "internalType": "uint256",
          "name": "feePercent",
          "type": "uint256"
        }
      ],
      "name": "FeePercentChanged",
      "type": "event"
    },
    {
      "anonymous": false,
      "inputs": [
        {
          "indexed": false,
          "internalType": "uint256",
          "name": "lotteryId",
          "type": "uint256"
        },
        {
          "indexed": false,
          "internalType": "uint256",
          "name": "fees",
          "type": "uint256"
        }
      ],
      "name": "LotteryCancelled",
      "type": "event"
    },
    {
      "anonymous": false,
      "inputs": [
        {
          "indexed": false,
          "internalType": "uint256",
          "name": "lotteryId",
          "type": "uint256"
        },
        {
          "indexed": false,
          "internalType": "address",
          "name": "winner",
          "type": "address"
        },
        {
          "indexed": false,
          "internalType": "uint256",
          "name": "profit",
          "type": "uint256"
        },
        {
          "indexed": false,
          "internalType": "uint256",
          "name": "fees",
          "type": "uint256"
        }
      ],
      "name": "LotteryClosed",
      "type": "event"
    },
    {
      "anonymous": false,
      "inputs": [
        {
          "indexed": false,
          "internalType": "uint256",
          "name": "lotteryId",
          "type": "uint256"
        },
        {
          "indexed": false,
          "internalType": "address",
          "name": "creator",
          "type": "address"
        },
        {
          "indexed": false,
          "internalType": "address",
          "name": "lotteryAddress",
          "type": "address"
        },
        {
          "indexed": false,
          "internalType": "address",
          "name": "nftAddress",
          "type": "address"
        },
        {
          "indexed": false,
          "internalType": "uint256",
          "name": "nftIndex",
          "type": "uint256"
        },
        {
          "indexed": false,
          "internalType": "uint256",
          "name": "ticketPrice",
          "type": "uint256"
        },
        {
          "indexed": false,
          "internalType": "uint256",
          "name": "created",
          "type": "uint256"
        },
        {
          "indexed": false,
          "internalType": "uint256",
          "name": "lotteryPoolType",
          "type": "uint256"
        },
        {
          "indexed": false,
          "internalType": "uint256",
          "name": "minAmount",
          "type": "uint256"
        }
      ],
      "name": "LotteryCreated",
      "type": "event"
    },
    {
      "anonymous": false,
      "inputs": [
        {
          "indexed": false,
          "internalType": "uint256",
          "name": "lotteryId",
          "type": "uint256"
        },
        {
          "indexed": false,
          "internalType": "uint256",
          "name": "stakedAmount",
          "type": "uint256"
        }
      ],
      "name": "LotteryStaked",
      "type": "event"
    },
    {
      "anonymous": false,
      "inputs": [
        {
          "indexed": false,
          "internalType": "uint256",
          "name": "minDaysOpen",
          "type": "uint256"
        }
      ],
      "name": "MinDaysOpenChanged",
      "type": "event"
    },
    {
      "anonymous": false,
      "inputs": [
        {
          "indexed": true,
          "internalType": "address",
          "name": "previousOwner",
          "type": "address"
        },
        {
          "indexed": true,
          "internalType": "address",
          "name": "newOwner",
          "type": "address"
        }
      ],
      "name": "OwnershipTransferred",
      "type": "event"
    },
    {
      "anonymous": false,
      "inputs": [
        {
          "indexed": false,
          "internalType": "address",
          "name": "account",
          "type": "address"
        }
      ],
      "name": "Paused",
      "type": "event"
    },
    {
      "anonymous": false,
      "inputs": [
        {
          "indexed": false,
          "internalType": "address",
          "name": "account",
          "type": "address"
        }
      ],
      "name": "Unpaused",
      "type": "event"
    },
    {
      "anonymous": false,
      "inputs": [
        {
          "indexed": true,
          "internalType": "address",
          "name": "addr",
          "type": "address"
        }
      ],
      "name": "WalletChanged",
      "type": "event"
    },
    {
      "inputs": [
        {
          "internalType": "uint256",
          "name": "_lotteryPoolTypeId",
          "type": "uint256"
        },
        {
          "internalType": "bytes32",
          "name": "_lotteryPoolTypeName",
          "type": "bytes32"
        },
        {
          "internalType": "address",
          "name": "_masterPoolAddress",
          "type": "address"
        }
      ],
      "name": "addMasterPool",
      "outputs": [],
      "stateMutability": "nonpayable",
      "type": "function"
    },
    {
      "inputs": [
        {
          "internalType": "address",
          "name": "_nftAddress",
          "type": "address"
        },
        {
          "internalType": "uint256",
          "name": "_nftIndex",
          "type": "uint256"
        },
        {
          "internalType": "uint256",
          "name": "_ticketPrice",
          "type": "uint256"
        },
        {
          "internalType": "uint256",
          "name": "_minProfit",
          "type": "uint256"
        },
        {
          "internalType": "uint256",
          "name": "_lotteryPoolType",
          "type": "uint256"
        }
      ],
      "name": "createLottery",
      "outputs": [],
      "stateMutability": "nonpayable",
      "type": "function"
    },
    {
      "inputs": [
        {
          "internalType": "uint256",
          "name": "_lotteryId",
          "type": "uint256"
        },
        {
          "internalType": "uint256",
          "name": "_amount",
          "type": "uint256"
        }
      ],
      "name": "decreaseTotalSupply",
      "outputs": [],
      "stateMutability": "nonpayable",
      "type": "function"
    },
    {
      "inputs": [],
      "name": "getFeePercent",
      "outputs": [
        {
          "internalType": "uint256",
          "name": "",
          "type": "uint256"
        }
      ],
      "stateMutability": "view",
      "type": "function"
    },
    {
      "inputs": [
        {
          "internalType": "uint256",
          "name": "_lotteryPoolTypeId",
          "type": "uint256"
        }
      ],
      "name": "getLotteryPoolTypeName",
      "outputs": [
        {
          "internalType": "bytes32",
          "name": "",
          "type": "bytes32"
        }
      ],
      "stateMutability": "view",
      "type": "function"
    },
    {
      "inputs": [],
      "name": "getMinDaysOpen",
      "outputs": [
        {
          "internalType": "uint256",
          "name": "",
          "type": "uint256"
        }
      ],
      "stateMutability": "view",
      "type": "function"
    },
    {
      "inputs": [],
      "name": "getStakingAdapter",
      "outputs": [
        {
          "internalType": "address",
          "name": "",
          "type": "address"
        }
      ],
      "stateMutability": "view",
      "type": "function"
    },
    {
      "inputs": [],
      "name": "getWallet",
      "outputs": [
        {
          "internalType": "address",
          "name": "",
          "type": "address"
        }
      ],
      "stateMutability": "view",
      "type": "function"
    },
    {
      "inputs": [
        {
          "internalType": "uint256",
          "name": "_lotteryId",
          "type": "uint256"
        },
        {
          "internalType": "uint256",
          "name": "_amount",
          "type": "uint256"
        }
      ],
      "name": "increaseTotalSupply",
      "outputs": [],
      "stateMutability": "nonpayable",
      "type": "function"
    },
    {
      "inputs": [
        {
          "internalType": "address",
          "name": "_stakingAdapter",
          "type": "address"
        }
      ],
      "name": "initialize",
      "outputs": [],
      "stateMutability": "nonpayable",
      "type": "function"
    },
    {
      "inputs": [
        {
          "internalType": "uint256",
          "name": "",
          "type": "uint256"
        }
      ],
      "name": "lotteries",
      "outputs": [
        {
          "internalType": "contract ILotteryPool",
          "name": "",
          "type": "address"
        }
      ],
      "stateMutability": "view",
      "type": "function"
    },
    {
      "inputs": [
        {
          "internalType": "uint256",
          "name": "_lotteryId",
          "type": "uint256"
        },
        {
          "internalType": "uint256",
          "name": "_fees",
          "type": "uint256"
        }
      ],
      "name": "lotteryCancelled",
      "outputs": [],
      "stateMutability": "nonpayable",
      "type": "function"
    },
    {
      "inputs": [
        {
          "internalType": "uint256",
          "name": "_lotteryId",
          "type": "uint256"
        },
        {
          "internalType": "address",
          "name": "_winner",
          "type": "address"
        },
        {
          "internalType": "uint256",
          "name": "_profit",
          "type": "uint256"
        },
        {
          "internalType": "uint256",
          "name": "_fees",
          "type": "uint256"
        }
      ],
      "name": "lotteryClosed",
      "outputs": [],
      "stateMutability": "nonpayable",
      "type": "function"
    },
    {
      "inputs": [
        {
          "internalType": "uint256",
          "name": "_lotteryId",
          "type": "uint256"
        },
        {
          "internalType": "uint256",
          "name": "_stakedAmount",
          "type": "uint256"
        }
      ],
      "name": "lotteryStaked",
      "outputs": [],
      "stateMutability": "nonpayable",
      "type": "function"
    },
    {
      "inputs": [],
      "name": "numberOfActiveLotteries",
      "outputs": [
        {
          "internalType": "uint256",
          "name": "",
          "type": "uint256"
        }
      ],
      "stateMutability": "view",
      "type": "function"
    },
    {
      "inputs": [],
      "name": "owner",
      "outputs": [
        {
          "internalType": "address",
          "name": "",
          "type": "address"
        }
      ],
      "stateMutability": "view",
      "type": "function"
    },
    {
      "inputs": [],
      "name": "pause",
      "outputs": [],
      "stateMutability": "nonpayable",
      "type": "function"
    },
    {
      "inputs": [],
      "name": "paused",
      "outputs": [
        {
          "internalType": "bool",
          "name": "",
          "type": "bool"
        }
      ],
      "stateMutability": "view",
      "type": "function"
    },
    {
      "inputs": [],
      "name": "renounceOwnership",
      "outputs": [],
      "stateMutability": "nonpayable",
      "type": "function"
    },
    {
      "inputs": [
        {
          "internalType": "uint256",
          "name": "_feePercent",
          "type": "uint256"
        }
      ],
      "name": "setFeePercent",
      "outputs": [],
      "stateMutability": "nonpayable",
      "type": "function"
    },
    {
      "inputs": [
        {
          "internalType": "uint256",
          "name": "_minDaysOpen",
          "type": "uint256"
        }
      ],
      "name": "setMinDaysOpen",
      "outputs": [],
      "stateMutability": "nonpayable",
      "type": "function"
    },
    {
      "inputs": [
        {
          "internalType": "address",
          "name": "_stakingAdapter",
          "type": "address"
        }
      ],
      "name": "setStakingAdapter",
      "outputs": [],
      "stateMutability": "nonpayable",
      "type": "function"
    },
    {
      "inputs": [
        {
          "internalType": "address payable",
          "name": "_addr",
          "type": "address"
        }
      ],
      "name": "setWallet",
      "outputs": [],
      "stateMutability": "nonpayable",
      "type": "function"
    },
    {
      "inputs": [],
      "name": "totalSupply",
      "outputs": [
        {
          "internalType": "uint256",
          "name": "",
          "type": "uint256"
        }
      ],
      "stateMutability": "view",
      "type": "function"
    },
    {
      "inputs": [
        {
          "internalType": "address",
          "name": "newOwner",
          "type": "address"
        }
      ],
      "name": "transferOwnership",
      "outputs": [],
      "stateMutability": "nonpayable",
      "type": "function"
    },
    {
      "inputs": [],
      "name": "unpause",
      "outputs": [],
      "stateMutability": "nonpayable",
      "type": "function"
    }
  ],
  "bytecode": "0x608060405234801561001057600080fd5b506116dd806100206000396000f3fe608060405234801561001057600080fd5b506004361061018e5760003560e01c80638456cb59116100de578063c4d66de811610097578063df85b74111610071578063df85b741146102f9578063e227f7bc1461030c578063e49a4b161461031f578063f2fde38b146103275761018e565b8063c4d66de8146102c0578063deaa59df146102d3578063dedddd95146102e65761018e565b80638456cb591461027a5780638da5cb5b1461028257806399da053a1461028a5780639cb08abb14610292578063bdafb1ff146102a5578063be74264d146102b85761018e565b80633f4ba83a1161014b5780635c975abb116101255780635c975abb14610237578063715018a61461024c5780637978f279146102545780637ce3489b146102675761018e565b80633f4ba83a1461020957806340729c58146102115780634b826d81146102245761018e565b806303b357dd1461019357806313299604146101a85780631398e076146101c657806318160ddd146101d95780631b3896bc146101ee578063339b3776146101f6575b600080fd5b6101a66101a13660046112d4565b61033a565b005b6101b06103d6565b6040516101bd91906112f5565b60405180910390f35b6101b06101d4366004611248565b6103e5565b6101e161040f565b6040516101bd9190611367565b6101e1610415565b6101a66102043660046112d4565b61041b565b6101a661048c565b6101a661021f3660046111e2565b6104d5565b6101a66102323660046112d4565b6104f7565b61023f61055e565b6040516101bd919061135c565b6101a6610567565b6101a66102623660046112d4565b6105f0565b6101a6610275366004611248565b61068b565b6101a661070a565b6101b0610751565b6101e1610760565b6101a66102a0366004611248565b610766565b6101a66102b3366004611260565b6107da565b6101e1610888565b6101a66102ce3660046111e2565b61088e565b6101a66102e13660046111e2565b610969565b6101a66102f436600461129c565b6109f8565b6101a6610307366004611205565b610a71565b6101e161031a366004611248565b610c4e565b6101b0610c60565b6101a66103353660046111e2565b610c6f565b8160c9818154811061035c57634e487b7160e01b600052603260045260246000fd5b6000918252602090912001546001600160a01b031633146103985760405162461bcd60e51b815260040161038f906114c6565b60405180910390fd5b7f4da77555e73f64b236322348caae14818446c8089b3bf650c93749db0599cd2583836040516103c992919061160d565b60405180910390a1505050565b60cd546001600160a01b031690565b60c981815481106103f557600080fd5b6000918252602090912001546001600160a01b0316905081565b60cb5481565b60ca5481565b8160c9818154811061043d57634e487b7160e01b600052603260045260246000fd5b6000918252602090912001546001600160a01b031633146104705760405162461bcd60e51b815260040161038f906114c6565b8160cb6000828254610482919061161b565b9091555050505050565b610494610d30565b6001600160a01b03166104a5610751565b6001600160a01b0316146104cb5760405162461bcd60e51b815260040161038f90611491565b6104d3610d34565b565b60cf80546001600160a01b0319166001600160a01b0392909216919091179055565b8160c9818154811061051957634e487b7160e01b600052603260045260246000fd5b6000918252602090912001546001600160a01b0316331461054c5760405162461bcd60e51b815260040161038f906114c6565b8160cb60008282546104829190611633565b60975460ff1690565b61056f610d30565b6001600160a01b0316610580610751565b6001600160a01b0316146105a65760405162461bcd60e51b815260040161038f90611491565b6033546040516000916001600160a01b0316907f8be0079c531659141344cd1fd0a4f28419497f9722a3daafe3b4186f6b6457e0908390a3603380546001600160a01b0319169055565b8160c9818154811061061257634e487b7160e01b600052603260045260246000fd5b6000918252602090912001546001600160a01b031633146106455760405162461bcd60e51b815260040161038f906114c6565b60ca80549060006106558361164a565b91905055507fa56a4f1c11adc6f055feecc2fc93bc3c4d5da030db0006cb8f671763d4c6e59c83836040516103c992919061160d565b610693610d30565b6001600160a01b03166106a4610751565b6001600160a01b0316146106ca5760405162461bcd60e51b815260040161038f90611491565b60cc8190556040517f91955c12515f4eb8f1ff79df82d1933ff11b6d3b9a3019c6568840616ec36a74906106ff908390611367565b60405180910390a150565b610712610d30565b6001600160a01b0316610723610751565b6001600160a01b0316146107495760405162461bcd60e51b815260040161038f90611491565b6104d3610da2565b6033546001600160a01b031690565b60ce5490565b61076e610d30565b6001600160a01b031661077f610751565b6001600160a01b0316146107a55760405162461bcd60e51b815260040161038f90611491565b60ce8190556040517fd1fda8d12743585aa215eac90ca51a4de1409fc059f0c1de983fb588c1d5a5e9906106ff908390611367565b8360c981815481106107fc57634e487b7160e01b600052603260045260246000fd5b6000918252602090912001546001600160a01b0316331461082f5760405162461bcd60e51b815260040161038f906114c6565b60ca805490600061083f8361164a565b91905055507f1cd070ae8ed4e4c6b1b892a324389e5838bb564fae4625f55a625a5f9fdfb5c68585858560405161087994939291906115e9565b60405180910390a15050505050565b60cc5490565b600054610100900460ff16806108a7575060005460ff16155b6108c35760405162461bcd60e51b815260040161038f90611443565b600054610100900460ff161580156108ee576000805460ff1961ff0019909116610100171660011790555b6108f6610dfd565b6108fe610e82565b610906610eea565b60cf80546001600160a01b0319166001600160a01b038416179055610929610751565b60cd80546001600160a01b0319166001600160a01b0392909216919091179055600a60cc55600760ce558015610965576000805461ff00191690555b5050565b610971610d30565b6001600160a01b0316610982610751565b6001600160a01b0316146109a85760405162461bcd60e51b815260040161038f90611491565b60cd80546001600160a01b0319166001600160a01b0383811691909117918290556040519116907f3ce716f94fe275e52428cbf6b7f388e5a65976d4edabc34355a77f5e89655bdc90600090a250565b610a00610d30565b6001600160a01b0316610a11610751565b6001600160a01b031614610a375760405162461bcd60e51b815260040161038f90611491565b600092835260d0602090815260408085209390935560d19052912080546001600160a01b0319166001600160a01b03909216919091179055565b610a7961055e565b15610a965760405162461bcd60e51b815260040161038f90611419565b6001600160a01b038516610abc5760405162461bcd60e51b815260040161038f90611564565b60008311610adc5760405162461bcd60e51b815260040161038f906113e4565b600081815260d160205260409020546001600160a01b031680610b115760405162461bcd60e51b815260040161038f90611523565b426000610b1d83610f5a565b60c95460405163a9ee6ac360e01b81529192506001600160a01b0383169163a9ee6ac391610b5e9130919033908e908e908e908e908c908f90600401611309565b600060405180830381600087803b158015610b7857600080fd5b505af1158015610b8c573d6000803e3d6000fd5b505060c9805460018101825560009182527f66be4f155c5ef2ebd3772b228f2f00681e4ed5826cdb3b1943cc11ad15ad1d280180546001600160a01b0319166001600160a01b03861617905560ca805493509150610be983611661565b909155505060c9547fe6b4afef5103dbdff36d091324707cb41a50cd96b4767736d6b5a55b88b2102f90610c1f90600190611633565b33838b8b8b888b8d604051610c3c9998979695949392919061159b565b60405180910390a15050505050505050565b600090815260d0602052604090205490565b60cf546001600160a01b031690565b610c77610d30565b6001600160a01b0316610c88610751565b6001600160a01b031614610cae5760405162461bcd60e51b815260040161038f90611491565b6001600160a01b038116610cd45760405162461bcd60e51b815260040161038f9061139e565b6033546040516001600160a01b038084169216907f8be0079c531659141344cd1fd0a4f28419497f9722a3daafe3b4186f6b6457e090600090a3603380546001600160a01b0319166001600160a01b0392909216919091179055565b3390565b610d3c61055e565b610d585760405162461bcd60e51b815260040161038f90611370565b6097805460ff191690557f5db9ee0a495bf2e6ff9c91a7834c1ba4fdd244a5e8aa4e537bd38aeae4b073aa610d8b610d30565b604051610d9891906112f5565b60405180910390a1565b610daa61055e565b15610dc75760405162461bcd60e51b815260040161038f90611419565b6097805460ff191660011790557f62e78cea01bee320cd4e420270b5ea74000d11b0c9f74754ebdbfc544b05a258610d8b610d30565b600054610100900460ff1680610e16575060005460ff16155b610e325760405162461bcd60e51b815260040161038f90611443565b600054610100900460ff16158015610e5d576000805460ff1961ff0019909116610100171660011790555b610e65610fac565b610e6d61101f565b8015610e7f576000805461ff00191690555b50565b600054610100900460ff1680610e9b575060005460ff16155b610eb75760405162461bcd60e51b815260040161038f90611443565b600054610100900460ff16158015610ee2576000805460ff1961ff0019909116610100171660011790555b610e6d6110eb565b600054610100900460ff1680610f03575060005460ff16155b610f1f5760405162461bcd60e51b815260040161038f90611443565b600054610100900460ff16158015610f4a576000805460ff1961ff0019909116610100171660011790555b610f52610fac565b610e6d611164565b6000808260601b9050604051733d602d80600a3d3981f3363d3d373d3d3d363d7360601b81528160148201526e5af43d82803e903d91602b57fd5bf360881b60288201526037816000f0949350505050565b600054610100900460ff1680610fc5575060005460ff16155b610fe15760405162461bcd60e51b815260040161038f90611443565b600054610100900460ff16158015610e6d576000805460ff1961ff0019909116610100171660011790558015610e7f576000805461ff001916905550565b600054610100900460ff1680611038575060005460ff16155b6110545760405162461bcd60e51b815260040161038f90611443565b600054610100900460ff1615801561107f576000805460ff1961ff0019909116610100171660011790555b6000611089610d30565b603380546001600160a01b0319166001600160a01b038316908117909155604051919250906000907f8be0079c531659141344cd1fd0a4f28419497f9722a3daafe3b4186f6b6457e0908290a3508015610e7f576000805461ff001916905550565b600054610100900460ff1680611104575060005460ff16155b6111205760405162461bcd60e51b815260040161038f90611443565b600054610100900460ff1615801561114b576000805460ff1961ff0019909116610100171660011790555b60016065558015610e7f576000805461ff001916905550565b600054610100900460ff168061117d575060005460ff16155b6111995760405162461bcd60e51b815260040161038f90611443565b600054610100900460ff161580156111c4576000805460ff1961ff0019909116610100171660011790555b6097805460ff191690558015610e7f576000805461ff001916905550565b6000602082840312156111f3578081fd5b81356111fe81611692565b9392505050565b600080600080600060a0868803121561121c578081fd5b853561122781611692565b97602087013597506040870135966060810135965060800135945092505050565b600060208284031215611259578081fd5b5035919050565b60008060008060808587031215611275578384fd5b84359350602085013561128781611692565b93969395505050506040820135916060013590565b6000806000606084860312156112b0578283fd5b833592506020840135915060408401356112c981611692565b809150509250925092565b600080604083850312156112e6578182fd5b50508035926020909101359150565b6001600160a01b0391909116815260200190565b6001600160a01b03998a16815260208101989098529588166040880152939096166060860152608085019190915260a084015260c083019390935260e08201929092526101008101919091526101200190565b901515815260200190565b90815260200190565b60208082526014908201527314185d5cd8589b194e881b9bdd081c185d5cd95960621b604082015260600190565b60208082526026908201527f4f776e61626c653a206e6577206f776e657220697320746865207a65726f206160408201526564647265737360d01b606082015260800190565b6020808252818101527f412076616c6964207469636b6574207072696365206973207265717569726564604082015260600190565b60208082526010908201526f14185d5cd8589b194e881c185d5cd95960821b604082015260600190565b6020808252602e908201527f496e697469616c697a61626c653a20636f6e747261637420697320616c72656160408201526d191e481a5b9a5d1a585b1a5e995960921b606082015260800190565b6020808252818101527f4f776e61626c653a2063616c6c6572206973206e6f7420746865206f776e6572604082015260600190565b6020808252603b908201527f54686973206d6574686f64206d7573742062652063616c6c6564207468726f7560408201527f67682061206c6f7474657279206368696c6420636f6e74726163740000000000606082015260800190565b60208082526021908201527f4d617374657220706f6f6c20636f6e7472616374206e6f74206465706c6f79656040820152601960fa1b606082015260800190565b6020808252601b908201527f412076616c696420616464726573732069732072657175697265640000000000604082015260600190565b9889526001600160a01b0397881660208a01529587166040890152939095166060870152608086019190915260a085015260c084019290925260e08301919091526101008201526101200190565b9384526001600160a01b039290921660208401526040830152606082015260800190565b918252602082015260400190565b6000821982111561162e5761162e61167c565b500190565b6000828210156116455761164561167c565b500390565b6000816116595761165961167c565b506000190190565b60006000198214156116755761167561167c565b5060010190565b634e487b7160e01b600052601160045260246000fd5b6001600160a01b0381168114610e7f57600080fdfea2646970667358221220ead097931240419d78eed237536881a6d5b8598cfa15a974b44b7897191c479864736f6c63430008000033",
  "linkReferences": {},
  "deployedLinkReferences": {}
}