{
  "_format": "hh-sol-artifact-1",
  "contractName": "LotteryPoolFactory",
  "sourceName": "contracts/LotteryPoolFactory.sol",
  "abi": [
    {
      "inputs": [
        {
          "internalType": "address",
          "name": "_lotteryPoolStaking",
          "type": "address"
        }
      ],
      "stateMutability": "nonpayable",
      "type": "constructor"
    },
    {
      "anonymous": false,
      "inputs": [
        {
          "indexed": false,
          "internalType": "uint256",
          "name": "feePercent",
          "type": "uint256"
        }
      ],
      "name": "FeePercentChanged",
      "type": "event"
    },
    {
      "anonymous": false,
      "inputs": [
        {
          "indexed": false,
          "internalType": "uint256",
          "name": "lotteryId",
          "type": "uint256"
        },
        {
          "indexed": false,
          "internalType": "uint256",
          "name": "paymentToCreator",
          "type": "uint256"
        }
      ],
      "name": "LotteryCancelled",
      "type": "event"
    },
    {
      "anonymous": false,
      "inputs": [
        {
          "indexed": false,
          "internalType": "uint256",
          "name": "lotteryId",
          "type": "uint256"
        },
        {
          "indexed": false,
          "internalType": "address",
          "name": "winner",
          "type": "address"
        },
        {
          "indexed": false,
          "internalType": "uint256",
          "name": "paymentToCreator",
          "type": "uint256"
        },
        {
          "indexed": false,
          "internalType": "uint256",
          "name": "fees",
          "type": "uint256"
        }
      ],
      "name": "LotteryClosed",
      "type": "event"
    },
    {
      "anonymous": false,
      "inputs": [
        {
          "indexed": false,
          "internalType": "uint256",
          "name": "lotteryId",
          "type": "uint256"
        },
        {
          "indexed": false,
          "internalType": "address",
          "name": "creator",
          "type": "address"
        },
        {
          "indexed": false,
          "internalType": "address",
          "name": "lotteryAddress",
          "type": "address"
        },
        {
          "indexed": false,
          "internalType": "address",
          "name": "nftAddress",
          "type": "address"
        },
        {
          "indexed": false,
          "internalType": "uint256",
          "name": "nftIndex",
          "type": "uint256"
        },
        {
          "indexed": false,
          "internalType": "uint256",
          "name": "ticketPrice",
          "type": "uint256"
        },
        {
          "indexed": false,
          "internalType": "uint256",
          "name": "created",
          "type": "uint256"
        },
        {
          "indexed": false,
          "internalType": "enum LotteryPoolFactory.LotteryPoolType",
          "name": "lotteryPoolType",
          "type": "uint8"
        },
        {
          "indexed": false,
          "internalType": "uint256",
          "name": "minAmount",
          "type": "uint256"
        }
      ],
      "name": "LotteryCreated",
      "type": "event"
    },
    {
      "anonymous": false,
      "inputs": [
        {
          "indexed": false,
          "internalType": "uint256",
          "name": "lotteryId",
          "type": "uint256"
        }
      ],
      "name": "LotteryStaked",
      "type": "event"
    },
    {
      "anonymous": false,
      "inputs": [
        {
          "indexed": false,
          "internalType": "uint256",
          "name": "minDaysOpen",
          "type": "uint256"
        }
      ],
      "name": "MinDaysOpenChanged",
      "type": "event"
    },
    {
      "anonymous": false,
      "inputs": [
        {
          "indexed": true,
          "internalType": "address",
          "name": "previousOwner",
          "type": "address"
        },
        {
          "indexed": true,
          "internalType": "address",
          "name": "newOwner",
          "type": "address"
        }
      ],
      "name": "OwnershipTransferred",
      "type": "event"
    },
    {
      "anonymous": false,
      "inputs": [
        {
          "indexed": true,
          "internalType": "address",
          "name": "addr",
          "type": "address"
        }
      ],
      "name": "WalletChanged",
      "type": "event"
    },
    {
      "inputs": [
        {
          "internalType": "uint256",
          "name": "_lotteryId",
          "type": "uint256"
        }
      ],
      "name": "cancelLottery",
      "outputs": [],
      "stateMutability": "nonpayable",
      "type": "function"
    },
    {
      "inputs": [
        {
          "internalType": "address",
          "name": "_nftAddress",
          "type": "address"
        },
        {
          "internalType": "uint256",
          "name": "_nftIndex",
          "type": "uint256"
        },
        {
          "internalType": "uint256",
          "name": "_ticketPrice",
          "type": "uint256"
        },
        {
          "internalType": "enum LotteryPoolFactory.LotteryPoolType",
          "name": "_lotteryPoolType",
          "type": "uint8"
        },
        {
          "internalType": "uint256",
          "name": "_minAmount",
          "type": "uint256"
        }
      ],
      "name": "createLottery",
      "outputs": [],
      "stateMutability": "nonpayable",
      "type": "function"
    },
    {
      "inputs": [
        {
          "internalType": "uint256",
          "name": "_lotteryId",
          "type": "uint256"
        }
      ],
      "name": "declareWinner",
      "outputs": [],
      "stateMutability": "nonpayable",
      "type": "function"
    },
    {
      "inputs": [
        {
          "internalType": "uint256",
          "name": "_lotteryId",
          "type": "uint256"
        },
        {
          "internalType": "uint256",
          "name": "_amount",
          "type": "uint256"
        }
      ],
      "name": "decreaseTotalBalance",
      "outputs": [],
      "stateMutability": "nonpayable",
      "type": "function"
    },
    {
      "inputs": [],
      "name": "getFeePercent",
      "outputs": [
        {
          "internalType": "uint256",
          "name": "",
          "type": "uint256"
        }
      ],
      "stateMutability": "view",
      "type": "function"
    },
    {
      "inputs": [],
      "name": "getLotteryPoolStaking",
      "outputs": [
        {
          "internalType": "address",
          "name": "",
          "type": "address"
        }
      ],
      "stateMutability": "view",
      "type": "function"
    },
    {
      "inputs": [],
      "name": "getMinDaysOpen",
      "outputs": [
        {
          "internalType": "uint256",
          "name": "",
          "type": "uint256"
        }
      ],
      "stateMutability": "view",
      "type": "function"
    },
    {
      "inputs": [],
      "name": "getWallet",
      "outputs": [
        {
          "internalType": "address",
          "name": "",
          "type": "address"
        }
      ],
      "stateMutability": "view",
      "type": "function"
    },
    {
      "inputs": [
        {
          "internalType": "uint256",
          "name": "_lotteryId",
          "type": "uint256"
        },
        {
          "internalType": "uint256",
          "name": "_amount",
          "type": "uint256"
        }
      ],
      "name": "increaseTotalBalance",
      "outputs": [],
      "stateMutability": "nonpayable",
      "type": "function"
    },
    {
      "inputs": [
        {
          "internalType": "uint256",
          "name": "_lotteryId",
          "type": "uint256"
        }
      ],
      "name": "launchStaking",
      "outputs": [],
      "stateMutability": "nonpayable",
      "type": "function"
    },
    {
      "inputs": [
        {
          "internalType": "uint256",
          "name": "",
          "type": "uint256"
        }
      ],
      "name": "lotteries",
      "outputs": [
        {
          "internalType": "contract LotteryPool",
          "name": "",
          "type": "address"
        }
      ],
      "stateMutability": "view",
      "type": "function"
    },
    {
      "inputs": [],
      "name": "numberOfActiveLotteries",
      "outputs": [
        {
          "internalType": "uint256",
          "name": "",
          "type": "uint256"
        }
      ],
      "stateMutability": "view",
      "type": "function"
    },
    {
      "inputs": [],
      "name": "owner",
      "outputs": [
        {
          "internalType": "address",
          "name": "",
          "type": "address"
        }
      ],
      "stateMutability": "view",
      "type": "function"
    },
    {
      "inputs": [],
      "name": "renounceOwnership",
      "outputs": [],
      "stateMutability": "nonpayable",
      "type": "function"
    },
    {
      "inputs": [
        {
          "internalType": "uint256",
          "name": "_feePercent",
          "type": "uint256"
        }
      ],
      "name": "setFeePercent",
      "outputs": [],
      "stateMutability": "nonpayable",
      "type": "function"
    },
    {
      "inputs": [
        {
          "internalType": "uint256",
          "name": "_minDaysOpen",
          "type": "uint256"
        }
      ],
      "name": "setMinDaysOpen",
      "outputs": [],
      "stateMutability": "nonpayable",
      "type": "function"
    },
    {
      "inputs": [
        {
          "internalType": "address payable",
          "name": "_addr",
          "type": "address"
        }
      ],
      "name": "setWallet",
      "outputs": [],
      "stateMutability": "nonpayable",
      "type": "function"
    },
    {
      "inputs": [],
      "name": "totalBalance",
      "outputs": [
        {
          "internalType": "uint256",
          "name": "",
          "type": "uint256"
        }
      ],
      "stateMutability": "view",
      "type": "function"
    },
    {
      "inputs": [
        {
          "internalType": "address",
          "name": "newOwner",
          "type": "address"
        }
      ],
      "name": "transferOwnership",
      "outputs": [],
      "stateMutability": "nonpayable",
      "type": "function"
    }
  ],
  "bytecode": "0x60806040523480156200001157600080fd5b5060405162004e9f38038062004e9f8339810160408190526200003491620000ff565b600062000040620000ec565b600080546001600160a01b0319166001600160a01b0383169081178255604051929350917f8be0079c531659141344cd1fd0a4f28419497f9722a3daafe3b4186f6b6457e0908290a35060018055600280546001600160a01b0319166001600160a01b038316179055620000b3620000f0565b600780546001600160a01b0319166001600160a01b0392909216919091178155600a60065560006004819055600555600855506200012f565b3390565b6000546001600160a01b031690565b60006020828403121562000111578081fd5b81516001600160a01b038116811462000128578182fd5b9392505050565b614d60806200013f6000396000f3fe60806040523480156200001157600080fd5b50600436106200013b5760003560e01c80637a0ca08811620000bd578063a0b47ab6116200007b578063a0b47ab6146200025d578063ad7a672f1462000274578063be74264d146200027e578063deaa59df1462000288578063f2fde38b146200029f576200013b565b80637a0ca08814620002115780637ce3489b146200021b5780638da5cb5b146200023257806399da053a146200023c5780639cb08abb1462000246576200013b565b80631398e076116200010b5780631398e07614620001a95780631b3896bc14620001c05780634538f29714620001d95780636e43ec6c14620001f0578063715018a61462000207576200013b565b8062c2943c146200014057806304454811146200015957806309220a5e1462000170578063132996041462000187575b600080fd5b6200015762000151366004620018b1565b620002b6565b005b620001576200016a366004620018e3565b620009c8565b6200015762000181366004620017f9565b62000a3d565b6200019162000c5f565b604051620001a0919062001905565b60405180910390f35b62000191620001ba366004620018b1565b62000c6e565b620001ca62000c99565b604051620001a0919062001cb0565b62000157620001ea366004620018b1565b62000c9f565b6200015762000201366004620018b1565b62001101565b62000157620013e1565b6200019162001471565b620001576200022c366004620018b1565b62001480565b6200019162001508565b620001ca62001517565b6200015762000257366004620018b1565b6200151d565b620001576200026e366004620018e3565b6200159a565b620001ca62001606565b620001ca6200160c565b620001576200029936600462001784565b62001612565b62000157620002b036600462001784565b620016a8565b60026001541415620002e55760405162461bcd60e51b8152600401620002dc9062001bfe565b60405180910390fd5b60026001819055506000600382815481106200031157634e487b7160e01b600052603260045260246000fd5b60009182526020918290200154604080516302d05d3f60e01b815290516001600160a01b039092169350339284926302d05d3f926004808201939291829003018186803b1580156200036257600080fd5b505afa15801562000377573d6000803e3d6000fd5b505050506040513d601f19601f820116820180604052508101906200039d9190620017aa565b6001600160a01b031614620003c65760405162461bcd60e51b8152600401620002dc9062001c6c565b6002816001600160a01b031663200d2ed26040518163ffffffff1660e01b815260040160206040518083038186803b1580156200040257600080fd5b505afa15801562000417573d6000803e3d6000fd5b505050506040513d601f19601f820116820180604052508101906200043d919062001890565b60038111156200045d57634e487b7160e01b600052602160045260246000fd5b141580156200050157506003816001600160a01b031663200d2ed26040518163ffffffff1660e01b815260040160206040518083038186803b158015620004a357600080fd5b505afa158015620004b8573d6000803e3d6000fd5b505050506040513d601f19601f82011682018060405250810190620004de919062001890565b6003811115620004fe57634e487b7160e01b600052602160045260246000fd5b14155b620005205760405162461bcd60e51b8152600401620002dc906200194c565b6001816001600160a01b031663702766fa6040518163ffffffff1660e01b815260040160206040518083038186803b1580156200055c57600080fd5b505afa15801562000571573d6000803e3d6000fd5b505050506040513d601f19601f8201168201806040525081019062000597919062001871565b6001811115620005b757634e487b7160e01b600052602160045260246000fd5b141562000675576001816001600160a01b031663200d2ed26040518163ffffffff1660e01b815260040160206040518083038186803b158015620005fa57600080fd5b505afa1580156200060f573d6000803e3d6000fd5b505050506040513d601f19601f8201168201806040525081019062000635919062001890565b60038111156200065557634e487b7160e01b600052602160045260246000fd5b14620006755760405162461bcd60e51b8152600401620002dc9062001b7f565b600080826001600160a01b03166347ccca026040518163ffffffff1660e01b8152600401604080518083038186803b158015620006b157600080fd5b505afa158015620006c6573d6000803e3d6000fd5b505050506040513d601f19601f82011682018060405250810190620006ec9190620017c9565b60405163e985e9c560e01b815291935091506001600160a01b0383169063e985e9c59062000721903390309060040162001919565b60206040518083038186803b1580156200073a57600080fd5b505afa1580156200074f573d6000803e3d6000fd5b505050506040513d601f19601f820116820180604052508101906200077591906200184f565b620007945760405162461bcd60e51b8152600401620002dc9062001bb6565b60405163095ea7b360e01b81526001600160a01b0383169063095ea7b390620007c4908690859060040162001933565b600060405180830381600087803b158015620007df57600080fd5b505af1158015620007f4573d6000803e3d6000fd5b505050506000836001600160a01b03166314034bd26040518163ffffffff1660e01b8152600401602060405180830381600087803b1580156200083657600080fd5b505af11580156200084b573d6000803e3d6000fd5b505050506040513d601f19601f82011682018060405250810190620008719190620017aa565b90506000846001600160a01b031663624793796040518163ffffffff1660e01b815260040160206040518083038186803b158015620008af57600080fd5b505afa158015620008c4573d6000803e3d6000fd5b505050506040513d601f19601f82011682018060405250810190620008ea9190620018ca565b90506000856001600160a01b0316639af1d35a6040518163ffffffff1660e01b815260040160206040518083038186803b1580156200092857600080fd5b505afa1580156200093d573d6000803e3d6000fd5b505050506040513d601f19601f82011682018060405250810190620009639190620018ca565b600480549192506000620009778362001dd5565b91905055507f1cd070ae8ed4e4c6b1b892a324389e5838bb564fae4625f55a625a5f9fdfb5c687848484604051620009b3949392919062001d2c565b60405180910390a15050600180555050505050565b60038281548110620009ea57634e487b7160e01b600052603260045260246000fd5b6000918252602090912001546001600160a01b0316331462000a205760405162461bcd60e51b8152600401620002dc9062001b22565b806005600082825462000a34919062001da0565b90915550505050565b6001600160a01b03851662000a665760405162461bcd60e51b8152600401620002dc9062001c35565b6000831162000a895760405162461bcd60e51b8152600401620002dc9062001a68565b60405163e985e9c560e01b81526001600160a01b0386169063e985e9c59062000ab9903390309060040162001919565b60206040518083038186803b15801562000ad257600080fd5b505afa15801562000ae7573d6000803e3d6000fd5b505050506040513d601f19601f8201168201806040525081019062000b0d91906200184f565b62000b2c5760405162461bcd60e51b8152600401620002dc9062001bb6565b600354429060009084600181111562000b5557634e487b7160e01b600052602160045260246000fd5b33898989888860405162000b699062001776565b62000b7c98979695949392919062001d5e565b604051809103906000f08015801562000b99573d6000803e3d6000fd5b506003805460018101825560009182527fc2575a0e9e593c00f959f8c92f12db2869c3395a3b0502d05e2516446f71f85b0180546001600160a01b0319166001600160a01b038416179055600480549293509062000bf78362001def565b90915550506003547f1fff386a12009c15874797ae54eaf5409f7e8b872be329b18e606eb531dd59c59062000c2f9060019062001dbb565b33838a8a8a888b8b60405162000c4e9998979695949392919062001cb9565b60405180910390a150505050505050565b6007546001600160a01b031690565b6003818154811062000c7f57600080fd5b6000918252602090912001546001600160a01b0316905081565b60045481565b60006003828154811062000cc357634e487b7160e01b600052603260045260246000fd5b60009182526020918290200154604080516302d05d3f60e01b815290516001600160a01b039092169350339284926302d05d3f926004808201939291829003018186803b15801562000d1457600080fd5b505afa15801562000d29573d6000803e3d6000fd5b505050506040513d601f19601f8201168201806040525081019062000d4f9190620017aa565b6001600160a01b03161462000d785760405162461bcd60e51b8152600401620002dc9062001c6c565b6002816001600160a01b031663200d2ed26040518163ffffffff1660e01b815260040160206040518083038186803b15801562000db457600080fd5b505afa15801562000dc9573d6000803e3d6000fd5b505050506040513d601f19601f8201168201806040525081019062000def919062001890565b600381111562000e0f57634e487b7160e01b600052602160045260246000fd5b1415801562000eb357506003816001600160a01b031663200d2ed26040518163ffffffff1660e01b815260040160206040518083038186803b15801562000e5557600080fd5b505afa15801562000e6a573d6000803e3d6000fd5b505050506040513d601f19601f8201168201806040525081019062000e90919062001890565b600381111562000eb057634e487b7160e01b600052602160045260246000fd5b14155b62000ed25760405162461bcd60e51b8152600401620002dc906200194c565b806001600160a01b03166312065fe06040518163ffffffff1660e01b815260040160206040518083038186803b15801562000f0c57600080fd5b505afa15801562000f21573d6000803e3d6000fd5b505050506040513d601f19601f8201168201806040525081019062000f479190620018ca565b816001600160a01b0316639b2cb5d86040518163ffffffff1660e01b815260040160206040518083038186803b15801562000f8157600080fd5b505afa15801562000f96573d6000803e3d6000fd5b505050506040513d601f19601f8201168201806040525081019062000fbc9190620018ca565b1162000fdc5760405162461bcd60e51b8152600401620002dc9062001a0b565b806001600160a01b031663859bd0f06040518163ffffffff1660e01b8152600401600060405180830381600087803b1580156200101857600080fd5b505af11580156200102d573d6000803e3d6000fd5b505050506000816001600160a01b031663624793796040518163ffffffff1660e01b815260040160206040518083038186803b1580156200106d57600080fd5b505afa15801562001082573d6000803e3d6000fd5b505050506040513d601f19601f82011682018060405250810190620010a89190620018ca565b600480549192506000620010bc8362001dd5565b91905055507fa56a4f1c11adc6f055feecc2fc93bc3c4d5da030db0006cb8f671763d4c6e59c8382604051620010f492919062001d50565b60405180910390a1505050565b6000600382815481106200112557634e487b7160e01b600052603260045260246000fd5b60009182526020822001546001600160a01b03169150816001600160a01b031663200d2ed26040518163ffffffff1660e01b815260040160206040518083038186803b1580156200117557600080fd5b505afa1580156200118a573d6000803e3d6000fd5b505050506040513d601f19601f82011682018060405250810190620011b0919062001890565b6003811115620011d057634e487b7160e01b600052602160045260246000fd5b14620011f05760405162461bcd60e51b8152600401620002dc906200198e565b6001816001600160a01b031663702766fa6040518163ffffffff1660e01b815260040160206040518083038186803b1580156200122c57600080fd5b505afa15801562001241573d6000803e3d6000fd5b505050506040513d601f19601f8201168201806040525081019062001267919062001871565b60018111156200128757634e487b7160e01b600052602160045260246000fd5b14620012a75760405162461bcd60e51b8152600401620002dc9062001a9d565b336001600160a01b0316816001600160a01b03166302d05d3f6040518163ffffffff1660e01b815260040160206040518083038186803b158015620012eb57600080fd5b505afa15801562001300573d6000803e3d6000fd5b505050506040513d601f19601f82011682018060405250810190620013269190620017aa565b6001600160a01b0316146200134f5760405162461bcd60e51b8152600401620002dc9062001c6c565b806001600160a01b031663a30a24746040518163ffffffff1660e01b8152600401600060405180830381600087803b1580156200138b57600080fd5b505af1158015620013a0573d6000803e3d6000fd5b505050507fb44faaa07212bb441b7019dc3716dba761d69c0be651ee5e02332160500145ae82604051620013d5919062001cb0565b60405180910390a15050565b620013eb62001772565b6001600160a01b0316620013fe62001508565b6001600160a01b031614620014275760405162461bcd60e51b8152600401620002dc9062001aed565b600080546040516001600160a01b03909116907f8be0079c531659141344cd1fd0a4f28419497f9722a3daafe3b4186f6b6457e0908390a3600080546001600160a01b0319169055565b6002546001600160a01b031690565b6200148a62001772565b6001600160a01b03166200149d62001508565b6001600160a01b031614620014c65760405162461bcd60e51b8152600401620002dc9062001aed565b60068190556040517f91955c12515f4eb8f1ff79df82d1933ff11b6d3b9a3019c6568840616ec36a7490620014fd90839062001cb0565b60405180910390a150565b6000546001600160a01b031690565b60085490565b6200152762001772565b6001600160a01b03166200153a62001508565b6001600160a01b031614620015635760405162461bcd60e51b8152600401620002dc9062001aed565b60088190556040517fd1fda8d12743585aa215eac90ca51a4de1409fc059f0c1de983fb588c1d5a5e990620014fd90839062001cb0565b60038281548110620015bc57634e487b7160e01b600052603260045260246000fd5b6000918252602090912001546001600160a01b03163314620015f25760405162461bcd60e51b8152600401620002dc9062001b22565b806005600082825462000a34919062001dbb565b60055481565b60065490565b6200161c62001772565b6001600160a01b03166200162f62001508565b6001600160a01b031614620016585760405162461bcd60e51b8152600401620002dc9062001aed565b600780546001600160a01b0319166001600160a01b0383811691909117918290556040519116907f3ce716f94fe275e52428cbf6b7f388e5a65976d4edabc34355a77f5e89655bdc90600090a250565b620016b262001772565b6001600160a01b0316620016c562001508565b6001600160a01b031614620016ee5760405162461bcd60e51b8152600401620002dc9062001aed565b6001600160a01b038116620017175760405162461bcd60e51b8152600401620002dc90620019c5565b600080546040516001600160a01b03808516939216917f8be0079c531659141344cd1fd0a4f28419497f9722a3daafe3b4186f6b6457e091a3600080546001600160a01b0319166001600160a01b0392909216919091179055565b3390565b612ee08062001e4b83390190565b60006020828403121562001796578081fd5b8135620017a38162001e23565b9392505050565b600060208284031215620017bc578081fd5b8151620017a38162001e23565b60008060408385031215620017dc578081fd5b8251620017e98162001e23565b6020939093015192949293505050565b600080600080600060a0868803121562001811578081fd5b85356200181e8162001e23565b9450602086013593506040860135925060608601356200183e8162001e3c565b949793965091946080013592915050565b60006020828403121562001861578081fd5b81518015158114620017a3578182fd5b60006020828403121562001883578081fd5b8151620017a38162001e3c565b600060208284031215620018a2578081fd5b815160048110620017a3578182fd5b600060208284031215620018c3578081fd5b5035919050565b600060208284031215620018dc578081fd5b5051919050565b60008060408385031215620018f6578182fd5b50508035926020909101359150565b6001600160a01b0391909116815260200190565b6001600160a01b0392831681529116602082015260400190565b6001600160a01b03929092168252602082015260400190565b60208082526022908201527f546865206c6f747465727920706f6f6c20697320616c726561647920636c6f73604082015261195960f21b606082015260800190565b60208082526017908201527f546865206c6f7474657279206973206e6f74206f70656e000000000000000000604082015260600190565b60208082526026908201527f4f776e61626c653a206e6577206f776e657220697320746865207a65726f206160408201526564647265737360d01b606082015260800190565b6020808252603a908201527f43616e6e6f742063616e63656c206c6f74746572792e20546865206d696e696d60408201527f756d20616d6f756e7420686173206265656e2072656163686564000000000000606082015260800190565b6020808252818101527f412076616c6964207469636b6574207072696365206973207265717569726564604082015260600190565b60208082526030908201527f4c6f747465727920706f6f6c2074797065206973206e6f7420636f6d7061746960408201526f626c652077697468207374616b696e6760801b606082015260800190565b6020808252818101527f4f776e61626c653a2063616c6c6572206973206e6f7420746865206f776e6572604082015260600190565b6020808252603b908201527f54686973206d6574686f64206d7573742062652063616c6c6564207468726f7560408201527f67682061206c6f7474657279206368696c6420636f6e74726163740000000000606082015260800190565b6020808252601f908201527f546865206c6f747465727920706f6f6c206973206e6f74207374616b696e6700604082015260600190565b60208082526028908201527f436f6e7472616374206973206e6f7420617070726f76656420746f207472616e6040820152671cd9995c8813919560c21b606082015260800190565b6020808252601f908201527f5265656e7472616e637947756172643a207265656e7472616e742063616c6c00604082015260600190565b6020808252601b908201527f412076616c696420616464726573732069732072657175697265640000000000604082015260600190565b60208082526024908201527f596f7520617265206e6f7420746865206f776e6572206f6620746865206c6f746040820152637465727960e01b606082015260800190565b90815260200190565b8981526001600160a01b0389811660208301528881166040830152871660608201526080810186905260a0810185905260c0810184905261012081016002841062001d1457634e487b7160e01b600052602160045260246000fd5b60e08201939093526101000152979650505050505050565b9384526001600160a01b039290921660208401526040830152606082015260800190565b918252602082015260400190565b97885260208801969096526001600160a01b039485166040880152929093166060860152608085015260a084019190915260c083015260e08201526101000190565b6000821982111562001db65762001db662001e0d565b500190565b60008282101562001dd05762001dd062001e0d565b500390565b60008162001de75762001de762001e0d565b506000190190565b600060001982141562001e065762001e0662001e0d565b5060010190565b634e487b7160e01b600052601160045260246000fd5b6001600160a01b038116811462001e3957600080fd5b50565b6002811062001e3957600080fdfe60806040523480156200001157600080fd5b5060405162002ee038038062002ee08339810160408190526200003491620001be565b60016000908155620000456200018e565b600180546001600160a01b0319166001600160a01b038316908117909155604051919250906000907f8be0079c531659141344cd1fd0a4f28419497f9722a3daafe3b4186f6b6457e0908290a3506200009d62000192565b600280546001600160a01b0319166001600160a01b03929092169190911790556003889055866001811115620000e357634e487b7160e01b600052602160045260246000fd5b600a805461ff0019166101008360018111156200011057634e487b7160e01b600052602160045260246000fd5b0217905550600680546001600160a01b03199081166001600160a01b0398891617909155600493909355600591909155600880549092169390941692909217909155600955600a805460ff199081169091556007919091556000600b819055600f8190556010819055601255601180549091169055506200022f9050565b3390565b6001546001600160a01b031690565b80516001600160a01b0381168114620001b957600080fd5b919050565b600080600080600080600080610100898b031215620001db578384fd5b8851975060208901519650620001f460408a01620001a1565b95506200020460608a01620001a1565b94506080890151935060a0890151925060c0890151915060e089015190509295985092959890939650565b612ca1806200023f6000396000f3fe6080604052600436106101c65760003560e01c806362479379116100f75780639b2cb5d811610095578063f2fde38b11610064578063f2fde38b1461046e578063f4ac7ca01461048e578063f71d96cb146104a3578063fc22389a146104c357610206565b80639b2cb5d81461041a578063a30a24741461042f578063dfbf53ae14610444578063e580f47b1461045957610206565b8063715018a6116100d1578063715018a6146103c6578063859bd0f0146103db5780638da5cb5b146103f05780639af1d35a1461040557610206565b8063624793791461037a57806362711a5d1461038f578063702766fa146103a457610206565b8063316579261161016457806345745c101161013e57806345745c101461031857806347ccca021461032d5780634a1e0a29146103505780635984f4cd1461036557610206565b806331657926146102ce578063373d6132146102ee5780633e0d5d0c1461030357610206565b80631209b1f6116101a05780631209b1f61461026d57806314034bd214610282578063200d2ed2146102975780632f366637146102b957610206565b806302d05d3f1461020b5780630556920c1461023657806312065fe01461025857610206565b36610206577f88a5966d370b9919b20f3e2c13ff65706f196a4e32cc2c12bf57088f8852587433346040516101fc9291906125a5565b60405180910390a1005b600080fd5b34801561021757600080fd5b506102206104e3565b60405161022d9190612530565b60405180910390f35b34801561024257600080fd5b5061024b6104f2565b60405161022d9190612b61565b34801561026457600080fd5b5061024b6104f8565b34801561027957600080fd5b5061024b6104fd565b34801561028e57600080fd5b50610220610503565b3480156102a357600080fd5b506102ac6108e0565b60405161022d91906125d8565b6102cc6102c73660046124b9565b6108e9565b005b3480156102da57600080fd5b5061024b6102e936600461240e565b610aa4565b3480156102fa57600080fd5b5061024b610abf565b34801561030f57600080fd5b5061024b610ac5565b34801561032457600080fd5b5061024b610c52565b34801561033957600080fd5b50610342610c58565b60405161022d9291906125a5565b34801561035c57600080fd5b506102cc610c6d565b34801561037157600080fd5b506102cc610eef565b34801561038657600080fd5b5061024b6110a9565b34801561039b57600080fd5b5061024b6110af565b3480156103b057600080fd5b506103b9611237565b60405161022d91906125be565b3480156103d257600080fd5b506102cc611245565b3480156103e757600080fd5b506102cc6112ce565b3480156103fc57600080fd5b506102206114c3565b34801561041157600080fd5b5061024b6114d2565b34801561042657600080fd5b5061024b6114d8565b34801561043b57600080fd5b506102cc6114de565b34801561045057600080fd5b506102206116a4565b34801561046557600080fd5b5061024b6116b3565b34801561047a57600080fd5b506102cc61048936600461240e565b6116b9565b34801561049a57600080fd5b5061024b61177a565b3480156104af57600080fd5b506102206104be3660046124b9565b611944565b3480156104cf57600080fd5b506102cc6104de3660046124b9565b61196e565b6006546001600160a01b031681565b60105481565b475b90565b60045481565b600061050d611c66565b6001600160a01b031661051e6114c3565b6001600160a01b03161461054d5760405162461bcd60e51b8152600401610544906128b7565b60405180910390fd5b600260005414156105705760405162461bcd60e51b815260040161054490612af3565b60026000819055600a5460ff16600381111561059c57634e487b7160e01b600052602160045260246000fd5b141580156105cf57506003600a5460ff1660038111156105cc57634e487b7160e01b600052602160045260246000fd5b14155b6105eb5760405162461bcd60e51b8152600401610544906125ec565b600260009054906101000a90046001600160a01b03166001600160a01b03166399da053a6040518163ffffffff1660e01b815260040160206040518083038186803b15801561063957600080fd5b505afa15801561064d573d6000803e3d6000fd5b505050506040513d601f19601f8201168201806040525081019061067191906124d1565b61067e9062015180612bac565b60075461068b9190612b80565b4210156106aa5760405162461bcd60e51b8152600401610544906128ec565b6001600a54610100900460ff1660018111156106d657634e487b7160e01b600052602160045260246000fd5b1415610728576001600a5460ff16600381111561070357634e487b7160e01b600052602160045260246000fd5b146107205760405162461bcd60e51b8152600401610544906129d9565b610728611c6a565b60085460095460405163020604bf60e21b815230926001600160a01b03169163081812fc9161075a9190600401612b61565b60206040518083038186803b15801561077257600080fd5b505afa158015610786573d6000803e3d6000fd5b505050506040513d601f19601f820116820180604052508101906107aa9190612431565b6001600160a01b0316146107d05760405162461bcd60e51b815260040161054490612a74565b6107d8611e56565b600e80546001600160a01b0319166001600160a01b0392909216919091179055600a8054600260ff199091161790819055600190610100900460ff168181111561083257634e487b7160e01b600052602160045260246000fd5b141561084b57610840611ed2565b60125560105561085a565b610853611fa7565b6012556010555b600854600654600e546009546040516323b872dd60e01b81526001600160a01b03948516946323b872dd946108989490821693911691600401612581565b600060405180830381600087803b1580156108b257600080fd5b505af11580156108c6573d6000803e3d6000fd5b5050600e546001600160a01b031692505050600160005590565b600a5460ff1681565b6000600a5460ff16600381111561091057634e487b7160e01b600052602160045260246000fd5b1461092d5760405162461bcd60e51b815260040161054490612830565b8060045461093b9190612bac565b34146109595760405162461bcd60e51b81526004016105449061292f565b336000908152600c602052604081208054839290610978908490612b80565b90915550600090505b818110156109dd57600d80546001810182556000919091527fd7b6990105719101dabeb77144f2a3385c8033acd3af97e9423a695e81ad1eb50180546001600160a01b03191633179055806109d581612be2565b915050610981565b5080600b60008282546109f09190612b80565b9091555050600254600354604051630445481160e01b81526001600160a01b0390921691630445481191610a28913490600401612522565b600060405180830381600087803b158015610a4257600080fd5b505af1158015610a56573d6000803e3d6000fd5b50505050336001600160a01b03167fc8c5c2b0e44fb6312c0098ec42642058527713d0a1d29a5c6ccbfe34d714d41e6003548334604051610a9993929190612b6a565b60405180910390a250565b6001600160a01b03166000908152600c602052604090205490565b600f5481565b600080600260009054906101000a90046001600160a01b03166001600160a01b0316637a0ca0886040518163ffffffff1660e01b815260040160206040518083038186803b158015610b1657600080fd5b505afa158015610b2a573d6000803e3d6000fd5b505050506040513d601f19601f82011682018060405250810190610b4e9190612431565b9050600080826001600160a01b031663a39fac126040518163ffffffff1660e01b815260040160606040518083038186803b158015610b8c57600080fd5b505afa158015610ba0573d6000803e3d6000fd5b505050506040513d601f19601f82011682018060405250810190610bc4919061244d565b92509250506000816001600160a01b031663dd62ed3e30856040518363ffffffff1660e01b8152600401610bf9929190612544565b60206040518083038186803b158015610c1157600080fd5b505afa158015610c25573d6000803e3d6000fd5b505050506040513d601f19601f82011682018060405250810190610c4991906124d1565b94505050505090565b600b5481565b6008546009546001600160a01b039091169082565b60026000541415610c905760405162461bcd60e51b815260040161054490612af3565b60026000556001600a54610100900460ff166001811115610cc157634e487b7160e01b600052602160045260246000fd5b14610cde5760405162461bcd60e51b815260040161054490612750565b6002600a5460ff166003811115610d0557634e487b7160e01b600052602160045260246000fd5b1480610d3557506003600a5460ff166003811115610d3357634e487b7160e01b600052602160045260246000fd5b145b610d515760405162461bcd60e51b815260040161054490612abc565b336000908152600c6020526040812054600454909190610d72908390612bac565b905080471015610d945760405162461bcd60e51b815260040161054490612972565b336000908152600c60205260408120819055600b8054849290610db8908490612bcb565b909155505060025460035460405163505a3d5b60e11b81526001600160a01b039092169163a0b47ab691610df0918590600401612522565b600060405180830381600087803b158015610e0a57600080fd5b505af1158015610e1e573d6000803e3d6000fd5b505050506000336001600160a01b031682604051610e3b906104fa565b60006040518083038185875af1925050503d8060008114610e78576040519150601f19603f3d011682016040523d82523d6000602084013e610e7d565b606091505b5050905080610e9e5760405162461bcd60e51b8152600401610544906126f0565b336001600160a01b03167fb7029a2e3425140d13e631737cd4269675a18664ebe4356d84ea6943db8216586003548585604051610edd93929190612b6a565b60405180910390a25050600160005550565b60026000541415610f125760405162461bcd60e51b815260040161054490612af3565b60026000819055600a5460ff166003811115610f3e57634e487b7160e01b600052602160045260246000fd5b14610f5b5760405162461bcd60e51b815260040161054490612abc565b600e546001600160a01b03163314610f855760405162461bcd60e51b8152600401610544906129a9565b600060105411610fa75760405162461bcd60e51b815260040161054490612a10565b60115460ff1615610fca5760405162461bcd60e51b815260040161054490612665565b6011805460ff191660011790556006546010546040516001600160a01b03909216916000918391610ffa906104fa565b60006040518083038185875af1925050503d8060008114611037576040519150601f19603f3d011682016040523d82523d6000602084013e61103c565b606091505b505090508061105d5760405162461bcd60e51b815260040161054490612719565b336001600160a01b03167f324a0fb77c2a44bad89caa2211824604eafbca8eea5d0a07b18145dff2cb59076010546040516110989190612b61565b60405180910390a250506001600055565b60105490565b600080600260009054906101000a90046001600160a01b03166001600160a01b0316637a0ca0886040518163ffffffff1660e01b815260040160206040518083038186803b15801561110057600080fd5b505afa158015611114573d6000803e3d6000fd5b505050506040513d601f19601f820116820180604052508101906111389190612431565b90506000816001600160a01b031663a39fac126040518163ffffffff1660e01b815260040160606040518083038186803b15801561117557600080fd5b505afa158015611189573d6000803e3d6000fd5b505050506040513d601f19601f820116820180604052508101906111ad919061244d565b925050506000816001600160a01b03166370a08231306040518263ffffffff1660e01b81526004016111df9190612530565b60206040518083038186803b1580156111f757600080fd5b505afa15801561120b573d6000803e3d6000fd5b505050506040513d601f19601f8201168201806040525081019061122f91906124d1565b935050505090565b600a54610100900460ff1681565b61124d611c66565b6001600160a01b031661125e6114c3565b6001600160a01b0316146112845760405162461bcd60e51b8152600401610544906128b7565b6001546040516000916001600160a01b0316907f8be0079c531659141344cd1fd0a4f28419497f9722a3daafe3b4186f6b6457e0908390a3600180546001600160a01b0319169055565b6112d6611c66565b6001600160a01b03166112e76114c3565b6001600160a01b03161461130d5760405162461bcd60e51b8152600401610544906128b7565b6002600a5460ff16600381111561133457634e487b7160e01b600052602160045260246000fd5b1415801561136757506003600a5460ff16600381111561136457634e487b7160e01b600052602160045260246000fd5b14155b6113835760405162461bcd60e51b8152600401610544906125ec565b47600554116113a45760405162461bcd60e51b8152600401610544906127d3565b600260009054906101000a90046001600160a01b03166001600160a01b03166399da053a6040518163ffffffff1660e01b815260040160206040518083038186803b1580156113f257600080fd5b505afa158015611406573d6000803e3d6000fd5b505050506040513d601f19601f8201168201806040525081019061142a91906124d1565b6114379062015180612bac565b6007546114449190612b80565b4210156114635760405162461bcd60e51b8152600401610544906128ec565b6001600a54610100900460ff16600181111561148f57634e487b7160e01b600052602160045260246000fd5b14156114ac5761149d611c6a565b6114a5612069565b6012556010555b600a80546003919060ff19166001835b0217905550565b6001546001600160a01b031690565b60125481565b60055481565b6114e6611c66565b6001600160a01b03166114f76114c3565b6001600160a01b03161461151d5760405162461bcd60e51b8152600401610544906128b7565b6000471161153d5760405162461bcd60e51b815260040161054490612b2a565b6001600a54610100900460ff16600181111561156957634e487b7160e01b600052602160045260246000fd5b146115865760405162461bcd60e51b815260040161054490612867565b6000600a5460ff1660038111156115ad57634e487b7160e01b600052602160045260246000fd5b146115ca5760405162461bcd60e51b81526004016105449061262e565b600260009054906101000a90046001600160a01b03166001600160a01b03166399da053a6040518163ffffffff1660e01b815260040160206040518083038186803b15801561161857600080fd5b505afa15801561162c573d6000803e3d6000fd5b505050506040513d601f19601f8201168201806040525081019061165091906124d1565b61165d9062015180612bac565b60075461166a9190612b80565b4210156116895760405162461bcd60e51b8152600401610544906128ec565b611691612132565b600a80546001919060ff191682806114bc565b600e546001600160a01b031681565b60035481565b6116c1611c66565b6001600160a01b03166116d26114c3565b6001600160a01b0316146116f85760405162461bcd60e51b8152600401610544906128b7565b6001600160a01b03811661171e5760405162461bcd60e51b8152600401610544906126aa565b6001546040516001600160a01b038084169216907f8be0079c531659141344cd1fd0a4f28419497f9722a3daafe3b4186f6b6457e090600090a3600180546001600160a01b0319166001600160a01b0392909216919091179055565b60006001600a54610100900460ff1660018111156117a857634e487b7160e01b600052602160045260246000fd5b141561193c5760025460408051630f41941160e31b815290516000926001600160a01b031691637a0ca088916004808301926020929190829003018186803b1580156117f357600080fd5b505afa158015611807573d6000803e3d6000fd5b505050506040513d601f19601f8201168201806040525081019061182b9190612431565b90506000816001600160a01b031663a39fac126040518163ffffffff1660e01b815260040160606040518083038186803b15801561186857600080fd5b505afa15801561187c573d6000803e3d6000fd5b505050506040513d601f19601f820116820180604052508101906118a0919061244d565b925050506000816001600160a01b03166370a08231306040518263ffffffff1660e01b81526004016118d29190612530565b60206040518083038186803b1580156118ea57600080fd5b505afa1580156118fe573d6000803e3d6000fd5b505050506040513d601f19601f8201168201806040525081019061192291906124d1565b9050600f54816119329190612bcb565b93505050506104fa565b5060006104fa565b600d818154811061195457600080fd5b6000918252602090912001546001600160a01b0316905081565b600260005414156119915760405162461bcd60e51b815260040161054490612af3565b60026000908155600a5460ff1660038111156119bd57634e487b7160e01b600052602160045260246000fd5b146119da5760405162461bcd60e51b815260040161054490612830565b336000908152600c6020526040902054811115611a095760405162461bcd60e51b815260040161054490612a3d565b600081600454611a199190612bac565b905080471015611a3b5760405162461bcd60e51b815260040161054490612972565b6000336001600160a01b031682604051611a54906104fa565b60006040518083038185875af1925050503d8060008114611a91576040519150601f19603f3d011682016040523d82523d6000602084013e611a96565b606091505b5050905080611ab75760405162461bcd60e51b8152600401610544906126f0565b336000908152600c602052604081208054859290611ad6908490612bcb565b9250508190555082600b6000828254611aef9190612bcb565b9091555060009050805b600d54811015611bae57336001600160a01b0316600d8281548110611b2e57634e487b7160e01b600052603260045260246000fd5b6000918252602090912001546001600160a01b0316148015611b4f57508482105b15611b9c57600d8181548110611b7557634e487b7160e01b600052603260045260246000fd5b600091825260209091200180546001600160a01b0319169055611b99600183612b80565b91505b80611ba681612be2565b915050611af9565b5060025460035460405163505a3d5b60e11b81526001600160a01b039092169163a0b47ab691611be2918790600401612522565b600060405180830381600087803b158015611bfc57600080fd5b505af1158015611c10573d6000803e3d6000fd5b50505050336001600160a01b03167fdb8e3aedce772b982e904cfc947914829d47da2eb7b13e8cb30a726805abdad46003548686604051611c5393929190612b6a565b60405180910390a2505060016000555050565b3390565b60025460408051630f41941160e31b815290516000926001600160a01b031691637a0ca088916004808301926020929190829003018186803b158015611caf57600080fd5b505afa158015611cc3573d6000803e3d6000fd5b505050506040513d601f19601f82011682018060405250810190611ce79190612431565b90506000806000836001600160a01b031663a39fac126040518163ffffffff1660e01b815260040160606040518083038186803b158015611d2757600080fd5b505afa158015611d3b573d6000803e3d6000fd5b505050506040513d601f19601f82011682018060405250810190611d5f919061244d565b9250925092506000846001600160a01b0316848484604051602401611d869392919061255e565b60408051601f198184030181529181526020820180516001600160e01b03166307be0fa560e21b17905251611dbb91906124e9565b600060405180830381855af49150503d8060008114611df6576040519150601f19603f3d011682016040523d82523d6000602084013e611dfb565b606091505b50915050600081806020019051810190611e1591906124d1565b90507faac50b7fd37b9353a223df3787678aad7d567416d8cf6c3571bda75ee687ce5281604051611e469190612b61565b60405180910390a1505050505050565b600d546040516000918291611e719042904490602001612522565b6040516020818303038152906040528051906020012060001c611e949190612bfd565b9050600d8181548110611eb757634e487b7160e01b600052603260045260246000fd5b6000918252602090912001546001600160a01b031691505090565b6000806000600f5447611ee59190612bcb565b905060006064600260009054906101000a90046001600160a01b03166001600160a01b031663be74264d6040518163ffffffff1660e01b815260040160206040518083038186803b158015611f3957600080fd5b505afa158015611f4d573d6000803e3d6000fd5b505050506040513d601f19601f82011682018060405250810190611f7191906124d1565b611f7b9084612bac565b611f859190612b98565b90506000611f938284612bcb565b9050611f9e8261230e565b93509150509091565b60008060006064600260009054906101000a90046001600160a01b03166001600160a01b031663be74264d6040518163ffffffff1660e01b815260040160206040518083038186803b158015611ffc57600080fd5b505afa158015612010573d6000803e3d6000fd5b505050506040513d601f19601f8201168201806040525081019061203491906124d1565b61203e9047612bac565b6120489190612b98565b905060006120568247612bcb565b90506120618261230e565b925090509091565b6000806000600f544761207c9190612bcb565b905060006064600260009054906101000a90046001600160a01b03166001600160a01b031663be74264d6040518163ffffffff1660e01b815260040160206040518083038186803b1580156120d057600080fd5b505afa1580156120e4573d6000803e3d6000fd5b505050506040513d601f19601f8201168201806040525081019061210891906124d1565b6121129084612bac565b61211c9190612b98565b90506121278161230e565b600093509150509091565b60025460408051630f41941160e31b815290516000926001600160a01b031691637a0ca088916004808301926020929190829003018186803b15801561217757600080fd5b505afa15801561218b573d6000803e3d6000fd5b505050506040513d601f19601f820116820180604052508101906121af9190612431565b9050600080826001600160a01b031663a39fac126040518163ffffffff1660e01b815260040160606040518083038186803b1580156121ed57600080fd5b505afa158015612201573d6000803e3d6000fd5b505050506040513d601f19601f82011682018060405250810190612225919061244d565b60405163095ea7b360e01b815291945092506001600160a01b038316915063095ea7b39061225b908590600019906004016125a5565b602060405180830381600087803b15801561227557600080fd5b505af1158015612289573d6000803e3d6000fd5b505050506040513d601f19601f820116820180604052508101906122ad9190612499565b5047600f81905550826001600160a01b031663f6326fb3476040518263ffffffff1660e01b81526004016000604051808303818588803b1580156122f057600080fd5b505af1158015612304573d6000803e3d6000fd5b5050505050505050565b600254604080516304ca658160e21b815290516000926001600160a01b0316916313299604916004808301926020929190829003018186803b15801561235357600080fd5b505afa158015612367573d6000803e3d6000fd5b505050506040513d601f19601f8201168201806040525081019061238b9190612431565b90506000816001600160a01b0316836040516123a6906104fa565b60006040518083038185875af1925050503d80600081146123e3576040519150601f19603f3d011682016040523d82523d6000602084013e6123e8565b606091505b50509050806124095760405162461bcd60e51b8152600401610544906127a5565b505050565b60006020828403121561241f578081fd5b813561242a81612c53565b9392505050565b600060208284031215612442578081fd5b815161242a81612c53565b600080600060608486031215612461578182fd5b835161246c81612c53565b602085015190935061247d81612c53565b604085015190925061248e81612c53565b809150509250925092565b6000602082840312156124aa578081fd5b8151801515811461242a578182fd5b6000602082840312156124ca578081fd5b5035919050565b6000602082840312156124e2578081fd5b5051919050565b60008251815b8181101561250957602081860181015185830152016124ef565b818111156125175782828501525b509190910192915050565b918252602082015260400190565b6001600160a01b0391909116815260200190565b6001600160a01b0392831681529116602082015260400190565b6001600160a01b0393841681529183166020830152909116604082015260600190565b6001600160a01b039384168152919092166020820152604081019190915260600190565b6001600160a01b03929092168252602082015260400190565b60208101600283106125d2576125d2612c3d565b91905290565b60208101600483106125d2576125d2612c3d565b60208082526022908201527f546865206c6f747465727920706f6f6c20697320616c726561647920636c6f73604082015261195960f21b606082015260800190565b60208082526017908201527f546865206c6f7474657279206973206e6f74206f70656e000000000000000000604082015260600190565b60208082526025908201527f5061796d656e7420616c7265616479207472616e73666572656420746f20637260408201526432b0ba37b960d91b606082015260800190565b60208082526026908201527f4f776e61626c653a206e6577206f776e657220697320746865207a65726f206160408201526564647265737360d01b606082015260800190565b6020808252600f908201526e151c985b9cd9995c8819985a5b1959608a1b604082015260600190565b6020808252601a908201527f5472616e7366657220746f2063726561746f72206661696c6564000000000000604082015260600190565b60208082526035908201527f5469636b6574732063616e206f6e6c792062652072656465656d656420696e206040820152747374616b696e67206c6f747465727920706f6f6c7360581b606082015260800190565b602080825260149082015273151c985b9cd9995c881999595cc819985a5b195960621b604082015260600190565b6020808252603a908201527f43616e6e6f742063616e63656c206c6f74746572792e20546865206d696e696d60408201527f756d20616d6f756e7420686173206265656e2072656163686564000000000000606082015260800190565b6020808252601c908201527f546865206c6f747465727920706f6f6c206973206e6f74206f70656e00000000604082015260600190565b60208082526030908201527f4c6f747465727920706f6f6c2074797065206973206e6f7420636f6d7061746960408201526f626c652077697468207374616b696e6760801b606082015260800190565b6020808252818101527f4f776e61626c653a2063616c6c6572206973206e6f7420746865206f776e6572604082015260600190565b60208082526023908201527f596f75206d757374207761697420746865206d696e696d756d206f70656e206460408201526261797360e81b606082015260800190565b60208082526023908201527f416d6f756e742073656e7420697320646966666572656e74207468616e20707260408201526269636560e81b606082015260800190565b6020808252601f908201527f4e6f7420656e6f756768206d6f6e657920696e207468652062616c616e636500604082015260600190565b6020808252601690820152752ab9b2b91034b9903737ba103a3432903bb4b73732b960511b604082015260600190565b6020808252601f908201527f546865206c6f747465727920706f6f6c206973206e6f74207374616b696e6700604082015260600190565b6020808252601390820152722737ba3434b733903a37903a3930b739b332b960691b604082015260600190565b6020808252601e908201527f596f7520646f206e6f74206861766520656e6f756768207469636b6574730000604082015260600190565b60208082526028908201527f436f6e7472616374206973206e6f7420617070726f76656420746f207472616e6040820152671cd9995c8813919560c21b606082015260800190565b6020808252601e908201527f546865206c6f747465727920706f6f6c206973206e6f7420636c6f7365640000604082015260600190565b6020808252601f908201527f5265656e7472616e637947756172643a207265656e7472616e742063616c6c00604082015260600190565b6020808252601e908201527f42616c616e6365206d7573742062652067726561746572207468616e20300000604082015260600190565b90815260200190565b9283526020830191909152604082015260600190565b60008219821115612b9357612b93612c11565b500190565b600082612ba757612ba7612c27565b500490565b6000816000190483118215151615612bc657612bc6612c11565b500290565b600082821015612bdd57612bdd612c11565b500390565b6000600019821415612bf657612bf6612c11565b5060010190565b600082612c0c57612c0c612c27565b500690565b634e487b7160e01b600052601160045260246000fd5b634e487b7160e01b600052601260045260246000fd5b634e487b7160e01b600052602160045260246000fd5b6001600160a01b0381168114612c6857600080fd5b5056fea2646970667358221220e6a2b649c70947ff6c70783b58d08106284b968466651732aaf1378ca1efa5ed64736f6c63430008000033a26469706673582212208e205384af81e06eee55e35f1e7e57bebd1e3cb278603d07c6c95e629f02671a64736f6c63430008000033",
  "linkReferences": {},
  "deployedLinkReferences": {}
}