{
  "_format": "hh-sol-artifact-1",
  "contractName": "LotteryPoolFactory",
  "sourceName": "contracts/LotteryPoolFactory.sol",
  "abi": [
    {
      "anonymous": false,
      "inputs": [
        {
          "indexed": false,
          "internalType": "uint256",
          "name": "feePercent",
          "type": "uint256"
        }
      ],
      "name": "FeePercentChanged",
      "type": "event"
    },
    {
      "anonymous": false,
      "inputs": [
        {
          "indexed": false,
          "internalType": "uint256",
          "name": "lotteryId",
          "type": "uint256"
        },
        {
          "indexed": false,
          "internalType": "uint256",
          "name": "fees",
          "type": "uint256"
        }
      ],
      "name": "LotteryCancelled",
      "type": "event"
    },
    {
      "anonymous": false,
      "inputs": [
        {
          "indexed": false,
          "internalType": "uint256",
          "name": "lotteryId",
          "type": "uint256"
        },
        {
          "indexed": false,
          "internalType": "address",
          "name": "winner",
          "type": "address"
        },
        {
          "indexed": false,
          "internalType": "uint256",
          "name": "profit",
          "type": "uint256"
        },
        {
          "indexed": false,
          "internalType": "uint256",
          "name": "fees",
          "type": "uint256"
        }
      ],
      "name": "LotteryClosed",
      "type": "event"
    },
    {
      "anonymous": false,
      "inputs": [
        {
          "indexed": false,
          "internalType": "uint256",
          "name": "lotteryId",
          "type": "uint256"
        },
        {
          "indexed": false,
          "internalType": "address",
          "name": "creator",
          "type": "address"
        },
        {
          "indexed": false,
          "internalType": "address",
          "name": "lotteryAddress",
          "type": "address"
        },
        {
          "indexed": false,
          "internalType": "address",
          "name": "nftAddress",
          "type": "address"
        },
        {
          "indexed": false,
          "internalType": "uint256",
          "name": "nftIndex",
          "type": "uint256"
        },
        {
          "indexed": false,
          "internalType": "uint256",
          "name": "ticketPrice",
          "type": "uint256"
        },
        {
          "indexed": false,
          "internalType": "uint256",
          "name": "created",
          "type": "uint256"
        },
        {
          "indexed": false,
          "internalType": "uint256",
          "name": "lotteryPoolType",
          "type": "uint256"
        },
        {
          "indexed": false,
          "internalType": "uint256",
          "name": "minAmount",
          "type": "uint256"
        }
      ],
      "name": "LotteryCreated",
      "type": "event"
    },
    {
      "anonymous": false,
      "inputs": [
        {
          "indexed": false,
          "internalType": "uint256",
          "name": "lotteryId",
          "type": "uint256"
        },
        {
          "indexed": false,
          "internalType": "uint256",
          "name": "stakedAmount",
          "type": "uint256"
        }
      ],
      "name": "LotteryStaked",
      "type": "event"
    },
    {
      "anonymous": false,
      "inputs": [
        {
          "indexed": false,
          "internalType": "uint256",
          "name": "minDaysOpen",
          "type": "uint256"
        }
      ],
      "name": "MinDaysOpenChanged",
      "type": "event"
    },
    {
      "anonymous": false,
      "inputs": [
        {
          "indexed": true,
          "internalType": "address",
          "name": "previousOwner",
          "type": "address"
        },
        {
          "indexed": true,
          "internalType": "address",
          "name": "newOwner",
          "type": "address"
        }
      ],
      "name": "OwnershipTransferred",
      "type": "event"
    },
    {
      "anonymous": false,
      "inputs": [
        {
          "indexed": false,
          "internalType": "address",
          "name": "account",
          "type": "address"
        }
      ],
      "name": "Paused",
      "type": "event"
    },
    {
      "anonymous": false,
      "inputs": [
        {
          "indexed": false,
          "internalType": "address",
          "name": "account",
          "type": "address"
        }
      ],
      "name": "Unpaused",
      "type": "event"
    },
    {
      "anonymous": false,
      "inputs": [
        {
          "indexed": true,
          "internalType": "address",
          "name": "addr",
          "type": "address"
        }
      ],
      "name": "WalletChanged",
      "type": "event"
    },
    {
      "inputs": [
        {
          "internalType": "uint256",
          "name": "_lotteryPoolTypeId",
          "type": "uint256"
        },
        {
          "internalType": "bytes32",
          "name": "_lotteryPoolTypeName",
          "type": "bytes32"
        },
        {
          "internalType": "address",
          "name": "_masterPoolAddress",
          "type": "address"
        }
      ],
      "name": "addMasterPool",
      "outputs": [],
      "stateMutability": "nonpayable",
      "type": "function"
    },
    {
      "inputs": [
        {
          "internalType": "address",
          "name": "_nftAddress",
          "type": "address"
        },
        {
          "internalType": "uint256",
          "name": "_nftIndex",
          "type": "uint256"
        },
        {
          "internalType": "uint256",
          "name": "_ticketPrice",
          "type": "uint256"
        },
        {
          "internalType": "uint256",
          "name": "_minProfit",
          "type": "uint256"
        },
        {
          "internalType": "uint256",
          "name": "_lotteryPoolType",
          "type": "uint256"
        }
      ],
      "name": "createLottery",
      "outputs": [],
      "stateMutability": "nonpayable",
      "type": "function"
    },
    {
      "inputs": [
        {
          "internalType": "uint256",
          "name": "_lotteryId",
          "type": "uint256"
        },
        {
          "internalType": "uint256",
          "name": "_amount",
          "type": "uint256"
        }
      ],
      "name": "decreaseTotalSupply",
      "outputs": [],
      "stateMutability": "nonpayable",
      "type": "function"
    },
    {
      "inputs": [],
      "name": "getFeePercent",
      "outputs": [
        {
          "internalType": "uint256",
          "name": "",
          "type": "uint256"
        }
      ],
      "stateMutability": "view",
      "type": "function"
    },
    {
      "inputs": [],
      "name": "getMinDaysOpen",
      "outputs": [
        {
          "internalType": "uint256",
          "name": "",
          "type": "uint256"
        }
      ],
      "stateMutability": "view",
      "type": "function"
    },
    {
      "inputs": [],
      "name": "getStakingAdapter",
      "outputs": [
        {
          "internalType": "address",
          "name": "",
          "type": "address"
        }
      ],
      "stateMutability": "view",
      "type": "function"
    },
    {
      "inputs": [],
      "name": "getWallet",
      "outputs": [
        {
          "internalType": "address",
          "name": "",
          "type": "address"
        }
      ],
      "stateMutability": "view",
      "type": "function"
    },
    {
      "inputs": [
        {
          "internalType": "uint256",
          "name": "_lotteryId",
          "type": "uint256"
        },
        {
          "internalType": "uint256",
          "name": "_amount",
          "type": "uint256"
        }
      ],
      "name": "increaseTotalSupply",
      "outputs": [],
      "stateMutability": "nonpayable",
      "type": "function"
    },
    {
      "inputs": [
        {
          "internalType": "address",
          "name": "_stakingAdapter",
          "type": "address"
        }
      ],
      "name": "initialize",
      "outputs": [],
      "stateMutability": "nonpayable",
      "type": "function"
    },
    {
      "inputs": [
        {
          "internalType": "uint256",
          "name": "",
          "type": "uint256"
        }
      ],
      "name": "lotteries",
      "outputs": [
        {
          "internalType": "contract ILotteryPool",
          "name": "",
          "type": "address"
        }
      ],
      "stateMutability": "view",
      "type": "function"
    },
    {
      "inputs": [
        {
          "internalType": "uint256",
          "name": "_lotteryId",
          "type": "uint256"
        },
        {
          "internalType": "uint256",
          "name": "_fees",
          "type": "uint256"
        }
      ],
      "name": "lotteryCancelled",
      "outputs": [],
      "stateMutability": "nonpayable",
      "type": "function"
    },
    {
      "inputs": [
        {
          "internalType": "uint256",
          "name": "_lotteryId",
          "type": "uint256"
        },
        {
          "internalType": "address",
          "name": "_winner",
          "type": "address"
        },
        {
          "internalType": "uint256",
          "name": "_profit",
          "type": "uint256"
        },
        {
          "internalType": "uint256",
          "name": "_fees",
          "type": "uint256"
        }
      ],
      "name": "lotteryClosed",
      "outputs": [],
      "stateMutability": "nonpayable",
      "type": "function"
    },
    {
      "inputs": [
        {
          "internalType": "uint256",
          "name": "_lotteryId",
          "type": "uint256"
        },
        {
          "internalType": "uint256",
          "name": "_stakedAmount",
          "type": "uint256"
        }
      ],
      "name": "lotteryStaked",
      "outputs": [],
      "stateMutability": "nonpayable",
      "type": "function"
    },
    {
      "inputs": [],
      "name": "numberOfActiveLotteries",
      "outputs": [
        {
          "internalType": "uint256",
          "name": "",
          "type": "uint256"
        }
      ],
      "stateMutability": "view",
      "type": "function"
    },
    {
      "inputs": [],
      "name": "owner",
      "outputs": [
        {
          "internalType": "address",
          "name": "",
          "type": "address"
        }
      ],
      "stateMutability": "view",
      "type": "function"
    },
    {
      "inputs": [],
      "name": "pause",
      "outputs": [],
      "stateMutability": "nonpayable",
      "type": "function"
    },
    {
      "inputs": [],
      "name": "paused",
      "outputs": [
        {
          "internalType": "bool",
          "name": "",
          "type": "bool"
        }
      ],
      "stateMutability": "view",
      "type": "function"
    },
    {
      "inputs": [],
      "name": "renounceOwnership",
      "outputs": [],
      "stateMutability": "nonpayable",
      "type": "function"
    },
    {
      "inputs": [
        {
          "internalType": "uint256",
          "name": "_feePercent",
          "type": "uint256"
        }
      ],
      "name": "setFeePercent",
      "outputs": [],
      "stateMutability": "nonpayable",
      "type": "function"
    },
    {
      "inputs": [
        {
          "internalType": "uint256",
          "name": "_minDaysOpen",
          "type": "uint256"
        }
      ],
      "name": "setMinDaysOpen",
      "outputs": [],
      "stateMutability": "nonpayable",
      "type": "function"
    },
    {
      "inputs": [
        {
          "internalType": "address payable",
          "name": "_addr",
          "type": "address"
        }
      ],
      "name": "setWallet",
      "outputs": [],
      "stateMutability": "nonpayable",
      "type": "function"
    },
    {
      "inputs": [],
      "name": "totalSupply",
      "outputs": [
        {
          "internalType": "uint256",
          "name": "",
          "type": "uint256"
        }
      ],
      "stateMutability": "view",
      "type": "function"
    },
    {
      "inputs": [
        {
          "internalType": "address",
          "name": "newOwner",
          "type": "address"
        }
      ],
      "name": "transferOwnership",
      "outputs": [],
      "stateMutability": "nonpayable",
      "type": "function"
    },
    {
      "inputs": [],
      "name": "unpause",
      "outputs": [],
      "stateMutability": "nonpayable",
      "type": "function"
    }
  ],
  "bytecode": "0x608060405234801561001057600080fd5b5061164d806100206000396000f3fe608060405234801561001057600080fd5b50600436106101585760003560e01c80638456cb59116100c3578063c4d66de81161007c578063c4d66de814610277578063deaa59df1461028a578063dedddd951461029d578063df85b741146102b0578063e49a4b16146102c3578063f2fde38b146102cb57610158565b80638456cb59146102315780638da5cb5b1461023957806399da053a146102415780639cb08abb14610249578063bdafb1ff1461025c578063be74264d1461026f57610158565b80633f4ba83a116101155780633f4ba83a146101d35780634b826d81146101db5780635c975abb146101ee578063715018a6146102035780637978f2791461020b5780637ce3489b1461021e57610158565b806303b357dd1461015d57806313299604146101725780631398e0761461019057806318160ddd146101a35780631b3896bc146101b8578063339b3776146101c0575b600080fd5b61017061016b366004611244565b6102de565b005b61017a61037a565b6040516101879190611265565b60405180910390f35b61017a61019e3660046111b8565b610389565b6101ab6103b3565b6040516101879190611502565b6101ab6103b9565b6101706101ce366004611244565b6103bf565b610170610430565b6101706101e9366004611244565b610479565b6101f66104e0565b60405161018791906112cc565b6101706104e9565b610170610219366004611244565b610572565b61017061022c3660046111b8565b61060d565b61017061068c565b61017a6106d3565b6101ab6106e2565b6101706102573660046111b8565b6106e8565b61017061026a3660046111d0565b61075c565b6101ab61080a565b610170610285366004611152565b610810565b610170610298366004611152565b6108eb565b6101706102ab36600461120c565b61097a565b6101706102be366004611175565b6109f3565b61017a610bd0565b6101706102d9366004611152565b610bdf565b8160c9818154811061030057634e487b7160e01b600052603260045260246000fd5b6000918252602090912001546001600160a01b0316331461033c5760405162461bcd60e51b81526004016103339061142d565b60405180910390fd5b7f4da77555e73f64b236322348caae14818446c8089b3bf650c93749db0599cd25838360405161036d92919061157d565b60405180910390a1505050565b60cd546001600160a01b031690565b60c9818154811061039957600080fd5b6000918252602090912001546001600160a01b0316905081565b60cb5481565b60ca5481565b8160c981815481106103e157634e487b7160e01b600052603260045260246000fd5b6000918252602090912001546001600160a01b031633146104145760405162461bcd60e51b81526004016103339061142d565b8160cb6000828254610426919061158b565b9091555050505050565b610438610ca0565b6001600160a01b03166104496106d3565b6001600160a01b03161461046f5760405162461bcd60e51b8152600401610333906113f8565b610477610ca4565b565b8160c9818154811061049b57634e487b7160e01b600052603260045260246000fd5b6000918252602090912001546001600160a01b031633146104ce5760405162461bcd60e51b81526004016103339061142d565b8160cb600082825461042691906115a3565b60975460ff1690565b6104f1610ca0565b6001600160a01b03166105026106d3565b6001600160a01b0316146105285760405162461bcd60e51b8152600401610333906113f8565b6033546040516000916001600160a01b0316907f8be0079c531659141344cd1fd0a4f28419497f9722a3daafe3b4186f6b6457e0908390a3603380546001600160a01b0319169055565b8160c9818154811061059457634e487b7160e01b600052603260045260246000fd5b6000918252602090912001546001600160a01b031633146105c75760405162461bcd60e51b81526004016103339061142d565b60ca80549060006105d7836115ba565b91905055507fa56a4f1c11adc6f055feecc2fc93bc3c4d5da030db0006cb8f671763d4c6e59c838360405161036d92919061157d565b610615610ca0565b6001600160a01b03166106266106d3565b6001600160a01b03161461064c5760405162461bcd60e51b8152600401610333906113f8565b60cc8190556040517f91955c12515f4eb8f1ff79df82d1933ff11b6d3b9a3019c6568840616ec36a7490610681908390611502565b60405180910390a150565b610694610ca0565b6001600160a01b03166106a56106d3565b6001600160a01b0316146106cb5760405162461bcd60e51b8152600401610333906113f8565b610477610d12565b6033546001600160a01b031690565b60ce5490565b6106f0610ca0565b6001600160a01b03166107016106d3565b6001600160a01b0316146107275760405162461bcd60e51b8152600401610333906113f8565b60ce8190556040517fd1fda8d12743585aa215eac90ca51a4de1409fc059f0c1de983fb588c1d5a5e990610681908390611502565b8360c9818154811061077e57634e487b7160e01b600052603260045260246000fd5b6000918252602090912001546001600160a01b031633146107b15760405162461bcd60e51b81526004016103339061142d565b60ca80549060006107c1836115ba565b91905055507f1cd070ae8ed4e4c6b1b892a324389e5838bb564fae4625f55a625a5f9fdfb5c6858585856040516107fb9493929190611559565b60405180910390a15050505050565b60cc5490565b600054610100900460ff1680610829575060005460ff16155b6108455760405162461bcd60e51b8152600401610333906113aa565b600054610100900460ff16158015610870576000805460ff1961ff0019909116610100171660011790555b610878610d6d565b610880610df2565b610888610e5a565b60cf80546001600160a01b0319166001600160a01b0384161790556108ab6106d3565b60cd80546001600160a01b0319166001600160a01b0392909216919091179055600a60cc55600760ce5580156108e7576000805461ff00191690555b5050565b6108f3610ca0565b6001600160a01b03166109046106d3565b6001600160a01b03161461092a5760405162461bcd60e51b8152600401610333906113f8565b60cd80546001600160a01b0319166001600160a01b0383811691909117918290556040519116907f3ce716f94fe275e52428cbf6b7f388e5a65976d4edabc34355a77f5e89655bdc90600090a250565b610982610ca0565b6001600160a01b03166109936106d3565b6001600160a01b0316146109b95760405162461bcd60e51b8152600401610333906113f8565b600092835260d0602090815260408085209390935560d19052912080546001600160a01b0319166001600160a01b03909216919091179055565b6109fb6104e0565b15610a185760405162461bcd60e51b815260040161033390611380565b6001600160a01b038516610a3e5760405162461bcd60e51b8152600401610333906114cb565b60008311610a5e5760405162461bcd60e51b81526004016103339061134b565b600081815260d160205260409020546001600160a01b031680610a935760405162461bcd60e51b81526004016103339061148a565b426000610a9f83610eca565b60c95460405163a9ee6ac360e01b81529192506001600160a01b0383169163a9ee6ac391610ae09130919033908e908e908e908e908c908f90600401611279565b600060405180830381600087803b158015610afa57600080fd5b505af1158015610b0e573d6000803e3d6000fd5b505060c9805460018101825560009182527f66be4f155c5ef2ebd3772b228f2f00681e4ed5826cdb3b1943cc11ad15ad1d280180546001600160a01b0319166001600160a01b03861617905560ca805493509150610b6b836115d1565b909155505060c9547fe6b4afef5103dbdff36d091324707cb41a50cd96b4767736d6b5a55b88b2102f90610ba1906001906115a3565b33838b8b8b888b8d604051610bbe9998979695949392919061150b565b60405180910390a15050505050505050565b60cf546001600160a01b031690565b610be7610ca0565b6001600160a01b0316610bf86106d3565b6001600160a01b031614610c1e5760405162461bcd60e51b8152600401610333906113f8565b6001600160a01b038116610c445760405162461bcd60e51b815260040161033390611305565b6033546040516001600160a01b038084169216907f8be0079c531659141344cd1fd0a4f28419497f9722a3daafe3b4186f6b6457e090600090a3603380546001600160a01b0319166001600160a01b0392909216919091179055565b3390565b610cac6104e0565b610cc85760405162461bcd60e51b8152600401610333906112d7565b6097805460ff191690557f5db9ee0a495bf2e6ff9c91a7834c1ba4fdd244a5e8aa4e537bd38aeae4b073aa610cfb610ca0565b604051610d089190611265565b60405180910390a1565b610d1a6104e0565b15610d375760405162461bcd60e51b815260040161033390611380565b6097805460ff191660011790557f62e78cea01bee320cd4e420270b5ea74000d11b0c9f74754ebdbfc544b05a258610cfb610ca0565b600054610100900460ff1680610d86575060005460ff16155b610da25760405162461bcd60e51b8152600401610333906113aa565b600054610100900460ff16158015610dcd576000805460ff1961ff0019909116610100171660011790555b610dd5610f1c565b610ddd610f8f565b8015610def576000805461ff00191690555b50565b600054610100900460ff1680610e0b575060005460ff16155b610e275760405162461bcd60e51b8152600401610333906113aa565b600054610100900460ff16158015610e52576000805460ff1961ff0019909116610100171660011790555b610ddd61105b565b600054610100900460ff1680610e73575060005460ff16155b610e8f5760405162461bcd60e51b8152600401610333906113aa565b600054610100900460ff16158015610eba576000805460ff1961ff0019909116610100171660011790555b610ec2610f1c565b610ddd6110d4565b6000808260601b9050604051733d602d80600a3d3981f3363d3d373d3d3d363d7360601b81528160148201526e5af43d82803e903d91602b57fd5bf360881b60288201526037816000f0949350505050565b600054610100900460ff1680610f35575060005460ff16155b610f515760405162461bcd60e51b8152600401610333906113aa565b600054610100900460ff16158015610ddd576000805460ff1961ff0019909116610100171660011790558015610def576000805461ff001916905550565b600054610100900460ff1680610fa8575060005460ff16155b610fc45760405162461bcd60e51b8152600401610333906113aa565b600054610100900460ff16158015610fef576000805460ff1961ff0019909116610100171660011790555b6000610ff9610ca0565b603380546001600160a01b0319166001600160a01b038316908117909155604051919250906000907f8be0079c531659141344cd1fd0a4f28419497f9722a3daafe3b4186f6b6457e0908290a3508015610def576000805461ff001916905550565b600054610100900460ff1680611074575060005460ff16155b6110905760405162461bcd60e51b8152600401610333906113aa565b600054610100900460ff161580156110bb576000805460ff1961ff0019909116610100171660011790555b60016065558015610def576000805461ff001916905550565b600054610100900460ff16806110ed575060005460ff16155b6111095760405162461bcd60e51b8152600401610333906113aa565b600054610100900460ff16158015611134576000805460ff1961ff0019909116610100171660011790555b6097805460ff191690558015610def576000805461ff001916905550565b600060208284031215611163578081fd5b813561116e81611602565b9392505050565b600080600080600060a0868803121561118c578081fd5b853561119781611602565b97602087013597506040870135966060810135965060800135945092505050565b6000602082840312156111c9578081fd5b5035919050565b600080600080608085870312156111e5578384fd5b8435935060208501356111f781611602565b93969395505050506040820135916060013590565b600080600060608486031215611220578283fd5b8335925060208401359150604084013561123981611602565b809150509250925092565b60008060408385031215611256578182fd5b50508035926020909101359150565b6001600160a01b0391909116815260200190565b6001600160a01b03998a16815260208101989098529588166040880152939096166060860152608085019190915260a084015260c083019390935260e08201929092526101008101919091526101200190565b901515815260200190565b60208082526014908201527314185d5cd8589b194e881b9bdd081c185d5cd95960621b604082015260600190565b60208082526026908201527f4f776e61626c653a206e6577206f776e657220697320746865207a65726f206160408201526564647265737360d01b606082015260800190565b6020808252818101527f412076616c6964207469636b6574207072696365206973207265717569726564604082015260600190565b60208082526010908201526f14185d5cd8589b194e881c185d5cd95960821b604082015260600190565b6020808252602e908201527f496e697469616c697a61626c653a20636f6e747261637420697320616c72656160408201526d191e481a5b9a5d1a585b1a5e995960921b606082015260800190565b6020808252818101527f4f776e61626c653a2063616c6c6572206973206e6f7420746865206f776e6572604082015260600190565b6020808252603b908201527f54686973206d6574686f64206d7573742062652063616c6c6564207468726f7560408201527f67682061206c6f7474657279206368696c6420636f6e74726163740000000000606082015260800190565b60208082526021908201527f4d617374657220706f6f6c20636f6e7472616374206e6f74206465706c6f79656040820152601960fa1b606082015260800190565b6020808252601b908201527f412076616c696420616464726573732069732072657175697265640000000000604082015260600190565b90815260200190565b9889526001600160a01b0397881660208a01529587166040890152939095166060870152608086019190915260a085015260c084019290925260e08301919091526101008201526101200190565b9384526001600160a01b039290921660208401526040830152606082015260800190565b918252602082015260400190565b6000821982111561159e5761159e6115ec565b500190565b6000828210156115b5576115b56115ec565b500390565b6000816115c9576115c96115ec565b506000190190565b60006000198214156115e5576115e56115ec565b5060010190565b634e487b7160e01b600052601160045260246000fd5b6001600160a01b0381168114610def57600080fdfea2646970667358221220a29bf5ed87301ab0b0f9e5722953f71765e0b4c6d8503e0c723115389f6d5f3464736f6c63430008000033",
  "linkReferences": {},
  "deployedLinkReferences": {}
}