{
  "_format": "hh-sol-artifact-1",
  "contractName": "LotteryPoolFactory",
  "sourceName": "contracts/LotteryPoolFactory.sol",
  "abi": [
    {
      "anonymous": false,
      "inputs": [
        {
          "indexed": false,
          "internalType": "uint256",
          "name": "feePercent",
          "type": "uint256"
        }
      ],
      "name": "FeePercentChanged",
      "type": "event"
    },
    {
      "anonymous": false,
      "inputs": [
        {
          "indexed": false,
          "internalType": "uint256",
          "name": "lotteryId",
          "type": "uint256"
        },
        {
          "indexed": false,
          "internalType": "uint256",
          "name": "fees",
          "type": "uint256"
        }
      ],
      "name": "LotteryCancelled",
      "type": "event"
    },
    {
      "anonymous": false,
      "inputs": [
        {
          "indexed": false,
          "internalType": "uint256",
          "name": "lotteryId",
          "type": "uint256"
        },
        {
          "indexed": false,
          "internalType": "address",
          "name": "winner",
          "type": "address"
        },
        {
          "indexed": false,
          "internalType": "uint256",
          "name": "profit",
          "type": "uint256"
        },
        {
          "indexed": false,
          "internalType": "uint256",
          "name": "fees",
          "type": "uint256"
        }
      ],
      "name": "LotteryClosed",
      "type": "event"
    },
    {
      "anonymous": false,
      "inputs": [
        {
          "indexed": false,
          "internalType": "uint256",
          "name": "lotteryId",
          "type": "uint256"
        },
        {
          "indexed": false,
          "internalType": "address",
          "name": "creator",
          "type": "address"
        },
        {
          "indexed": false,
          "internalType": "address",
          "name": "lotteryAddress",
          "type": "address"
        },
        {
          "indexed": false,
          "internalType": "address",
          "name": "nftAddress",
          "type": "address"
        },
        {
          "indexed": false,
          "internalType": "uint256",
          "name": "nftIndex",
          "type": "uint256"
        },
        {
          "indexed": false,
          "internalType": "uint256",
          "name": "ticketPrice",
          "type": "uint256"
        },
        {
          "indexed": false,
          "internalType": "uint256",
          "name": "created",
          "type": "uint256"
        },
        {
          "indexed": false,
          "internalType": "uint256",
          "name": "lotteryPoolType",
          "type": "uint256"
        },
        {
          "indexed": false,
          "internalType": "uint256",
          "name": "minAmount",
          "type": "uint256"
        }
      ],
      "name": "LotteryCreated",
      "type": "event"
    },
    {
      "anonymous": false,
      "inputs": [
        {
          "indexed": false,
          "internalType": "uint256",
          "name": "lotteryId",
          "type": "uint256"
        },
        {
          "indexed": false,
          "internalType": "uint256",
          "name": "stakedAmount",
          "type": "uint256"
        }
      ],
      "name": "LotteryStaked",
      "type": "event"
    },
    {
      "anonymous": false,
      "inputs": [
        {
          "indexed": false,
          "internalType": "uint256",
          "name": "minDaysOpen",
          "type": "uint256"
        }
      ],
      "name": "MinDaysOpenChanged",
      "type": "event"
    },
    {
      "anonymous": false,
      "inputs": [
        {
          "indexed": true,
          "internalType": "address",
          "name": "previousOwner",
          "type": "address"
        },
        {
          "indexed": true,
          "internalType": "address",
          "name": "newOwner",
          "type": "address"
        }
      ],
      "name": "OwnershipTransferred",
      "type": "event"
    },
    {
      "anonymous": false,
      "inputs": [
        {
          "indexed": false,
          "internalType": "address",
          "name": "account",
          "type": "address"
        }
      ],
      "name": "Paused",
      "type": "event"
    },
    {
      "anonymous": false,
      "inputs": [
        {
          "indexed": false,
          "internalType": "address",
          "name": "account",
          "type": "address"
        }
      ],
      "name": "Unpaused",
      "type": "event"
    },
    {
      "anonymous": false,
      "inputs": [
        {
          "indexed": true,
          "internalType": "address",
          "name": "addr",
          "type": "address"
        }
      ],
      "name": "WalletChanged",
      "type": "event"
    },
    {
      "inputs": [
        {
          "internalType": "uint256",
          "name": "_lotteryPoolTypeId",
          "type": "uint256"
        },
        {
          "internalType": "bytes32",
          "name": "_lotteryPoolTypeName",
          "type": "bytes32"
        },
        {
          "internalType": "address",
          "name": "_masterPoolAddress",
          "type": "address"
        }
      ],
      "name": "addMasterPool",
      "outputs": [],
      "stateMutability": "nonpayable",
      "type": "function"
    },
    {
      "inputs": [
        {
          "internalType": "address",
          "name": "_nftAddress",
          "type": "address"
        },
        {
          "internalType": "uint256",
          "name": "_nftIndex",
          "type": "uint256"
        },
        {
          "internalType": "uint256",
          "name": "_ticketPrice",
          "type": "uint256"
        },
        {
          "internalType": "uint256",
          "name": "_minProfit",
          "type": "uint256"
        },
        {
          "internalType": "uint256",
          "name": "_lotteryPoolType",
          "type": "uint256"
        }
      ],
      "name": "createLottery",
      "outputs": [],
      "stateMutability": "nonpayable",
      "type": "function"
    },
    {
      "inputs": [
        {
          "internalType": "uint256",
          "name": "_lotteryId",
          "type": "uint256"
        },
        {
          "internalType": "uint256",
          "name": "_amount",
          "type": "uint256"
        }
      ],
      "name": "decreaseTotalSupply",
      "outputs": [],
      "stateMutability": "nonpayable",
      "type": "function"
    },
    {
      "inputs": [],
      "name": "getFeePercent",
      "outputs": [
        {
          "internalType": "uint256",
          "name": "",
          "type": "uint256"
        }
      ],
      "stateMutability": "view",
      "type": "function"
    },
    {
      "inputs": [
        {
          "internalType": "uint256",
          "name": "_lotteryPoolTypeId",
          "type": "uint256"
        }
      ],
      "name": "getLotteryPoolTypeName",
      "outputs": [
        {
          "internalType": "bytes32",
          "name": "",
          "type": "bytes32"
        }
      ],
      "stateMutability": "view",
      "type": "function"
    },
    {
      "inputs": [],
      "name": "getMinDaysOpen",
      "outputs": [
        {
          "internalType": "uint256",
          "name": "",
          "type": "uint256"
        }
      ],
      "stateMutability": "view",
      "type": "function"
    },
    {
      "inputs": [],
      "name": "getStakingAdapter",
      "outputs": [
        {
          "internalType": "address",
          "name": "",
          "type": "address"
        }
      ],
      "stateMutability": "view",
      "type": "function"
    },
    {
      "inputs": [],
      "name": "getWallet",
      "outputs": [
        {
          "internalType": "address",
          "name": "",
          "type": "address"
        }
      ],
      "stateMutability": "view",
      "type": "function"
    },
    {
      "inputs": [
        {
          "internalType": "uint256",
          "name": "_lotteryId",
          "type": "uint256"
        },
        {
          "internalType": "uint256",
          "name": "_amount",
          "type": "uint256"
        }
      ],
      "name": "increaseTotalSupply",
      "outputs": [],
      "stateMutability": "nonpayable",
      "type": "function"
    },
    {
      "inputs": [
        {
          "internalType": "address",
          "name": "_stakingAdapter",
          "type": "address"
        }
      ],
      "name": "initialize",
      "outputs": [],
      "stateMutability": "nonpayable",
      "type": "function"
    },
    {
      "inputs": [
        {
          "internalType": "uint256",
          "name": "",
          "type": "uint256"
        }
      ],
      "name": "lotteries",
      "outputs": [
        {
          "internalType": "contract ILotteryPool",
          "name": "",
          "type": "address"
        }
      ],
      "stateMutability": "view",
      "type": "function"
    },
    {
      "inputs": [
        {
          "internalType": "uint256",
          "name": "_lotteryId",
          "type": "uint256"
        },
        {
          "internalType": "uint256",
          "name": "_fees",
          "type": "uint256"
        }
      ],
      "name": "lotteryCancelled",
      "outputs": [],
      "stateMutability": "nonpayable",
      "type": "function"
    },
    {
      "inputs": [
        {
          "internalType": "uint256",
          "name": "_lotteryId",
          "type": "uint256"
        },
        {
          "internalType": "address",
          "name": "_winner",
          "type": "address"
        },
        {
          "internalType": "uint256",
          "name": "_profit",
          "type": "uint256"
        },
        {
          "internalType": "uint256",
          "name": "_fees",
          "type": "uint256"
        }
      ],
      "name": "lotteryClosed",
      "outputs": [],
      "stateMutability": "nonpayable",
      "type": "function"
    },
    {
      "inputs": [
        {
          "internalType": "uint256",
          "name": "_lotteryId",
          "type": "uint256"
        },
        {
          "internalType": "uint256",
          "name": "_stakedAmount",
          "type": "uint256"
        }
      ],
      "name": "lotteryStaked",
      "outputs": [],
      "stateMutability": "nonpayable",
      "type": "function"
    },
    {
      "inputs": [],
      "name": "numberOfActiveLotteries",
      "outputs": [
        {
          "internalType": "uint256",
          "name": "",
          "type": "uint256"
        }
      ],
      "stateMutability": "view",
      "type": "function"
    },
    {
      "inputs": [],
      "name": "owner",
      "outputs": [
        {
          "internalType": "address",
          "name": "",
          "type": "address"
        }
      ],
      "stateMutability": "view",
      "type": "function"
    },
    {
      "inputs": [],
      "name": "pause",
      "outputs": [],
      "stateMutability": "nonpayable",
      "type": "function"
    },
    {
      "inputs": [],
      "name": "paused",
      "outputs": [
        {
          "internalType": "bool",
          "name": "",
          "type": "bool"
        }
      ],
      "stateMutability": "view",
      "type": "function"
    },
    {
      "inputs": [],
      "name": "renounceOwnership",
      "outputs": [],
      "stateMutability": "nonpayable",
      "type": "function"
    },
    {
      "inputs": [
        {
          "internalType": "uint256",
          "name": "_feePercent",
          "type": "uint256"
        }
      ],
      "name": "setFeePercent",
      "outputs": [],
      "stateMutability": "nonpayable",
      "type": "function"
    },
    {
      "inputs": [
        {
          "internalType": "uint256",
          "name": "_minDaysOpen",
          "type": "uint256"
        }
      ],
      "name": "setMinDaysOpen",
      "outputs": [],
      "stateMutability": "nonpayable",
      "type": "function"
    },
    {
      "inputs": [
        {
          "internalType": "address payable",
          "name": "_addr",
          "type": "address"
        }
      ],
      "name": "setWallet",
      "outputs": [],
      "stateMutability": "nonpayable",
      "type": "function"
    },
    {
      "inputs": [],
      "name": "totalSupply",
      "outputs": [
        {
          "internalType": "uint256",
          "name": "",
          "type": "uint256"
        }
      ],
      "stateMutability": "view",
      "type": "function"
    },
    {
      "inputs": [
        {
          "internalType": "address",
          "name": "newOwner",
          "type": "address"
        }
      ],
      "name": "transferOwnership",
      "outputs": [],
      "stateMutability": "nonpayable",
      "type": "function"
    },
    {
      "inputs": [],
      "name": "unpause",
      "outputs": [],
      "stateMutability": "nonpayable",
      "type": "function"
    }
  ],
  "bytecode": "0x608060405234801561001057600080fd5b5061168d806100206000396000f3fe608060405234801561001057600080fd5b50600436106101735760003560e01c80638456cb59116100de578063c4d66de811610097578063df85b74111610071578063df85b741146102cb578063e227f7bc146102de578063e49a4b16146102f1578063f2fde38b146102f957610173565b8063c4d66de814610292578063deaa59df146102a5578063dedddd95146102b857610173565b80638456cb591461024c5780638da5cb5b1461025457806399da053a1461025c5780639cb08abb14610264578063bdafb1ff14610277578063be74264d1461028a57610173565b80633f4ba83a116101305780633f4ba83a146101ee5780634b826d81146101f65780635c975abb14610209578063715018a61461021e5780637978f279146102265780637ce3489b1461023957610173565b806303b357dd14610178578063132996041461018d5780631398e076146101ab57806318160ddd146101be5780631b3896bc146101d3578063339b3776146101db575b600080fd5b61018b610186366004611284565b61030c565b005b6101956103a8565b6040516101a291906112a5565b60405180910390f35b6101956101b93660046111f8565b6103b7565b6101c66103e1565b6040516101a29190611317565b6101c66103e7565b61018b6101e9366004611284565b6103ed565b61018b61045e565b61018b610204366004611284565b6104a7565b61021161050e565b6040516101a2919061130c565b61018b610517565b61018b610234366004611284565b6105a0565b61018b6102473660046111f8565b61063b565b61018b6106ba565b610195610701565b6101c6610710565b61018b6102723660046111f8565b610716565b61018b610285366004611210565b61078a565b6101c6610838565b61018b6102a0366004611192565b61083e565b61018b6102b3366004611192565b610919565b61018b6102c636600461124c565b6109a8565b61018b6102d93660046111b5565b610a21565b6101c66102ec3660046111f8565b610bfe565b610195610c10565b61018b610307366004611192565b610c1f565b8160c9818154811061032e57634e487b7160e01b600052603260045260246000fd5b6000918252602090912001546001600160a01b0316331461036a5760405162461bcd60e51b815260040161036190611476565b60405180910390fd5b7f4da77555e73f64b236322348caae14818446c8089b3bf650c93749db0599cd25838360405161039b9291906115bd565b60405180910390a1505050565b60cd546001600160a01b031690565b60c981815481106103c757600080fd5b6000918252602090912001546001600160a01b0316905081565b60cb5481565b60ca5481565b8160c9818154811061040f57634e487b7160e01b600052603260045260246000fd5b6000918252602090912001546001600160a01b031633146104425760405162461bcd60e51b815260040161036190611476565b8160cb600082825461045491906115cb565b9091555050505050565b610466610ce0565b6001600160a01b0316610477610701565b6001600160a01b03161461049d5760405162461bcd60e51b815260040161036190611441565b6104a5610ce4565b565b8160c981815481106104c957634e487b7160e01b600052603260045260246000fd5b6000918252602090912001546001600160a01b031633146104fc5760405162461bcd60e51b815260040161036190611476565b8160cb600082825461045491906115e3565b60975460ff1690565b61051f610ce0565b6001600160a01b0316610530610701565b6001600160a01b0316146105565760405162461bcd60e51b815260040161036190611441565b6033546040516000916001600160a01b0316907f8be0079c531659141344cd1fd0a4f28419497f9722a3daafe3b4186f6b6457e0908390a3603380546001600160a01b0319169055565b8160c981815481106105c257634e487b7160e01b600052603260045260246000fd5b6000918252602090912001546001600160a01b031633146105f55760405162461bcd60e51b815260040161036190611476565b60ca8054906000610605836115fa565b91905055507fa56a4f1c11adc6f055feecc2fc93bc3c4d5da030db0006cb8f671763d4c6e59c838360405161039b9291906115bd565b610643610ce0565b6001600160a01b0316610654610701565b6001600160a01b03161461067a5760405162461bcd60e51b815260040161036190611441565b60cc8190556040517f91955c12515f4eb8f1ff79df82d1933ff11b6d3b9a3019c6568840616ec36a74906106af908390611317565b60405180910390a150565b6106c2610ce0565b6001600160a01b03166106d3610701565b6001600160a01b0316146106f95760405162461bcd60e51b815260040161036190611441565b6104a5610d52565b6033546001600160a01b031690565b60ce5490565b61071e610ce0565b6001600160a01b031661072f610701565b6001600160a01b0316146107555760405162461bcd60e51b815260040161036190611441565b60ce8190556040517fd1fda8d12743585aa215eac90ca51a4de1409fc059f0c1de983fb588c1d5a5e9906106af908390611317565b8360c981815481106107ac57634e487b7160e01b600052603260045260246000fd5b6000918252602090912001546001600160a01b031633146107df5760405162461bcd60e51b815260040161036190611476565b60ca80549060006107ef836115fa565b91905055507f1cd070ae8ed4e4c6b1b892a324389e5838bb564fae4625f55a625a5f9fdfb5c6858585856040516108299493929190611599565b60405180910390a15050505050565b60cc5490565b600054610100900460ff1680610857575060005460ff16155b6108735760405162461bcd60e51b8152600401610361906113f3565b600054610100900460ff1615801561089e576000805460ff1961ff0019909116610100171660011790555b6108a6610dad565b6108ae610e32565b6108b6610e9a565b60cf80546001600160a01b0319166001600160a01b0384161790556108d9610701565b60cd80546001600160a01b0319166001600160a01b0392909216919091179055600a60cc55600760ce558015610915576000805461ff00191690555b5050565b610921610ce0565b6001600160a01b0316610932610701565b6001600160a01b0316146109585760405162461bcd60e51b815260040161036190611441565b60cd80546001600160a01b0319166001600160a01b0383811691909117918290556040519116907f3ce716f94fe275e52428cbf6b7f388e5a65976d4edabc34355a77f5e89655bdc90600090a250565b6109b0610ce0565b6001600160a01b03166109c1610701565b6001600160a01b0316146109e75760405162461bcd60e51b815260040161036190611441565b600092835260d0602090815260408085209390935560d19052912080546001600160a01b0319166001600160a01b03909216919091179055565b610a2961050e565b15610a465760405162461bcd60e51b8152600401610361906113c9565b6001600160a01b038516610a6c5760405162461bcd60e51b815260040161036190611514565b60008311610a8c5760405162461bcd60e51b815260040161036190611394565b600081815260d160205260409020546001600160a01b031680610ac15760405162461bcd60e51b8152600401610361906114d3565b426000610acd83610f0a565b60c95460405163a9ee6ac360e01b81529192506001600160a01b0383169163a9ee6ac391610b0e9130919033908e908e908e908e908c908f906004016112b9565b600060405180830381600087803b158015610b2857600080fd5b505af1158015610b3c573d6000803e3d6000fd5b505060c9805460018101825560009182527f66be4f155c5ef2ebd3772b228f2f00681e4ed5826cdb3b1943cc11ad15ad1d280180546001600160a01b0319166001600160a01b03861617905560ca805493509150610b9983611611565b909155505060c9547fe6b4afef5103dbdff36d091324707cb41a50cd96b4767736d6b5a55b88b2102f90610bcf906001906115e3565b33838b8b8b888b8d604051610bec9998979695949392919061154b565b60405180910390a15050505050505050565b600090815260d0602052604090205490565b60cf546001600160a01b031690565b610c27610ce0565b6001600160a01b0316610c38610701565b6001600160a01b031614610c5e5760405162461bcd60e51b815260040161036190611441565b6001600160a01b038116610c845760405162461bcd60e51b81526004016103619061134e565b6033546040516001600160a01b038084169216907f8be0079c531659141344cd1fd0a4f28419497f9722a3daafe3b4186f6b6457e090600090a3603380546001600160a01b0319166001600160a01b0392909216919091179055565b3390565b610cec61050e565b610d085760405162461bcd60e51b815260040161036190611320565b6097805460ff191690557f5db9ee0a495bf2e6ff9c91a7834c1ba4fdd244a5e8aa4e537bd38aeae4b073aa610d3b610ce0565b604051610d4891906112a5565b60405180910390a1565b610d5a61050e565b15610d775760405162461bcd60e51b8152600401610361906113c9565b6097805460ff191660011790557f62e78cea01bee320cd4e420270b5ea74000d11b0c9f74754ebdbfc544b05a258610d3b610ce0565b600054610100900460ff1680610dc6575060005460ff16155b610de25760405162461bcd60e51b8152600401610361906113f3565b600054610100900460ff16158015610e0d576000805460ff1961ff0019909116610100171660011790555b610e15610f5c565b610e1d610fcf565b8015610e2f576000805461ff00191690555b50565b600054610100900460ff1680610e4b575060005460ff16155b610e675760405162461bcd60e51b8152600401610361906113f3565b600054610100900460ff16158015610e92576000805460ff1961ff0019909116610100171660011790555b610e1d61109b565b600054610100900460ff1680610eb3575060005460ff16155b610ecf5760405162461bcd60e51b8152600401610361906113f3565b600054610100900460ff16158015610efa576000805460ff1961ff0019909116610100171660011790555b610f02610f5c565b610e1d611114565b6000808260601b9050604051733d602d80600a3d3981f3363d3d373d3d3d363d7360601b81528160148201526e5af43d82803e903d91602b57fd5bf360881b60288201526037816000f0949350505050565b600054610100900460ff1680610f75575060005460ff16155b610f915760405162461bcd60e51b8152600401610361906113f3565b600054610100900460ff16158015610e1d576000805460ff1961ff0019909116610100171660011790558015610e2f576000805461ff001916905550565b600054610100900460ff1680610fe8575060005460ff16155b6110045760405162461bcd60e51b8152600401610361906113f3565b600054610100900460ff1615801561102f576000805460ff1961ff0019909116610100171660011790555b6000611039610ce0565b603380546001600160a01b0319166001600160a01b038316908117909155604051919250906000907f8be0079c531659141344cd1fd0a4f28419497f9722a3daafe3b4186f6b6457e0908290a3508015610e2f576000805461ff001916905550565b600054610100900460ff16806110b4575060005460ff16155b6110d05760405162461bcd60e51b8152600401610361906113f3565b600054610100900460ff161580156110fb576000805460ff1961ff0019909116610100171660011790555b60016065558015610e2f576000805461ff001916905550565b600054610100900460ff168061112d575060005460ff16155b6111495760405162461bcd60e51b8152600401610361906113f3565b600054610100900460ff16158015611174576000805460ff1961ff0019909116610100171660011790555b6097805460ff191690558015610e2f576000805461ff001916905550565b6000602082840312156111a3578081fd5b81356111ae81611642565b9392505050565b600080600080600060a086880312156111cc578081fd5b85356111d781611642565b97602087013597506040870135966060810135965060800135945092505050565b600060208284031215611209578081fd5b5035919050565b60008060008060808587031215611225578384fd5b84359350602085013561123781611642565b93969395505050506040820135916060013590565b600080600060608486031215611260578283fd5b8335925060208401359150604084013561127981611642565b809150509250925092565b60008060408385031215611296578182fd5b50508035926020909101359150565b6001600160a01b0391909116815260200190565b6001600160a01b03998a16815260208101989098529588166040880152939096166060860152608085019190915260a084015260c083019390935260e08201929092526101008101919091526101200190565b901515815260200190565b90815260200190565b60208082526014908201527314185d5cd8589b194e881b9bdd081c185d5cd95960621b604082015260600190565b60208082526026908201527f4f776e61626c653a206e6577206f776e657220697320746865207a65726f206160408201526564647265737360d01b606082015260800190565b6020808252818101527f412076616c6964207469636b6574207072696365206973207265717569726564604082015260600190565b60208082526010908201526f14185d5cd8589b194e881c185d5cd95960821b604082015260600190565b6020808252602e908201527f496e697469616c697a61626c653a20636f6e747261637420697320616c72656160408201526d191e481a5b9a5d1a585b1a5e995960921b606082015260800190565b6020808252818101527f4f776e61626c653a2063616c6c6572206973206e6f7420746865206f776e6572604082015260600190565b6020808252603b908201527f54686973206d6574686f64206d7573742062652063616c6c6564207468726f7560408201527f67682061206c6f7474657279206368696c6420636f6e74726163740000000000606082015260800190565b60208082526021908201527f4d617374657220706f6f6c20636f6e7472616374206e6f74206465706c6f79656040820152601960fa1b606082015260800190565b6020808252601b908201527f412076616c696420616464726573732069732072657175697265640000000000604082015260600190565b9889526001600160a01b0397881660208a01529587166040890152939095166060870152608086019190915260a085015260c084019290925260e08301919091526101008201526101200190565b9384526001600160a01b039290921660208401526040830152606082015260800190565b918252602082015260400190565b600082198211156115de576115de61162c565b500190565b6000828210156115f5576115f561162c565b500390565b6000816116095761160961162c565b506000190190565b60006000198214156116255761162561162c565b5060010190565b634e487b7160e01b600052601160045260246000fd5b6001600160a01b0381168114610e2f57600080fdfea26469706673582212209091cbad4b5af096636d8d9a1323b11825e89c1db490299562fc5b5e8d64733c64736f6c63430008000033",
  "linkReferences": {},
  "deployedLinkReferences": {}
}