{
  "_format": "hh-sol-artifact-1",
  "contractName": "LotteryPoolFactory",
  "sourceName": "contracts/LotteryPoolFactory.sol",
  "abi": [
    {
      "anonymous": false,
      "inputs": [
        {
          "indexed": false,
          "internalType": "uint256",
          "name": "feePercent",
          "type": "uint256"
        }
      ],
      "name": "FeePercentChanged",
      "type": "event"
    },
    {
      "anonymous": false,
      "inputs": [
        {
          "indexed": false,
          "internalType": "uint256",
          "name": "lotteryId",
          "type": "uint256"
        },
        {
          "indexed": false,
          "internalType": "uint256",
          "name": "fees",
          "type": "uint256"
        }
      ],
      "name": "LotteryCancelled",
      "type": "event"
    },
    {
      "anonymous": false,
      "inputs": [
        {
          "indexed": false,
          "internalType": "uint256",
          "name": "lotteryId",
          "type": "uint256"
        },
        {
          "indexed": false,
          "internalType": "address",
          "name": "winner",
          "type": "address"
        },
        {
          "indexed": false,
          "internalType": "uint256",
          "name": "profit",
          "type": "uint256"
        },
        {
          "indexed": false,
          "internalType": "uint256",
          "name": "fees",
          "type": "uint256"
        }
      ],
      "name": "LotteryClosed",
      "type": "event"
    },
    {
      "anonymous": false,
      "inputs": [
        {
          "indexed": false,
          "internalType": "uint256",
          "name": "lotteryId",
          "type": "uint256"
        },
        {
          "indexed": false,
          "internalType": "address",
          "name": "creator",
          "type": "address"
        },
        {
          "indexed": false,
          "internalType": "address",
          "name": "lotteryAddress",
          "type": "address"
        },
        {
          "indexed": false,
          "internalType": "address",
          "name": "nftAddress",
          "type": "address"
        },
        {
          "indexed": false,
          "internalType": "uint256",
          "name": "nftIndex",
          "type": "uint256"
        },
        {
          "indexed": false,
          "internalType": "uint256",
          "name": "ticketPrice",
          "type": "uint256"
        },
        {
          "indexed": false,
          "internalType": "uint256",
          "name": "created",
          "type": "uint256"
        },
        {
          "indexed": false,
          "internalType": "uint256",
          "name": "lotteryPoolType",
          "type": "uint256"
        },
        {
          "indexed": false,
          "internalType": "uint256",
          "name": "minAmount",
          "type": "uint256"
        },
        {
          "indexed": false,
          "internalType": "address",
          "name": "stakingAdapter",
          "type": "address"
        },
        {
          "indexed": false,
          "internalType": "bytes32",
          "name": "stakingAdapterName",
          "type": "bytes32"
        }
      ],
      "name": "LotteryCreated",
      "type": "event"
    },
    {
      "anonymous": false,
      "inputs": [
        {
          "indexed": false,
          "internalType": "uint256",
          "name": "lotteryId",
          "type": "uint256"
        },
        {
          "indexed": false,
          "internalType": "uint256",
          "name": "stakedAmount",
          "type": "uint256"
        }
      ],
      "name": "LotteryStaked",
      "type": "event"
    },
    {
      "anonymous": false,
      "inputs": [
        {
          "indexed": false,
          "internalType": "uint256",
          "name": "minDaysOpen",
          "type": "uint256"
        }
      ],
      "name": "MinDaysOpenChanged",
      "type": "event"
    },
    {
      "anonymous": false,
      "inputs": [
        {
          "indexed": true,
          "internalType": "address",
          "name": "previousOwner",
          "type": "address"
        },
        {
          "indexed": true,
          "internalType": "address",
          "name": "newOwner",
          "type": "address"
        }
      ],
      "name": "OwnershipTransferred",
      "type": "event"
    },
    {
      "anonymous": false,
      "inputs": [
        {
          "indexed": false,
          "internalType": "address",
          "name": "account",
          "type": "address"
        }
      ],
      "name": "Paused",
      "type": "event"
    },
    {
      "anonymous": false,
      "inputs": [
        {
          "indexed": false,
          "internalType": "address",
          "name": "account",
          "type": "address"
        }
      ],
      "name": "Unpaused",
      "type": "event"
    },
    {
      "anonymous": false,
      "inputs": [
        {
          "indexed": true,
          "internalType": "address",
          "name": "addr",
          "type": "address"
        }
      ],
      "name": "WalletChanged",
      "type": "event"
    },
    {
      "inputs": [
        {
          "internalType": "uint256",
          "name": "_lotteryPoolTypeId",
          "type": "uint256"
        },
        {
          "internalType": "bytes32",
          "name": "_lotteryPoolTypeName",
          "type": "bytes32"
        },
        {
          "internalType": "address",
          "name": "_masterPoolAddress",
          "type": "address"
        }
      ],
      "name": "addMasterPool",
      "outputs": [],
      "stateMutability": "nonpayable",
      "type": "function"
    },
    {
      "inputs": [
        {
          "internalType": "address",
          "name": "_nftAddress",
          "type": "address"
        },
        {
          "internalType": "uint256",
          "name": "_nftIndex",
          "type": "uint256"
        },
        {
          "internalType": "uint256",
          "name": "_ticketPrice",
          "type": "uint256"
        },
        {
          "internalType": "uint256",
          "name": "_minProfit",
          "type": "uint256"
        },
        {
          "internalType": "uint256",
          "name": "_lotteryPoolType",
          "type": "uint256"
        }
      ],
      "name": "createLottery",
      "outputs": [],
      "stateMutability": "nonpayable",
      "type": "function"
    },
    {
      "inputs": [
        {
          "internalType": "uint256",
          "name": "_lotteryId",
          "type": "uint256"
        },
        {
          "internalType": "uint256",
          "name": "_amount",
          "type": "uint256"
        }
      ],
      "name": "decreaseTotalSupply",
      "outputs": [],
      "stateMutability": "nonpayable",
      "type": "function"
    },
    {
      "inputs": [],
      "name": "getFeePercent",
      "outputs": [
        {
          "internalType": "uint256",
          "name": "",
          "type": "uint256"
        }
      ],
      "stateMutability": "view",
      "type": "function"
    },
    {
      "inputs": [
        {
          "internalType": "uint256",
          "name": "_lotteryPoolTypeId",
          "type": "uint256"
        }
      ],
      "name": "getLotteryPoolTypeName",
      "outputs": [
        {
          "internalType": "bytes32",
          "name": "",
          "type": "bytes32"
        }
      ],
      "stateMutability": "view",
      "type": "function"
    },
    {
      "inputs": [],
      "name": "getMinDaysOpen",
      "outputs": [
        {
          "internalType": "uint256",
          "name": "",
          "type": "uint256"
        }
      ],
      "stateMutability": "view",
      "type": "function"
    },
    {
      "inputs": [],
      "name": "getStakingAdapter",
      "outputs": [
        {
          "internalType": "address",
          "name": "",
          "type": "address"
        }
      ],
      "stateMutability": "view",
      "type": "function"
    },
    {
      "inputs": [],
      "name": "getWallet",
      "outputs": [
        {
          "internalType": "address",
          "name": "",
          "type": "address"
        }
      ],
      "stateMutability": "view",
      "type": "function"
    },
    {
      "inputs": [
        {
          "internalType": "uint256",
          "name": "_lotteryId",
          "type": "uint256"
        },
        {
          "internalType": "uint256",
          "name": "_amount",
          "type": "uint256"
        }
      ],
      "name": "increaseTotalSupply",
      "outputs": [],
      "stateMutability": "nonpayable",
      "type": "function"
    },
    {
      "inputs": [
        {
          "internalType": "address",
          "name": "_stakingAdapter",
          "type": "address"
        }
      ],
      "name": "initialize",
      "outputs": [],
      "stateMutability": "nonpayable",
      "type": "function"
    },
    {
      "inputs": [
        {
          "internalType": "uint256",
          "name": "",
          "type": "uint256"
        }
      ],
      "name": "lotteries",
      "outputs": [
        {
          "internalType": "contract ILotteryPool",
          "name": "",
          "type": "address"
        }
      ],
      "stateMutability": "view",
      "type": "function"
    },
    {
      "inputs": [
        {
          "internalType": "uint256",
          "name": "_lotteryId",
          "type": "uint256"
        },
        {
          "internalType": "uint256",
          "name": "_fees",
          "type": "uint256"
        }
      ],
      "name": "lotteryCancelled",
      "outputs": [],
      "stateMutability": "nonpayable",
      "type": "function"
    },
    {
      "inputs": [
        {
          "internalType": "uint256",
          "name": "_lotteryId",
          "type": "uint256"
        },
        {
          "internalType": "address",
          "name": "_winner",
          "type": "address"
        },
        {
          "internalType": "uint256",
          "name": "_profit",
          "type": "uint256"
        },
        {
          "internalType": "uint256",
          "name": "_fees",
          "type": "uint256"
        }
      ],
      "name": "lotteryClosed",
      "outputs": [],
      "stateMutability": "nonpayable",
      "type": "function"
    },
    {
      "inputs": [
        {
          "internalType": "uint256",
          "name": "_lotteryId",
          "type": "uint256"
        },
        {
          "internalType": "uint256",
          "name": "_stakedAmount",
          "type": "uint256"
        }
      ],
      "name": "lotteryStaked",
      "outputs": [],
      "stateMutability": "nonpayable",
      "type": "function"
    },
    {
      "inputs": [],
      "name": "numberOfActiveLotteries",
      "outputs": [
        {
          "internalType": "uint256",
          "name": "",
          "type": "uint256"
        }
      ],
      "stateMutability": "view",
      "type": "function"
    },
    {
      "inputs": [],
      "name": "owner",
      "outputs": [
        {
          "internalType": "address",
          "name": "",
          "type": "address"
        }
      ],
      "stateMutability": "view",
      "type": "function"
    },
    {
      "inputs": [],
      "name": "pause",
      "outputs": [],
      "stateMutability": "nonpayable",
      "type": "function"
    },
    {
      "inputs": [],
      "name": "paused",
      "outputs": [
        {
          "internalType": "bool",
          "name": "",
          "type": "bool"
        }
      ],
      "stateMutability": "view",
      "type": "function"
    },
    {
      "inputs": [],
      "name": "renounceOwnership",
      "outputs": [],
      "stateMutability": "nonpayable",
      "type": "function"
    },
    {
      "inputs": [
        {
          "internalType": "uint256",
          "name": "_feePercent",
          "type": "uint256"
        }
      ],
      "name": "setFeePercent",
      "outputs": [],
      "stateMutability": "nonpayable",
      "type": "function"
    },
    {
      "inputs": [
        {
          "internalType": "uint256",
          "name": "_minDaysOpen",
          "type": "uint256"
        }
      ],
      "name": "setMinDaysOpen",
      "outputs": [],
      "stateMutability": "nonpayable",
      "type": "function"
    },
    {
      "inputs": [
        {
          "internalType": "address",
          "name": "_stakingAdapter",
          "type": "address"
        }
      ],
      "name": "setStakingAdapter",
      "outputs": [],
      "stateMutability": "nonpayable",
      "type": "function"
    },
    {
      "inputs": [
        {
          "internalType": "address payable",
          "name": "_addr",
          "type": "address"
        }
      ],
      "name": "setWallet",
      "outputs": [],
      "stateMutability": "nonpayable",
      "type": "function"
    },
    {
      "inputs": [],
      "name": "totalSupply",
      "outputs": [
        {
          "internalType": "uint256",
          "name": "",
          "type": "uint256"
        }
      ],
      "stateMutability": "view",
      "type": "function"
    },
    {
      "inputs": [
        {
          "internalType": "address",
          "name": "newOwner",
          "type": "address"
        }
      ],
      "name": "transferOwnership",
      "outputs": [],
      "stateMutability": "nonpayable",
      "type": "function"
    },
    {
      "inputs": [],
      "name": "unpause",
      "outputs": [],
      "stateMutability": "nonpayable",
      "type": "function"
    }
  ],
  "bytecode": "0x608060405234801561001057600080fd5b5061179a806100206000396000f3fe608060405234801561001057600080fd5b506004361061018e5760003560e01c80638456cb59116100de578063c4d66de811610097578063df85b74111610071578063df85b741146102f9578063e227f7bc1461030c578063e49a4b161461031f578063f2fde38b146103275761018e565b8063c4d66de8146102c0578063deaa59df146102d3578063dedddd95146102e65761018e565b80638456cb591461027a5780638da5cb5b1461028257806399da053a1461028a5780639cb08abb14610292578063bdafb1ff146102a5578063be74264d146102b85761018e565b80633f4ba83a1161014b5780635c975abb116101255780635c975abb14610237578063715018a61461024c5780637978f279146102545780637ce3489b146102675761018e565b80633f4ba83a1461020957806340729c58146102115780634b826d81146102245761018e565b806303b357dd1461019357806313299604146101a85780631398e076146101c657806318160ddd146101d95780631b3896bc146101ee578063339b3776146101f6575b600080fd5b6101a66101a1366004611386565b61033a565b005b6101b06103d6565b6040516101bd91906113a7565b60405180910390f35b6101b06101d43660046112fa565b6103e5565b6101e161040f565b6040516101bd9190611419565b6101e1610415565b6101a6610204366004611386565b61041b565b6101a661048c565b6101a661021f36600461127c565b6104d5565b6101a6610232366004611386565b6104f7565b61023f61055e565b6040516101bd919061140e565b6101a6610567565b6101a6610262366004611386565b6105f0565b6101a66102753660046112fa565b61068b565b6101a661070a565b6101b0610751565b6101e1610760565b6101a66102a03660046112fa565b610766565b6101a66102b3366004611312565b6107da565b6101e1610888565b6101a66102ce36600461127c565b61088e565b6101a66102e136600461127c565b610969565b6101a66102f436600461134e565b6109f8565b6101a661030736600461129f565b610a71565b6101e161031a3660046112fa565b610ce8565b6101b0610cfa565b6101a661033536600461127c565b610d09565b8160c9818154811061035c57634e487b7160e01b600052603260045260246000fd5b6000918252602090912001546001600160a01b031633146103985760405162461bcd60e51b815260040161038f90611578565b60405180910390fd5b7f4da77555e73f64b236322348caae14818446c8089b3bf650c93749db0599cd2583836040516103c99291906116ca565b60405180910390a1505050565b60cd546001600160a01b031690565b60c981815481106103f557600080fd5b6000918252602090912001546001600160a01b0316905081565b60cb5481565b60ca5481565b8160c9818154811061043d57634e487b7160e01b600052603260045260246000fd5b6000918252602090912001546001600160a01b031633146104705760405162461bcd60e51b815260040161038f90611578565b8160cb600082825461048291906116d8565b9091555050505050565b610494610dca565b6001600160a01b03166104a5610751565b6001600160a01b0316146104cb5760405162461bcd60e51b815260040161038f90611543565b6104d3610dce565b565b60cf80546001600160a01b0319166001600160a01b0392909216919091179055565b8160c9818154811061051957634e487b7160e01b600052603260045260246000fd5b6000918252602090912001546001600160a01b0316331461054c5760405162461bcd60e51b815260040161038f90611578565b8160cb600082825461048291906116f0565b60975460ff1690565b61056f610dca565b6001600160a01b0316610580610751565b6001600160a01b0316146105a65760405162461bcd60e51b815260040161038f90611543565b6033546040516000916001600160a01b0316907f8be0079c531659141344cd1fd0a4f28419497f9722a3daafe3b4186f6b6457e0908390a3603380546001600160a01b0319169055565b8160c9818154811061061257634e487b7160e01b600052603260045260246000fd5b6000918252602090912001546001600160a01b031633146106455760405162461bcd60e51b815260040161038f90611578565b60ca805490600061065583611707565b91905055507fa56a4f1c11adc6f055feecc2fc93bc3c4d5da030db0006cb8f671763d4c6e59c83836040516103c99291906116ca565b610693610dca565b6001600160a01b03166106a4610751565b6001600160a01b0316146106ca5760405162461bcd60e51b815260040161038f90611543565b60cc8190556040517f91955c12515f4eb8f1ff79df82d1933ff11b6d3b9a3019c6568840616ec36a74906106ff908390611419565b60405180910390a150565b610712610dca565b6001600160a01b0316610723610751565b6001600160a01b0316146107495760405162461bcd60e51b815260040161038f90611543565b6104d3610e3c565b6033546001600160a01b031690565b60ce5490565b61076e610dca565b6001600160a01b031661077f610751565b6001600160a01b0316146107a55760405162461bcd60e51b815260040161038f90611543565b60ce8190556040517fd1fda8d12743585aa215eac90ca51a4de1409fc059f0c1de983fb588c1d5a5e9906106ff908390611419565b8360c981815481106107fc57634e487b7160e01b600052603260045260246000fd5b6000918252602090912001546001600160a01b0316331461082f5760405162461bcd60e51b815260040161038f90611578565b60ca805490600061083f83611707565b91905055507f1cd070ae8ed4e4c6b1b892a324389e5838bb564fae4625f55a625a5f9fdfb5c68585858560405161087994939291906116a6565b60405180910390a15050505050565b60cc5490565b600054610100900460ff16806108a7575060005460ff16155b6108c35760405162461bcd60e51b815260040161038f906114f5565b600054610100900460ff161580156108ee576000805460ff1961ff0019909116610100171660011790555b6108f6610e97565b6108fe610f1c565b610906610f84565b60cf80546001600160a01b0319166001600160a01b038416179055610929610751565b60cd80546001600160a01b0319166001600160a01b0392909216919091179055600a60cc55600760ce558015610965576000805461ff00191690555b5050565b610971610dca565b6001600160a01b0316610982610751565b6001600160a01b0316146109a85760405162461bcd60e51b815260040161038f90611543565b60cd80546001600160a01b0319166001600160a01b0383811691909117918290556040519116907f3ce716f94fe275e52428cbf6b7f388e5a65976d4edabc34355a77f5e89655bdc90600090a250565b610a00610dca565b6001600160a01b0316610a11610751565b6001600160a01b031614610a375760405162461bcd60e51b815260040161038f90611543565b600092835260d0602090815260408085209390935560d19052912080546001600160a01b0319166001600160a01b03909216919091179055565b610a7961055e565b15610a965760405162461bcd60e51b815260040161038f906114cb565b6001600160a01b038516610abc5760405162461bcd60e51b815260040161038f90611616565b60008311610adc5760405162461bcd60e51b815260040161038f90611496565b600081815260d160205260409020546001600160a01b031680610b115760405162461bcd60e51b815260040161038f906115d5565b426000610b1d83610ff4565b60c95460405163a9ee6ac360e01b81529192506001600160a01b0383169163a9ee6ac391610b5e9130919033908e908e908e908e908c908f906004016113bb565b600060405180830381600087803b158015610b7857600080fd5b505af1158015610b8c573d6000803e3d6000fd5b505060c9805460018101825560009182527f66be4f155c5ef2ebd3772b228f2f00681e4ed5826cdb3b1943cc11ad15ad1d280180546001600160a01b0319166001600160a01b03861617905560ca805493509150610be98361171e565b909155505060cf54604080516306fdde0360e01b815290516000926001600160a01b0316916306fdde03916004808301926020929190829003018186803b158015610c3357600080fd5b505afa158015610c47573d6000803e3d6000fd5b505050506040513d601f19601f82011682018060405250810190610c6b91906112e2565b60c9549091507f16678564a0c684988dbf986ddd52e7f5b55f03fa9a74e72f6454c715750b707e90610c9f906001906116f0565b33848c8c8c898c8e60cf60009054906101000a90046001600160a01b03168b604051610cd59b9a9998979695949392919061164d565b60405180910390a1505050505050505050565b600090815260d0602052604090205490565b60cf546001600160a01b031690565b610d11610dca565b6001600160a01b0316610d22610751565b6001600160a01b031614610d485760405162461bcd60e51b815260040161038f90611543565b6001600160a01b038116610d6e5760405162461bcd60e51b815260040161038f90611450565b6033546040516001600160a01b038084169216907f8be0079c531659141344cd1fd0a4f28419497f9722a3daafe3b4186f6b6457e090600090a3603380546001600160a01b0319166001600160a01b0392909216919091179055565b3390565b610dd661055e565b610df25760405162461bcd60e51b815260040161038f90611422565b6097805460ff191690557f5db9ee0a495bf2e6ff9c91a7834c1ba4fdd244a5e8aa4e537bd38aeae4b073aa610e25610dca565b604051610e3291906113a7565b60405180910390a1565b610e4461055e565b15610e615760405162461bcd60e51b815260040161038f906114cb565b6097805460ff191660011790557f62e78cea01bee320cd4e420270b5ea74000d11b0c9f74754ebdbfc544b05a258610e25610dca565b600054610100900460ff1680610eb0575060005460ff16155b610ecc5760405162461bcd60e51b815260040161038f906114f5565b600054610100900460ff16158015610ef7576000805460ff1961ff0019909116610100171660011790555b610eff611046565b610f076110b9565b8015610f19576000805461ff00191690555b50565b600054610100900460ff1680610f35575060005460ff16155b610f515760405162461bcd60e51b815260040161038f906114f5565b600054610100900460ff16158015610f7c576000805460ff1961ff0019909116610100171660011790555b610f07611185565b600054610100900460ff1680610f9d575060005460ff16155b610fb95760405162461bcd60e51b815260040161038f906114f5565b600054610100900460ff16158015610fe4576000805460ff1961ff0019909116610100171660011790555b610fec611046565b610f076111fe565b6000808260601b9050604051733d602d80600a3d3981f3363d3d373d3d3d363d7360601b81528160148201526e5af43d82803e903d91602b57fd5bf360881b60288201526037816000f0949350505050565b600054610100900460ff168061105f575060005460ff16155b61107b5760405162461bcd60e51b815260040161038f906114f5565b600054610100900460ff16158015610f07576000805460ff1961ff0019909116610100171660011790558015610f19576000805461ff001916905550565b600054610100900460ff16806110d2575060005460ff16155b6110ee5760405162461bcd60e51b815260040161038f906114f5565b600054610100900460ff16158015611119576000805460ff1961ff0019909116610100171660011790555b6000611123610dca565b603380546001600160a01b0319166001600160a01b038316908117909155604051919250906000907f8be0079c531659141344cd1fd0a4f28419497f9722a3daafe3b4186f6b6457e0908290a3508015610f19576000805461ff001916905550565b600054610100900460ff168061119e575060005460ff16155b6111ba5760405162461bcd60e51b815260040161038f906114f5565b600054610100900460ff161580156111e5576000805460ff1961ff0019909116610100171660011790555b60016065558015610f19576000805461ff001916905550565b600054610100900460ff1680611217575060005460ff16155b6112335760405162461bcd60e51b815260040161038f906114f5565b600054610100900460ff1615801561125e576000805460ff1961ff0019909116610100171660011790555b6097805460ff191690558015610f19576000805461ff001916905550565b60006020828403121561128d578081fd5b81356112988161174f565b9392505050565b600080600080600060a086880312156112b6578081fd5b85356112c18161174f565b97602087013597506040870135966060810135965060800135945092505050565b6000602082840312156112f3578081fd5b5051919050565b60006020828403121561130b578081fd5b5035919050565b60008060008060808587031215611327578384fd5b8435935060208501356113398161174f565b93969395505050506040820135916060013590565b600080600060608486031215611362578283fd5b8335925060208401359150604084013561137b8161174f565b809150509250925092565b60008060408385031215611398578182fd5b50508035926020909101359150565b6001600160a01b0391909116815260200190565b6001600160a01b03998a16815260208101989098529588166040880152939096166060860152608085019190915260a084015260c083019390935260e08201929092526101008101919091526101200190565b901515815260200190565b90815260200190565b60208082526014908201527314185d5cd8589b194e881b9bdd081c185d5cd95960621b604082015260600190565b60208082526026908201527f4f776e61626c653a206e6577206f776e657220697320746865207a65726f206160408201526564647265737360d01b606082015260800190565b6020808252818101527f412076616c6964207469636b6574207072696365206973207265717569726564604082015260600190565b60208082526010908201526f14185d5cd8589b194e881c185d5cd95960821b604082015260600190565b6020808252602e908201527f496e697469616c697a61626c653a20636f6e747261637420697320616c72656160408201526d191e481a5b9a5d1a585b1a5e995960921b606082015260800190565b6020808252818101527f4f776e61626c653a2063616c6c6572206973206e6f7420746865206f776e6572604082015260600190565b6020808252603b908201527f54686973206d6574686f64206d7573742062652063616c6c6564207468726f7560408201527f67682061206c6f7474657279206368696c6420636f6e74726163740000000000606082015260800190565b60208082526021908201527f4d617374657220706f6f6c20636f6e7472616374206e6f74206465706c6f79656040820152601960fa1b606082015260800190565b6020808252601b908201527f412076616c696420616464726573732069732072657175697265640000000000604082015260600190565b9a8b526001600160a01b03998a1660208c015297891660408b015295881660608a0152608089019490945260a088019290925260c087015260e08601526101008501529091166101208301526101408201526101600190565b9384526001600160a01b039290921660208401526040830152606082015260800190565b918252602082015260400190565b600082198211156116eb576116eb611739565b500190565b60008282101561170257611702611739565b500390565b60008161171657611716611739565b506000190190565b600060001982141561173257611732611739565b5060010190565b634e487b7160e01b600052601160045260246000fd5b6001600160a01b0381168114610f1957600080fdfea264697066735822122058c4f17066474b15f7e3348a5b0749bba07583396c657fa6f81184bf38feda9364736f6c63430008000033",
  "linkReferences": {},
  "deployedLinkReferences": {}
}