{
  "_format": "hh-sol-artifact-1",
  "contractName": "LotteryPoolFactory",
  "sourceName": "contracts/LotteryPoolFactory.sol",
  "abi": [
    {
      "anonymous": false,
      "inputs": [
        {
          "indexed": false,
          "internalType": "uint256",
          "name": "feePercent",
          "type": "uint256"
        }
      ],
      "name": "FeePercentChanged",
      "type": "event"
    },
    {
      "anonymous": false,
      "inputs": [
        {
          "indexed": false,
          "internalType": "uint256",
          "name": "lotteryId",
          "type": "uint256"
        },
        {
          "indexed": false,
          "internalType": "uint256",
          "name": "fees",
          "type": "uint256"
        }
      ],
      "name": "LotteryCancelled",
      "type": "event"
    },
    {
      "anonymous": false,
      "inputs": [
        {
          "indexed": false,
          "internalType": "uint256",
          "name": "lotteryId",
          "type": "uint256"
        },
        {
          "indexed": false,
          "internalType": "address",
          "name": "winner",
          "type": "address"
        },
        {
          "indexed": false,
          "internalType": "uint256",
          "name": "profit",
          "type": "uint256"
        },
        {
          "indexed": false,
          "internalType": "uint256",
          "name": "fees",
          "type": "uint256"
        }
      ],
      "name": "LotteryClosed",
      "type": "event"
    },
    {
      "anonymous": false,
      "inputs": [
        {
          "indexed": false,
          "internalType": "uint256",
          "name": "lotteryId",
          "type": "uint256"
        },
        {
          "indexed": false,
          "internalType": "address",
          "name": "creator",
          "type": "address"
        },
        {
          "indexed": false,
          "internalType": "address",
          "name": "lotteryAddress",
          "type": "address"
        },
        {
          "indexed": false,
          "internalType": "address",
          "name": "nftAddress",
          "type": "address"
        },
        {
          "indexed": false,
          "internalType": "uint256",
          "name": "nftIndex",
          "type": "uint256"
        },
        {
          "indexed": false,
          "internalType": "uint256",
          "name": "ticketPrice",
          "type": "uint256"
        },
        {
          "indexed": false,
          "internalType": "uint256",
          "name": "created",
          "type": "uint256"
        },
        {
          "indexed": false,
          "internalType": "enum ILotteryPool.LotteryPoolType",
          "name": "lotteryPoolType",
          "type": "uint8"
        },
        {
          "indexed": false,
          "internalType": "uint256",
          "name": "minAmount",
          "type": "uint256"
        }
      ],
      "name": "LotteryCreated",
      "type": "event"
    },
    {
      "anonymous": false,
      "inputs": [
        {
          "indexed": false,
          "internalType": "uint256",
          "name": "lotteryId",
          "type": "uint256"
        },
        {
          "indexed": false,
          "internalType": "uint256",
          "name": "stakedAmount",
          "type": "uint256"
        }
      ],
      "name": "LotteryStaked",
      "type": "event"
    },
    {
      "anonymous": false,
      "inputs": [
        {
          "indexed": false,
          "internalType": "uint256",
          "name": "minDaysOpen",
          "type": "uint256"
        }
      ],
      "name": "MinDaysOpenChanged",
      "type": "event"
    },
    {
      "anonymous": false,
      "inputs": [
        {
          "indexed": true,
          "internalType": "address",
          "name": "previousOwner",
          "type": "address"
        },
        {
          "indexed": true,
          "internalType": "address",
          "name": "newOwner",
          "type": "address"
        }
      ],
      "name": "OwnershipTransferred",
      "type": "event"
    },
    {
      "anonymous": false,
      "inputs": [
        {
          "indexed": false,
          "internalType": "address",
          "name": "account",
          "type": "address"
        }
      ],
      "name": "Paused",
      "type": "event"
    },
    {
      "anonymous": false,
      "inputs": [
        {
          "indexed": false,
          "internalType": "address",
          "name": "account",
          "type": "address"
        }
      ],
      "name": "Unpaused",
      "type": "event"
    },
    {
      "anonymous": false,
      "inputs": [
        {
          "indexed": true,
          "internalType": "address",
          "name": "addr",
          "type": "address"
        }
      ],
      "name": "WalletChanged",
      "type": "event"
    },
    {
      "inputs": [
        {
          "internalType": "address",
          "name": "_nftAddress",
          "type": "address"
        },
        {
          "internalType": "uint256",
          "name": "_nftIndex",
          "type": "uint256"
        },
        {
          "internalType": "uint256",
          "name": "_ticketPrice",
          "type": "uint256"
        },
        {
          "internalType": "uint256",
          "name": "_minProfit",
          "type": "uint256"
        },
        {
          "internalType": "enum ILotteryPool.LotteryPoolType",
          "name": "_lotteryPoolType",
          "type": "uint8"
        }
      ],
      "name": "createLottery",
      "outputs": [],
      "stateMutability": "nonpayable",
      "type": "function"
    },
    {
      "inputs": [
        {
          "internalType": "uint256",
          "name": "_lotteryId",
          "type": "uint256"
        },
        {
          "internalType": "uint256",
          "name": "_amount",
          "type": "uint256"
        }
      ],
      "name": "decreaseTotalSupply",
      "outputs": [],
      "stateMutability": "nonpayable",
      "type": "function"
    },
    {
      "inputs": [],
      "name": "getFeePercent",
      "outputs": [
        {
          "internalType": "uint256",
          "name": "",
          "type": "uint256"
        }
      ],
      "stateMutability": "view",
      "type": "function"
    },
    {
      "inputs": [],
      "name": "getMinDaysOpen",
      "outputs": [
        {
          "internalType": "uint256",
          "name": "",
          "type": "uint256"
        }
      ],
      "stateMutability": "view",
      "type": "function"
    },
    {
      "inputs": [],
      "name": "getStakingAdapter",
      "outputs": [
        {
          "internalType": "address",
          "name": "",
          "type": "address"
        }
      ],
      "stateMutability": "view",
      "type": "function"
    },
    {
      "inputs": [],
      "name": "getWallet",
      "outputs": [
        {
          "internalType": "address",
          "name": "",
          "type": "address"
        }
      ],
      "stateMutability": "view",
      "type": "function"
    },
    {
      "inputs": [
        {
          "internalType": "uint256",
          "name": "_lotteryId",
          "type": "uint256"
        },
        {
          "internalType": "uint256",
          "name": "_amount",
          "type": "uint256"
        }
      ],
      "name": "increaseTotalSupply",
      "outputs": [],
      "stateMutability": "nonpayable",
      "type": "function"
    },
    {
      "inputs": [
        {
          "internalType": "address",
          "name": "_stakingAdapter",
          "type": "address"
        }
      ],
      "name": "initialize",
      "outputs": [],
      "stateMutability": "nonpayable",
      "type": "function"
    },
    {
      "inputs": [
        {
          "internalType": "uint256",
          "name": "",
          "type": "uint256"
        }
      ],
      "name": "lotteries",
      "outputs": [
        {
          "internalType": "contract ILotteryPool",
          "name": "",
          "type": "address"
        }
      ],
      "stateMutability": "view",
      "type": "function"
    },
    {
      "inputs": [
        {
          "internalType": "uint256",
          "name": "_lotteryId",
          "type": "uint256"
        },
        {
          "internalType": "uint256",
          "name": "_fees",
          "type": "uint256"
        }
      ],
      "name": "lotteryCancelled",
      "outputs": [],
      "stateMutability": "nonpayable",
      "type": "function"
    },
    {
      "inputs": [
        {
          "internalType": "uint256",
          "name": "_lotteryId",
          "type": "uint256"
        },
        {
          "internalType": "address",
          "name": "_winner",
          "type": "address"
        },
        {
          "internalType": "uint256",
          "name": "_profit",
          "type": "uint256"
        },
        {
          "internalType": "uint256",
          "name": "_fees",
          "type": "uint256"
        }
      ],
      "name": "lotteryClosed",
      "outputs": [],
      "stateMutability": "nonpayable",
      "type": "function"
    },
    {
      "inputs": [
        {
          "internalType": "uint256",
          "name": "_lotteryId",
          "type": "uint256"
        },
        {
          "internalType": "uint256",
          "name": "_stakedAmount",
          "type": "uint256"
        }
      ],
      "name": "lotteryStaked",
      "outputs": [],
      "stateMutability": "nonpayable",
      "type": "function"
    },
    {
      "inputs": [],
      "name": "numberOfActiveLotteries",
      "outputs": [
        {
          "internalType": "uint256",
          "name": "",
          "type": "uint256"
        }
      ],
      "stateMutability": "view",
      "type": "function"
    },
    {
      "inputs": [],
      "name": "owner",
      "outputs": [
        {
          "internalType": "address",
          "name": "",
          "type": "address"
        }
      ],
      "stateMutability": "view",
      "type": "function"
    },
    {
      "inputs": [],
      "name": "pause",
      "outputs": [],
      "stateMutability": "nonpayable",
      "type": "function"
    },
    {
      "inputs": [],
      "name": "paused",
      "outputs": [
        {
          "internalType": "bool",
          "name": "",
          "type": "bool"
        }
      ],
      "stateMutability": "view",
      "type": "function"
    },
    {
      "inputs": [],
      "name": "renounceOwnership",
      "outputs": [],
      "stateMutability": "nonpayable",
      "type": "function"
    },
    {
      "inputs": [
        {
          "internalType": "uint256",
          "name": "_feePercent",
          "type": "uint256"
        }
      ],
      "name": "setFeePercent",
      "outputs": [],
      "stateMutability": "nonpayable",
      "type": "function"
    },
    {
      "inputs": [
        {
          "internalType": "uint256",
          "name": "_minDaysOpen",
          "type": "uint256"
        }
      ],
      "name": "setMinDaysOpen",
      "outputs": [],
      "stateMutability": "nonpayable",
      "type": "function"
    },
    {
      "inputs": [
        {
          "internalType": "address payable",
          "name": "_addr",
          "type": "address"
        }
      ],
      "name": "setWallet",
      "outputs": [],
      "stateMutability": "nonpayable",
      "type": "function"
    },
    {
      "inputs": [],
      "name": "totalSupply",
      "outputs": [
        {
          "internalType": "uint256",
          "name": "",
          "type": "uint256"
        }
      ],
      "stateMutability": "view",
      "type": "function"
    },
    {
      "inputs": [
        {
          "internalType": "address",
          "name": "newOwner",
          "type": "address"
        }
      ],
      "name": "transferOwnership",
      "outputs": [],
      "stateMutability": "nonpayable",
      "type": "function"
    },
    {
      "inputs": [],
      "name": "unpause",
      "outputs": [],
      "stateMutability": "nonpayable",
      "type": "function"
    }
  ],
  "bytecode": "0x608060405234801561001057600080fd5b50616110806100206000396000f3fe60806040523480156200001157600080fd5b50600436106200016c5760003560e01c80637978f27911620000d5578063bdafb1ff1162000087578063bdafb1ff14620002bb578063be74264d14620002d2578063c4d66de814620002dc578063deaa59df14620002f3578063e49a4b16146200030a578063f2fde38b1462000314576200016c565b80637978f27914620002585780637ce3489b146200026f5780638456cb5914620002865780638da5cb5b146200029057806399da053a146200029a5780639cb08abb14620002a4576200016c565b8063339b3776116200012f578063339b377614620001e65780633bf0fd6514620001fd5780633f4ba83a14620002145780634b826d81146200021e5780635c975abb1462000235578063715018a6146200024e576200016c565b806303b357dd146200017157806313299604146200018a5780631398e07614620001ac57806318160ddd14620001c35780631b3896bc14620001dc575b600080fd5b620001886200018236600462001320565b6200032b565b005b62000194620003cd565b604051620001a3919062001342565b60405180910390f35b62000194620001bd366004620012c8565b620003dc565b620001cd62000407565b604051620001a391906200154b565b620001cd6200040d565b62000188620001f736600462001320565b62000413565b620001886200020e3660046200126c565b6200048a565b620001886200070c565b620001886200022f36600462001320565b6200075e565b6200023f620007cb565b604051620001a3919062001356565b62000188620007d4565b620001886200026936600462001320565b62000864565b6200018862000280366004620012c8565b62000907565b620001886200098f565b62000194620009df565b620001cd620009ee565b62000188620002b5366004620012c8565b620009f4565b62000188620002cc366004620012e1565b62000a71565b620001cd62000b27565b62000188620002ed36600462001246565b62000b2d565b620001886200030436600462001246565b62000c16565b6200019462000cac565b620001886200032536600462001246565b62000cbb565b8160c981815481106200034e57634e487b7160e01b600052603260045260246000fd5b6000918252602090912001546001600160a01b031633146200038d5760405162461bcd60e51b81526004016200038490620014b7565b60405180910390fd5b7f4da77555e73f64b236322348caae14818446c8089b3bf650c93749db0599cd258383604051620003c092919062001627565b60405180910390a1505050565b60cd546001600160a01b031690565b60c98181548110620003ed57600080fd5b6000918252602090912001546001600160a01b0316905081565b60cb5481565b60ca5481565b8160c981815481106200043657634e487b7160e01b600052603260045260246000fd5b6000918252602090912001546001600160a01b031633146200046c5760405162461bcd60e51b81526004016200038490620014b7565b8160cb600082825462000480919062001635565b9091555050505050565b62000494620007cb565b15620004b45760405162461bcd60e51b815260040162000384906200140a565b6001600160a01b038516620004dd5760405162461bcd60e51b8152600401620003849062001514565b60008311620005005760405162461bcd60e51b81526004016200038490620013d5565b600042818360018111156200052557634e487b7160e01b600052602160045260246000fd5b1415620005cd57600060c98054905033898989898760405162000548906200122a565b6200055a9796959493929190620015c7565b604051809103906000f08015801562000577573d6000803e3d6000fd5b5060c980546001810182556000919091527f66be4f155c5ef2ebd3772b228f2f00681e4ed5826cdb3b1943cc11ad15ad1d280180546001600160a01b0319166001600160a01b0383161790559250620006929050565b6001836001811115620005f057634e487b7160e01b600052602160045260246000fd5b14156200069257600060c980549050338989898987604051620006139062001238565b620006259796959493929190620015c7565b604051809103906000f08015801562000642573d6000803e3d6000fd5b5060c980546001810182556000919091527f66be4f155c5ef2ebd3772b228f2f00681e4ed5826cdb3b1943cc11ad15ad1d280180546001600160a01b0319166001600160a01b0383161790559250505b60ca8054906000620006a48362001684565b909155505060c9547f1fff386a12009c15874797ae54eaf5409f7e8b872be329b18e606eb531dd59c590620006dc9060019062001650565b33848a8a8a878a8c604051620006fb9998979695949392919062001554565b60405180910390a150505050505050565b6200071662000d86565b6001600160a01b031662000729620009df565b6001600160a01b031614620007525760405162461bcd60e51b8152600401620003849062001482565b6200075c62000d8a565b565b8160c981815481106200078157634e487b7160e01b600052603260045260246000fd5b6000918252602090912001546001600160a01b03163314620007b75760405162461bcd60e51b81526004016200038490620014b7565b8160cb600082825462000480919062001650565b60975460ff1690565b620007de62000d86565b6001600160a01b0316620007f1620009df565b6001600160a01b0316146200081a5760405162461bcd60e51b8152600401620003849062001482565b6033546040516000916001600160a01b0316907f8be0079c531659141344cd1fd0a4f28419497f9722a3daafe3b4186f6b6457e0908390a3603380546001600160a01b0319169055565b8160c981815481106200088757634e487b7160e01b600052603260045260246000fd5b6000918252602090912001546001600160a01b03163314620008bd5760405162461bcd60e51b81526004016200038490620014b7565b60ca8054906000620008cf836200166a565b91905055507fa56a4f1c11adc6f055feecc2fc93bc3c4d5da030db0006cb8f671763d4c6e59c8383604051620003c092919062001627565b6200091162000d86565b6001600160a01b031662000924620009df565b6001600160a01b0316146200094d5760405162461bcd60e51b8152600401620003849062001482565b60cc8190556040517f91955c12515f4eb8f1ff79df82d1933ff11b6d3b9a3019c6568840616ec36a7490620009849083906200154b565b60405180910390a150565b6200099962000d86565b6001600160a01b0316620009ac620009df565b6001600160a01b031614620009d55760405162461bcd60e51b8152600401620003849062001482565b6200075c62000e01565b6033546001600160a01b031690565b60ce5490565b620009fe62000d86565b6001600160a01b031662000a11620009df565b6001600160a01b03161462000a3a5760405162461bcd60e51b8152600401620003849062001482565b60ce8190556040517fd1fda8d12743585aa215eac90ca51a4de1409fc059f0c1de983fb588c1d5a5e990620009849083906200154b565b8360c9818154811062000a9457634e487b7160e01b600052603260045260246000fd5b6000918252602090912001546001600160a01b0316331462000aca5760405162461bcd60e51b81526004016200038490620014b7565b60ca805490600062000adc836200166a565b91905055507f1cd070ae8ed4e4c6b1b892a324389e5838bb564fae4625f55a625a5f9fdfb5c68585858560405162000b18949392919062001603565b60405180910390a15050505050565b60cc5490565b600054610100900460ff168062000b47575060005460ff16155b62000b665760405162461bcd60e51b8152600401620003849062001434565b600054610100900460ff1615801562000b92576000805460ff1961ff0019909116610100171660011790555b62000b9c62000e63565b62000ba662000ef2565b62000bb062000f61565b60cf80546001600160a01b0319166001600160a01b03841617905562000bd5620009df565b60cd80546001600160a01b0319166001600160a01b0392909216919091179055600a60cc55600760ce55801562000c12576000805461ff00191690555b5050565b62000c2062000d86565b6001600160a01b031662000c33620009df565b6001600160a01b03161462000c5c5760405162461bcd60e51b8152600401620003849062001482565b60cd80546001600160a01b0319166001600160a01b0383811691909117918290556040519116907f3ce716f94fe275e52428cbf6b7f388e5a65976d4edabc34355a77f5e89655bdc90600090a250565b60cf546001600160a01b031690565b62000cc562000d86565b6001600160a01b031662000cd8620009df565b6001600160a01b03161462000d015760405162461bcd60e51b8152600401620003849062001482565b6001600160a01b03811662000d2a5760405162461bcd60e51b815260040162000384906200138f565b6033546040516001600160a01b038084169216907f8be0079c531659141344cd1fd0a4f28419497f9722a3daafe3b4186f6b6457e090600090a3603380546001600160a01b0319166001600160a01b0392909216919091179055565b3390565b62000d94620007cb565b62000db35760405162461bcd60e51b8152600401620003849062001361565b6097805460ff191690557f5db9ee0a495bf2e6ff9c91a7834c1ba4fdd244a5e8aa4e537bd38aeae4b073aa62000de862000d86565b60405162000df7919062001342565b60405180910390a1565b62000e0b620007cb565b1562000e2b5760405162461bcd60e51b815260040162000384906200140a565b6097805460ff191660011790557f62e78cea01bee320cd4e420270b5ea74000d11b0c9f74754ebdbfc544b05a25862000de862000d86565b600054610100900460ff168062000e7d575060005460ff16155b62000e9c5760405162461bcd60e51b8152600401620003849062001434565b600054610100900460ff1615801562000ec8576000805460ff1961ff0019909116610100171660011790555b62000ed262000fda565b62000edc62001053565b801562000eef576000805461ff00191690555b50565b600054610100900460ff168062000f0c575060005460ff16155b62000f2b5760405162461bcd60e51b8152600401620003849062001434565b600054610100900460ff1615801562000f57576000805460ff1961ff0019909116610100171660011790555b62000edc62001127565b600054610100900460ff168062000f7b575060005460ff16155b62000f9a5760405162461bcd60e51b8152600401620003849062001434565b600054610100900460ff1615801562000fc6576000805460ff1961ff0019909116610100171660011790555b62000fd062000fda565b62000edc620011a6565b600054610100900460ff168062000ff4575060005460ff16155b620010135760405162461bcd60e51b8152600401620003849062001434565b600054610100900460ff1615801562000edc576000805460ff1961ff001990911661010017166001179055801562000eef576000805461ff001916905550565b600054610100900460ff16806200106d575060005460ff16155b6200108c5760405162461bcd60e51b8152600401620003849062001434565b600054610100900460ff16158015620010b8576000805460ff1961ff0019909116610100171660011790555b6000620010c462000d86565b603380546001600160a01b0319166001600160a01b038316908117909155604051919250906000907f8be0079c531659141344cd1fd0a4f28419497f9722a3daafe3b4186f6b6457e0908290a350801562000eef576000805461ff001916905550565b600054610100900460ff168062001141575060005460ff16155b620011605760405162461bcd60e51b8152600401620003849062001434565b600054610100900460ff161580156200118c576000805460ff1961ff0019909116610100171660011790555b6001606555801562000eef576000805461ff001916905550565b600054610100900460ff1680620011c0575060005460ff16155b620011df5760405162461bcd60e51b8152600401620003849062001434565b600054610100900460ff161580156200120b576000805460ff1961ff0019909116610100171660011790555b6097805460ff19169055801562000eef576000805461ff001916905550565b61206d80620016cf83390190565b61299f806200373c83390190565b60006020828403121562001258578081fd5b81356200126581620016b8565b9392505050565b600080600080600060a0868803121562001284578081fd5b85356200129181620016b8565b9450602086013593506040860135925060608601359150608086013560028110620012ba578182fd5b809150509295509295909350565b600060208284031215620012da578081fd5b5035919050565b60008060008060808587031215620012f7578384fd5b8435935060208501356200130b81620016b8565b93969395505050506040820135916060013590565b6000806040838503121562001333578182fd5b50508035926020909101359150565b6001600160a01b0391909116815260200190565b901515815260200190565b60208082526014908201527314185d5cd8589b194e881b9bdd081c185d5cd95960621b604082015260600190565b60208082526026908201527f4f776e61626c653a206e6577206f776e657220697320746865207a65726f206160408201526564647265737360d01b606082015260800190565b6020808252818101527f412076616c6964207469636b6574207072696365206973207265717569726564604082015260600190565b60208082526010908201526f14185d5cd8589b194e881c185d5cd95960821b604082015260600190565b6020808252602e908201527f496e697469616c697a61626c653a20636f6e747261637420697320616c72656160408201526d191e481a5b9a5d1a585b1a5e995960921b606082015260800190565b6020808252818101527f4f776e61626c653a2063616c6c6572206973206e6f7420746865206f776e6572604082015260600190565b6020808252603b908201527f54686973206d6574686f64206d7573742062652063616c6c6564207468726f7560408201527f67682061206c6f7474657279206368696c6420636f6e74726163740000000000606082015260800190565b6020808252601b908201527f412076616c696420616464726573732069732072657175697265640000000000604082015260600190565b90815260200190565b8981526001600160a01b0389811660208301528881166040830152871660608201526080810186905260a0810185905260c08101849052610120810160028410620015af57634e487b7160e01b600052602160045260246000fd5b60e08201939093526101000152979650505050505050565b9687526001600160a01b0395861660208801529390941660408601526060850191909152608084015260a083019190915260c082015260e00190565b9384526001600160a01b039290921660208401526040830152606082015260800190565b918252602082015260400190565b600082198211156200164b576200164b620016a2565b500190565b600082821015620016655762001665620016a2565b500390565b6000816200167c576200167c620016a2565b506000190190565b60006000198214156200169b576200169b620016a2565b5060010190565b634e487b7160e01b600052601160045260246000fd5b6001600160a01b038116811462000eef57600080fdfe60806040523480156200001157600080fd5b506040516200206d3803806200206d833981016040819052620000349162000197565b868686868686866000806200004862000167565b600080546001600160a01b0319166001600160a01b0383169081178255604051929350917f8be0079c531659141344cd1fd0a4f28419497f9722a3daafe3b4186f6b6457e0908290a35060018055620000a06200016b565b600280546001600160a01b0319166001600160a01b03929092169190911780825560038a905582919060ff60a01b1916600160a01b836001811115620000f657634e487b7160e01b600052602160045260246000fd5b021790555050600680546001600160a01b03199081166001600160a01b0398891617909155600493909355600591909155600880549092169390941692909217909155600955600a805460ff1990811690915560079190915560128054909116905550620001fe9650505050505050565b3390565b6000546001600160a01b031690565b80516001600160a01b03811681146200019257600080fd5b919050565b600080600080600080600060e0888a031215620001b2578283fd5b87519650620001c4602089016200017a565b9550620001d4604089016200017a565b9450606088015193506080880151925060a0880151915060c0880151905092959891949750929550565b611e5f806200020e6000396000f3fe60806040526004361061014f5760003560e01c8063702766fa116100b6578063d10c391d1161006f578063d10c391d14610364578063dfbf53ae14610379578063e580f47b1461038e578063f2fde38b146103a3578063f4fe103a146103c3578063f71d96cb146103e35761018f565b8063702766fa146102d9578063715018a6146102fb57806375c81ad014610310578063859bd0f0146103255780638da5cb5b1461033a5780639af1d35a1461034f5761018f565b80632f366637116101085780632f366637146102445780633165792614610257578063373d61321461027757806345745c101461028c57806347ccca02146102a157806366d16cc3146102c45761018f565b806302d05d3f1461019457806312065fe0146101bf5780631209b1f6146101e157806314034bd2146101f657806318160ddd1461020d578063200d2ed2146102225761018f565b3661018f577f88a5966d370b9919b20f3e2c13ff65706f196a4e32cc2c12bf57088f885258743334604051610185929190611742565b60405180910390a1005b600080fd5b3480156101a057600080fd5b506101a9610403565b6040516101b6919061170a565b60405180910390f35b3480156101cb57600080fd5b506101d4610412565b6040516101b69190611cfb565b3480156101ed57600080fd5b506101d4610416565b34801561020257600080fd5b5061020b61041c565b005b34801561021957600080fd5b506101d46108e0565b34801561022e57600080fd5b506102376108e6565b6040516101b6919061175b565b61020b6102523660046116c9565b6108ef565b34801561026357600080fd5b506101d461027236600461166a565b610b66565b34801561028357600080fd5b506101d4610b81565b34801561029857600080fd5b506101d4610b87565b3480156102ad57600080fd5b506102b6610b8d565b6040516101b6929190611742565b3480156102d057600080fd5b506101d4610ba2565b3480156102e557600080fd5b506102ee610ba8565b6040516101b69190611775565b34801561030757600080fd5b5061020b610bb8565b34801561031c57600080fd5b506101d4610c41565b34801561033157600080fd5b5061020b610c47565b34801561034657600080fd5b506101a9610e3c565b34801561035b57600080fd5b506101d4610e4b565b34801561037057600080fd5b5061020b610e51565b34801561038557600080fd5b506101a961100a565b34801561039a57600080fd5b506101d4611019565b3480156103af57600080fd5b5061020b6103be36600461166a565b61101f565b3480156103cf57600080fd5b5061020b6103de3660046116c9565b6110df565b3480156103ef57600080fd5b506101a96103fe3660046116c9565b6114b6565b6006546001600160a01b031681565b4790565b60045481565b6006546001600160a01b0316331461044f5760405162461bcd60e51b8152600401610446906119ff565b60405180910390fd5b600260015414156104725760405162461bcd60e51b815260040161044690611c78565b600260018190555460408051635c975abb60e01b815290516001600160a01b0390921691635c975abb91600480820192602092909190829003018186803b1580156104bc57600080fd5b505afa1580156104d0573d6000803e3d6000fd5b505050506040513d601f19601f820116820180604052508101906104f491906116a9565b156105115760405162461bcd60e51b815260040161044690611789565b600e546001600160a01b03161561053a5760405162461bcd60e51b815260040161044690611a45565b6000600a5460ff16600381111561056157634e487b7160e01b600052602160045260246000fd5b1461057e5760405162461bcd60e51b8152600401610446906117cd565b600260009054906101000a90046001600160a01b03166001600160a01b03166399da053a6040518163ffffffff1660e01b815260040160206040518083038186803b1580156105cc57600080fd5b505afa1580156105e0573d6000803e3d6000fd5b505050506040513d601f19601f8201168201806040525081019061060491906116e1565b6106119062015180611d6a565b60075461061e9190611d3e565b42101561063d5760405162461bcd60e51b815260040161044690611abc565b60085460095460405163020604bf60e21b815230926001600160a01b03169163081812fc9161066f9190600401611cfb565b60206040518083038186803b15801561068757600080fd5b505afa15801561069b573d6000803e3d6000fd5b505050506040513d601f19601f820116820180604052508101906106bf919061168d565b6001600160a01b0316146106e55760405162461bcd60e51b815260040161044690611bf9565b6106ed6114e0565b600e80546001600160a01b0319166001600160a01b03928316179055600a8054600260ff199091168117909155546040805163be74264d60e01b81529051600093929092169163be74264d91600481810192602092909190829003018186803b15801561075957600080fd5b505afa15801561076d573d6000803e3d6000fd5b505050506040513d601f19601f8201168201806040525081019061079191906116e1565b9050606481600f546107a39190611d6a565b6107ad9190611d56565b600f546107ba9190611d89565b601155600f546107ca9047611d89565b606482600f546107da9190611d6a565b6107e49190611d56565b6107ee9190611d3e565b6013556107f961155c565b600854600654600e546009546040516323b872dd60e01b81526001600160a01b03948516946323b872dd94610837949082169391169160040161171e565b600060405180830381600087803b15801561085157600080fd5b505af1158015610865573d6000803e3d6000fd5b5050600254600354600e5460115460135460405163bdafb1ff60e01b81526001600160a01b03958616975063bdafb1ff96506108a79590931692600401611d04565b600060405180830381600087803b1580156108c157600080fd5b505af11580156108d5573d6000803e3d6000fd5b505060018055505050565b600f5481565b600a5460ff1681565b600260009054906101000a90046001600160a01b03166001600160a01b0316635c975abb6040518163ffffffff1660e01b815260040160206040518083038186803b15801561093d57600080fd5b505afa158015610951573d6000803e3d6000fd5b505050506040513d601f19601f8201168201806040525081019061097591906116a9565b156109925760405162461bcd60e51b815260040161044690611789565b6000600a5460ff1660038111156109b957634e487b7160e01b600052602160045260246000fd5b146109d65760405162461bcd60e51b8152600401610446906119c8565b806004546109e49190611d6a565b3414610a025760405162461bcd60e51b815260040161044690611b48565b336000908152600c602052604081208054839290610a21908490611d3e565b90915550600090505b81811015610a8657600d80546001810182556000919091527fd7b6990105719101dabeb77144f2a3385c8033acd3af97e9423a695e81ad1eb50180546001600160a01b0319163317905580610a7e81611da0565b915050610a2a565b5080600b6000828254610a999190611d3e565b9250508190555034600f6000828254610ab29190611d3e565b90915550506002546003546040516319cd9bbb60e11b81526001600160a01b039092169163339b377691610aea9134906004016116fc565b600060405180830381600087803b158015610b0457600080fd5b505af1158015610b18573d6000803e3d6000fd5b50505050336001600160a01b03167fc8c5c2b0e44fb6312c0098ec42642058527713d0a1d29a5c6ccbfe34d714d41e6003548334604051610b5b93929190611d28565b60405180910390a250565b6001600160a01b03166000908152600c602052604090205490565b60105481565b600b5481565b6008546009546001600160a01b039091169082565b60115481565b600254600160a01b900460ff1681565b610bc0611666565b6001600160a01b0316610bd1610e3c565b6001600160a01b031614610bf75760405162461bcd60e51b815260040161044690611a87565b600080546040516001600160a01b03909116907f8be0079c531659141344cd1fd0a4f28419497f9722a3daafe3b4186f6b6457e0908390a3600080546001600160a01b0319169055565b60055481565b6006546001600160a01b03163314610c715760405162461bcd60e51b8152600401610446906119ff565b60026001541415610c945760405162461bcd60e51b815260040161044690611c78565b60026001556000600a5460ff166003811115610cc057634e487b7160e01b600052602160045260246000fd5b14610cdd5760405162461bcd60e51b8152600401610446906117cd565b600f5460055411610d005760405162461bcd60e51b81526004016104469061196b565b600260009054906101000a90046001600160a01b03166001600160a01b03166399da053a6040518163ffffffff1660e01b815260040160206040518083038186803b158015610d4e57600080fd5b505afa158015610d62573d6000803e3d6000fd5b505050506040513d601f19601f82011682018060405250810190610d8691906116e1565b610d939062015180611d6a565b600754610da09190611d3e565b421015610dbf5760405162461bcd60e51b815260040161044690611abc565b600a805460ff191660039081179091556002549054601354604051637978f27960e01b81526001600160a01b0390931692637978f27992610e049290916004016116fc565b600060405180830381600087803b158015610e1e57600080fd5b505af1158015610e32573d6000803e3d6000fd5b5050600180555050565b6000546001600160a01b031690565b60135481565b60026001541415610e745760405162461bcd60e51b815260040161044690611c78565b60026001556006546001600160a01b03163314610ea35760405162461bcd60e51b8152600401610446906119ff565b6002600a5460ff166003811115610eca57634e487b7160e01b600052602160045260246000fd5b14610ee75760405162461bcd60e51b815260040161044690611c41565b600060115411610f095760405162461bcd60e51b815260040161044690611854565b60125460ff1615610f2c5760405162461bcd60e51b81526004016104469061180f565b6012805460ff191660011790556006546011546040516001600160a01b03909216916000918391610f5c906116f9565b60006040518083038185875af1925050503d8060008114610f99576040519150601f19603f3d011682016040523d82523d6000602084013e610f9e565b606091505b5050905080610fbf5760405162461bcd60e51b815260040161044690611906565b336001600160a01b03167f324a0fb77c2a44bad89caa2211824604eafbca8eea5d0a07b18145dff2cb5907601154604051610ffa9190611cfb565b60405180910390a2505060018055565b600e546001600160a01b031681565b60035481565b611027611666565b6001600160a01b0316611038610e3c565b6001600160a01b03161461105e5760405162461bcd60e51b815260040161044690611a87565b6001600160a01b0381166110845760405162461bcd60e51b815260040161044690611897565b600080546040516001600160a01b03808516939216917f8be0079c531659141344cd1fd0a4f28419497f9722a3daafe3b4186f6b6457e091a3600080546001600160a01b0319166001600160a01b0392909216919091179055565b600260015414156111025760405162461bcd60e51b815260040161044690611c78565b60026001908155600a5460ff16600381111561112e57634e487b7160e01b600052602160045260246000fd5b141561114c5760405162461bcd60e51b815260040161044690611caf565b6000600254600160a01b900460ff16600181111561117a57634e487b7160e01b600052602160045260246000fd5b1480156111ab57506002600a5460ff1660038111156111a957634e487b7160e01b600052602160045260246000fd5b145b156111c85760405162461bcd60e51b815260040161044690611aff565b336000908152600c6020526040902054158015906111f55750336000908152600c60205260409020548111155b6112115760405162461bcd60e51b815260040161044690611bc2565b6000816004546112219190611d6a565b905080600f5410156112455760405162461bcd60e51b815260040161044690611b8b565b336000908152600c602052604081208054849290611264908490611d89565b9250508190555081600b600082825461127d9190611d89565b9250508190555080600f60008282546112969190611d89565b909155506000905080600a5460ff1660038111156112c457634e487b7160e01b600052602160045260246000fd5b14156113845760005b600d5481101561138257336001600160a01b0316600d828154811061130257634e487b7160e01b600052603260045260246000fd5b6000918252602090912001546001600160a01b031614801561132357508382105b1561137057600d818154811061134957634e487b7160e01b600052603260045260246000fd5b600091825260209091200180546001600160a01b031916905561136d600183611d3e565b91505b8061137a81611da0565b9150506112cd565b505b600254600354604051634b826d8160e01b81526001600160a01b0390921691634b826d81916113b79186906004016116fc565b600060405180830381600087803b1580156113d157600080fd5b505af11580156113e5573d6000803e3d6000fd5b505050506000336001600160a01b031683604051611402906116f9565b60006040518083038185875af1925050503d806000811461143f576040519150601f19603f3d011682016040523d82523d6000602084013e611444565b606091505b50509050806114655760405162461bcd60e51b8152600401610446906118dd565b336001600160a01b03167fb7029a2e3425140d13e631737cd4269675a18664ebe4356d84ea6943db82165860035486866040516114a493929190611d28565b60405180910390a25050600180555050565b600d81815481106114c657600080fd5b6000918252602090912001546001600160a01b0316905081565b600d5460405160009182916114fb90429044906020016116fc565b6040516020818303038152906040528051906020012060001c61151e9190611dbb565b9050600d818154811061154157634e487b7160e01b600052603260045260246000fd5b6000918252602090912001546001600160a01b031691505090565b6013541561166457600254604080516304ca658160e21b815290516000926001600160a01b0316916313299604916004808301926020929190829003018186803b1580156115a957600080fd5b505afa1580156115bd573d6000803e3d6000fd5b505050506040513d601f19601f820116820180604052508101906115e1919061168d565b90506000816001600160a01b03166013546040516115fe906116f9565b60006040518083038185875af1925050503d806000811461163b576040519150601f19603f3d011682016040523d82523d6000602084013e611640565b606091505b50509050806116615760405162461bcd60e51b81526004016104469061193d565b50505b565b3390565b60006020828403121561167b578081fd5b813561168681611e11565b9392505050565b60006020828403121561169e578081fd5b815161168681611e11565b6000602082840312156116ba578081fd5b81518015158114611686578182fd5b6000602082840312156116da578081fd5b5035919050565b6000602082840312156116f2578081fd5b5051919050565b90565b918252602082015260400190565b6001600160a01b0391909116815260200190565b6001600160a01b039384168152919092166020820152604081019190915260600190565b6001600160a01b03929092168252602082015260400190565b602081016004831061176f5761176f611dfb565b91905290565b602081016002831061176f5761176f611dfb565b60208082526024908201527f50726f746f636f6c20686173206265656e2070617573656420627920736563756040820152637269747960e01b606082015260800190565b60208082526022908201527f546865206c6f747465727920706f6f6c20697320616c726561647920636c6f73604082015261195960f21b606082015260800190565b60208082526025908201527f5061796d656e7420616c7265616479207472616e73666572656420746f20637260408201526432b0ba37b960d91b606082015260800190565b60208082526023908201527f4e6f7468696e6720746f207472616e736665722c2070726f666974206973207a60408201526265726f60e81b606082015260800190565b60208082526026908201527f4f776e61626c653a206e6577206f776e657220697320746865207a65726f206160408201526564647265737360d01b606082015260800190565b6020808252600f908201526e151c985b9cd9995c8819985a5b1959608a1b604082015260600190565b6020808252601a908201527f5472616e7366657220746f2063726561746f72206661696c6564000000000000604082015260600190565b602080825260149082015273151c985b9cd9995c881999595cc819985a5b195960621b604082015260600190565b6020808252603a908201527f43616e6e6f742063616e63656c206c6f74746572792e20546865206d696e696d60408201527f756d20616d6f756e7420686173206265656e2072656163686564000000000000606082015260800190565b6020808252601c908201527f546865206c6f747465727920706f6f6c206973206e6f74206f70656e00000000604082015260600190565b60208082526026908201527f4f6e6c7920706f6f6c2063726561746f722063616e2063616c6c2074686973206040820152651b595d1a1bd960d21b606082015260800190565b60208082526022908201527f412077696e6e65722068617320616c7265616479206265656e206465636c6172604082015261195960f21b606082015260800190565b6020808252818101527f4f776e61626c653a2063616c6c6572206973206e6f7420746865206f776e6572604082015260600190565b60208082526023908201527f596f75206d757374207761697420746865206d696e696d756d206f70656e206460408201526261797360e81b606082015260800190565b60208082526029908201527f43616e6e6f742072656465656d2066726f6d2061207374616e6461726420636c6040820152681bdcd959081c1bdbdb60ba1b606082015260800190565b60208082526023908201527f416d6f756e742073656e7420697320646966666572656e74207468616e20707260408201526269636560e81b606082015260800190565b6020808252601f908201527f4e6f7420656e6f756768206d6f6e657920696e207468652062616c616e636500604082015260600190565b6020808252601e908201527f596f7520646f206e6f74206861766520656e6f756768207469636b6574730000604082015260600190565b60208082526028908201527f436f6e7472616374206973206e6f7420617070726f76656420746f207472616e6040820152671cd9995c8813919560c21b606082015260800190565b6020808252601e908201527f546865206c6f747465727920706f6f6c206973206e6f7420636c6f7365640000604082015260600190565b6020808252601f908201527f5265656e7472616e637947756172643a207265656e7472616e742063616c6c00604082015260600190565b6020808252602c908201527f43616e6e6f742072656465656d207469636b65747320647572696e672073746160408201526b6b696e672070726f6365737360a01b606082015260800190565b90815260200190565b9384526001600160a01b039290921660208401526040830152606082015260800190565b9283526020830191909152604082015260600190565b60008219821115611d5157611d51611dcf565b500190565b600082611d6557611d65611de5565b500490565b6000816000190483118215151615611d8457611d84611dcf565b500290565b600082821015611d9b57611d9b611dcf565b500390565b6000600019821415611db457611db4611dcf565b5060010190565b600082611dca57611dca611de5565b500690565b634e487b7160e01b600052601160045260246000fd5b634e487b7160e01b600052601260045260246000fd5b634e487b7160e01b600052602160045260246000fd5b6001600160a01b0381168114611e2657600080fd5b5056fea2646970667358221220c689ec71c7b1f30b490f6b769e632aa49be8ccd795af97e380db0e9b6878e24d64736f6c6343000800003360806040523480156200001157600080fd5b506040516200299f3803806200299f833981016040819052620000349162000259565b86868686868686600160006200004962000205565b600080546001600160a01b0319166001600160a01b0383169081178255604051929350917f8be0079c531659141344cd1fd0a4f28419497f9722a3daafe3b4186f6b6457e0908290a35060018055620000a162000209565b600280546001600160a01b0319166001600160a01b03929092169190911780825560038a905582919060ff60a01b1916600160a01b836001811115620000f757634e487b7160e01b600052602160045260246000fd5b021790555050600680546001600160a01b03199081166001600160a01b0398891617909155600493845560059290925560088054909216948616949094179055600991909155600a805460ff19908116909155600792909255601280549092169091556002546040805163724d258b60e11b8152905160009550919093169263e49a4b169281810192602092909190829003018186803b1580156200019b57600080fd5b505afa158015620001b0573d6000803e3d6000fd5b505050506040513d601f19601f82011682018060405250810190620001d6919062000235565b601480546001600160a01b0319166001600160a01b039290921691909117905550620002c09650505050505050565b3390565b6000546001600160a01b031690565b80516001600160a01b03811681146200023057600080fd5b919050565b60006020828403121562000247578081fd5b620002528262000218565b9392505050565b600080600080600080600060e0888a03121562000274578283fd5b87519650620002866020890162000218565b9550620002966040890162000218565b9450606088015193506080880151925060a0880151915060c0880151905092959891949750929550565b6126cf80620002d06000396000f3fe60806040526004361061016a5760003560e01c8063702766fa116100d1578063a30a24741161008a578063e580f47b11610064578063e580f47b146103be578063f2fde38b146103d3578063f4fe103a146103f3578063f71d96cb14610413576101aa565b8063a30a24741461037f578063d10c391d14610394578063dfbf53ae146103a9576101aa565b8063702766fa146102f4578063715018a61461031657806375c81ad01461032b578063859bd0f0146103405780638da5cb5b146103555780639af1d35a1461036a576101aa565b80632f366637116101235780632f3666371461025f5780633165792614610272578063373d61321461029257806345745c10146102a757806347ccca02146102bc57806366d16cc3146102df576101aa565b806302d05d3f146101af57806312065fe0146101da5780631209b1f6146101fc57806314034bd21461021157806318160ddd14610228578063200d2ed21461023d576101aa565b366101aa577f88a5966d370b9919b20f3e2c13ff65706f196a4e32cc2c12bf57088f8852587433346040516101a0929190611e25565b60405180910390a1005b600080fd5b3480156101bb57600080fd5b506101c4610433565b6040516101d19190611ded565b60405180910390f35b3480156101e657600080fd5b506101ef610442565b6040516101d19190612555565b34801561020857600080fd5b506101ef610446565b34801561021d57600080fd5b5061022661044c565b005b34801561023457600080fd5b506101ef61092a565b34801561024957600080fd5b50610252610930565b6040516101d19190611e78565b61022661026d366004611d73565b610939565b34801561027e57600080fd5b506101ef61028d366004611c4f565b610bb0565b34801561029e57600080fd5b506101ef610bcb565b3480156102b357600080fd5b506101ef610bd1565b3480156102c857600080fd5b506102d1610bd7565b6040516101d1929190611e25565b3480156102eb57600080fd5b506101ef610bec565b34801561030057600080fd5b50610309610bf2565b6040516101d19190611e92565b34801561032257600080fd5b50610226610c02565b34801561033757600080fd5b506101ef610c8b565b34801561034c57600080fd5b50610226610c91565b34801561036157600080fd5b506101c4610f0a565b34801561037657600080fd5b506101ef610f19565b34801561038b57600080fd5b50610226610f1f565b3480156103a057600080fd5b50610226611138565b3480156103b557600080fd5b506101c46112f1565b3480156103ca57600080fd5b506101ef611300565b3480156103df57600080fd5b506102266103ee366004611c4f565b611306565b3480156103ff57600080fd5b5061022661040e366004611d73565b6113c6565b34801561041f57600080fd5b506101c461042e366004611d73565b61179d565b6006546001600160a01b031681565b4790565b60045481565b6006546001600160a01b0316331461047f5760405162461bcd60e51b81526004016104769061219b565b60405180910390fd5b600260015414156104a25760405162461bcd60e51b81526004016104769061249b565b600260018190555460408051635c975abb60e01b815290516001600160a01b0390921691635c975abb91600480820192602092909190829003018186803b1580156104ec57600080fd5b505afa158015610500573d6000803e3d6000fd5b505050506040513d601f19601f820116820180604052508101906105249190611d53565b156105415760405162461bcd60e51b815260040161047690611ea6565b600e546001600160a01b03161561056a5760405162461bcd60e51b815260040161047690612231565b6001600a5460ff16600381111561059157634e487b7160e01b600052602160045260246000fd5b146105ae5760405162461bcd60e51b81526004016104769061205a565b600260009054906101000a90046001600160a01b03166001600160a01b03166399da053a6040518163ffffffff1660e01b815260040160206040518083038186803b1580156105fc57600080fd5b505afa158015610610573d6000803e3d6000fd5b505050506040513d601f19601f820116820180604052508101906106349190611d8b565b61064190620151806125c4565b60075461064e9190612598565b42101561066d5760405162461bcd60e51b8152600401610476906122df565b60085460095460405163020604bf60e21b815230926001600160a01b03169163081812fc9161069f9190600401612555565b60206040518083038186803b1580156106b757600080fd5b505afa1580156106cb573d6000803e3d6000fd5b505050506040513d601f19601f820116820180604052508101906106ef9190611c72565b6001600160a01b0316146107155760405162461bcd60e51b81526004016104769061241c565b61071d6117c7565b47156109245761072b611957565b600e80546001600160a01b0319166001600160a01b03928316179055600a8054600260ff199091168117909155546040805163be74264d60e01b81529051600093929092169163be74264d91600481810192602092909190829003018186803b15801561079757600080fd5b505afa1580156107ab573d6000803e3d6000fd5b505050506040513d601f19601f820116820180604052508101906107cf9190611d8b565b90506000601054476107e191906125e3565b9050600f546010546107f391906125e3565b60646107ff84846125c4565b61080991906125b0565b6108139190612598565b601355606461082283836125c4565b61082c91906125b0565b61083690826125e3565b6011556108416119d3565b600854600654600e546009546040516323b872dd60e01b81526001600160a01b03948516946323b872dd9461087f9490821693911691600401611e01565b600060405180830381600087803b15801561089957600080fd5b505af11580156108ad573d6000803e3d6000fd5b5050600254600354600e5460115460135460405163bdafb1ff60e01b81526001600160a01b03958616975063bdafb1ff96506108ef959093169260040161255e565b600060405180830381600087803b15801561090957600080fd5b505af115801561091d573d6000803e3d6000fd5b5050505050505b60018055565b600f5481565b600a5460ff1681565b600260009054906101000a90046001600160a01b03166001600160a01b0316635c975abb6040518163ffffffff1660e01b815260040160206040518083038186803b15801561098757600080fd5b505afa15801561099b573d6000803e3d6000fd5b505050506040513d601f19601f820116820180604052508101906109bf9190611d53565b156109dc5760405162461bcd60e51b815260040161047690611ea6565b6000600a5460ff166003811115610a0357634e487b7160e01b600052602160045260246000fd5b14610a205760405162461bcd60e51b815260040161047690612164565b80600454610a2e91906125c4565b3414610a4c5760405162461bcd60e51b81526004016104769061236b565b336000908152600c602052604081208054839290610a6b908490612598565b90915550600090505b81811015610ad057600d80546001810182556000919091527fd7b6990105719101dabeb77144f2a3385c8033acd3af97e9423a695e81ad1eb50180546001600160a01b0319163317905580610ac8816125fa565b915050610a74565b5080600b6000828254610ae39190612598565b9250508190555034600f6000828254610afc9190612598565b90915550506002546003546040516319cd9bbb60e11b81526001600160a01b039092169163339b377691610b34913490600401611ddf565b600060405180830381600087803b158015610b4e57600080fd5b505af1158015610b62573d6000803e3d6000fd5b50505050336001600160a01b03167fc8c5c2b0e44fb6312c0098ec42642058527713d0a1d29a5c6ccbfe34d714d41e6003548334604051610ba593929190612582565b60405180910390a250565b6001600160a01b03166000908152600c602052604090205490565b60105481565b600b5481565b6008546009546001600160a01b039091169082565b60115481565b600254600160a01b900460ff1681565b610c0a611add565b6001600160a01b0316610c1b610f0a565b6001600160a01b031614610c415760405162461bcd60e51b8152600401610476906122aa565b600080546040516001600160a01b03909116907f8be0079c531659141344cd1fd0a4f28419497f9722a3daafe3b4186f6b6457e0908390a3600080546001600160a01b0319169055565b60055481565b6006546001600160a01b03163314610cbb5760405162461bcd60e51b81526004016104769061219b565b60026001541415610cde5760405162461bcd60e51b81526004016104769061249b565b60026001819055600a5460ff166003811115610d0a57634e487b7160e01b600052602160045260246000fd5b14158015610d3d57506003600a5460ff166003811115610d3a57634e487b7160e01b600052602160045260246000fd5b14155b610d595760405162461bcd60e51b815260040161047690611eea565b600f5460055411610d7c5760405162461bcd60e51b815260040161047690612107565b600260009054906101000a90046001600160a01b03166001600160a01b03166399da053a6040518163ffffffff1660e01b815260040160206040518083038186803b158015610dca57600080fd5b505afa158015610dde573d6000803e3d6000fd5b505050506040513d601f19601f82011682018060405250810190610e029190611d8b565b610e0f90620151806125c4565b600754610e1c9190612598565b421015610e3b5760405162461bcd60e51b8152600401610476906122df565b600a805460ff191660039081179182905560019160ff1690811115610e7057634e487b7160e01b600052602160045260246000fd5b1415610e7e57610e7e6117c7565b4715610e9c57600f54610e9190476125e3565b601355610e9c6119d3565b600254600354601154604051637978f27960e01b81526001600160a01b0390931692637978f27992610ed2929091600401611ddf565b600060405180830381600087803b158015610eec57600080fd5b505af1158015610f00573d6000803e3d6000fd5b5050600180555050565b6000546001600160a01b031690565b60135481565b6006546001600160a01b03163314610f495760405162461bcd60e51b81526004016104769061219b565b6000600f5411610f6b5760405162461bcd60e51b81526004016104769061251e565b6001600254600160a01b900460ff166001811115610f9957634e487b7160e01b600052602160045260246000fd5b14610fb65760405162461bcd60e51b8152600401610476906121e1565b6000600a5460ff166003811115610fdd57634e487b7160e01b600052602160045260246000fd5b14610ffa5760405162461bcd60e51b815260040161047690611f2c565b600260009054906101000a90046001600160a01b03166001600160a01b03166399da053a6040518163ffffffff1660e01b815260040160206040518083038186803b15801561104857600080fd5b505afa15801561105c573d6000803e3d6000fd5b505050506040513d601f19601f820116820180604052508101906110809190611d8b565b61108d90620151806125c4565b60075461109a9190612598565b4210156110b95760405162461bcd60e51b8152600401610476906122df565b6110c1611ae1565b600a805460ff191660011790556002546003546010546040516303b357dd60e01b81526001600160a01b03909316926303b357dd92611104929091600401611ddf565b600060405180830381600087803b15801561111e57600080fd5b505af1158015611132573d6000803e3d6000fd5b50505050565b6002600154141561115b5760405162461bcd60e51b81526004016104769061249b565b60026001556006546001600160a01b0316331461118a5760405162461bcd60e51b81526004016104769061219b565b6002600a5460ff1660038111156111b157634e487b7160e01b600052602160045260246000fd5b146111ce5760405162461bcd60e51b815260040161047690612464565b6000601154116111f05760405162461bcd60e51b815260040161047690611fa8565b60125460ff16156112135760405162461bcd60e51b815260040161047690611f63565b6012805460ff191660011790556006546011546040516001600160a01b0390921691600091839161124390611ddc565b60006040518083038185875af1925050503d8060008114611280576040519150601f19603f3d011682016040523d82523d6000602084013e611285565b606091505b50509050806112a65760405162461bcd60e51b8152600401610476906120a2565b336001600160a01b03167f324a0fb77c2a44bad89caa2211824604eafbca8eea5d0a07b18145dff2cb59076011546040516112e19190612555565b60405180910390a2505060018055565b600e546001600160a01b031681565b60035481565b61130e611add565b6001600160a01b031661131f610f0a565b6001600160a01b0316146113455760405162461bcd60e51b8152600401610476906122aa565b6001600160a01b03811661136b5760405162461bcd60e51b815260040161047690611feb565b600080546040516001600160a01b03808516939216917f8be0079c531659141344cd1fd0a4f28419497f9722a3daafe3b4186f6b6457e091a3600080546001600160a01b0319166001600160a01b0392909216919091179055565b600260015414156113e95760405162461bcd60e51b81526004016104769061249b565b60026001908155600a5460ff16600381111561141557634e487b7160e01b600052602160045260246000fd5b14156114335760405162461bcd60e51b8152600401610476906124d2565b6000600254600160a01b900460ff16600181111561146157634e487b7160e01b600052602160045260246000fd5b14801561149257506002600a5460ff16600381111561149057634e487b7160e01b600052602160045260246000fd5b145b156114af5760405162461bcd60e51b815260040161047690612322565b336000908152600c6020526040902054158015906114dc5750336000908152600c60205260409020548111155b6114f85760405162461bcd60e51b8152600401610476906123e5565b60008160045461150891906125c4565b905080600f54101561152c5760405162461bcd60e51b8152600401610476906123ae565b336000908152600c60205260408120805484929061154b9084906125e3565b9250508190555081600b600082825461156491906125e3565b9250508190555080600f600082825461157d91906125e3565b909155506000905080600a5460ff1660038111156115ab57634e487b7160e01b600052602160045260246000fd5b141561166b5760005b600d5481101561166957336001600160a01b0316600d82815481106115e957634e487b7160e01b600052603260045260246000fd5b6000918252602090912001546001600160a01b031614801561160a57508382105b1561165757600d818154811061163057634e487b7160e01b600052603260045260246000fd5b600091825260209091200180546001600160a01b0319169055611654600183612598565b91505b80611661816125fa565b9150506115b4565b505b600254600354604051634b826d8160e01b81526001600160a01b0390921691634b826d819161169e918690600401611ddf565b600060405180830381600087803b1580156116b857600080fd5b505af11580156116cc573d6000803e3d6000fd5b505050506000336001600160a01b0316836040516116e990611ddc565b60006040518083038185875af1925050503d8060008114611726576040519150601f19603f3d011682016040523d82523d6000602084013e61172b565b606091505b505090508061174c5760405162461bcd60e51b815260040161047690612031565b336001600160a01b03167fb7029a2e3425140d13e631737cd4269675a18664ebe4356d84ea6943db821658600354868660405161178b93929190612582565b60405180910390a25050600180555050565b600d81815481106117ad57600080fd5b6000918252602090912001546001600160a01b0316905081565b601454604080516316427da360e31b815290516000926001600160a01b03169163b213ed189160048083019260a092919082900301818787803b15801561180d57600080fd5b505af1158015611821573d6000803e3d6000fd5b505050506040513d601f19601f820116820180604052508101906118459190611cc7565b60145460405191925060009182916001600160a01b03169061186b908590602401611e3e565b60408051601f198184030181529181526020820180516001600160e01b031663d9e71e8560e01b179052516118a09190611da3565b600060405180830381855af49150503d80600081146118db576040519150601f19603f3d011682016040523d82523d6000602084013e6118e0565b606091505b5091509150816119025760405162461bcd60e51b815260040161047690612273565b6000818060200190518101906119189190611d8b565b90507faac50b7fd37b9353a223df3787678aad7d567416d8cf6c3571bda75ee687ce52816040516119499190612555565b60405180910390a150505050565b600d5460405160009182916119729042904490602001611ddf565b6040516020818303038152906040528051906020012060001c6119959190612615565b9050600d81815481106119b857634e487b7160e01b600052603260045260246000fd5b6000918252602090912001546001600160a01b031691505090565b60135415611adb57600254604080516304ca658160e21b815290516000926001600160a01b0316916313299604916004808301926020929190829003018186803b158015611a2057600080fd5b505afa158015611a34573d6000803e3d6000fd5b505050506040513d601f19601f82011682018060405250810190611a589190611c72565b90506000816001600160a01b0316601354604051611a7590611ddc565b60006040518083038185875af1925050503d8060008114611ab2576040519150601f19603f3d011682016040523d82523d6000602084013e611ab7565b606091505b5050905080611ad85760405162461bcd60e51b8152600401610476906120d9565b50505b565b3390565b6014546040805163a13be87760e01b8152815160009384936001600160a01b039091169263a13be877926004808301939282900301818787803b158015611b2757600080fd5b505af1158015611b3b573d6000803e3d6000fd5b505050506040513d601f19601f82011682018060405250810190611b5f9190611c8e565b60405163095ea7b360e01b815291935091506001600160a01b0383169063095ea7b390611b9490849060001990600401611e25565b602060405180830381600087803b158015611bae57600080fd5b505af1158015611bc2573d6000803e3d6000fd5b505050506040513d601f19601f82011682018060405250810190611be69190611d53565b504760105560145460408051630d0e30db60e41b815290516001600160a01b039092169163d0e30db0914791600480830192600092919082900301818588803b158015611c3257600080fd5b505af1158015611c46573d6000803e3d6000fd5b50505050505050565b600060208284031215611c60578081fd5b8135611c6b81612681565b9392505050565b600060208284031215611c83578081fd5b8151611c6b81612681565b60008060408385031215611ca0578081fd5b8251611cab81612681565b6020840151909250611cbc81612681565b809150509250929050565b600060a08284031215611cd8578081fd5b82601f830112611ce6578081fd5b60405160a0810181811067ffffffffffffffff82111715611d0957611d0961266b565b604052808360a08101861015611d1d578384fd5b835b6005811015611d48578151611d3381612681565b83526020928301929190910190600101611d1f565b509195945050505050565b600060208284031215611d64578081fd5b81518015158114611c6b578182fd5b600060208284031215611d84578081fd5b5035919050565b600060208284031215611d9c578081fd5b5051919050565b60008251815b81811015611dc35760208186018101518583015201611da9565b81811115611dd15782828501525b509190910192915050565b90565b918252602082015260400190565b6001600160a01b0391909116815260200190565b6001600160a01b039384168152919092166020820152604081019190915260600190565b6001600160a01b03929092168252602082015260400190565b60a08101818360005b6005811015611e6f5781516001600160a01b0316835260209283019290910190600101611e47565b50505092915050565b6020810160048310611e8c57611e8c612655565b91905290565b6020810160028310611e8c57611e8c612655565b60208082526024908201527f50726f746f636f6c20686173206265656e2070617573656420627920736563756040820152637269747960e01b606082015260800190565b60208082526022908201527f546865206c6f747465727920706f6f6c20697320616c726561647920636c6f73604082015261195960f21b606082015260800190565b60208082526017908201527f546865206c6f7474657279206973206e6f74206f70656e000000000000000000604082015260600190565b60208082526025908201527f5061796d656e7420616c7265616479207472616e73666572656420746f20637260408201526432b0ba37b960d91b606082015260800190565b60208082526023908201527f4e6f7468696e6720746f207472616e736665722c2070726f666974206973207a60408201526265726f60e81b606082015260800190565b60208082526026908201527f4f776e61626c653a206e6577206f776e657220697320746865207a65726f206160408201526564647265737360d01b606082015260800190565b6020808252600f908201526e151c985b9cd9995c8819985a5b1959608a1b604082015260600190565b60208082526028908201527f546865206c6f747465727920706f6f6c206973206e6f7420696e207374616b696040820152676e6720706861736560c01b606082015260800190565b6020808252601a908201527f5472616e7366657220746f2063726561746f72206661696c6564000000000000604082015260600190565b602080825260149082015273151c985b9cd9995c881999595cc819985a5b195960621b604082015260600190565b6020808252603a908201527f43616e6e6f742063616e63656c206c6f74746572792e20546865206d696e696d60408201527f756d20616d6f756e7420686173206265656e2072656163686564000000000000606082015260800190565b6020808252601c908201527f546865206c6f747465727920706f6f6c206973206e6f74206f70656e00000000604082015260600190565b60208082526026908201527f4f6e6c7920706f6f6c2063726561746f722063616e2063616c6c2074686973206040820152651b595d1a1bd960d21b606082015260800190565b60208082526030908201527f4c6f747465727920706f6f6c2074797065206973206e6f7420636f6d7061746960408201526f626c652077697468207374616b696e6760801b606082015260800190565b60208082526022908201527f412077696e6e65722068617320616c7265616479206265656e206465636c6172604082015261195960f21b606082015260800190565b60208082526017908201527f5374616b696e67207769746864726177206661696c6564000000000000000000604082015260600190565b6020808252818101527f4f776e61626c653a2063616c6c6572206973206e6f7420746865206f776e6572604082015260600190565b60208082526023908201527f596f75206d757374207761697420746865206d696e696d756d206f70656e206460408201526261797360e81b606082015260800190565b60208082526029908201527f43616e6e6f742072656465656d2066726f6d2061207374616e6461726420636c6040820152681bdcd959081c1bdbdb60ba1b606082015260800190565b60208082526023908201527f416d6f756e742073656e7420697320646966666572656e74207468616e20707260408201526269636560e81b606082015260800190565b6020808252601f908201527f4e6f7420656e6f756768206d6f6e657920696e207468652062616c616e636500604082015260600190565b6020808252601e908201527f596f7520646f206e6f74206861766520656e6f756768207469636b6574730000604082015260600190565b60208082526028908201527f436f6e7472616374206973206e6f7420617070726f76656420746f207472616e6040820152671cd9995c8813919560c21b606082015260800190565b6020808252601e908201527f546865206c6f747465727920706f6f6c206973206e6f7420636c6f7365640000604082015260600190565b6020808252601f908201527f5265656e7472616e637947756172643a207265656e7472616e742063616c6c00604082015260600190565b6020808252602c908201527f43616e6e6f742072656465656d207469636b65747320647572696e672073746160408201526b6b696e672070726f6365737360a01b606082015260800190565b6020808252601e908201527f42616c616e6365206d7573742062652067726561746572207468616e20300000604082015260600190565b90815260200190565b9384526001600160a01b039290921660208401526040830152606082015260800190565b9283526020830191909152604082015260600190565b600082198211156125ab576125ab612629565b500190565b6000826125bf576125bf61263f565b500490565b60008160001904831182151516156125de576125de612629565b500290565b6000828210156125f5576125f5612629565b500390565b600060001982141561260e5761260e612629565b5060010190565b6000826126245761262461263f565b500690565b634e487b7160e01b600052601160045260246000fd5b634e487b7160e01b600052601260045260246000fd5b634e487b7160e01b600052602160045260246000fd5b634e487b7160e01b600052604160045260246000fd5b6001600160a01b038116811461269657600080fd5b5056fea264697066735822122012a16b532556ec80fb8ab1c44135accef782d834a03fe58d434095b91be0b68264736f6c63430008000033a2646970667358221220735171d8de704bc209f1a8884da3cde8399520dd0a2b761be099725d3af9b20264736f6c63430008000033",
  "linkReferences": {},
  "deployedLinkReferences": {}
}