{
  "_format": "hh-sol-artifact-1",
  "contractName": "LotteryPoolFactory",
  "sourceName": "contracts/LotteryPoolFactory.sol",
  "abi": [
    {
      "anonymous": false,
      "inputs": [
        {
          "indexed": false,
          "internalType": "uint256",
          "name": "feePercent",
          "type": "uint256"
        }
      ],
      "name": "FeePercentChanged",
      "type": "event"
    },
    {
      "anonymous": false,
      "inputs": [
        {
          "indexed": false,
          "internalType": "uint256",
          "name": "lotteryId",
          "type": "uint256"
        },
        {
          "indexed": false,
          "internalType": "uint256",
          "name": "fees",
          "type": "uint256"
        }
      ],
      "name": "LotteryCancelled",
      "type": "event"
    },
    {
      "anonymous": false,
      "inputs": [
        {
          "indexed": false,
          "internalType": "uint256",
          "name": "lotteryId",
          "type": "uint256"
        },
        {
          "indexed": false,
          "internalType": "address",
          "name": "winner",
          "type": "address"
        },
        {
          "indexed": false,
          "internalType": "uint256",
          "name": "profit",
          "type": "uint256"
        },
        {
          "indexed": false,
          "internalType": "uint256",
          "name": "fees",
          "type": "uint256"
        }
      ],
      "name": "LotteryClosed",
      "type": "event"
    },
    {
      "anonymous": false,
      "inputs": [
        {
          "indexed": false,
          "internalType": "uint256",
          "name": "lotteryId",
          "type": "uint256"
        },
        {
          "indexed": false,
          "internalType": "address",
          "name": "creator",
          "type": "address"
        },
        {
          "indexed": false,
          "internalType": "address",
          "name": "lotteryAddress",
          "type": "address"
        },
        {
          "indexed": false,
          "internalType": "address",
          "name": "nftAddress",
          "type": "address"
        },
        {
          "indexed": false,
          "internalType": "uint256",
          "name": "nftIndex",
          "type": "uint256"
        },
        {
          "indexed": false,
          "internalType": "uint256",
          "name": "ticketPrice",
          "type": "uint256"
        },
        {
          "indexed": false,
          "internalType": "uint256",
          "name": "created",
          "type": "uint256"
        },
        {
          "indexed": false,
          "internalType": "enum ILotteryPool.LotteryPoolType",
          "name": "lotteryPoolType",
          "type": "uint8"
        },
        {
          "indexed": false,
          "internalType": "uint256",
          "name": "minAmount",
          "type": "uint256"
        }
      ],
      "name": "LotteryCreated",
      "type": "event"
    },
    {
      "anonymous": false,
      "inputs": [
        {
          "indexed": false,
          "internalType": "uint256",
          "name": "lotteryId",
          "type": "uint256"
        },
        {
          "indexed": false,
          "internalType": "uint256",
          "name": "stakedAmount",
          "type": "uint256"
        }
      ],
      "name": "LotteryStaked",
      "type": "event"
    },
    {
      "anonymous": false,
      "inputs": [
        {
          "indexed": false,
          "internalType": "uint256",
          "name": "minDaysOpen",
          "type": "uint256"
        }
      ],
      "name": "MinDaysOpenChanged",
      "type": "event"
    },
    {
      "anonymous": false,
      "inputs": [
        {
          "indexed": true,
          "internalType": "address",
          "name": "previousOwner",
          "type": "address"
        },
        {
          "indexed": true,
          "internalType": "address",
          "name": "newOwner",
          "type": "address"
        }
      ],
      "name": "OwnershipTransferred",
      "type": "event"
    },
    {
      "anonymous": false,
      "inputs": [
        {
          "indexed": false,
          "internalType": "address",
          "name": "account",
          "type": "address"
        }
      ],
      "name": "Paused",
      "type": "event"
    },
    {
      "anonymous": false,
      "inputs": [
        {
          "indexed": false,
          "internalType": "address",
          "name": "account",
          "type": "address"
        }
      ],
      "name": "Unpaused",
      "type": "event"
    },
    {
      "anonymous": false,
      "inputs": [
        {
          "indexed": true,
          "internalType": "address",
          "name": "addr",
          "type": "address"
        }
      ],
      "name": "WalletChanged",
      "type": "event"
    },
    {
      "inputs": [
        {
          "internalType": "address",
          "name": "_nftAddress",
          "type": "address"
        },
        {
          "internalType": "uint256",
          "name": "_nftIndex",
          "type": "uint256"
        },
        {
          "internalType": "uint256",
          "name": "_ticketPrice",
          "type": "uint256"
        },
        {
          "internalType": "uint256",
          "name": "_minProfit",
          "type": "uint256"
        },
        {
          "internalType": "enum ILotteryPool.LotteryPoolType",
          "name": "_lotteryPoolType",
          "type": "uint8"
        }
      ],
      "name": "createLottery",
      "outputs": [],
      "stateMutability": "nonpayable",
      "type": "function"
    },
    {
      "inputs": [
        {
          "internalType": "uint256",
          "name": "_lotteryId",
          "type": "uint256"
        },
        {
          "internalType": "uint256",
          "name": "_amount",
          "type": "uint256"
        }
      ],
      "name": "decreaseTotalSupply",
      "outputs": [],
      "stateMutability": "nonpayable",
      "type": "function"
    },
    {
      "inputs": [],
      "name": "getFeePercent",
      "outputs": [
        {
          "internalType": "uint256",
          "name": "",
          "type": "uint256"
        }
      ],
      "stateMutability": "view",
      "type": "function"
    },
    {
      "inputs": [],
      "name": "getMinDaysOpen",
      "outputs": [
        {
          "internalType": "uint256",
          "name": "",
          "type": "uint256"
        }
      ],
      "stateMutability": "view",
      "type": "function"
    },
    {
      "inputs": [],
      "name": "getStakingAdapter",
      "outputs": [
        {
          "internalType": "address",
          "name": "",
          "type": "address"
        }
      ],
      "stateMutability": "view",
      "type": "function"
    },
    {
      "inputs": [],
      "name": "getWallet",
      "outputs": [
        {
          "internalType": "address",
          "name": "",
          "type": "address"
        }
      ],
      "stateMutability": "view",
      "type": "function"
    },
    {
      "inputs": [
        {
          "internalType": "uint256",
          "name": "_lotteryId",
          "type": "uint256"
        },
        {
          "internalType": "uint256",
          "name": "_amount",
          "type": "uint256"
        }
      ],
      "name": "increaseTotalSupply",
      "outputs": [],
      "stateMutability": "nonpayable",
      "type": "function"
    },
    {
      "inputs": [
        {
          "internalType": "address",
          "name": "_stakingAdapter",
          "type": "address"
        }
      ],
      "name": "initialize",
      "outputs": [],
      "stateMutability": "nonpayable",
      "type": "function"
    },
    {
      "inputs": [
        {
          "internalType": "uint256",
          "name": "",
          "type": "uint256"
        }
      ],
      "name": "lotteries",
      "outputs": [
        {
          "internalType": "contract ILotteryPool",
          "name": "",
          "type": "address"
        }
      ],
      "stateMutability": "view",
      "type": "function"
    },
    {
      "inputs": [
        {
          "internalType": "uint256",
          "name": "_lotteryId",
          "type": "uint256"
        },
        {
          "internalType": "uint256",
          "name": "_fees",
          "type": "uint256"
        }
      ],
      "name": "lotteryCancelled",
      "outputs": [],
      "stateMutability": "nonpayable",
      "type": "function"
    },
    {
      "inputs": [
        {
          "internalType": "uint256",
          "name": "_lotteryId",
          "type": "uint256"
        },
        {
          "internalType": "address",
          "name": "_winner",
          "type": "address"
        },
        {
          "internalType": "uint256",
          "name": "_profit",
          "type": "uint256"
        },
        {
          "internalType": "uint256",
          "name": "_fees",
          "type": "uint256"
        }
      ],
      "name": "lotteryClosed",
      "outputs": [],
      "stateMutability": "nonpayable",
      "type": "function"
    },
    {
      "inputs": [
        {
          "internalType": "uint256",
          "name": "_lotteryId",
          "type": "uint256"
        },
        {
          "internalType": "uint256",
          "name": "_stakedAmount",
          "type": "uint256"
        }
      ],
      "name": "lotteryStaked",
      "outputs": [],
      "stateMutability": "nonpayable",
      "type": "function"
    },
    {
      "inputs": [],
      "name": "numberOfActiveLotteries",
      "outputs": [
        {
          "internalType": "uint256",
          "name": "",
          "type": "uint256"
        }
      ],
      "stateMutability": "view",
      "type": "function"
    },
    {
      "inputs": [],
      "name": "owner",
      "outputs": [
        {
          "internalType": "address",
          "name": "",
          "type": "address"
        }
      ],
      "stateMutability": "view",
      "type": "function"
    },
    {
      "inputs": [],
      "name": "pause",
      "outputs": [],
      "stateMutability": "nonpayable",
      "type": "function"
    },
    {
      "inputs": [],
      "name": "paused",
      "outputs": [
        {
          "internalType": "bool",
          "name": "",
          "type": "bool"
        }
      ],
      "stateMutability": "view",
      "type": "function"
    },
    {
      "inputs": [],
      "name": "renounceOwnership",
      "outputs": [],
      "stateMutability": "nonpayable",
      "type": "function"
    },
    {
      "inputs": [
        {
          "internalType": "uint256",
          "name": "_feePercent",
          "type": "uint256"
        }
      ],
      "name": "setFeePercent",
      "outputs": [],
      "stateMutability": "nonpayable",
      "type": "function"
    },
    {
      "inputs": [
        {
          "internalType": "uint256",
          "name": "_minDaysOpen",
          "type": "uint256"
        }
      ],
      "name": "setMinDaysOpen",
      "outputs": [],
      "stateMutability": "nonpayable",
      "type": "function"
    },
    {
      "inputs": [
        {
          "internalType": "address payable",
          "name": "_addr",
          "type": "address"
        }
      ],
      "name": "setWallet",
      "outputs": [],
      "stateMutability": "nonpayable",
      "type": "function"
    },
    {
      "inputs": [],
      "name": "totalSupply",
      "outputs": [
        {
          "internalType": "uint256",
          "name": "",
          "type": "uint256"
        }
      ],
      "stateMutability": "view",
      "type": "function"
    },
    {
      "inputs": [
        {
          "internalType": "address",
          "name": "newOwner",
          "type": "address"
        }
      ],
      "name": "transferOwnership",
      "outputs": [],
      "stateMutability": "nonpayable",
      "type": "function"
    },
    {
      "inputs": [],
      "name": "unpause",
      "outputs": [],
      "stateMutability": "nonpayable",
      "type": "function"
    }
  ],
  "bytecode": "0x608060405234801561001057600080fd5b50613f76806100206000396000f3fe60806040523480156200001157600080fd5b50600436106200016c5760003560e01c80637978f27911620000d5578063bdafb1ff1162000087578063bdafb1ff14620002bb578063be74264d14620002d2578063c4d66de814620002dc578063deaa59df14620002f3578063e49a4b16146200030a578063f2fde38b1462000314576200016c565b80637978f27914620002585780637ce3489b146200026f5780638456cb5914620002865780638da5cb5b146200029057806399da053a146200029a5780639cb08abb14620002a4576200016c565b8063339b3776116200012f578063339b377614620001e65780633bf0fd6514620001fd5780633f4ba83a14620002145780634b826d81146200021e5780635c975abb1462000235578063715018a6146200024e576200016c565b806303b357dd146200017157806313299604146200018a5780631398e07614620001ac57806318160ddd14620001c35780631b3896bc14620001dc575b600080fd5b620001886200018236600462001221565b6200032b565b005b62000194620003cd565b604051620001a3919062001243565b60405180910390f35b62000194620001bd366004620011c9565b620003dc565b620001cd62000407565b604051620001a391906200144c565b620001cd6200040d565b62000188620001f736600462001221565b62000413565b620001886200020e3660046200116d565b6200048a565b620001886200061b565b620001886200022f36600462001221565b6200066d565b6200023f620006da565b604051620001a3919062001257565b62000188620006e3565b620001886200026936600462001221565b62000773565b6200018862000280366004620011c9565b62000816565b620001886200089e565b62000194620008ee565b620001cd620008fd565b62000188620002b5366004620011c9565b62000903565b62000188620002cc366004620011e2565b62000980565b620001cd62000a36565b62000188620002ed36600462001147565b62000a3c565b620001886200030436600462001147565b62000b25565b6200019462000bbb565b620001886200032536600462001147565b62000bca565b8160c981815481106200034e57634e487b7160e01b600052603260045260246000fd5b6000918252602090912001546001600160a01b031633146200038d5760405162461bcd60e51b81526004016200038490620013b8565b60405180910390fd5b7f4da77555e73f64b236322348caae14818446c8089b3bf650c93749db0599cd258383604051620003c092919062001528565b60405180910390a1505050565b60cd546001600160a01b031690565b60c98181548110620003ed57600080fd5b6000918252602090912001546001600160a01b0316905081565b60cb5481565b60ca5481565b8160c981815481106200043657634e487b7160e01b600052603260045260246000fd5b6000918252602090912001546001600160a01b031633146200046c5760405162461bcd60e51b81526004016200038490620013b8565b8160cb600082825462000480919062001536565b9091555050505050565b62000494620006da565b15620004b45760405162461bcd60e51b815260040162000384906200130b565b6001600160a01b038516620004dd5760405162461bcd60e51b8152600401620003849062001415565b60008311620005005760405162461bcd60e51b81526004016200038490620012d6565b600080429050600060c980549050338989898987604051620005229062001139565b620005349796959493929190620014c8565b604051809103906000f08015801562000551573d6000803e3d6000fd5b5060c9805460018101825560009182527f66be4f155c5ef2ebd3772b228f2f00681e4ed5826cdb3b1943cc11ad15ad1d280180546001600160a01b0319166001600160a01b03841617905560ca805492955085935090620005b28362001585565b909155505060c9547f1fff386a12009c15874797ae54eaf5409f7e8b872be329b18e606eb531dd59c590620005ea9060019062001551565b33858b8b8b888b8d604051620006099998979695949392919062001455565b60405180910390a15050505050505050565b6200062562000c95565b6001600160a01b031662000638620008ee565b6001600160a01b031614620006615760405162461bcd60e51b8152600401620003849062001383565b6200066b62000c99565b565b8160c981815481106200069057634e487b7160e01b600052603260045260246000fd5b6000918252602090912001546001600160a01b03163314620006c65760405162461bcd60e51b81526004016200038490620013b8565b8160cb600082825462000480919062001551565b60975460ff1690565b620006ed62000c95565b6001600160a01b031662000700620008ee565b6001600160a01b031614620007295760405162461bcd60e51b8152600401620003849062001383565b6033546040516000916001600160a01b0316907f8be0079c531659141344cd1fd0a4f28419497f9722a3daafe3b4186f6b6457e0908390a3603380546001600160a01b0319169055565b8160c981815481106200079657634e487b7160e01b600052603260045260246000fd5b6000918252602090912001546001600160a01b03163314620007cc5760405162461bcd60e51b81526004016200038490620013b8565b60ca8054906000620007de836200156b565b91905055507fa56a4f1c11adc6f055feecc2fc93bc3c4d5da030db0006cb8f671763d4c6e59c8383604051620003c092919062001528565b6200082062000c95565b6001600160a01b031662000833620008ee565b6001600160a01b0316146200085c5760405162461bcd60e51b8152600401620003849062001383565b60cc8190556040517f91955c12515f4eb8f1ff79df82d1933ff11b6d3b9a3019c6568840616ec36a7490620008939083906200144c565b60405180910390a150565b620008a862000c95565b6001600160a01b0316620008bb620008ee565b6001600160a01b031614620008e45760405162461bcd60e51b8152600401620003849062001383565b6200066b62000d10565b6033546001600160a01b031690565b60ce5490565b6200090d62000c95565b6001600160a01b031662000920620008ee565b6001600160a01b031614620009495760405162461bcd60e51b8152600401620003849062001383565b60ce8190556040517fd1fda8d12743585aa215eac90ca51a4de1409fc059f0c1de983fb588c1d5a5e990620008939083906200144c565b8360c98181548110620009a357634e487b7160e01b600052603260045260246000fd5b6000918252602090912001546001600160a01b03163314620009d95760405162461bcd60e51b81526004016200038490620013b8565b60ca8054906000620009eb836200156b565b91905055507f1cd070ae8ed4e4c6b1b892a324389e5838bb564fae4625f55a625a5f9fdfb5c68585858560405162000a27949392919062001504565b60405180910390a15050505050565b60cc5490565b600054610100900460ff168062000a56575060005460ff16155b62000a755760405162461bcd60e51b8152600401620003849062001335565b600054610100900460ff1615801562000aa1576000805460ff1961ff0019909116610100171660011790555b62000aab62000d72565b62000ab562000e01565b62000abf62000e70565b60cf80546001600160a01b0319166001600160a01b03841617905562000ae4620008ee565b60cd80546001600160a01b0319166001600160a01b0392909216919091179055600a60cc55600760ce55801562000b21576000805461ff00191690555b5050565b62000b2f62000c95565b6001600160a01b031662000b42620008ee565b6001600160a01b03161462000b6b5760405162461bcd60e51b8152600401620003849062001383565b60cd80546001600160a01b0319166001600160a01b0383811691909117918290556040519116907f3ce716f94fe275e52428cbf6b7f388e5a65976d4edabc34355a77f5e89655bdc90600090a250565b60cf546001600160a01b031690565b62000bd462000c95565b6001600160a01b031662000be7620008ee565b6001600160a01b03161462000c105760405162461bcd60e51b8152600401620003849062001383565b6001600160a01b03811662000c395760405162461bcd60e51b8152600401620003849062001290565b6033546040516001600160a01b038084169216907f8be0079c531659141344cd1fd0a4f28419497f9722a3daafe3b4186f6b6457e090600090a3603380546001600160a01b0319166001600160a01b0392909216919091179055565b3390565b62000ca3620006da565b62000cc25760405162461bcd60e51b8152600401620003849062001262565b6097805460ff191690557f5db9ee0a495bf2e6ff9c91a7834c1ba4fdd244a5e8aa4e537bd38aeae4b073aa62000cf762000c95565b60405162000d06919062001243565b60405180910390a1565b62000d1a620006da565b1562000d3a5760405162461bcd60e51b815260040162000384906200130b565b6097805460ff191660011790557f62e78cea01bee320cd4e420270b5ea74000d11b0c9f74754ebdbfc544b05a25862000cf762000c95565b600054610100900460ff168062000d8c575060005460ff16155b62000dab5760405162461bcd60e51b8152600401620003849062001335565b600054610100900460ff1615801562000dd7576000805460ff1961ff0019909116610100171660011790555b62000de162000ee9565b62000deb62000f62565b801562000dfe576000805461ff00191690555b50565b600054610100900460ff168062000e1b575060005460ff16155b62000e3a5760405162461bcd60e51b8152600401620003849062001335565b600054610100900460ff1615801562000e66576000805460ff1961ff0019909116610100171660011790555b62000deb62001036565b600054610100900460ff168062000e8a575060005460ff16155b62000ea95760405162461bcd60e51b8152600401620003849062001335565b600054610100900460ff1615801562000ed5576000805460ff1961ff0019909116610100171660011790555b62000edf62000ee9565b62000deb620010b5565b600054610100900460ff168062000f03575060005460ff16155b62000f225760405162461bcd60e51b8152600401620003849062001335565b600054610100900460ff1615801562000deb576000805460ff1961ff001990911661010017166001179055801562000dfe576000805461ff001916905550565b600054610100900460ff168062000f7c575060005460ff16155b62000f9b5760405162461bcd60e51b8152600401620003849062001335565b600054610100900460ff1615801562000fc7576000805460ff1961ff0019909116610100171660011790555b600062000fd362000c95565b603380546001600160a01b0319166001600160a01b038316908117909155604051919250906000907f8be0079c531659141344cd1fd0a4f28419497f9722a3daafe3b4186f6b6457e0908290a350801562000dfe576000805461ff001916905550565b600054610100900460ff168062001050575060005460ff16155b6200106f5760405162461bcd60e51b8152600401620003849062001335565b600054610100900460ff161580156200109b576000805460ff1961ff0019909116610100171660011790555b6001606555801562000dfe576000805461ff001916905550565b600054610100900460ff1680620010cf575060005460ff16155b620010ee5760405162461bcd60e51b8152600401620003849062001335565b600054610100900460ff161580156200111a576000805460ff1961ff0019909116610100171660011790555b6097805460ff19169055801562000dfe576000805461ff001916905550565b61297180620015d083390190565b60006020828403121562001159578081fd5b81356200116681620015b9565b9392505050565b600080600080600060a0868803121562001185578081fd5b85356200119281620015b9565b9450602086013593506040860135925060608601359150608086013560028110620011bb578182fd5b809150509295509295909350565b600060208284031215620011db578081fd5b5035919050565b60008060008060808587031215620011f8578384fd5b8435935060208501356200120c81620015b9565b93969395505050506040820135916060013590565b6000806040838503121562001234578182fd5b50508035926020909101359150565b6001600160a01b0391909116815260200190565b901515815260200190565b60208082526014908201527314185d5cd8589b194e881b9bdd081c185d5cd95960621b604082015260600190565b60208082526026908201527f4f776e61626c653a206e6577206f776e657220697320746865207a65726f206160408201526564647265737360d01b606082015260800190565b6020808252818101527f412076616c6964207469636b6574207072696365206973207265717569726564604082015260600190565b60208082526010908201526f14185d5cd8589b194e881c185d5cd95960821b604082015260600190565b6020808252602e908201527f496e697469616c697a61626c653a20636f6e747261637420697320616c72656160408201526d191e481a5b9a5d1a585b1a5e995960921b606082015260800190565b6020808252818101527f4f776e61626c653a2063616c6c6572206973206e6f7420746865206f776e6572604082015260600190565b6020808252603b908201527f54686973206d6574686f64206d7573742062652063616c6c6564207468726f7560408201527f67682061206c6f7474657279206368696c6420636f6e74726163740000000000606082015260800190565b6020808252601b908201527f412076616c696420616464726573732069732072657175697265640000000000604082015260600190565b90815260200190565b8981526001600160a01b0389811660208301528881166040830152871660608201526080810186905260a0810185905260c08101849052610120810160028410620014b057634e487b7160e01b600052602160045260246000fd5b60e08201939093526101000152979650505050505050565b9687526001600160a01b0395861660208801529390941660408601526060850191909152608084015260a083019190915260c082015260e00190565b9384526001600160a01b039290921660208401526040830152606082015260800190565b918252602082015260400190565b600082198211156200154c576200154c620015a3565b500190565b600082821015620015665762001566620015a3565b500390565b6000816200157d576200157d620015a3565b506000190190565b60006000198214156200159c576200159c620015a3565b5060010190565b634e487b7160e01b600052601160045260246000fd5b6001600160a01b038116811462000dfe57600080fdfe60806040523480156200001157600080fd5b506040516200297138038062002971833981016040819052620000349162000259565b86868686868686600160006200004962000205565b600080546001600160a01b0319166001600160a01b0383169081178255604051929350917f8be0079c531659141344cd1fd0a4f28419497f9722a3daafe3b4186f6b6457e0908290a35060018055620000a162000209565b600280546001600160a01b0319166001600160a01b03929092169190911780825560038a905582919060ff60a01b1916600160a01b836001811115620000f757634e487b7160e01b600052602160045260246000fd5b021790555050600680546001600160a01b03199081166001600160a01b0398891617909155600493845560059290925560088054909216948616949094179055600991909155600a805460ff19908116909155600792909255601280549092169091556002546040805163724d258b60e11b8152905160009550919093169263e49a4b169281810192602092909190829003018186803b1580156200019b57600080fd5b505afa158015620001b0573d6000803e3d6000fd5b505050506040513d601f19601f82011682018060405250810190620001d6919062000235565b601480546001600160a01b0319166001600160a01b039290921691909117905550620002c09650505050505050565b3390565b6000546001600160a01b031690565b80516001600160a01b03811681146200023057600080fd5b919050565b60006020828403121562000247578081fd5b620002528262000218565b9392505050565b600080600080600080600060e0888a03121562000274578283fd5b87519650620002866020890162000218565b9550620002966040890162000218565b9450606088015193506080880151925060a0880151915060c0880151905092959891949750929550565b6126a180620002d06000396000f3fe60806040526004361061016a5760003560e01c8063702766fa116100d1578063a30a24741161008a578063e580f47b11610064578063e580f47b146103be578063f2fde38b146103d3578063f4fe103a146103f3578063f71d96cb14610413576101aa565b8063a30a24741461037f578063d10c391d14610394578063dfbf53ae146103a9576101aa565b8063702766fa146102f4578063715018a61461031657806375c81ad01461032b578063859bd0f0146103405780638da5cb5b146103555780639af1d35a1461036a576101aa565b80632f366637116101235780632f3666371461025f5780633165792614610272578063373d61321461029257806345745c10146102a757806347ccca02146102bc57806366d16cc3146102df576101aa565b806302d05d3f146101af57806312065fe0146101da5780631209b1f6146101fc57806314034bd21461021157806318160ddd14610228578063200d2ed21461023d576101aa565b366101aa577f88a5966d370b9919b20f3e2c13ff65706f196a4e32cc2c12bf57088f8852587433346040516101a0929190611df7565b60405180910390a1005b600080fd5b3480156101bb57600080fd5b506101c4610433565b6040516101d19190611dbf565b60405180910390f35b3480156101e657600080fd5b506101ef610442565b6040516101d19190612527565b34801561020857600080fd5b506101ef610446565b34801561021d57600080fd5b5061022661044c565b005b34801561023457600080fd5b506101ef61092a565b34801561024957600080fd5b50610252610930565b6040516101d19190611e4a565b61022661026d366004611d45565b610939565b34801561027e57600080fd5b506101ef61028d366004611c21565b610bb0565b34801561029e57600080fd5b506101ef610bcb565b3480156102b357600080fd5b506101ef610bd1565b3480156102c857600080fd5b506102d1610bd7565b6040516101d1929190611df7565b3480156102eb57600080fd5b506101ef610bec565b34801561030057600080fd5b50610309610bf2565b6040516101d19190611e64565b34801561032257600080fd5b50610226610c02565b34801561033757600080fd5b506101ef610c8b565b34801561034c57600080fd5b50610226610c91565b34801561036157600080fd5b506101c4610edc565b34801561037657600080fd5b506101ef610eeb565b34801561038b57600080fd5b50610226610ef1565b3480156103a057600080fd5b5061022661110a565b3480156103b557600080fd5b506101c46112c3565b3480156103ca57600080fd5b506101ef6112d2565b3480156103df57600080fd5b506102266103ee366004611c21565b6112d8565b3480156103ff57600080fd5b5061022661040e366004611d45565b611398565b34801561041f57600080fd5b506101c461042e366004611d45565b61176f565b6006546001600160a01b031681565b4790565b60045481565b6006546001600160a01b0316331461047f5760405162461bcd60e51b81526004016104769061216d565b60405180910390fd5b600260015414156104a25760405162461bcd60e51b81526004016104769061246d565b600260018190555460408051635c975abb60e01b815290516001600160a01b0390921691635c975abb91600480820192602092909190829003018186803b1580156104ec57600080fd5b505afa158015610500573d6000803e3d6000fd5b505050506040513d601f19601f820116820180604052508101906105249190611d25565b156105415760405162461bcd60e51b815260040161047690611e78565b600e546001600160a01b03161561056a5760405162461bcd60e51b815260040161047690612203565b6001600a5460ff16600381111561059157634e487b7160e01b600052602160045260246000fd5b146105ae5760405162461bcd60e51b81526004016104769061202c565b600260009054906101000a90046001600160a01b03166001600160a01b03166399da053a6040518163ffffffff1660e01b815260040160206040518083038186803b1580156105fc57600080fd5b505afa158015610610573d6000803e3d6000fd5b505050506040513d601f19601f820116820180604052508101906106349190611d5d565b6106419062015180612596565b60075461064e919061256a565b42101561066d5760405162461bcd60e51b8152600401610476906122b1565b60085460095460405163020604bf60e21b815230926001600160a01b03169163081812fc9161069f9190600401612527565b60206040518083038186803b1580156106b757600080fd5b505afa1580156106cb573d6000803e3d6000fd5b505050506040513d601f19601f820116820180604052508101906106ef9190611c44565b6001600160a01b0316146107155760405162461bcd60e51b8152600401610476906123ee565b61071d611799565b47156109245761072b611929565b600e80546001600160a01b0319166001600160a01b03928316179055600a8054600260ff199091168117909155546040805163be74264d60e01b81529051600093929092169163be74264d91600481810192602092909190829003018186803b15801561079757600080fd5b505afa1580156107ab573d6000803e3d6000fd5b505050506040513d601f19601f820116820180604052508101906107cf9190611d5d565b90506000601054476107e191906125b5565b9050600f546010546107f391906125b5565b60646107ff8484612596565b6108099190612582565b610813919061256a565b60135560646108228383612596565b61082c9190612582565b61083690826125b5565b6011556108416119a5565b600854600654600e546009546040516323b872dd60e01b81526001600160a01b03948516946323b872dd9461087f9490821693911691600401611dd3565b600060405180830381600087803b15801561089957600080fd5b505af11580156108ad573d6000803e3d6000fd5b5050600254600354600e5460115460135460405163bdafb1ff60e01b81526001600160a01b03958616975063bdafb1ff96506108ef9590931692600401612530565b600060405180830381600087803b15801561090957600080fd5b505af115801561091d573d6000803e3d6000fd5b5050505050505b60018055565b600f5481565b600a5460ff1681565b600260009054906101000a90046001600160a01b03166001600160a01b0316635c975abb6040518163ffffffff1660e01b815260040160206040518083038186803b15801561098757600080fd5b505afa15801561099b573d6000803e3d6000fd5b505050506040513d601f19601f820116820180604052508101906109bf9190611d25565b156109dc5760405162461bcd60e51b815260040161047690611e78565b6000600a5460ff166003811115610a0357634e487b7160e01b600052602160045260246000fd5b14610a205760405162461bcd60e51b815260040161047690612136565b80600454610a2e9190612596565b3414610a4c5760405162461bcd60e51b81526004016104769061233d565b336000908152600c602052604081208054839290610a6b90849061256a565b90915550600090505b81811015610ad057600d80546001810182556000919091527fd7b6990105719101dabeb77144f2a3385c8033acd3af97e9423a695e81ad1eb50180546001600160a01b0319163317905580610ac8816125cc565b915050610a74565b5080600b6000828254610ae3919061256a565b9250508190555034600f6000828254610afc919061256a565b90915550506002546003546040516319cd9bbb60e11b81526001600160a01b039092169163339b377691610b34913490600401611db1565b600060405180830381600087803b158015610b4e57600080fd5b505af1158015610b62573d6000803e3d6000fd5b50505050336001600160a01b03167fc8c5c2b0e44fb6312c0098ec42642058527713d0a1d29a5c6ccbfe34d714d41e6003548334604051610ba593929190612554565b60405180910390a250565b6001600160a01b03166000908152600c602052604090205490565b60105481565b600b5481565b6008546009546001600160a01b039091169082565b60115481565b600254600160a01b900460ff1681565b610c0a611aaf565b6001600160a01b0316610c1b610edc565b6001600160a01b031614610c415760405162461bcd60e51b81526004016104769061227c565b600080546040516001600160a01b03909116907f8be0079c531659141344cd1fd0a4f28419497f9722a3daafe3b4186f6b6457e0908390a3600080546001600160a01b0319169055565b60055481565b6006546001600160a01b03163314610cbb5760405162461bcd60e51b81526004016104769061216d565b60026001541415610cde5760405162461bcd60e51b81526004016104769061246d565b60026001819055600a5460ff166003811115610d0a57634e487b7160e01b600052602160045260246000fd5b14158015610d3d57506003600a5460ff166003811115610d3a57634e487b7160e01b600052602160045260246000fd5b14155b610d595760405162461bcd60e51b815260040161047690611ebc565b600f5460055411610d7c5760405162461bcd60e51b8152600401610476906120d9565b600260009054906101000a90046001600160a01b03166001600160a01b03166399da053a6040518163ffffffff1660e01b815260040160206040518083038186803b158015610dca57600080fd5b505afa158015610dde573d6000803e3d6000fd5b505050506040513d601f19601f82011682018060405250810190610e029190611d5d565b610e0f9062015180612596565b600754610e1c919061256a565b421015610e3b5760405162461bcd60e51b8152600401610476906122b1565b610e43611799565b471561092457600a805460ff19166003179055601054610e6390476125b5565b601355610e6e6119a5565b600254600354601154604051637978f27960e01b81526001600160a01b0390931692637978f27992610ea4929091600401611db1565b600060405180830381600087803b158015610ebe57600080fd5b505af1158015610ed2573d6000803e3d6000fd5b5050505060018055565b6000546001600160a01b031690565b60135481565b6006546001600160a01b03163314610f1b5760405162461bcd60e51b81526004016104769061216d565b6000600f5411610f3d5760405162461bcd60e51b8152600401610476906124f0565b6001600254600160a01b900460ff166001811115610f6b57634e487b7160e01b600052602160045260246000fd5b14610f885760405162461bcd60e51b8152600401610476906121b3565b6000600a5460ff166003811115610faf57634e487b7160e01b600052602160045260246000fd5b14610fcc5760405162461bcd60e51b815260040161047690611efe565b600260009054906101000a90046001600160a01b03166001600160a01b03166399da053a6040518163ffffffff1660e01b815260040160206040518083038186803b15801561101a57600080fd5b505afa15801561102e573d6000803e3d6000fd5b505050506040513d601f19601f820116820180604052508101906110529190611d5d565b61105f9062015180612596565b60075461106c919061256a565b42101561108b5760405162461bcd60e51b8152600401610476906122b1565b611093611ab3565b600a805460ff191660011790556002546003546010546040516303b357dd60e01b81526001600160a01b03909316926303b357dd926110d6929091600401611db1565b600060405180830381600087803b1580156110f057600080fd5b505af1158015611104573d6000803e3d6000fd5b50505050565b6002600154141561112d5760405162461bcd60e51b81526004016104769061246d565b60026001556006546001600160a01b0316331461115c5760405162461bcd60e51b81526004016104769061216d565b6002600a5460ff16600381111561118357634e487b7160e01b600052602160045260246000fd5b146111a05760405162461bcd60e51b815260040161047690612436565b6000601154116111c25760405162461bcd60e51b815260040161047690611f7a565b60125460ff16156111e55760405162461bcd60e51b815260040161047690611f35565b6012805460ff191660011790556006546011546040516001600160a01b0390921691600091839161121590611dae565b60006040518083038185875af1925050503d8060008114611252576040519150601f19603f3d011682016040523d82523d6000602084013e611257565b606091505b50509050806112785760405162461bcd60e51b815260040161047690612074565b336001600160a01b03167f324a0fb77c2a44bad89caa2211824604eafbca8eea5d0a07b18145dff2cb59076011546040516112b39190612527565b60405180910390a2505060018055565b600e546001600160a01b031681565b60035481565b6112e0611aaf565b6001600160a01b03166112f1610edc565b6001600160a01b0316146113175760405162461bcd60e51b81526004016104769061227c565b6001600160a01b03811661133d5760405162461bcd60e51b815260040161047690611fbd565b600080546040516001600160a01b03808516939216917f8be0079c531659141344cd1fd0a4f28419497f9722a3daafe3b4186f6b6457e091a3600080546001600160a01b0319166001600160a01b0392909216919091179055565b600260015414156113bb5760405162461bcd60e51b81526004016104769061246d565b60026001908155600a5460ff1660038111156113e757634e487b7160e01b600052602160045260246000fd5b14156114055760405162461bcd60e51b8152600401610476906124a4565b6000600254600160a01b900460ff16600181111561143357634e487b7160e01b600052602160045260246000fd5b14801561146457506002600a5460ff16600381111561146257634e487b7160e01b600052602160045260246000fd5b145b156114815760405162461bcd60e51b8152600401610476906122f4565b336000908152600c6020526040902054158015906114ae5750336000908152600c60205260409020548111155b6114ca5760405162461bcd60e51b8152600401610476906123b7565b6000816004546114da9190612596565b905080600f5410156114fe5760405162461bcd60e51b815260040161047690612380565b336000908152600c60205260408120805484929061151d9084906125b5565b9250508190555081600b600082825461153691906125b5565b9250508190555080600f600082825461154f91906125b5565b909155506000905080600a5460ff16600381111561157d57634e487b7160e01b600052602160045260246000fd5b141561163d5760005b600d5481101561163b57336001600160a01b0316600d82815481106115bb57634e487b7160e01b600052603260045260246000fd5b6000918252602090912001546001600160a01b03161480156115dc57508382105b1561162957600d818154811061160257634e487b7160e01b600052603260045260246000fd5b600091825260209091200180546001600160a01b031916905561162660018361256a565b91505b80611633816125cc565b915050611586565b505b600254600354604051634b826d8160e01b81526001600160a01b0390921691634b826d8191611670918690600401611db1565b600060405180830381600087803b15801561168a57600080fd5b505af115801561169e573d6000803e3d6000fd5b505050506000336001600160a01b0316836040516116bb90611dae565b60006040518083038185875af1925050503d80600081146116f8576040519150601f19603f3d011682016040523d82523d6000602084013e6116fd565b606091505b505090508061171e5760405162461bcd60e51b815260040161047690612003565b336001600160a01b03167fb7029a2e3425140d13e631737cd4269675a18664ebe4356d84ea6943db821658600354868660405161175d93929190612554565b60405180910390a25050600180555050565b600d818154811061177f57600080fd5b6000918252602090912001546001600160a01b0316905081565b601454604080516316427da360e31b815290516000926001600160a01b03169163b213ed189160048083019260a092919082900301818787803b1580156117df57600080fd5b505af11580156117f3573d6000803e3d6000fd5b505050506040513d601f19601f820116820180604052508101906118179190611c99565b60145460405191925060009182916001600160a01b03169061183d908590602401611e10565b60408051601f198184030181529181526020820180516001600160e01b031663d9e71e8560e01b179052516118729190611d75565b600060405180830381855af49150503d80600081146118ad576040519150601f19603f3d011682016040523d82523d6000602084013e6118b2565b606091505b5091509150816118d45760405162461bcd60e51b815260040161047690612245565b6000818060200190518101906118ea9190611d5d565b90507faac50b7fd37b9353a223df3787678aad7d567416d8cf6c3571bda75ee687ce528160405161191b9190612527565b60405180910390a150505050565b600d5460405160009182916119449042904490602001611db1565b6040516020818303038152906040528051906020012060001c61196791906125e7565b9050600d818154811061198a57634e487b7160e01b600052603260045260246000fd5b6000918252602090912001546001600160a01b031691505090565b60135415611aad57600254604080516304ca658160e21b815290516000926001600160a01b0316916313299604916004808301926020929190829003018186803b1580156119f257600080fd5b505afa158015611a06573d6000803e3d6000fd5b505050506040513d601f19601f82011682018060405250810190611a2a9190611c44565b90506000816001600160a01b0316601354604051611a4790611dae565b60006040518083038185875af1925050503d8060008114611a84576040519150601f19603f3d011682016040523d82523d6000602084013e611a89565b606091505b5050905080611aaa5760405162461bcd60e51b8152600401610476906120ab565b50505b565b3390565b6014546040805163a13be87760e01b8152815160009384936001600160a01b039091169263a13be877926004808301939282900301818787803b158015611af957600080fd5b505af1158015611b0d573d6000803e3d6000fd5b505050506040513d601f19601f82011682018060405250810190611b319190611c60565b60405163095ea7b360e01b815291935091506001600160a01b0383169063095ea7b390611b6690849060001990600401611df7565b602060405180830381600087803b158015611b8057600080fd5b505af1158015611b94573d6000803e3d6000fd5b505050506040513d601f19601f82011682018060405250810190611bb89190611d25565b504760105560145460408051630d0e30db60e41b815290516001600160a01b039092169163d0e30db0914791600480830192600092919082900301818588803b158015611c0457600080fd5b505af1158015611c18573d6000803e3d6000fd5b50505050505050565b600060208284031215611c32578081fd5b8135611c3d81612653565b9392505050565b600060208284031215611c55578081fd5b8151611c3d81612653565b60008060408385031215611c72578081fd5b8251611c7d81612653565b6020840151909250611c8e81612653565b809150509250929050565b600060a08284031215611caa578081fd5b82601f830112611cb8578081fd5b60405160a0810181811067ffffffffffffffff82111715611cdb57611cdb61263d565b604052808360a08101861015611cef578384fd5b835b6005811015611d1a578151611d0581612653565b83526020928301929190910190600101611cf1565b509195945050505050565b600060208284031215611d36578081fd5b81518015158114611c3d578182fd5b600060208284031215611d56578081fd5b5035919050565b600060208284031215611d6e578081fd5b5051919050565b60008251815b81811015611d955760208186018101518583015201611d7b565b81811115611da35782828501525b509190910192915050565b90565b918252602082015260400190565b6001600160a01b0391909116815260200190565b6001600160a01b039384168152919092166020820152604081019190915260600190565b6001600160a01b03929092168252602082015260400190565b60a08101818360005b6005811015611e415781516001600160a01b0316835260209283019290910190600101611e19565b50505092915050565b6020810160048310611e5e57611e5e612627565b91905290565b6020810160028310611e5e57611e5e612627565b60208082526024908201527f50726f746f636f6c20686173206265656e2070617573656420627920736563756040820152637269747960e01b606082015260800190565b60208082526022908201527f546865206c6f747465727920706f6f6c20697320616c726561647920636c6f73604082015261195960f21b606082015260800190565b60208082526017908201527f546865206c6f7474657279206973206e6f74206f70656e000000000000000000604082015260600190565b60208082526025908201527f5061796d656e7420616c7265616479207472616e73666572656420746f20637260408201526432b0ba37b960d91b606082015260800190565b60208082526023908201527f4e6f7468696e6720746f207472616e736665722c2070726f666974206973207a60408201526265726f60e81b606082015260800190565b60208082526026908201527f4f776e61626c653a206e6577206f776e657220697320746865207a65726f206160408201526564647265737360d01b606082015260800190565b6020808252600f908201526e151c985b9cd9995c8819985a5b1959608a1b604082015260600190565b60208082526028908201527f546865206c6f747465727920706f6f6c206973206e6f7420696e207374616b696040820152676e6720706861736560c01b606082015260800190565b6020808252601a908201527f5472616e7366657220746f2063726561746f72206661696c6564000000000000604082015260600190565b602080825260149082015273151c985b9cd9995c881999595cc819985a5b195960621b604082015260600190565b6020808252603a908201527f43616e6e6f742063616e63656c206c6f74746572792e20546865206d696e696d60408201527f756d20616d6f756e7420686173206265656e2072656163686564000000000000606082015260800190565b6020808252601c908201527f546865206c6f747465727920706f6f6c206973206e6f74206f70656e00000000604082015260600190565b60208082526026908201527f4f6e6c7920706f6f6c2063726561746f722063616e2063616c6c2074686973206040820152651b595d1a1bd960d21b606082015260800190565b60208082526030908201527f4c6f747465727920706f6f6c2074797065206973206e6f7420636f6d7061746960408201526f626c652077697468207374616b696e6760801b606082015260800190565b60208082526022908201527f412077696e6e65722068617320616c7265616479206265656e206465636c6172604082015261195960f21b606082015260800190565b60208082526017908201527f5374616b696e67207769746864726177206661696c6564000000000000000000604082015260600190565b6020808252818101527f4f776e61626c653a2063616c6c6572206973206e6f7420746865206f776e6572604082015260600190565b60208082526023908201527f596f75206d757374207761697420746865206d696e696d756d206f70656e206460408201526261797360e81b606082015260800190565b60208082526029908201527f43616e6e6f742072656465656d2066726f6d2061207374616e6461726420636c6040820152681bdcd959081c1bdbdb60ba1b606082015260800190565b60208082526023908201527f416d6f756e742073656e7420697320646966666572656e74207468616e20707260408201526269636560e81b606082015260800190565b6020808252601f908201527f4e6f7420656e6f756768206d6f6e657920696e207468652062616c616e636500604082015260600190565b6020808252601e908201527f596f7520646f206e6f74206861766520656e6f756768207469636b6574730000604082015260600190565b60208082526028908201527f436f6e7472616374206973206e6f7420617070726f76656420746f207472616e6040820152671cd9995c8813919560c21b606082015260800190565b6020808252601e908201527f546865206c6f747465727920706f6f6c206973206e6f7420636c6f7365640000604082015260600190565b6020808252601f908201527f5265656e7472616e637947756172643a207265656e7472616e742063616c6c00604082015260600190565b6020808252602c908201527f43616e6e6f742072656465656d207469636b65747320647572696e672073746160408201526b6b696e672070726f6365737360a01b606082015260800190565b6020808252601e908201527f42616c616e6365206d7573742062652067726561746572207468616e20300000604082015260600190565b90815260200190565b9384526001600160a01b039290921660208401526040830152606082015260800190565b9283526020830191909152604082015260600190565b6000821982111561257d5761257d6125fb565b500190565b60008261259157612591612611565b500490565b60008160001904831182151516156125b0576125b06125fb565b500290565b6000828210156125c7576125c76125fb565b500390565b60006000198214156125e0576125e06125fb565b5060010190565b6000826125f6576125f6612611565b500690565b634e487b7160e01b600052601160045260246000fd5b634e487b7160e01b600052601260045260246000fd5b634e487b7160e01b600052602160045260246000fd5b634e487b7160e01b600052604160045260246000fd5b6001600160a01b038116811461266857600080fd5b5056fea264697066735822122075434d5c7e3c1d38995b4fe89536b6a884e07ea6edb0bab76acf171835751e7064736f6c63430008000033a2646970667358221220c04efd86bf40e3a8202ce0f1b1bbe8203a8d259d93d4bc046d7a3cd277a2b9c464736f6c63430008000033",
  "linkReferences": {},
  "deployedLinkReferences": {}
}