{
  "_format": "hh-sol-artifact-1",
  "contractName": "LotteryFactory",
  "sourceName": "contracts/LotteryFactory.sol",
  "abi": [
    {
      "inputs": [],
      "stateMutability": "nonpayable",
      "type": "constructor"
    },
    {
      "anonymous": false,
      "inputs": [
        {
          "indexed": false,
          "internalType": "uint256",
          "name": "lotteryId",
          "type": "uint256"
        },
        {
          "indexed": false,
          "internalType": "address",
          "name": "lotteryAddress",
          "type": "address"
        },
        {
          "indexed": false,
          "internalType": "address",
          "name": "nftAddress",
          "type": "address"
        },
        {
          "indexed": false,
          "internalType": "uint256",
          "name": "nftIndex",
          "type": "uint256"
        },
        {
          "indexed": false,
          "internalType": "uint256",
          "name": "ticketPrice",
          "type": "uint256"
        }
      ],
      "name": "LotteryCreated",
      "type": "event"
    },
    {
      "anonymous": false,
      "inputs": [
        {
          "indexed": false,
          "internalType": "uint256",
          "name": "maxActiveLotteries",
          "type": "uint256"
        }
      ],
      "name": "MaxActiveLotteriesChanged",
      "type": "event"
    },
    {
      "anonymous": false,
      "inputs": [
        {
          "indexed": true,
          "internalType": "address",
          "name": "previousOwner",
          "type": "address"
        },
        {
          "indexed": true,
          "internalType": "address",
          "name": "newOwner",
          "type": "address"
        }
      ],
      "name": "OwnershipTransferred",
      "type": "event"
    },
    {
      "anonymous": false,
      "inputs": [
        {
          "indexed": false,
          "internalType": "uint256",
          "name": "daysOpenPeriod",
          "type": "uint256"
        },
        {
          "indexed": false,
          "internalType": "uint256",
          "name": "daysStakingPeriod",
          "type": "uint256"
        }
      ],
      "name": "PeriodsChanged",
      "type": "event"
    },
    {
      "inputs": [
        {
          "internalType": "address",
          "name": "_nftAddress",
          "type": "address"
        },
        {
          "internalType": "uint256",
          "name": "_nftIndex",
          "type": "uint256"
        },
        {
          "internalType": "uint256",
          "name": "_ticketPrice",
          "type": "uint256"
        }
      ],
      "name": "createLottery",
      "outputs": [],
      "stateMutability": "nonpayable",
      "type": "function"
    },
    {
      "inputs": [
        {
          "internalType": "uint256",
          "name": "_lotteryId",
          "type": "uint256"
        }
      ],
      "name": "declareWinner",
      "outputs": [],
      "stateMutability": "nonpayable",
      "type": "function"
    },
    {
      "inputs": [
        {
          "internalType": "uint256",
          "name": "_lotteryId",
          "type": "uint256"
        }
      ],
      "name": "launchStaking",
      "outputs": [],
      "stateMutability": "nonpayable",
      "type": "function"
    },
    {
      "inputs": [
        {
          "internalType": "uint256",
          "name": "",
          "type": "uint256"
        }
      ],
      "name": "lotteries",
      "outputs": [
        {
          "internalType": "contract Lottery",
          "name": "",
          "type": "address"
        }
      ],
      "stateMutability": "view",
      "type": "function"
    },
    {
      "inputs": [],
      "name": "maxActiveLotteries",
      "outputs": [
        {
          "internalType": "uint256",
          "name": "",
          "type": "uint256"
        }
      ],
      "stateMutability": "view",
      "type": "function"
    },
    {
      "inputs": [],
      "name": "numberOfActiveLotteries",
      "outputs": [
        {
          "internalType": "uint256",
          "name": "",
          "type": "uint256"
        }
      ],
      "stateMutability": "view",
      "type": "function"
    },
    {
      "inputs": [],
      "name": "owner",
      "outputs": [
        {
          "internalType": "address",
          "name": "",
          "type": "address"
        }
      ],
      "stateMutability": "view",
      "type": "function"
    },
    {
      "inputs": [],
      "name": "renounceOwnership",
      "outputs": [],
      "stateMutability": "nonpayable",
      "type": "function"
    },
    {
      "inputs": [
        {
          "internalType": "uint256",
          "name": "_maxActiveLotteries",
          "type": "uint256"
        }
      ],
      "name": "setMaxActiveLotteries",
      "outputs": [],
      "stateMutability": "nonpayable",
      "type": "function"
    },
    {
      "inputs": [
        {
          "internalType": "address",
          "name": "newOwner",
          "type": "address"
        }
      ],
      "name": "transferOwnership",
      "outputs": [],
      "stateMutability": "nonpayable",
      "type": "function"
    }
  ],
  "bytecode": "0x608060405234801561001057600080fd5b5060006100216100d460201b60201c565b9050806000806101000a81548173ffffffffffffffffffffffffffffffffffffffff021916908373ffffffffffffffffffffffffffffffffffffffff1602179055508073ffffffffffffffffffffffffffffffffffffffff16600073ffffffffffffffffffffffffffffffffffffffff167f8be0079c531659141344cd1fd0a4f28419497f9722a3daafe3b4186f6b6457e060405160405180910390a350600a60028190555060006003819055506100dc565b600033905090565b612fc5806100eb6000396000f3fe60806040523480156200001157600080fd5b5060043610620000ab5760003560e01c80638da5cb5b116200006f5780638da5cb5b1462000154578063a02b45b71462000176578063dd8396b21462000196578063e9673fdd14620001b8578063f2fde38b14620001d857620000ab565b8062c2943c14620000b05780631398e07614620000d05780631b3896bc14620001065780636e43ec6c1462000128578063715018a61462000148575b600080fd5b620000ce6004803603810190620000c8919062000c46565b620001f8565b005b620000ee6004803603810190620000e8919062000c46565b6200035f565b604051620000fd919062000d85565b60405180910390f35b620001106200039f565b6040516200011f919062000e4c565b60405180910390f35b62000146600480360381019062000140919062000c46565b620003a5565b005b62000152620004f2565b005b6200015e62000633565b6040516200016d919062000d68565b60405180910390f35b6200019460048036038101906200018e919062000bf0565b6200065c565b005b620001a0620008ff565b604051620001af919062000e4c565b60405180910390f35b620001d66004803603810190620001d0919062000c46565b62000905565b005b620001f66004803603810190620001f0919062000bc4565b620009cd565b005b6200020262000b80565b73ffffffffffffffffffffffffffffffffffffffff166200022262000633565b73ffffffffffffffffffffffffffffffffffffffff16146200027b576040517f08c379a0000000000000000000000000000000000000000000000000000000008152600401620002729062000e08565b60405180910390fd5b60018181548110620002b6577f4e487b7100000000000000000000000000000000000000000000000000000000600052603260045260246000fd5b9060005260206000200160009054906101000a900473ffffffffffffffffffffffffffffffffffffffff1673ffffffffffffffffffffffffffffffffffffffff166314034bd26040518163ffffffff1660e01b8152600401600060405180830381600087803b1580156200032957600080fd5b505af11580156200033e573d6000803e3d6000fd5b5050505060036000815480929190620003579062000fc5565b919050555050565b600181815481106200037057600080fd5b906000526020600020016000915054906101000a900473ffffffffffffffffffffffffffffffffffffffff1681565b60035481565b620003af62000b80565b73ffffffffffffffffffffffffffffffffffffffff16620003cf62000633565b73ffffffffffffffffffffffffffffffffffffffff161462000428576040517f08c379a00000000000000000000000000000000000000000000000000000000081526004016200041f9062000e08565b60405180910390fd5b6001818154811062000463577f4e487b7100000000000000000000000000000000000000000000000000000000600052603260045260246000fd5b9060005260206000200160009054906101000a900473ffffffffffffffffffffffffffffffffffffffff1673ffffffffffffffffffffffffffffffffffffffff1663a30a24746040518163ffffffff1660e01b8152600401600060405180830381600087803b158015620004d657600080fd5b505af1158015620004eb573d6000803e3d6000fd5b5050505050565b620004fc62000b80565b73ffffffffffffffffffffffffffffffffffffffff166200051c62000633565b73ffffffffffffffffffffffffffffffffffffffff161462000575576040517f08c379a00000000000000000000000000000000000000000000000000000000081526004016200056c9062000e08565b60405180910390fd5b600073ffffffffffffffffffffffffffffffffffffffff1660008054906101000a900473ffffffffffffffffffffffffffffffffffffffff1673ffffffffffffffffffffffffffffffffffffffff167f8be0079c531659141344cd1fd0a4f28419497f9722a3daafe3b4186f6b6457e060405160405180910390a360008060006101000a81548173ffffffffffffffffffffffffffffffffffffffff021916908373ffffffffffffffffffffffffffffffffffffffff160217905550565b60008060009054906101000a900473ffffffffffffffffffffffffffffffffffffffff16905090565b6200066662000b80565b73ffffffffffffffffffffffffffffffffffffffff166200068662000633565b73ffffffffffffffffffffffffffffffffffffffff1614620006df576040517f08c379a0000000000000000000000000000000000000000000000000000000008152600401620006d69062000e08565b60405180910390fd5b6002546003541062000728576040517f08c379a00000000000000000000000000000000000000000000000000000000081526004016200071f9062000de6565b60405180910390fd5b600073ffffffffffffffffffffffffffffffffffffffff168373ffffffffffffffffffffffffffffffffffffffff1614156200079b576040517f08c379a0000000000000000000000000000000000000000000000000000000008152600401620007929062000e2a565b60405180910390fd5b60008111620007e1576040517f08c379a0000000000000000000000000000000000000000000000000000000008152600401620007d89062000dc4565b60405180910390fd5b6000600180549050848484604051620007fa9062000b88565b62000809949392919062000ec6565b604051809103906000f08015801562000826573d6000803e3d6000fd5b5090506001819080600181540180825580915050600190039060005260206000200160009091909190916101000a81548173ffffffffffffffffffffffffffffffffffffffff021916908373ffffffffffffffffffffffffffffffffffffffff16021790555060036000815480929190620008a19062000ff4565b91905055507f3c1be61d2c51c4d0b7ab89a532c003cc156d5ff9f3976ffbdb02a2ad3df8f07460018080549050620008da919062000f24565b82868686604051620008f195949392919062000e69565b60405180910390a150505050565b60025481565b6200090f62000b80565b73ffffffffffffffffffffffffffffffffffffffff166200092f62000633565b73ffffffffffffffffffffffffffffffffffffffff161462000988576040517f08c379a00000000000000000000000000000000000000000000000000000000081526004016200097f9062000e08565b60405180910390fd5b806002819055507f8e6f007272e97e755b912180c00307fc61036f18f1cf93e60f14774e3c41d9a7600254604051620009c2919062000e4c565b60405180910390a150565b620009d762000b80565b73ffffffffffffffffffffffffffffffffffffffff16620009f762000633565b73ffffffffffffffffffffffffffffffffffffffff161462000a50576040517f08c379a000000000000000000000000000000000000000000000000000000000815260040162000a479062000e08565b60405180910390fd5b600073ffffffffffffffffffffffffffffffffffffffff168173ffffffffffffffffffffffffffffffffffffffff16141562000ac3576040517f08c379a000000000000000000000000000000000000000000000000000000000815260040162000aba9062000da2565b60405180910390fd5b8073ffffffffffffffffffffffffffffffffffffffff1660008054906101000a900473ffffffffffffffffffffffffffffffffffffffff1673ffffffffffffffffffffffffffffffffffffffff167f8be0079c531659141344cd1fd0a4f28419497f9722a3daafe3b4186f6b6457e060405160405180910390a3806000806101000a81548173ffffffffffffffffffffffffffffffffffffffff021916908373ffffffffffffffffffffffffffffffffffffffff16021790555050565b600033905090565b611dd180620011bf83390190565b60008135905062000ba7816200118a565b92915050565b60008135905062000bbe81620011a4565b92915050565b60006020828403121562000bd757600080fd5b600062000be78482850162000b96565b91505092915050565b60008060006060848603121562000c0657600080fd5b600062000c168682870162000b96565b935050602062000c298682870162000bad565b925050604062000c3c8682870162000bad565b9150509250925092565b60006020828403121562000c5957600080fd5b600062000c698482850162000bad565b91505092915050565b62000c7d8162000f5f565b82525050565b62000c8e8162000f9d565b82525050565b600062000ca360268362000f13565b915062000cb08262001071565b604082019050919050565b600062000cca60208362000f13565b915062000cd782620010c0565b602082019050919050565b600062000cf160348362000f13565b915062000cfe82620010e9565b604082019050919050565b600062000d1860208362000f13565b915062000d258262001138565b602082019050919050565b600062000d3f601b8362000f13565b915062000d4c8262001161565b602082019050919050565b62000d628162000f93565b82525050565b600060208201905062000d7f600083018462000c72565b92915050565b600060208201905062000d9c600083018462000c83565b92915050565b6000602082019050818103600083015262000dbd8162000c94565b9050919050565b6000602082019050818103600083015262000ddf8162000cbb565b9050919050565b6000602082019050818103600083015262000e018162000ce2565b9050919050565b6000602082019050818103600083015262000e238162000d09565b9050919050565b6000602082019050818103600083015262000e458162000d30565b9050919050565b600060208201905062000e63600083018462000d57565b92915050565b600060a08201905062000e80600083018862000d57565b62000e8f602083018762000c72565b62000e9e604083018662000c72565b62000ead606083018562000d57565b62000ebc608083018462000d57565b9695505050505050565b600060808201905062000edd600083018762000d57565b62000eec602083018662000c72565b62000efb604083018562000d57565b62000f0a606083018462000d57565b95945050505050565b600082825260208201905092915050565b600062000f318262000f93565b915062000f3e8362000f93565b92508282101562000f545762000f5362001042565b5b828203905092915050565b600062000f6c8262000f73565b9050919050565b600073ffffffffffffffffffffffffffffffffffffffff82169050919050565b6000819050919050565b600062000faa8262000fb1565b9050919050565b600062000fbe8262000f73565b9050919050565b600062000fd28262000f93565b9150600082141562000fe95762000fe862001042565b5b600182039050919050565b6000620010018262000f93565b91507fffffffffffffffffffffffffffffffffffffffffffffffffffffffffffffffff82141562001037576200103662001042565b5b600182019050919050565b7f4e487b7100000000000000000000000000000000000000000000000000000000600052601160045260246000fd5b7f4f776e61626c653a206e6577206f776e657220697320746865207a65726f206160008201527f6464726573730000000000000000000000000000000000000000000000000000602082015250565b7f412076616c6964207469636b6574207072696365206973207265717569726564600082015250565b7f4d6178696d756d206f6620616374697665206c6f74746572696573206861732060008201527f616c7265616479206265656e2072656163686564000000000000000000000000602082015250565b7f4f776e61626c653a2063616c6c6572206973206e6f7420746865206f776e6572600082015250565b7f412076616c696420616464726573732069732072657175697265640000000000600082015250565b620011958162000f5f565b8114620011a157600080fd5b50565b620011af8162000f93565b8114620011bb57600080fd5b5056fe60806040523480156200001157600080fd5b5060405162001dd138038062001dd18339818101604052810190620000379190620001dc565b600062000049620001a660201b60201c565b9050806000806101000a81548173ffffffffffffffffffffffffffffffffffffffff021916908373ffffffffffffffffffffffffffffffffffffffff1602179055508073ffffffffffffffffffffffffffffffffffffffff16600073ffffffffffffffffffffffffffffffffffffffff167f8be0079c531659141344cd1fd0a4f28419497f9722a3daafe3b4186f6b6457e060405160405180910390a350836001819055508060028190555082600460000160006101000a81548173ffffffffffffffffffffffffffffffffffffffff021916908373ffffffffffffffffffffffffffffffffffffffff160217905550816004600101819055506000600860006101000a81548160ff0219169083600281111562000190577f4e487b7100000000000000000000000000000000000000000000000000000000600052602160045260246000fd5b02179055504260038190555050505050620002ba565b600033905090565b600081519050620001bf8162000286565b92915050565b600081519050620001d681620002a0565b92915050565b60008060008060808587031215620001f357600080fd5b60006200020387828801620001c5565b94505060206200021687828801620001ae565b93505060406200022987828801620001c5565b92505060606200023c87828801620001c5565b91505092959194509250565b600062000255826200025c565b9050919050565b600073ffffffffffffffffffffffffffffffffffffffff82169050919050565b6000819050919050565b620002918162000248565b81146200029d57600080fd5b50565b620002ab816200027c565b8114620002b757600080fd5b50565b611b0780620002ca6000396000f3fe6080604052600436106100fe5760003560e01c80638da5cb5b11610095578063dfbf53ae11610064578063dfbf53ae146102bb578063e580f47b146102e6578063f2fde38b14610311578063f71d96cb1461033a578063fc22389a14610377576100fe565b80638da5cb5b14610211578063a30a24741461023c578063bb6acfc614610253578063c19d93fb14610290576100fe565b80632f366637116100d15780632f3666371461019b57806347ccca02146101b75780634a1e0a29146101e3578063715018a6146101fa576100fe565b806306e8337f1461010357806312065fe01461012e5780631209b1f61461015957806314034bd214610184575b600080fd5b34801561010f57600080fd5b506101186103a0565b6040516101259190611601565b60405180910390f35b34801561013a57600080fd5b506101436103ad565b6040516101509190611601565b60405180910390f35b34801561016557600080fd5b5061016e6103b5565b60405161017b9190611601565b60405180910390f35b34801561019057600080fd5b506101996103bb565b005b6101b560048036038101906101b091906112ae565b61067a565b005b3480156101c357600080fd5b506101cc6108b8565b6040516101da92919061149d565b60405180910390f35b3480156101ef57600080fd5b506101f86108ea565b005b34801561020657600080fd5b5061020f610ab5565b005b34801561021d57600080fd5b50610226610bef565b6040516102339190611482565b60405180910390f35b34801561024857600080fd5b50610251610c18565b005b34801561025f57600080fd5b5061027a60048036038101906102759190611285565b610da9565b6040516102879190611601565b60405180910390f35b34801561029c57600080fd5b506102a5610df2565b6040516102b291906114c6565b60405180910390f35b3480156102c757600080fd5b506102d0610e05565b6040516102dd9190611482565b60405180910390f35b3480156102f257600080fd5b506102fb610e2b565b6040516103089190611601565b60405180910390f35b34801561031d57600080fd5b5061033860048036038101906103339190611285565b610e31565b005b34801561034657600080fd5b50610361600480360381019061035c91906112ae565b610fda565b60405161036e9190611482565b60405180910390f35b34801561038357600080fd5b5061039e600480360381019061039991906112ae565b611019565b005b6000600780549050905090565b600047905090565b60025481565b6103c3611253565b73ffffffffffffffffffffffffffffffffffffffff166103e1610bef565b73ffffffffffffffffffffffffffffffffffffffff1614610437576040517f08c379a000000000000000000000000000000000000000000000000000000000815260040161042e90611581565b60405180910390fd5b600280811115610470577f4e487b7100000000000000000000000000000000000000000000000000000000600052602160045260246000fd5b600860009054906101000a900460ff1660028111156104b8577f4e487b7100000000000000000000000000000000000000000000000000000000600052602160045260246000fd5b14156104f9576040517f08c379a00000000000000000000000000000000000000000000000000000000081526004016104f0906114e1565b60405180910390fd5b600060078054905011610541576040517f08c379a000000000000000000000000000000000000000000000000000000000815260040161053890611521565b60405180910390fd5b6000600780549050424460405160200161055c929190611456565b6040516020818303038152906040528051906020012060001c61057f91906117ee565b9050600781815481106105bb577f4e487b7100000000000000000000000000000000000000000000000000000000600052603260045260246000fd5b9060005260206000200160009054906101000a900473ffffffffffffffffffffffffffffffffffffffff16600860016101000a81548173ffffffffffffffffffffffffffffffffffffffff021916908373ffffffffffffffffffffffffffffffffffffffff1602179055506002600860006101000a81548160ff02191690836002811115610672577f4e487b7100000000000000000000000000000000000000000000000000000000600052602160045260246000fd5b021790555050565b600060028111156106b4577f4e487b7100000000000000000000000000000000000000000000000000000000600052602160045260246000fd5b600860009054906101000a900460ff1660028111156106fc577f4e487b7100000000000000000000000000000000000000000000000000000000600052602160045260246000fd5b1461073c576040517f08c379a000000000000000000000000000000000000000000000000000000000815260040161073390611561565b60405180910390fd5b8060025461074a91906116ac565b341461078b576040517f08c379a0000000000000000000000000000000000000000000000000000000008152600401610782906115a1565b60405180910390fd5b80600660003373ffffffffffffffffffffffffffffffffffffffff1673ffffffffffffffffffffffffffffffffffffffff16815260200190815260200160002060008282546107da9190611656565b9250508190555060005b81811015610862576007339080600181540180825580915050600190039060005260206000200160009091909190916101000a81548173ffffffffffffffffffffffffffffffffffffffff021916908373ffffffffffffffffffffffffffffffffffffffff160217905550808061085a9061179b565b9150506107e4565b503373ffffffffffffffffffffffffffffffffffffffff167f2fe7f3fce87dc8184aed61d2307d6f46c968decd48a64b99c3d961a4c8d9b7bd600154836040516108ad92919061161c565b60405180910390a250565b60048060000160009054906101000a900473ffffffffffffffffffffffffffffffffffffffff16908060010154905082565b600280811115610923577f4e487b7100000000000000000000000000000000000000000000000000000000600052602160045260246000fd5b600860009054906101000a900460ff16600281111561096b577f4e487b7100000000000000000000000000000000000000000000000000000000600052602160045260246000fd5b146109ab576040517f08c379a00000000000000000000000000000000000000000000000000000000081526004016109a290611541565b60405180910390fd5b600660003373ffffffffffffffffffffffffffffffffffffffff1673ffffffffffffffffffffffffffffffffffffffff16815260200190815260200160002054471015610a2d576040517f08c379a0000000000000000000000000000000000000000000000000000000008152600401610a24906115c1565b60405180910390fd5b3373ffffffffffffffffffffffffffffffffffffffff166108fc600660003373ffffffffffffffffffffffffffffffffffffffff1673ffffffffffffffffffffffffffffffffffffffff168152602001908152602001600020549081150290604051600060405180830381858888f19350505050158015610ab2573d6000803e3d6000fd5b50565b610abd611253565b73ffffffffffffffffffffffffffffffffffffffff16610adb610bef565b73ffffffffffffffffffffffffffffffffffffffff1614610b31576040517f08c379a0000000000000000000000000000000000000000000000000000000008152600401610b2890611581565b60405180910390fd5b600073ffffffffffffffffffffffffffffffffffffffff1660008054906101000a900473ffffffffffffffffffffffffffffffffffffffff1673ffffffffffffffffffffffffffffffffffffffff167f8be0079c531659141344cd1fd0a4f28419497f9722a3daafe3b4186f6b6457e060405160405180910390a360008060006101000a81548173ffffffffffffffffffffffffffffffffffffffff021916908373ffffffffffffffffffffffffffffffffffffffff160217905550565b60008060009054906101000a900473ffffffffffffffffffffffffffffffffffffffff16905090565b610c20611253565b73ffffffffffffffffffffffffffffffffffffffff16610c3e610bef565b73ffffffffffffffffffffffffffffffffffffffff1614610c94576040517f08c379a0000000000000000000000000000000000000000000000000000000008152600401610c8b90611581565b60405180910390fd5b60006002811115610cce577f4e487b7100000000000000000000000000000000000000000000000000000000600052602160045260246000fd5b600860009054906101000a900460ff166002811115610d16577f4e487b7100000000000000000000000000000000000000000000000000000000600052602160045260246000fd5b14610d56576040517f08c379a0000000000000000000000000000000000000000000000000000000008152600401610d4d906114e1565b60405180910390fd5b6001600860006101000a81548160ff02191690836002811115610da2577f4e487b7100000000000000000000000000000000000000000000000000000000600052602160045260246000fd5b0217905550565b6000600660008373ffffffffffffffffffffffffffffffffffffffff1673ffffffffffffffffffffffffffffffffffffffff168152602001908152602001600020549050919050565b600860009054906101000a900460ff1681565b600860019054906101000a900473ffffffffffffffffffffffffffffffffffffffff1681565b60015481565b610e39611253565b73ffffffffffffffffffffffffffffffffffffffff16610e57610bef565b73ffffffffffffffffffffffffffffffffffffffff1614610ead576040517f08c379a0000000000000000000000000000000000000000000000000000000008152600401610ea490611581565b60405180910390fd5b600073ffffffffffffffffffffffffffffffffffffffff168173ffffffffffffffffffffffffffffffffffffffff161415610f1d576040517f08c379a0000000000000000000000000000000000000000000000000000000008152600401610f1490611501565b60405180910390fd5b8073ffffffffffffffffffffffffffffffffffffffff1660008054906101000a900473ffffffffffffffffffffffffffffffffffffffff1673ffffffffffffffffffffffffffffffffffffffff167f8be0079c531659141344cd1fd0a4f28419497f9722a3daafe3b4186f6b6457e060405160405180910390a3806000806101000a81548173ffffffffffffffffffffffffffffffffffffffff021916908373ffffffffffffffffffffffffffffffffffffffff16021790555050565b60078181548110610fea57600080fd5b906000526020600020016000915054906101000a900473ffffffffffffffffffffffffffffffffffffffff1681565b60006002811115611053577f4e487b7100000000000000000000000000000000000000000000000000000000600052602160045260246000fd5b600860009054906101000a900460ff16600281111561109b577f4e487b7100000000000000000000000000000000000000000000000000000000600052602160045260246000fd5b146110db576040517f08c379a00000000000000000000000000000000000000000000000000000000081526004016110d290611561565b60405180910390fd5b80600660003373ffffffffffffffffffffffffffffffffffffffff1673ffffffffffffffffffffffffffffffffffffffff16815260200190815260200160002054101561115d576040517f08c379a0000000000000000000000000000000000000000000000000000000008152600401611154906115e1565b60405180910390fd5b60008160025461116d91906116ac565b9050804710156111b2576040517f08c379a00000000000000000000000000000000000000000000000000000000081526004016111a9906115c1565b60405180910390fd5b3373ffffffffffffffffffffffffffffffffffffffff166108fc829081150290604051600060405180830381858888f193505050501580156111f8573d6000803e3d6000fd5b5081600660003373ffffffffffffffffffffffffffffffffffffffff1673ffffffffffffffffffffffffffffffffffffffff16815260200190815260200160002060008282546112489190611706565b925050819055505050565b600033905090565b60008135905061126a81611aa3565b92915050565b60008135905061127f81611aba565b92915050565b60006020828403121561129757600080fd5b60006112a58482850161125b565b91505092915050565b6000602082840312156112c057600080fd5b60006112ce84828501611270565b91505092915050565b6112e08161173a565b82525050565b6112ef81611789565b82525050565b6000611302601783611645565b915061130d826118ac565b602082019050919050565b6000611325602683611645565b9150611330826118d5565b604082019050919050565b6000611348602083611645565b915061135382611924565b602082019050919050565b600061136b601983611645565b91506113768261194d565b602082019050919050565b600061138e602283611645565b915061139982611976565b604082019050919050565b60006113b1602083611645565b91506113bc826119c5565b602082019050919050565b60006113d4602383611645565b91506113df826119ee565b604082019050919050565b60006113f7601f83611645565b915061140282611a3d565b602082019050919050565b600061141a601e83611645565b915061142582611a66565b602082019050919050565b6114398161177f565b82525050565b61145061144b8261177f565b6117e4565b82525050565b6000611462828561143f565b602082019150611472828461143f565b6020820191508190509392505050565b600060208201905061149760008301846112d7565b92915050565b60006040820190506114b260008301856112d7565b6114bf6020830184611430565b9392505050565b60006020820190506114db60008301846112e6565b92915050565b600060208201905081810360008301526114fa816112f5565b9050919050565b6000602082019050818103600083015261151a81611318565b9050919050565b6000602082019050818103600083015261153a8161133b565b9050919050565b6000602082019050818103600083015261155a8161135e565b9050919050565b6000602082019050818103600083015261157a81611381565b9050919050565b6000602082019050818103600083015261159a816113a4565b9050919050565b600060208201905081810360008301526115ba816113c7565b9050919050565b600060208201905081810360008301526115da816113ea565b9050919050565b600060208201905081810360008301526115fa8161140d565b9050919050565b60006020820190506116166000830184611430565b92915050565b60006040820190506116316000830185611430565b61163e6020830184611430565b9392505050565b600082825260208201905092915050565b60006116618261177f565b915061166c8361177f565b9250827fffffffffffffffffffffffffffffffffffffffffffffffffffffffffffffffff038211156116a1576116a061181f565b5b828201905092915050565b60006116b78261177f565b91506116c28361177f565b9250817fffffffffffffffffffffffffffffffffffffffffffffffffffffffffffffffff04831182151516156116fb576116fa61181f565b5b828202905092915050565b60006117118261177f565b915061171c8361177f565b92508282101561172f5761172e61181f565b5b828203905092915050565b60006117458261175f565b9050919050565b600081905061175a82611a8f565b919050565b600073ffffffffffffffffffffffffffffffffffffffff82169050919050565b6000819050919050565b60006117948261174c565b9050919050565b60006117a68261177f565b91507fffffffffffffffffffffffffffffffffffffffffffffffffffffffffffffffff8214156117d9576117d861181f565b5b600182019050919050565b6000819050919050565b60006117f98261177f565b91506118048361177f565b9250826118145761181361184e565b5b828206905092915050565b7f4e487b7100000000000000000000000000000000000000000000000000000000600052601160045260246000fd5b7f4e487b7100000000000000000000000000000000000000000000000000000000600052601260045260246000fd5b7f4e487b7100000000000000000000000000000000000000000000000000000000600052602160045260246000fd5b7f546865206c6f7474657279206973206e6f74206f70656e000000000000000000600082015250565b7f4f776e61626c653a206e6577206f776e657220697320746865207a65726f206160008201527f6464726573730000000000000000000000000000000000000000000000000000602082015250565b7f4174206c65617374206f6e6520706c61796572206973206e6563657373617279600082015250565b7f546865206c6f7474657279206973206e6f7420636c6f73656400000000000000600082015250565b7f546865206c6f7474657279206f70656e20706572696f642077617320636c6f7360008201527f6564000000000000000000000000000000000000000000000000000000000000602082015250565b7f4f776e61626c653a2063616c6c6572206973206e6f7420746865206f776e6572600082015250565b7f416d6f756e742073656e7420697320646966666572656e74207468616e20707260008201527f6963650000000000000000000000000000000000000000000000000000000000602082015250565b7f4e6f7420656e6f756768206d6f6e657920696e207468652062616c616e636500600082015250565b7f596f7520646f206e6f74206861766520656e6f756768207469636b6574730000600082015250565b60038110611aa057611a9f61187d565b5b50565b611aac8161173a565b8114611ab757600080fd5b50565b611ac38161177f565b8114611ace57600080fd5b5056fea26469706673582212200b92eac2c22cd34457d2d198052fba58290118841ec165e276b5ace6428fe66964736f6c63430008030033a26469706673582212208515dc32a26c99ac36941a3654eaecc98d375e3da5649815a083bcad5df4ff9d64736f6c63430008030033",
  "linkReferences": {},
  "deployedLinkReferences": {}
}