{
  "_format": "hh-sol-artifact-1",
  "contractName": "LotteryFactory",
  "sourceName": "contracts/LotteryFactory.sol",
  "abi": [
    {
      "inputs": [],
      "stateMutability": "nonpayable",
      "type": "constructor"
    },
    {
      "anonymous": false,
      "inputs": [
        {
          "indexed": false,
          "internalType": "uint256",
          "name": "lotteryId",
          "type": "uint256"
        },
        {
          "indexed": false,
          "internalType": "address",
          "name": "lotteryAddress",
          "type": "address"
        },
        {
          "indexed": false,
          "internalType": "address",
          "name": "nftAddress",
          "type": "address"
        },
        {
          "indexed": false,
          "internalType": "uint256",
          "name": "nftIndex",
          "type": "uint256"
        },
        {
          "indexed": false,
          "internalType": "uint256",
          "name": "ticketPrice",
          "type": "uint256"
        },
        {
          "indexed": false,
          "internalType": "uint256",
          "name": "created",
          "type": "uint256"
        }
      ],
      "name": "LotteryCreated",
      "type": "event"
    },
    {
      "anonymous": false,
      "inputs": [
        {
          "indexed": true,
          "internalType": "address",
          "name": "previousOwner",
          "type": "address"
        },
        {
          "indexed": true,
          "internalType": "address",
          "name": "newOwner",
          "type": "address"
        }
      ],
      "name": "OwnershipTransferred",
      "type": "event"
    },
    {
      "inputs": [
        {
          "internalType": "address",
          "name": "_nftAddress",
          "type": "address"
        },
        {
          "internalType": "uint256",
          "name": "_nftIndex",
          "type": "uint256"
        },
        {
          "internalType": "uint256",
          "name": "_ticketPrice",
          "type": "uint256"
        }
      ],
      "name": "createLottery",
      "outputs": [],
      "stateMutability": "nonpayable",
      "type": "function"
    },
    {
      "inputs": [
        {
          "internalType": "uint256",
          "name": "_lotteryId",
          "type": "uint256"
        },
        {
          "internalType": "uint256",
          "name": "_amount",
          "type": "uint256"
        }
      ],
      "name": "decreaseTotalBalance",
      "outputs": [],
      "stateMutability": "nonpayable",
      "type": "function"
    },
    {
      "inputs": [
        {
          "internalType": "uint256",
          "name": "_lotteryId",
          "type": "uint256"
        },
        {
          "internalType": "uint256",
          "name": "_amount",
          "type": "uint256"
        }
      ],
      "name": "increaseTotalBalance",
      "outputs": [],
      "stateMutability": "nonpayable",
      "type": "function"
    },
    {
      "inputs": [
        {
          "internalType": "uint256",
          "name": "",
          "type": "uint256"
        }
      ],
      "name": "lotteries",
      "outputs": [
        {
          "internalType": "contract Lottery",
          "name": "",
          "type": "address"
        }
      ],
      "stateMutability": "view",
      "type": "function"
    },
    {
      "inputs": [],
      "name": "numberOfActiveLotteries",
      "outputs": [
        {
          "internalType": "uint256",
          "name": "",
          "type": "uint256"
        }
      ],
      "stateMutability": "view",
      "type": "function"
    },
    {
      "inputs": [],
      "name": "owner",
      "outputs": [
        {
          "internalType": "address",
          "name": "",
          "type": "address"
        }
      ],
      "stateMutability": "view",
      "type": "function"
    },
    {
      "inputs": [],
      "name": "renounceOwnership",
      "outputs": [],
      "stateMutability": "nonpayable",
      "type": "function"
    },
    {
      "inputs": [],
      "name": "totalBalance",
      "outputs": [
        {
          "internalType": "uint256",
          "name": "",
          "type": "uint256"
        }
      ],
      "stateMutability": "view",
      "type": "function"
    },
    {
      "inputs": [
        {
          "internalType": "address",
          "name": "newOwner",
          "type": "address"
        }
      ],
      "name": "transferOwnership",
      "outputs": [],
      "stateMutability": "nonpayable",
      "type": "function"
    }
  ],
  "bytecode": "0x608060405234801561001057600080fd5b5060006100216100d460201b60201c565b9050806000806101000a81548173ffffffffffffffffffffffffffffffffffffffff021916908373ffffffffffffffffffffffffffffffffffffffff1602179055508073ffffffffffffffffffffffffffffffffffffffff16600073ffffffffffffffffffffffffffffffffffffffff167f8be0079c531659141344cd1fd0a4f28419497f9722a3daafe3b4186f6b6457e060405160405180910390a350600060028190555060006003819055506100dc565b600033905090565b612887806100eb6000396000f3fe60806040523480156200001157600080fd5b5060043610620000a05760003560e01c80638da5cb5b116200006f5780638da5cb5b1462000129578063a02b45b7146200014b578063a0b47ab6146200016b578063ad7a672f146200018b578063f2fde38b14620001ad57620000a0565b80630445481114620000a55780631398e07614620000c55780631b3896bc14620000fb578063715018a6146200011d575b600080fd5b620000c36004803603810190620000bd9190620009f3565b620001cd565b005b620000e36004803603810190620000dd9190620009c7565b620002c2565b604051620000f2919062000c1a565b60405180910390f35b6200010562000302565b60405162000114919062000ce1565b60405180910390f35b6200012762000308565b005b6200013362000449565b60405162000142919062000bfd565b60405180910390f35b62000169600480360381019062000163919062000971565b62000472565b005b620001896004803603810190620001839190620009f3565b62000653565b005b6200019562000748565b604051620001a4919062000ce1565b60405180910390f35b620001cb6004803603810190620001c5919062000945565b6200074e565b005b6001828154811062000208577f4e487b7100000000000000000000000000000000000000000000000000000000600052603260045260246000fd5b9060005260206000200160009054906101000a900473ffffffffffffffffffffffffffffffffffffffff1673ffffffffffffffffffffffffffffffffffffffff163373ffffffffffffffffffffffffffffffffffffffff1614620002a3576040517f08c379a00000000000000000000000000000000000000000000000000000000081526004016200029a9062000c9d565b60405180910390fd5b8060036000828254620002b7919062000dd9565b925050819055505050565b60018181548110620002d357600080fd5b906000526020600020016000915054906101000a900473ffffffffffffffffffffffffffffffffffffffff1681565b60025481565b6200031262000901565b73ffffffffffffffffffffffffffffffffffffffff166200033262000449565b73ffffffffffffffffffffffffffffffffffffffff16146200038b576040517f08c379a0000000000000000000000000000000000000000000000000000000008152600401620003829062000c7b565b60405180910390fd5b600073ffffffffffffffffffffffffffffffffffffffff1660008054906101000a900473ffffffffffffffffffffffffffffffffffffffff1673ffffffffffffffffffffffffffffffffffffffff167f8be0079c531659141344cd1fd0a4f28419497f9722a3daafe3b4186f6b6457e060405160405180910390a360008060006101000a81548173ffffffffffffffffffffffffffffffffffffffff021916908373ffffffffffffffffffffffffffffffffffffffff160217905550565b60008060009054906101000a900473ffffffffffffffffffffffffffffffffffffffff16905090565b600073ffffffffffffffffffffffffffffffffffffffff168373ffffffffffffffffffffffffffffffffffffffff161415620004e5576040517f08c379a0000000000000000000000000000000000000000000000000000000008152600401620004dc9062000cbf565b60405180910390fd5b600081116200052b576040517f08c379a0000000000000000000000000000000000000000000000000000000008152600401620005229062000c59565b60405180910390fd5b60004290506000600180549050858585856040516200054a9062000909565b6200055a95949392919062000d6b565b604051809103906000f08015801562000577573d6000803e3d6000fd5b5090506001819080600181540180825580915050600190039060005260206000200160009091909190916101000a81548173ffffffffffffffffffffffffffffffffffffffff021916908373ffffffffffffffffffffffffffffffffffffffff16021790555060026000815480929190620005f29062000ed7565b91905055507ffb9a778b8b64f862b0ca76ea6424074a945f5f8962a23c4bd1c701fd1b95187d600180805490506200062b919062000e36565b8287878787604051620006449695949392919062000cfe565b60405180910390a15050505050565b600182815481106200068e577f4e487b7100000000000000000000000000000000000000000000000000000000600052603260045260246000fd5b9060005260206000200160009054906101000a900473ffffffffffffffffffffffffffffffffffffffff1673ffffffffffffffffffffffffffffffffffffffff163373ffffffffffffffffffffffffffffffffffffffff161462000729576040517f08c379a0000000000000000000000000000000000000000000000000000000008152600401620007209062000c9d565b60405180910390fd5b80600360008282546200073d919062000e36565b925050819055505050565b60035481565b6200075862000901565b73ffffffffffffffffffffffffffffffffffffffff166200077862000449565b73ffffffffffffffffffffffffffffffffffffffff1614620007d1576040517f08c379a0000000000000000000000000000000000000000000000000000000008152600401620007c89062000c7b565b60405180910390fd5b600073ffffffffffffffffffffffffffffffffffffffff168173ffffffffffffffffffffffffffffffffffffffff16141562000844576040517f08c379a00000000000000000000000000000000000000000000000000000000081526004016200083b9062000c37565b60405180910390fd5b8073ffffffffffffffffffffffffffffffffffffffff1660008054906101000a900473ffffffffffffffffffffffffffffffffffffffff1673ffffffffffffffffffffffffffffffffffffffff167f8be0079c531659141344cd1fd0a4f28419497f9722a3daafe3b4186f6b6457e060405160405180910390a3806000806101000a81548173ffffffffffffffffffffffffffffffffffffffff021916908373ffffffffffffffffffffffffffffffffffffffff16021790555050565b600033905090565b6118c98062000f8983390190565b600081359050620009288162000f54565b92915050565b6000813590506200093f8162000f6e565b92915050565b6000602082840312156200095857600080fd5b6000620009688482850162000917565b91505092915050565b6000806000606084860312156200098757600080fd5b6000620009978682870162000917565b9350506020620009aa868287016200092e565b9250506040620009bd868287016200092e565b9150509250925092565b600060208284031215620009da57600080fd5b6000620009ea848285016200092e565b91505092915050565b6000806040838503121562000a0757600080fd5b600062000a17858286016200092e565b925050602062000a2a858286016200092e565b9150509250929050565b62000a3f8162000e71565b82525050565b62000a508162000eaf565b82525050565b600062000a6560268362000dc8565b91507f4f776e61626c653a206e6577206f776e657220697320746865207a65726f206160008301527f64647265737300000000000000000000000000000000000000000000000000006020830152604082019050919050565b600062000acd60208362000dc8565b91507f412076616c6964207469636b65742070726963652069732072657175697265646000830152602082019050919050565b600062000b0f60208362000dc8565b91507f4f776e61626c653a2063616c6c6572206973206e6f7420746865206f776e65726000830152602082019050919050565b600062000b51603b8362000dc8565b91507f54686973206d6574686f64206d7573742062652063616c6c6564207468726f7560008301527f67682061206c6f7474657279206368696c6420636f6e747261637400000000006020830152604082019050919050565b600062000bb9601b8362000dc8565b91507f412076616c6964206164647265737320697320726571756972656400000000006000830152602082019050919050565b62000bf78162000ea5565b82525050565b600060208201905062000c14600083018462000a34565b92915050565b600060208201905062000c31600083018462000a45565b92915050565b6000602082019050818103600083015262000c528162000a56565b9050919050565b6000602082019050818103600083015262000c748162000abe565b9050919050565b6000602082019050818103600083015262000c968162000b00565b9050919050565b6000602082019050818103600083015262000cb88162000b42565b9050919050565b6000602082019050818103600083015262000cda8162000baa565b9050919050565b600060208201905062000cf8600083018462000bec565b92915050565b600060c08201905062000d15600083018962000bec565b62000d24602083018862000a34565b62000d33604083018762000a34565b62000d42606083018662000bec565b62000d51608083018562000bec565b62000d6060a083018462000bec565b979650505050505050565b600060a08201905062000d82600083018862000bec565b62000d91602083018762000a34565b62000da0604083018662000bec565b62000daf606083018562000bec565b62000dbe608083018462000bec565b9695505050505050565b600082825260208201905092915050565b600062000de68262000ea5565b915062000df38362000ea5565b9250827fffffffffffffffffffffffffffffffffffffffffffffffffffffffffffffffff0382111562000e2b5762000e2a62000f25565b5b828201905092915050565b600062000e438262000ea5565b915062000e508362000ea5565b92508282101562000e665762000e6562000f25565b5b828203905092915050565b600062000e7e8262000e85565b9050919050565b600073ffffffffffffffffffffffffffffffffffffffff82169050919050565b6000819050919050565b600062000ebc8262000ec3565b9050919050565b600062000ed08262000e85565b9050919050565b600062000ee48262000ea5565b91507fffffffffffffffffffffffffffffffffffffffffffffffffffffffffffffffff82141562000f1a5762000f1962000f25565b5b600182019050919050565b7f4e487b7100000000000000000000000000000000000000000000000000000000600052601160045260246000fd5b62000f5f8162000e71565b811462000f6b57600080fd5b50565b62000f798162000ea5565b811462000f8557600080fd5b5056fe60806040523480156200001157600080fd5b50604051620018c9380380620018c983398181016040528101906200003791906200025e565b600062000049620001ff60201b60201c565b9050806000806101000a81548173ffffffffffffffffffffffffffffffffffffffff021916908373ffffffffffffffffffffffffffffffffffffffff1602179055508073ffffffffffffffffffffffffffffffffffffffff16600073ffffffffffffffffffffffffffffffffffffffff167f8be0079c531659141344cd1fd0a4f28419497f9722a3daafe3b4186f6b6457e060405160405180910390a350620000f76200020760201b60201c565b600160006101000a81548173ffffffffffffffffffffffffffffffffffffffff021916908373ffffffffffffffffffffffffffffffffffffffff160217905550846002819055508160038190555083600560000160006101000a81548173ffffffffffffffffffffffffffffffffffffffff021916908373ffffffffffffffffffffffffffffffffffffffff160217905550826005600101819055506000600a60006101000a81548160ff02191690836002811115620001e0577f4e487b7100000000000000000000000000000000000000000000000000000000600052602160045260246000fd5b0217905550806004819055506000600881905550505050505062000352565b600033905090565b60008060009054906101000a900473ffffffffffffffffffffffffffffffffffffffff16905090565b60008151905062000241816200031e565b92915050565b600081519050620002588162000338565b92915050565b600080600080600060a086880312156200027757600080fd5b6000620002878882890162000247565b95505060206200029a8882890162000230565b9450506040620002ad8882890162000247565b9350506060620002c08882890162000247565b9250506080620002d38882890162000247565b9150509295509295909350565b6000620002ed82620002f4565b9050919050565b600073ffffffffffffffffffffffffffffffffffffffff82169050919050565b6000819050919050565b6200032981620002e0565b81146200033557600080fd5b50565b620003438162000314565b81146200034f57600080fd5b50565b61156780620003626000396000f3fe6080604052600436106100dd5760003560e01c8063bb6acfc61161007f578063e580f47b11610059578063e580f47b14610280578063f2fde38b146102ab578063f71d96cb146102d4578063fc22389a14610311576100dd565b8063bb6acfc6146101ed578063c19d93fb1461022a578063dfbf53ae14610255576100dd565b806345745c10116100bb57806345745c101461015457806347ccca021461017f578063715018a6146101ab5780638da5cb5b146101c2576100dd565b806312065fe0146100e25780631209b1f61461010d5780632f36663714610138575b600080fd5b3480156100ee57600080fd5b506100f761033a565b6040516101049190611277565b60405180910390f35b34801561011957600080fd5b50610122610342565b60405161012f9190611277565b60405180910390f35b610152600480360381019061014d9190610f10565b610348565b005b34801561016057600080fd5b50610169610632565b6040516101769190611277565b60405180910390f35b34801561018b57600080fd5b50610194610638565b6040516101a2929190611173565b60405180910390f35b3480156101b757600080fd5b506101c061066a565b005b3480156101ce57600080fd5b506101d76107a4565b6040516101e49190611158565b60405180910390f35b3480156101f957600080fd5b50610214600480360381019061020f9190610ee7565b6107cd565b6040516102219190611277565b60405180910390f35b34801561023657600080fd5b5061023f610816565b60405161024c919061119c565b60405180910390f35b34801561026157600080fd5b5061026a610829565b6040516102779190611158565b60405180910390f35b34801561028c57600080fd5b5061029561084f565b6040516102a29190611277565b60405180910390f35b3480156102b757600080fd5b506102d260048036038101906102cd9190610ee7565b610855565b005b3480156102e057600080fd5b506102fb60048036038101906102f69190610f10565b6109fe565b6040516103089190611158565b60405180910390f35b34801561031d57600080fd5b5061033860048036038101906103339190610f10565b610a3d565b005b600047905090565b60035481565b60006002811115610382577f4e487b7100000000000000000000000000000000000000000000000000000000600052602160045260246000fd5b600a60009054906101000a900460ff1660028111156103ca577f4e487b7100000000000000000000000000000000000000000000000000000000600052602160045260246000fd5b1461040a576040517f08c379a0000000000000000000000000000000000000000000000000000000008152600401610401906111d7565b60405180910390fd5b806003546104189190611359565b3414610459576040517f08c379a000000000000000000000000000000000000000000000000000000000815260040161045090611217565b60405180910390fd5b80600760003373ffffffffffffffffffffffffffffffffffffffff1673ffffffffffffffffffffffffffffffffffffffff16815260200190815260200160002060008282546104a89190611303565b9250508190555060005b81811015610530576009339080600181540180825580915050600190039060005260206000200160009091909190916101000a81548173ffffffffffffffffffffffffffffffffffffffff021916908373ffffffffffffffffffffffffffffffffffffffff160217905550808061052890611448565b9150506104b2565b5080600860008282546105439190611303565b92505081905550600160009054906101000a900473ffffffffffffffffffffffffffffffffffffffff1673ffffffffffffffffffffffffffffffffffffffff166304454811600254346040518363ffffffff1660e01b81526004016105a9929190611292565b600060405180830381600087803b1580156105c357600080fd5b505af11580156105d7573d6000803e3d6000fd5b505050503373ffffffffffffffffffffffffffffffffffffffff167fc8c5c2b0e44fb6312c0098ec42642058527713d0a1d29a5c6ccbfe34d714d41e6002548334604051610627939291906112bb565b60405180910390a250565b60085481565b60058060000160009054906101000a900473ffffffffffffffffffffffffffffffffffffffff16908060010154905082565b610672610eb5565b73ffffffffffffffffffffffffffffffffffffffff166106906107a4565b73ffffffffffffffffffffffffffffffffffffffff16146106e6576040517f08c379a00000000000000000000000000000000000000000000000000000000081526004016106dd906111f7565b60405180910390fd5b600073ffffffffffffffffffffffffffffffffffffffff1660008054906101000a900473ffffffffffffffffffffffffffffffffffffffff1673ffffffffffffffffffffffffffffffffffffffff167f8be0079c531659141344cd1fd0a4f28419497f9722a3daafe3b4186f6b6457e060405160405180910390a360008060006101000a81548173ffffffffffffffffffffffffffffffffffffffff021916908373ffffffffffffffffffffffffffffffffffffffff160217905550565b60008060009054906101000a900473ffffffffffffffffffffffffffffffffffffffff16905090565b6000600760008373ffffffffffffffffffffffffffffffffffffffff1673ffffffffffffffffffffffffffffffffffffffff168152602001908152602001600020549050919050565b600a60009054906101000a900460ff1681565b600a60019054906101000a900473ffffffffffffffffffffffffffffffffffffffff1681565b60025481565b61085d610eb5565b73ffffffffffffffffffffffffffffffffffffffff1661087b6107a4565b73ffffffffffffffffffffffffffffffffffffffff16146108d1576040517f08c379a00000000000000000000000000000000000000000000000000000000081526004016108c8906111f7565b60405180910390fd5b600073ffffffffffffffffffffffffffffffffffffffff168173ffffffffffffffffffffffffffffffffffffffff161415610941576040517f08c379a0000000000000000000000000000000000000000000000000000000008152600401610938906111b7565b60405180910390fd5b8073ffffffffffffffffffffffffffffffffffffffff1660008054906101000a900473ffffffffffffffffffffffffffffffffffffffff1673ffffffffffffffffffffffffffffffffffffffff167f8be0079c531659141344cd1fd0a4f28419497f9722a3daafe3b4186f6b6457e060405160405180910390a3806000806101000a81548173ffffffffffffffffffffffffffffffffffffffff021916908373ffffffffffffffffffffffffffffffffffffffff16021790555050565b60098181548110610a0e57600080fd5b906000526020600020016000915054906101000a900473ffffffffffffffffffffffffffffffffffffffff1681565b60006002811115610a77577f4e487b7100000000000000000000000000000000000000000000000000000000600052602160045260246000fd5b600a60009054906101000a900460ff166002811115610abf577f4e487b7100000000000000000000000000000000000000000000000000000000600052602160045260246000fd5b14610aff576040517f08c379a0000000000000000000000000000000000000000000000000000000008152600401610af6906111d7565b60405180910390fd5b80600760003373ffffffffffffffffffffffffffffffffffffffff1673ffffffffffffffffffffffffffffffffffffffff168152602001908152602001600020541015610b81576040517f08c379a0000000000000000000000000000000000000000000000000000000008152600401610b7890611257565b60405180910390fd5b600081600354610b919190611359565b905080471015610bd6576040517f08c379a0000000000000000000000000000000000000000000000000000000008152600401610bcd90611237565b60405180910390fd5b3373ffffffffffffffffffffffffffffffffffffffff166108fc829081150290604051600060405180830381858888f19350505050158015610c1c573d6000803e3d6000fd5b5081600760003373ffffffffffffffffffffffffffffffffffffffff1673ffffffffffffffffffffffffffffffffffffffff1681526020019081526020016000206000828254610c6c91906113b3565b925050819055508160086000828254610c8591906113b3565b925050819055506000805b600980549050811015610dca573373ffffffffffffffffffffffffffffffffffffffff1660098281548110610cee577f4e487b7100000000000000000000000000000000000000000000000000000000600052603260045260246000fd5b9060005260206000200160009054906101000a900473ffffffffffffffffffffffffffffffffffffffff1673ffffffffffffffffffffffffffffffffffffffff16148015610d3b57508382105b15610db75760098181548110610d7a577f4e487b7100000000000000000000000000000000000000000000000000000000600052603260045260246000fd5b9060005260206000200160006101000a81549073ffffffffffffffffffffffffffffffffffffffff0219169055600182610db49190611303565b91505b8080610dc290611448565b915050610c90565b50600160009054906101000a900473ffffffffffffffffffffffffffffffffffffffff1673ffffffffffffffffffffffffffffffffffffffff1663a0b47ab6600254846040518363ffffffff1660e01b8152600401610e2a929190611292565b600060405180830381600087803b158015610e4457600080fd5b505af1158015610e58573d6000803e3d6000fd5b505050503373ffffffffffffffffffffffffffffffffffffffff167fdb8e3aedce772b982e904cfc947914829d47da2eb7b13e8cb30a726805abdad46002548585604051610ea8939291906112bb565b60405180910390a2505050565b600033905090565b600081359050610ecc81611503565b92915050565b600081359050610ee18161151a565b92915050565b600060208284031215610ef957600080fd5b6000610f0784828501610ebd565b91505092915050565b600060208284031215610f2257600080fd5b6000610f3084828501610ed2565b91505092915050565b610f42816113e7565b82525050565b610f5181611436565b82525050565b6000610f646026836112f2565b91507f4f776e61626c653a206e6577206f776e657220697320746865207a65726f206160008301527f64647265737300000000000000000000000000000000000000000000000000006020830152604082019050919050565b6000610fca6022836112f2565b91507f546865206c6f7474657279206f70656e20706572696f642077617320636c6f7360008301527f65640000000000000000000000000000000000000000000000000000000000006020830152604082019050919050565b60006110306020836112f2565b91507f4f776e61626c653a2063616c6c6572206973206e6f7420746865206f776e65726000830152602082019050919050565b60006110706023836112f2565b91507f416d6f756e742073656e7420697320646966666572656e74207468616e20707260008301527f69636500000000000000000000000000000000000000000000000000000000006020830152604082019050919050565b60006110d6601f836112f2565b91507f4e6f7420656e6f756768206d6f6e657920696e207468652062616c616e6365006000830152602082019050919050565b6000611116601e836112f2565b91507f596f7520646f206e6f74206861766520656e6f756768207469636b65747300006000830152602082019050919050565b6111528161142c565b82525050565b600060208201905061116d6000830184610f39565b92915050565b60006040820190506111886000830185610f39565b6111956020830184611149565b9392505050565b60006020820190506111b16000830184610f48565b92915050565b600060208201905081810360008301526111d081610f57565b9050919050565b600060208201905081810360008301526111f081610fbd565b9050919050565b6000602082019050818103600083015261121081611023565b9050919050565b6000602082019050818103600083015261123081611063565b9050919050565b60006020820190508181036000830152611250816110c9565b9050919050565b6000602082019050818103600083015261127081611109565b9050919050565b600060208201905061128c6000830184611149565b92915050565b60006040820190506112a76000830185611149565b6112b46020830184611149565b9392505050565b60006060820190506112d06000830186611149565b6112dd6020830185611149565b6112ea6040830184611149565b949350505050565b600082825260208201905092915050565b600061130e8261142c565b91506113198361142c565b9250827fffffffffffffffffffffffffffffffffffffffffffffffffffffffffffffffff0382111561134e5761134d611491565b5b828201905092915050565b60006113648261142c565b915061136f8361142c565b9250817fffffffffffffffffffffffffffffffffffffffffffffffffffffffffffffffff04831182151516156113a8576113a7611491565b5b828202905092915050565b60006113be8261142c565b91506113c98361142c565b9250828210156113dc576113db611491565b5b828203905092915050565b60006113f28261140c565b9050919050565b6000819050611407826114ef565b919050565b600073ffffffffffffffffffffffffffffffffffffffff82169050919050565b6000819050919050565b6000611441826113f9565b9050919050565b60006114538261142c565b91507fffffffffffffffffffffffffffffffffffffffffffffffffffffffffffffffff82141561148657611485611491565b5b600182019050919050565b7f4e487b7100000000000000000000000000000000000000000000000000000000600052601160045260246000fd5b7f4e487b7100000000000000000000000000000000000000000000000000000000600052602160045260246000fd5b60038110611500576114ff6114c0565b5b50565b61150c816113e7565b811461151757600080fd5b50565b6115238161142c565b811461152e57600080fd5b5056fea2646970667358221220b1e7bb1a3dde52a411bd3eb35bb6f8fa21bc0bc64172cb254335add64214df9664736f6c63430008000033a2646970667358221220c5703d0988663773a63c8c810cb6d544559edd4817ea1c7865cf37c7d56e9e9c64736f6c63430008000033",
  "linkReferences": {},
  "deployedLinkReferences": {}
}