{
  "_format": "hh-sol-artifact-1",
  "contractName": "LotteryPool",
  "sourceName": "contracts/LotteryPool.sol",
  "abi": [
    {
      "inputs": [
        {
          "internalType": "uint256",
          "name": "_lotteryId",
          "type": "uint256"
        },
        {
          "internalType": "uint256",
          "name": "_lotteryPoolType",
          "type": "uint256"
        },
        {
          "internalType": "address",
          "name": "_creator",
          "type": "address"
        },
        {
          "internalType": "address",
          "name": "_nftAddress",
          "type": "address"
        },
        {
          "internalType": "uint256",
          "name": "_nftIndex",
          "type": "uint256"
        },
        {
          "internalType": "uint256",
          "name": "_ticketPrice",
          "type": "uint256"
        },
        {
          "internalType": "uint256",
          "name": "_minAmount",
          "type": "uint256"
        },
        {
          "internalType": "uint256",
          "name": "_created",
          "type": "uint256"
        }
      ],
      "stateMutability": "nonpayable",
      "type": "constructor"
    },
    {
      "anonymous": false,
      "inputs": [
        {
          "indexed": true,
          "internalType": "address",
          "name": "previousOwner",
          "type": "address"
        },
        {
          "indexed": true,
          "internalType": "address",
          "name": "newOwner",
          "type": "address"
        }
      ],
      "name": "OwnershipTransferred",
      "type": "event"
    },
    {
      "anonymous": false,
      "inputs": [
        {
          "indexed": false,
          "internalType": "uint256",
          "name": "lotteryId",
          "type": "uint256"
        },
        {
          "indexed": true,
          "internalType": "address",
          "name": "buyer",
          "type": "address"
        },
        {
          "indexed": false,
          "internalType": "uint256",
          "name": "numberOfTickets",
          "type": "uint256"
        },
        {
          "indexed": false,
          "internalType": "uint256",
          "name": "amount",
          "type": "uint256"
        }
      ],
      "name": "TicketsBought",
      "type": "event"
    },
    {
      "anonymous": false,
      "inputs": [
        {
          "indexed": false,
          "internalType": "uint256",
          "name": "lotteryId",
          "type": "uint256"
        },
        {
          "indexed": true,
          "internalType": "address",
          "name": "buyer",
          "type": "address"
        },
        {
          "indexed": false,
          "internalType": "uint256",
          "name": "numberOfTickets",
          "type": "uint256"
        },
        {
          "indexed": false,
          "internalType": "uint256",
          "name": "amount",
          "type": "uint256"
        }
      ],
      "name": "TicketsCancelled",
      "type": "event"
    },
    {
      "anonymous": false,
      "inputs": [
        {
          "indexed": false,
          "internalType": "uint256",
          "name": "lotteryId",
          "type": "uint256"
        },
        {
          "indexed": true,
          "internalType": "address",
          "name": "buyer",
          "type": "address"
        },
        {
          "indexed": false,
          "internalType": "uint256",
          "name": "numberOfTickets",
          "type": "uint256"
        },
        {
          "indexed": false,
          "internalType": "uint256",
          "name": "amount",
          "type": "uint256"
        }
      ],
      "name": "TicketsRedeemed",
      "type": "event"
    },
    {
      "inputs": [
        {
          "internalType": "uint256",
          "name": "_numberOfTickets",
          "type": "uint256"
        }
      ],
      "name": "buyTickets",
      "outputs": [],
      "stateMutability": "payable",
      "type": "function"
    },
    {
      "inputs": [],
      "name": "cancelLottery",
      "outputs": [],
      "stateMutability": "nonpayable",
      "type": "function"
    },
    {
      "inputs": [
        {
          "internalType": "uint256",
          "name": "_numberOfTickets",
          "type": "uint256"
        }
      ],
      "name": "cancelTickets",
      "outputs": [],
      "stateMutability": "nonpayable",
      "type": "function"
    },
    {
      "inputs": [],
      "name": "creator",
      "outputs": [
        {
          "internalType": "address",
          "name": "",
          "type": "address"
        }
      ],
      "stateMutability": "view",
      "type": "function"
    },
    {
      "inputs": [],
      "name": "declareWinner",
      "outputs": [
        {
          "internalType": "address",
          "name": "",
          "type": "address"
        }
      ],
      "stateMutability": "nonpayable",
      "type": "function"
    },
    {
      "inputs": [],
      "name": "getBalance",
      "outputs": [
        {
          "internalType": "uint256",
          "name": "",
          "type": "uint256"
        }
      ],
      "stateMutability": "view",
      "type": "function"
    },
    {
      "inputs": [],
      "name": "launchStaking",
      "outputs": [],
      "stateMutability": "nonpayable",
      "type": "function"
    },
    {
      "inputs": [],
      "name": "lotteryId",
      "outputs": [
        {
          "internalType": "uint256",
          "name": "",
          "type": "uint256"
        }
      ],
      "stateMutability": "view",
      "type": "function"
    },
    {
      "inputs": [],
      "name": "lotteryPoolType",
      "outputs": [
        {
          "internalType": "enum ILotteryFactory.LotteryPoolType",
          "name": "",
          "type": "uint8"
        }
      ],
      "stateMutability": "view",
      "type": "function"
    },
    {
      "inputs": [],
      "name": "minAmount",
      "outputs": [
        {
          "internalType": "uint256",
          "name": "",
          "type": "uint256"
        }
      ],
      "stateMutability": "view",
      "type": "function"
    },
    {
      "inputs": [],
      "name": "nft",
      "outputs": [
        {
          "internalType": "address",
          "name": "addr",
          "type": "address"
        },
        {
          "internalType": "uint256",
          "name": "index",
          "type": "uint256"
        }
      ],
      "stateMutability": "view",
      "type": "function"
    },
    {
      "inputs": [],
      "name": "numberOfTickets",
      "outputs": [
        {
          "internalType": "uint256",
          "name": "",
          "type": "uint256"
        }
      ],
      "stateMutability": "view",
      "type": "function"
    },
    {
      "inputs": [],
      "name": "owner",
      "outputs": [
        {
          "internalType": "address",
          "name": "",
          "type": "address"
        }
      ],
      "stateMutability": "view",
      "type": "function"
    },
    {
      "inputs": [
        {
          "internalType": "uint256",
          "name": "",
          "type": "uint256"
        }
      ],
      "name": "players",
      "outputs": [
        {
          "internalType": "address",
          "name": "",
          "type": "address"
        }
      ],
      "stateMutability": "view",
      "type": "function"
    },
    {
      "inputs": [],
      "name": "redeemTickets",
      "outputs": [],
      "stateMutability": "nonpayable",
      "type": "function"
    },
    {
      "inputs": [],
      "name": "renounceOwnership",
      "outputs": [],
      "stateMutability": "nonpayable",
      "type": "function"
    },
    {
      "inputs": [],
      "name": "status",
      "outputs": [
        {
          "internalType": "enum LotteryPool.LotteryStatus",
          "name": "",
          "type": "uint8"
        }
      ],
      "stateMutability": "view",
      "type": "function"
    },
    {
      "inputs": [],
      "name": "ticketPrice",
      "outputs": [
        {
          "internalType": "uint256",
          "name": "",
          "type": "uint256"
        }
      ],
      "stateMutability": "view",
      "type": "function"
    },
    {
      "inputs": [
        {
          "internalType": "address",
          "name": "_addr",
          "type": "address"
        }
      ],
      "name": "ticketsOf",
      "outputs": [
        {
          "internalType": "uint256",
          "name": "",
          "type": "uint256"
        }
      ],
      "stateMutability": "view",
      "type": "function"
    },
    {
      "inputs": [
        {
          "internalType": "address",
          "name": "newOwner",
          "type": "address"
        }
      ],
      "name": "transferOwnership",
      "outputs": [],
      "stateMutability": "nonpayable",
      "type": "function"
    },
    {
      "inputs": [],
      "name": "winner",
      "outputs": [
        {
          "internalType": "address",
          "name": "",
          "type": "address"
        }
      ],
      "stateMutability": "view",
      "type": "function"
    }
  ],
  "bytecode": "0x60806040523480156200001157600080fd5b50604051620031c6380380620031c683398181016040528101906200003791906200033d565b6001600081905550600062000051620002dd60201b60201c565b905080600160006101000a81548173ffffffffffffffffffffffffffffffffffffffff021916908373ffffffffffffffffffffffffffffffffffffffff1602179055508073ffffffffffffffffffffffffffffffffffffffff16600073ffffffffffffffffffffffffffffffffffffffff167f8be0079c531659141344cd1fd0a4f28419497f9722a3daafe3b4186f6b6457e060405160405180910390a35062000100620002e560201b60201c565b600260006101000a81548173ffffffffffffffffffffffffffffffffffffffff021916908373ffffffffffffffffffffffffffffffffffffffff1602179055508760038190555086600181111562000181577f4e487b7100000000000000000000000000000000000000000000000000000000600052602160045260246000fd5b600a60016101000a81548160ff02191690836001811115620001cc577f4e487b7100000000000000000000000000000000000000000000000000000000600052602160045260246000fd5b021790555085600660006101000a81548173ffffffffffffffffffffffffffffffffffffffff021916908373ffffffffffffffffffffffffffffffffffffffff160217905550826004819055508160058190555084600860000160006101000a81548173ffffffffffffffffffffffffffffffffffffffff021916908373ffffffffffffffffffffffffffffffffffffffff160217905550836008600101819055506000600a60006101000a81548160ff02191690836003811115620002bb577f4e487b7100000000000000000000000000000000000000000000000000000000600052602160045260246000fd5b0217905550806007819055506000600b81905550505050505050505062000472565b600033905090565b6000600160009054906101000a900473ffffffffffffffffffffffffffffffffffffffff16905090565b60008151905062000320816200043e565b92915050565b600081519050620003378162000458565b92915050565b600080600080600080600080610100898b0312156200035b57600080fd5b60006200036b8b828c0162000326565b98505060206200037e8b828c0162000326565b9750506040620003918b828c016200030f565b9650506060620003a48b828c016200030f565b9550506080620003b78b828c0162000326565b94505060a0620003ca8b828c0162000326565b93505060c0620003dd8b828c0162000326565b92505060e0620003f08b828c0162000326565b9150509295985092959890939650565b60006200040d8262000414565b9050919050565b600073ffffffffffffffffffffffffffffffffffffffff82169050919050565b6000819050919050565b620004498162000400565b81146200045557600080fd5b50565b620004638162000434565b81146200046f57600080fd5b50565b612d4480620004826000396000f3fe60806040526004361061012a5760003560e01c8063702766fa116100ab578063a30a24741161006f578063a30a24741461037c578063dfbf53ae14610393578063e580f47b146103be578063f2fde38b146103e9578063f71d96cb14610412578063fc22389a1461044f5761012a565b8063702766fa146102cd578063715018a6146102f8578063859bd0f01461030f5780638da5cb5b146103265780639b2cb5d8146103515761012a565b80632f366637116100f25780632f36663714610206578063316579261461022257806345745c101461025f57806347ccca021461028a5780634a1e0a29146102b65761012a565b806302d05d3f1461012f57806312065fe01461015a5780631209b1f61461018557806314034bd2146101b0578063200d2ed2146101db575b600080fd5b34801561013b57600080fd5b50610144610478565b6040516101519190612746565b60405180910390f35b34801561016657600080fd5b5061016f61049e565b60405161017c9190612980565b60405180910390f35b34801561019157600080fd5b5061019a6104a6565b6040516101a79190612980565b60405180910390f35b3480156101bc57600080fd5b506101c56104ac565b6040516101d29190612746565b60405180910390f35b3480156101e757600080fd5b506101f061096a565b6040516101fd91906127a5565b60405180910390f35b610220600480360381019061021b9190612211565b61097d565b005b34801561022e57600080fd5b50610249600480360381019061024491906121bf565b610c67565b6040516102569190612980565b60405180910390f35b34801561026b57600080fd5b50610274610cb0565b6040516102819190612980565b60405180910390f35b34801561029657600080fd5b5061029f610cb6565b6040516102ad929190612761565b60405180910390f35b3480156102c257600080fd5b506102cb610ce8565b005b3480156102d957600080fd5b506102e2611171565b6040516102ef919061278a565b60405180910390f35b34801561030457600080fd5b5061030d611184565b005b34801561031b57600080fd5b506103246112c1565b005b34801561033257600080fd5b5061033b611522565b6040516103489190612746565b60405180910390f35b34801561035d57600080fd5b5061036661154c565b6040516103739190612980565b60405180910390f35b34801561038857600080fd5b50610391611552565b005b34801561039f57600080fd5b506103a86117a4565b6040516103b59190612746565b60405180910390f35b3480156103ca57600080fd5b506103d36117ca565b6040516103e09190612980565b60405180910390f35b3480156103f557600080fd5b50610410600480360381019061040b91906121bf565b6117d0565b005b34801561041e57600080fd5b5061043960048036038101906104349190612211565b61197c565b6040516104469190612746565b60405180910390f35b34801561045b57600080fd5b5061047660048036038101906104719190612211565b6119bb565b005b600660009054906101000a900473ffffffffffffffffffffffffffffffffffffffff1681565b600047905090565b60045481565b60006104b6611e89565b73ffffffffffffffffffffffffffffffffffffffff166104d4611522565b73ffffffffffffffffffffffffffffffffffffffff161461052a576040517f08c379a0000000000000000000000000000000000000000000000000000000008152600401610521906128a0565b60405180910390fd5b60026000541415610570576040517f08c379a000000000000000000000000000000000000000000000000000000000815260040161056790612960565b60405180910390fd5b6002600081905550600260038111156105b2577f4e487b7100000000000000000000000000000000000000000000000000000000600052602160045260246000fd5b600a60009054906101000a900460ff1660038111156105fa577f4e487b7100000000000000000000000000000000000000000000000000000000600052602160045260246000fd5b14158015610687575060038081111561063c577f4e487b7100000000000000000000000000000000000000000000000000000000600052602160045260246000fd5b600a60009054906101000a900460ff166003811115610684577f4e487b7100000000000000000000000000000000000000000000000000000000600052602160045260246000fd5b14155b6106c6576040517f08c379a00000000000000000000000000000000000000000000000000000000081526004016106bd906127c0565b60405180910390fd5b6001808111156106ff577f4e487b7100000000000000000000000000000000000000000000000000000000600052602160045260246000fd5b600a60019054906101000a900460ff166001811115610747577f4e487b7100000000000000000000000000000000000000000000000000000000600052602160045260246000fd5b14156108105760016003811115610787577f4e487b7100000000000000000000000000000000000000000000000000000000600052602160045260246000fd5b600a60009054906101000a900460ff1660038111156107cf577f4e487b7100000000000000000000000000000000000000000000000000000000600052602160045260246000fd5b1461080f576040517f08c379a000000000000000000000000000000000000000000000000000000000815260040161080690612900565b60405180910390fd5b5b6002600a60006101000a81548160ff0219169083600381111561085c577f4e487b7100000000000000000000000000000000000000000000000000000000600052602160045260246000fd5b0217905550610869611e91565b600e60006101000a81548173ffffffffffffffffffffffffffffffffffffffff021916908373ffffffffffffffffffffffffffffffffffffffff160217905550600060018111156108e3577f4e487b7100000000000000000000000000000000000000000000000000000000600052602160045260246000fd5b600a60019054906101000a900460ff16600181111561092b577f4e487b7100000000000000000000000000000000000000000000000000000000600052602160045260246000fd5b141561093a57610939611f3d565b5b600e60009054906101000a900473ffffffffffffffffffffffffffffffffffffffff169050600160008190555090565b600a60009054906101000a900460ff1681565b600060038111156109b7577f4e487b7100000000000000000000000000000000000000000000000000000000600052602160045260246000fd5b600a60009054906101000a900460ff1660038111156109ff577f4e487b7100000000000000000000000000000000000000000000000000000000600052602160045260246000fd5b14610a3f576040517f08c379a0000000000000000000000000000000000000000000000000000000008152600401610a3690612860565b60405180910390fd5b80600454610a4d9190612a93565b3414610a8e576040517f08c379a0000000000000000000000000000000000000000000000000000000008152600401610a85906128c0565b60405180910390fd5b80600c60003373ffffffffffffffffffffffffffffffffffffffff1673ffffffffffffffffffffffffffffffffffffffff1681526020019081526020016000206000828254610add9190612a0c565b9250508190555060005b81811015610b6557600d339080600181540180825580915050600190039060005260206000200160009091909190916101000a81548173ffffffffffffffffffffffffffffffffffffffff021916908373ffffffffffffffffffffffffffffffffffffffff1602179055508080610b5d90612ba7565b915050610ae7565b5080600b6000828254610b789190612a0c565b92505081905550600260009054906101000a900473ffffffffffffffffffffffffffffffffffffffff1673ffffffffffffffffffffffffffffffffffffffff166304454811600354346040518363ffffffff1660e01b8152600401610bde92919061299b565b600060405180830381600087803b158015610bf857600080fd5b505af1158015610c0c573d6000803e3d6000fd5b505050503373ffffffffffffffffffffffffffffffffffffffff167fc8c5c2b0e44fb6312c0098ec42642058527713d0a1d29a5c6ccbfe34d714d41e6003548334604051610c5c939291906129c4565b60405180910390a250565b6000600c60008373ffffffffffffffffffffffffffffffffffffffff1673ffffffffffffffffffffffffffffffffffffffff168152602001908152602001600020549050919050565b600b5481565b60088060000160009054906101000a900473ffffffffffffffffffffffffffffffffffffffff16908060010154905082565b60026000541415610d2e576040517f08c379a0000000000000000000000000000000000000000000000000000000008152600401610d2590612960565b60405180910390fd5b6002600081905550600180811115610d6f577f4e487b7100000000000000000000000000000000000000000000000000000000600052602160045260246000fd5b600a60019054906101000a900460ff166001811115610db7577f4e487b7100000000000000000000000000000000000000000000000000000000600052602160045260246000fd5b14610df7576040517f08c379a0000000000000000000000000000000000000000000000000000000008152600401610dee90612820565b60405180910390fd5b60026003811115610e31577f4e487b7100000000000000000000000000000000000000000000000000000000600052602160045260246000fd5b600a60009054906101000a900460ff166003811115610e79577f4e487b7100000000000000000000000000000000000000000000000000000000600052602160045260246000fd5b1480610f035750600380811115610eb9577f4e487b7100000000000000000000000000000000000000000000000000000000600052602160045260246000fd5b600a60009054906101000a900460ff166003811115610f01577f4e487b7100000000000000000000000000000000000000000000000000000000600052602160045260246000fd5b145b610f42576040517f08c379a0000000000000000000000000000000000000000000000000000000008152600401610f3990612940565b60405180910390fd5b6000600c60003373ffffffffffffffffffffffffffffffffffffffff1673ffffffffffffffffffffffffffffffffffffffff168152602001908152602001600020549050600081600454610f969190612a93565b905080471015610fdb576040517f08c379a0000000000000000000000000000000000000000000000000000000008152600401610fd2906128e0565b60405180910390fd5b6000600c60003373ffffffffffffffffffffffffffffffffffffffff1673ffffffffffffffffffffffffffffffffffffffff1681526020019081526020016000208190555081600b60008282546110329190612aed565b92505081905550600260009054906101000a900473ffffffffffffffffffffffffffffffffffffffff1673ffffffffffffffffffffffffffffffffffffffff1663a0b47ab6600354836040518363ffffffff1660e01b815260040161109892919061299b565b600060405180830381600087803b1580156110b257600080fd5b505af11580156110c6573d6000803e3d6000fd5b505050503373ffffffffffffffffffffffffffffffffffffffff166108fc829081150290604051600060405180830381858888f19350505050158015611110573d6000803e3d6000fd5b503373ffffffffffffffffffffffffffffffffffffffff167fb7029a2e3425140d13e631737cd4269675a18664ebe4356d84ea6943db821658600354848460405161115d939291906129c4565b60405180910390a250506001600081905550565b600a60019054906101000a900460ff1681565b61118c611e89565b73ffffffffffffffffffffffffffffffffffffffff166111aa611522565b73ffffffffffffffffffffffffffffffffffffffff1614611200576040517f08c379a00000000000000000000000000000000000000000000000000000000081526004016111f7906128a0565b60405180910390fd5b600073ffffffffffffffffffffffffffffffffffffffff16600160009054906101000a900473ffffffffffffffffffffffffffffffffffffffff1673ffffffffffffffffffffffffffffffffffffffff167f8be0079c531659141344cd1fd0a4f28419497f9722a3daafe3b4186f6b6457e060405160405180910390a36000600160006101000a81548173ffffffffffffffffffffffffffffffffffffffff021916908373ffffffffffffffffffffffffffffffffffffffff160217905550565b6112c9611e89565b73ffffffffffffffffffffffffffffffffffffffff166112e7611522565b73ffffffffffffffffffffffffffffffffffffffff161461133d576040517f08c379a0000000000000000000000000000000000000000000000000000000008152600401611334906128a0565b60405180910390fd5b60026003811115611377577f4e487b7100000000000000000000000000000000000000000000000000000000600052602160045260246000fd5b600a60009054906101000a900460ff1660038111156113bf577f4e487b7100000000000000000000000000000000000000000000000000000000600052602160045260246000fd5b1415801561144c5750600380811115611401577f4e487b7100000000000000000000000000000000000000000000000000000000600052602160045260246000fd5b600a60009054906101000a900460ff166003811115611449577f4e487b7100000000000000000000000000000000000000000000000000000000600052602160045260246000fd5b14155b61148b576040517f08c379a0000000000000000000000000000000000000000000000000000000008152600401611482906127c0565b60405180910390fd5b47600554116114cf576040517f08c379a00000000000000000000000000000000000000000000000000000000081526004016114c690612840565b60405180910390fd5b6003600a60006101000a81548160ff0219169083600381111561151b577f4e487b7100000000000000000000000000000000000000000000000000000000600052602160045260246000fd5b0217905550565b6000600160009054906101000a900473ffffffffffffffffffffffffffffffffffffffff16905090565b60055481565b61155a611e89565b73ffffffffffffffffffffffffffffffffffffffff16611578611522565b73ffffffffffffffffffffffffffffffffffffffff16146115ce576040517f08c379a00000000000000000000000000000000000000000000000000000000081526004016115c5906128a0565b60405180910390fd5b600180811115611607577f4e487b7100000000000000000000000000000000000000000000000000000000600052602160045260246000fd5b600a60019054906101000a900460ff16600181111561164f577f4e487b7100000000000000000000000000000000000000000000000000000000600052602160045260246000fd5b1461168f576040517f08c379a000000000000000000000000000000000000000000000000000000000815260040161168690612880565b60405180910390fd5b600060038111156116c9577f4e487b7100000000000000000000000000000000000000000000000000000000600052602160045260246000fd5b600a60009054906101000a900460ff166003811115611711577f4e487b7100000000000000000000000000000000000000000000000000000000600052602160045260246000fd5b14611751576040517f08c379a0000000000000000000000000000000000000000000000000000000008152600401611748906127e0565b60405180910390fd5b6001600a60006101000a81548160ff0219169083600381111561179d577f4e487b7100000000000000000000000000000000000000000000000000000000600052602160045260246000fd5b0217905550565b600e60009054906101000a900473ffffffffffffffffffffffffffffffffffffffff1681565b60035481565b6117d8611e89565b73ffffffffffffffffffffffffffffffffffffffff166117f6611522565b73ffffffffffffffffffffffffffffffffffffffff161461184c576040517f08c379a0000000000000000000000000000000000000000000000000000000008152600401611843906128a0565b60405180910390fd5b600073ffffffffffffffffffffffffffffffffffffffff168173ffffffffffffffffffffffffffffffffffffffff1614156118bc576040517f08c379a00000000000000000000000000000000000000000000000000000000081526004016118b390612800565b60405180910390fd5b8073ffffffffffffffffffffffffffffffffffffffff16600160009054906101000a900473ffffffffffffffffffffffffffffffffffffffff1673ffffffffffffffffffffffffffffffffffffffff167f8be0079c531659141344cd1fd0a4f28419497f9722a3daafe3b4186f6b6457e060405160405180910390a380600160006101000a81548173ffffffffffffffffffffffffffffffffffffffff021916908373ffffffffffffffffffffffffffffffffffffffff16021790555050565b600d818154811061198c57600080fd5b906000526020600020016000915054906101000a900473ffffffffffffffffffffffffffffffffffffffff1681565b60026000541415611a01576040517f08c379a00000000000000000000000000000000000000000000000000000000081526004016119f890612960565b60405180910390fd5b600260008190555060006003811115611a43577f4e487b7100000000000000000000000000000000000000000000000000000000600052602160045260246000fd5b600a60009054906101000a900460ff166003811115611a8b577f4e487b7100000000000000000000000000000000000000000000000000000000600052602160045260246000fd5b14611acb576040517f08c379a0000000000000000000000000000000000000000000000000000000008152600401611ac290612860565b60405180910390fd5b80600c60003373ffffffffffffffffffffffffffffffffffffffff1673ffffffffffffffffffffffffffffffffffffffff168152602001908152602001600020541015611b4d576040517f08c379a0000000000000000000000000000000000000000000000000000000008152600401611b4490612920565b60405180910390fd5b600081600454611b5d9190612a93565b905080471015611ba2576040517f08c379a0000000000000000000000000000000000000000000000000000000008152600401611b99906128e0565b60405180910390fd5b3373ffffffffffffffffffffffffffffffffffffffff166108fc829081150290604051600060405180830381858888f19350505050158015611be8573d6000803e3d6000fd5b5081600c60003373ffffffffffffffffffffffffffffffffffffffff1673ffffffffffffffffffffffffffffffffffffffff1681526020019081526020016000206000828254611c389190612aed565b9250508190555081600b6000828254611c519190612aed565b925050819055506000805b600d80549050811015611d96573373ffffffffffffffffffffffffffffffffffffffff16600d8281548110611cba577f4e487b7100000000000000000000000000000000000000000000000000000000600052603260045260246000fd5b9060005260206000200160009054906101000a900473ffffffffffffffffffffffffffffffffffffffff1673ffffffffffffffffffffffffffffffffffffffff16148015611d0757508382105b15611d8357600d8181548110611d46577f4e487b7100000000000000000000000000000000000000000000000000000000600052603260045260246000fd5b9060005260206000200160006101000a81549073ffffffffffffffffffffffffffffffffffffffff0219169055600182611d809190612a0c565b91505b8080611d8e90612ba7565b915050611c5c565b50600260009054906101000a900473ffffffffffffffffffffffffffffffffffffffff1673ffffffffffffffffffffffffffffffffffffffff1663a0b47ab6600354846040518363ffffffff1660e01b8152600401611df692919061299b565b600060405180830381600087803b158015611e1057600080fd5b505af1158015611e24573d6000803e3d6000fd5b505050503373ffffffffffffffffffffffffffffffffffffffff167fdb8e3aedce772b982e904cfc947914829d47da2eb7b13e8cb30a726805abdad46003548585604051611e74939291906129c4565b60405180910390a25050600160008190555050565b600033905090565b600080600d805490504244604051602001611ead92919061271a565b6040516020818303038152906040528051906020012060001c611ed09190612bfa565b9050600d8181548110611f0c577f4e487b7100000000000000000000000000000000000000000000000000000000600052603260045260246000fd5b9060005260206000200160009054906101000a900473ffffffffffffffffffffffffffffffffffffffff1691505090565b60006064600260009054906101000a900473ffffffffffffffffffffffffffffffffffffffff1673ffffffffffffffffffffffffffffffffffffffff1663be74264d6040518163ffffffff1660e01b8152600401602060405180830381600087803b158015611fab57600080fd5b505af1158015611fbf573d6000803e3d6000fd5b505050506040513d601f19601f82011682018060405250810190611fe3919061223a565b47611fee9190612a93565b611ff89190612a62565b9050600081476120089190612aed565b90506000600260009054906101000a900473ffffffffffffffffffffffffffffffffffffffff1673ffffffffffffffffffffffffffffffffffffffff1663132996046040518163ffffffff1660e01b8152600401602060405180830381600087803b15801561207657600080fd5b505af115801561208a573d6000803e3d6000fd5b505050506040513d601f19601f820116820180604052508101906120ae91906121e8565b90508073ffffffffffffffffffffffffffffffffffffffff166108fc849081150290604051600060405180830381858888f193505050501580156120f6573d6000803e3d6000fd5b506000600660009054906101000a900473ffffffffffffffffffffffffffffffffffffffff1690508073ffffffffffffffffffffffffffffffffffffffff166108fc849081150290604051600060405180830381858888f19350505050158015612164573d6000803e3d6000fd5b5050505050565b60008135905061217a81612ce0565b92915050565b60008151905061218f81612ce0565b92915050565b6000813590506121a481612cf7565b92915050565b6000815190506121b981612cf7565b92915050565b6000602082840312156121d157600080fd5b60006121df8482850161216b565b91505092915050565b6000602082840312156121fa57600080fd5b600061220884828501612180565b91505092915050565b60006020828403121561222357600080fd5b600061223184828501612195565b91505092915050565b60006020828403121561224c57600080fd5b600061225a848285016121aa565b91505092915050565b61226c81612b21565b82525050565b61227b81612b83565b82525050565b61228a81612b95565b82525050565b600061229d6022836129fb565b91507f546865206c6f747465727920706f6f6c20697320616c726561647920636c6f7360008301527f65640000000000000000000000000000000000000000000000000000000000006020830152604082019050919050565b60006123036017836129fb565b91507f546865206c6f7474657279206973206e6f74206f70656e0000000000000000006000830152602082019050919050565b60006123436026836129fb565b91507f4f776e61626c653a206e6577206f776e657220697320746865207a65726f206160008301527f64647265737300000000000000000000000000000000000000000000000000006020830152604082019050919050565b60006123a96035836129fb565b91507f5469636b6574732063616e206f6e6c792062652072656465656d656420696e2060008301527f7374616b696e67206c6f747465727920706f6f6c7300000000000000000000006020830152604082019050919050565b600061240f603a836129fb565b91507f43616e6e6f742063616e63656c206c6f74746572792e20546865206d696e696d60008301527f756d20616d6f756e7420686173206265656e20726561636865640000000000006020830152604082019050919050565b6000612475601c836129fb565b91507f546865206c6f747465727920706f6f6c206973206e6f74206f70656e000000006000830152602082019050919050565b60006124b56030836129fb565b91507f4c6f747465727920706f6f6c2074797065206973206e6f7420636f6d7061746960008301527f626c652077697468207374616b696e67000000000000000000000000000000006020830152604082019050919050565b600061251b6020836129fb565b91507f4f776e61626c653a2063616c6c6572206973206e6f7420746865206f776e65726000830152602082019050919050565b600061255b6023836129fb565b91507f416d6f756e742073656e7420697320646966666572656e74207468616e20707260008301527f69636500000000000000000000000000000000000000000000000000000000006020830152604082019050919050565b60006125c1601f836129fb565b91507f4e6f7420656e6f756768206d6f6e657920696e207468652062616c616e6365006000830152602082019050919050565b6000612601601f836129fb565b91507f546865206c6f747465727920706f6f6c206973206e6f74207374616b696e67006000830152602082019050919050565b6000612641601e836129fb565b91507f596f7520646f206e6f74206861766520656e6f756768207469636b65747300006000830152602082019050919050565b6000612681601e836129fb565b91507f546865206c6f747465727920706f6f6c206973206e6f7420636c6f73656400006000830152602082019050919050565b60006126c1601f836129fb565b91507f5265656e7472616e637947756172643a207265656e7472616e742063616c6c006000830152602082019050919050565b6126fd81612b79565b82525050565b61271461270f82612b79565b612bf0565b82525050565b60006127268285612703565b6020820191506127368284612703565b6020820191508190509392505050565b600060208201905061275b6000830184612263565b92915050565b60006040820190506127766000830185612263565b61278360208301846126f4565b9392505050565b600060208201905061279f6000830184612272565b92915050565b60006020820190506127ba6000830184612281565b92915050565b600060208201905081810360008301526127d981612290565b9050919050565b600060208201905081810360008301526127f9816122f6565b9050919050565b6000602082019050818103600083015261281981612336565b9050919050565b600060208201905081810360008301526128398161239c565b9050919050565b6000602082019050818103600083015261285981612402565b9050919050565b6000602082019050818103600083015261287981612468565b9050919050565b60006020820190508181036000830152612899816124a8565b9050919050565b600060208201905081810360008301526128b98161250e565b9050919050565b600060208201905081810360008301526128d98161254e565b9050919050565b600060208201905081810360008301526128f9816125b4565b9050919050565b60006020820190508181036000830152612919816125f4565b9050919050565b6000602082019050818103600083015261293981612634565b9050919050565b6000602082019050818103600083015261295981612674565b9050919050565b60006020820190508181036000830152612979816126b4565b9050919050565b600060208201905061299560008301846126f4565b92915050565b60006040820190506129b060008301856126f4565b6129bd60208301846126f4565b9392505050565b60006060820190506129d960008301866126f4565b6129e660208301856126f4565b6129f360408301846126f4565b949350505050565b600082825260208201905092915050565b6000612a1782612b79565b9150612a2283612b79565b9250827fffffffffffffffffffffffffffffffffffffffffffffffffffffffffffffffff03821115612a5757612a56612c2b565b5b828201905092915050565b6000612a6d82612b79565b9150612a7883612b79565b925082612a8857612a87612c5a565b5b828204905092915050565b6000612a9e82612b79565b9150612aa983612b79565b9250817fffffffffffffffffffffffffffffffffffffffffffffffffffffffffffffffff0483118215151615612ae257612ae1612c2b565b5b828202905092915050565b6000612af882612b79565b9150612b0383612b79565b925082821015612b1657612b15612c2b565b5b828203905092915050565b6000612b2c82612b59565b9050919050565b6000819050612b4182612cb8565b919050565b6000819050612b5482612ccc565b919050565b600073ffffffffffffffffffffffffffffffffffffffff82169050919050565b6000819050919050565b6000612b8e82612b33565b9050919050565b6000612ba082612b46565b9050919050565b6000612bb282612b79565b91507fffffffffffffffffffffffffffffffffffffffffffffffffffffffffffffffff821415612be557612be4612c2b565b5b600182019050919050565b6000819050919050565b6000612c0582612b79565b9150612c1083612b79565b925082612c2057612c1f612c5a565b5b828206905092915050565b7f4e487b7100000000000000000000000000000000000000000000000000000000600052601160045260246000fd5b7f4e487b7100000000000000000000000000000000000000000000000000000000600052601260045260246000fd5b7f4e487b7100000000000000000000000000000000000000000000000000000000600052602160045260246000fd5b60028110612cc957612cc8612c89565b5b50565b60048110612cdd57612cdc612c89565b5b50565b612ce981612b21565b8114612cf457600080fd5b50565b612d0081612b79565b8114612d0b57600080fd5b5056fea2646970667358221220813c0356490bd632b2e799014ed530331d6ea2ce64c8fcf1374243858c996c9b64736f6c63430008000033",
  "linkReferences": {},
  "deployedLinkReferences": {}
}