{
  "_format": "hh-sol-artifact-1",
  "contractName": "LotteryPool",
  "sourceName": "contracts/LotteryPool.sol",
  "abi": [
    {
      "inputs": [
        {
          "internalType": "uint256",
          "name": "_lotteryId",
          "type": "uint256"
        },
        {
          "internalType": "uint256",
          "name": "_lotteryPoolType",
          "type": "uint256"
        },
        {
          "internalType": "address",
          "name": "_creator",
          "type": "address"
        },
        {
          "internalType": "address",
          "name": "_nftAddress",
          "type": "address"
        },
        {
          "internalType": "uint256",
          "name": "_nftIndex",
          "type": "uint256"
        },
        {
          "internalType": "uint256",
          "name": "_ticketPrice",
          "type": "uint256"
        },
        {
          "internalType": "uint256",
          "name": "_minAmount",
          "type": "uint256"
        },
        {
          "internalType": "uint256",
          "name": "_created",
          "type": "uint256"
        }
      ],
      "stateMutability": "nonpayable",
      "type": "constructor"
    },
    {
      "anonymous": false,
      "inputs": [
        {
          "indexed": true,
          "internalType": "address",
          "name": "previousOwner",
          "type": "address"
        },
        {
          "indexed": true,
          "internalType": "address",
          "name": "newOwner",
          "type": "address"
        }
      ],
      "name": "OwnershipTransferred",
      "type": "event"
    },
    {
      "anonymous": false,
      "inputs": [
        {
          "indexed": false,
          "internalType": "address",
          "name": "",
          "type": "address"
        },
        {
          "indexed": false,
          "internalType": "uint256",
          "name": "",
          "type": "uint256"
        }
      ],
      "name": "Received",
      "type": "event"
    },
    {
      "anonymous": false,
      "inputs": [
        {
          "indexed": false,
          "internalType": "uint256",
          "name": "",
          "type": "uint256"
        }
      ],
      "name": "StakingWithdrawal",
      "type": "event"
    },
    {
      "anonymous": false,
      "inputs": [
        {
          "indexed": false,
          "internalType": "uint256",
          "name": "lotteryId",
          "type": "uint256"
        },
        {
          "indexed": true,
          "internalType": "address",
          "name": "buyer",
          "type": "address"
        },
        {
          "indexed": false,
          "internalType": "uint256",
          "name": "numberOfTickets",
          "type": "uint256"
        },
        {
          "indexed": false,
          "internalType": "uint256",
          "name": "amount",
          "type": "uint256"
        }
      ],
      "name": "TicketsBought",
      "type": "event"
    },
    {
      "anonymous": false,
      "inputs": [
        {
          "indexed": false,
          "internalType": "uint256",
          "name": "lotteryId",
          "type": "uint256"
        },
        {
          "indexed": true,
          "internalType": "address",
          "name": "buyer",
          "type": "address"
        },
        {
          "indexed": false,
          "internalType": "uint256",
          "name": "numberOfTickets",
          "type": "uint256"
        },
        {
          "indexed": false,
          "internalType": "uint256",
          "name": "amount",
          "type": "uint256"
        }
      ],
      "name": "TicketsCancelled",
      "type": "event"
    },
    {
      "anonymous": false,
      "inputs": [
        {
          "indexed": false,
          "internalType": "uint256",
          "name": "lotteryId",
          "type": "uint256"
        },
        {
          "indexed": true,
          "internalType": "address",
          "name": "buyer",
          "type": "address"
        },
        {
          "indexed": false,
          "internalType": "uint256",
          "name": "numberOfTickets",
          "type": "uint256"
        },
        {
          "indexed": false,
          "internalType": "uint256",
          "name": "amount",
          "type": "uint256"
        }
      ],
      "name": "TicketsRedeemed",
      "type": "event"
    },
    {
      "inputs": [
        {
          "internalType": "uint256",
          "name": "_numberOfTickets",
          "type": "uint256"
        }
      ],
      "name": "buyTickets",
      "outputs": [],
      "stateMutability": "payable",
      "type": "function"
    },
    {
      "inputs": [],
      "name": "cancelLottery",
      "outputs": [],
      "stateMutability": "nonpayable",
      "type": "function"
    },
    {
      "inputs": [
        {
          "internalType": "uint256",
          "name": "_numberOfTickets",
          "type": "uint256"
        }
      ],
      "name": "cancelTickets",
      "outputs": [],
      "stateMutability": "nonpayable",
      "type": "function"
    },
    {
      "inputs": [],
      "name": "creator",
      "outputs": [
        {
          "internalType": "address",
          "name": "",
          "type": "address"
        }
      ],
      "stateMutability": "view",
      "type": "function"
    },
    {
      "inputs": [],
      "name": "declareWinner",
      "outputs": [
        {
          "internalType": "address",
          "name": "",
          "type": "address"
        }
      ],
      "stateMutability": "nonpayable",
      "type": "function"
    },
    {
      "inputs": [],
      "name": "fees",
      "outputs": [
        {
          "internalType": "uint256",
          "name": "",
          "type": "uint256"
        }
      ],
      "stateMutability": "view",
      "type": "function"
    },
    {
      "inputs": [],
      "name": "getBalance",
      "outputs": [
        {
          "internalType": "uint256",
          "name": "",
          "type": "uint256"
        }
      ],
      "stateMutability": "view",
      "type": "function"
    },
    {
      "inputs": [],
      "name": "getPaymentToCreator",
      "outputs": [
        {
          "internalType": "uint256",
          "name": "",
          "type": "uint256"
        }
      ],
      "stateMutability": "view",
      "type": "function"
    },
    {
      "inputs": [],
      "name": "getStakingAllowance",
      "outputs": [
        {
          "internalType": "uint256",
          "name": "",
          "type": "uint256"
        }
      ],
      "stateMutability": "view",
      "type": "function"
    },
    {
      "inputs": [],
      "name": "getStakingBalance",
      "outputs": [
        {
          "internalType": "uint256",
          "name": "",
          "type": "uint256"
        }
      ],
      "stateMutability": "view",
      "type": "function"
    },
    {
      "inputs": [],
      "name": "getStakingYield",
      "outputs": [
        {
          "internalType": "uint256",
          "name": "",
          "type": "uint256"
        }
      ],
      "stateMutability": "view",
      "type": "function"
    },
    {
      "inputs": [],
      "name": "launchStaking",
      "outputs": [],
      "stateMutability": "nonpayable",
      "type": "function"
    },
    {
      "inputs": [],
      "name": "lotteryId",
      "outputs": [
        {
          "internalType": "uint256",
          "name": "",
          "type": "uint256"
        }
      ],
      "stateMutability": "view",
      "type": "function"
    },
    {
      "inputs": [],
      "name": "lotteryPoolType",
      "outputs": [
        {
          "internalType": "enum ILotteryPoolFactory.LotteryPoolType",
          "name": "",
          "type": "uint8"
        }
      ],
      "stateMutability": "view",
      "type": "function"
    },
    {
      "inputs": [],
      "name": "minAmount",
      "outputs": [
        {
          "internalType": "uint256",
          "name": "",
          "type": "uint256"
        }
      ],
      "stateMutability": "view",
      "type": "function"
    },
    {
      "inputs": [],
      "name": "nft",
      "outputs": [
        {
          "internalType": "address",
          "name": "addr",
          "type": "address"
        },
        {
          "internalType": "uint256",
          "name": "index",
          "type": "uint256"
        }
      ],
      "stateMutability": "view",
      "type": "function"
    },
    {
      "inputs": [],
      "name": "numberOfTickets",
      "outputs": [
        {
          "internalType": "uint256",
          "name": "",
          "type": "uint256"
        }
      ],
      "stateMutability": "view",
      "type": "function"
    },
    {
      "inputs": [],
      "name": "owner",
      "outputs": [
        {
          "internalType": "address",
          "name": "",
          "type": "address"
        }
      ],
      "stateMutability": "view",
      "type": "function"
    },
    {
      "inputs": [],
      "name": "paymentToCreator",
      "outputs": [
        {
          "internalType": "uint256",
          "name": "",
          "type": "uint256"
        }
      ],
      "stateMutability": "view",
      "type": "function"
    },
    {
      "inputs": [
        {
          "internalType": "uint256",
          "name": "",
          "type": "uint256"
        }
      ],
      "name": "players",
      "outputs": [
        {
          "internalType": "address",
          "name": "",
          "type": "address"
        }
      ],
      "stateMutability": "view",
      "type": "function"
    },
    {
      "inputs": [],
      "name": "redeemTickets",
      "outputs": [],
      "stateMutability": "nonpayable",
      "type": "function"
    },
    {
      "inputs": [],
      "name": "renounceOwnership",
      "outputs": [],
      "stateMutability": "nonpayable",
      "type": "function"
    },
    {
      "inputs": [],
      "name": "stakedAmount",
      "outputs": [
        {
          "internalType": "uint256",
          "name": "",
          "type": "uint256"
        }
      ],
      "stateMutability": "view",
      "type": "function"
    },
    {
      "inputs": [],
      "name": "status",
      "outputs": [
        {
          "internalType": "enum LotteryPool.LotteryStatus",
          "name": "",
          "type": "uint8"
        }
      ],
      "stateMutability": "view",
      "type": "function"
    },
    {
      "inputs": [],
      "name": "ticketPrice",
      "outputs": [
        {
          "internalType": "uint256",
          "name": "",
          "type": "uint256"
        }
      ],
      "stateMutability": "view",
      "type": "function"
    },
    {
      "inputs": [
        {
          "internalType": "address",
          "name": "_addr",
          "type": "address"
        }
      ],
      "name": "ticketsOf",
      "outputs": [
        {
          "internalType": "uint256",
          "name": "",
          "type": "uint256"
        }
      ],
      "stateMutability": "view",
      "type": "function"
    },
    {
      "inputs": [
        {
          "internalType": "address",
          "name": "newOwner",
          "type": "address"
        }
      ],
      "name": "transferOwnership",
      "outputs": [],
      "stateMutability": "nonpayable",
      "type": "function"
    },
    {
      "inputs": [],
      "name": "winner",
      "outputs": [
        {
          "internalType": "address",
          "name": "",
          "type": "address"
        }
      ],
      "stateMutability": "view",
      "type": "function"
    },
    {
      "stateMutability": "payable",
      "type": "receive"
    }
  ],
  "bytecode": "0x60806040523480156200001157600080fd5b5060405162002cd738038062002cd78339810160408190526200003491620001ae565b60016000908155620000456200017e565b600180546001600160a01b0319166001600160a01b038316908117909155604051919250906000907f8be0079c531659141344cd1fd0a4f28419497f9722a3daafe3b4186f6b6457e0908290a3506200009d62000182565b600280546001600160a01b0319166001600160a01b03929092169190911790556003889055866001811115620000e357634e487b7160e01b600052602160045260246000fd5b600a805461ff0019166101008360018111156200011057634e487b7160e01b600052602160045260246000fd5b0217905550600680546001600160a01b03199081166001600160a01b0398891617909155600493909355600591909155600880549092169390941692909217909155600955600a805460ff1916905560075550506000600b819055600f81905560108190556011556200021f565b3390565b6001546001600160a01b031690565b80516001600160a01b0381168114620001a957600080fd5b919050565b600080600080600080600080610100898b031215620001cb578384fd5b8851975060208901519650620001e460408a0162000191565b9550620001f460608a0162000191565b94506080890151935060a0890151925060c0890151915060e089015190509295985092959890939650565b612aa8806200022f6000396000f3fe6080604052600436106101bb5760003560e01c806362711a5d116100ec578063a30a24741161008a578063f2fde38b11610064578063f2fde38b1461044e578063f4ac7ca01461046e578063f71d96cb14610483578063fc22389a146104a3576101fb565b8063a30a24741461040f578063dfbf53ae14610424578063e580f47b14610439576101fb565b8063859bd0f0116100c6578063859bd0f0146103bb5780638da5cb5b146103d05780639af1d35a146103e55780639b2cb5d8146103fa576101fb565b806362711a5d1461036f578063702766fa14610384578063715018a6146103a6576101fb565b8063316579261161015957806345745c101161013357806345745c101461030d57806347ccca02146103225780634a1e0a2914610345578063624793791461035a576101fb565b806331657926146102c3578063373d6132146102e35780633e0d5d0c146102f8576101fb565b80631209b1f6116101955780631209b1f61461026257806314034bd214610277578063200d2ed21461028c5780632f366637146102ae576101fb565b806302d05d3f146102005780630556920c1461022b57806312065fe01461024d576101fb565b366101fb577f88a5966d370b9919b20f3e2c13ff65706f196a4e32cc2c12bf57088f8852587433346040516101f19291906124dc565b60405180910390a1005b600080fd5b34801561020c57600080fd5b506102156104c3565b6040516102229190612467565b60405180910390f35b34801561023757600080fd5b506102406104d2565b6040516102229190612968565b34801561025957600080fd5b506102406104d8565b34801561026e57600080fd5b506102406104dd565b34801561028357600080fd5b506102156104e3565b34801561029857600080fd5b506102a16108c0565b604051610222919061250f565b6102c16102bc3660046123f0565b6108c9565b005b3480156102cf57600080fd5b506102406102de366004612345565b610a84565b3480156102ef57600080fd5b50610240610a9f565b34801561030457600080fd5b50610240610aa5565b34801561031957600080fd5b50610240610c32565b34801561032e57600080fd5b50610337610c38565b6040516102229291906124dc565b34801561035157600080fd5b506102c1610c4d565b34801561036657600080fd5b50610240610e80565b34801561037b57600080fd5b50610240610e86565b34801561039057600080fd5b5061039961100e565b60405161022291906124f5565b3480156103b257600080fd5b506102c161101c565b3480156103c757600080fd5b506102c16110a5565b3480156103dc57600080fd5b5061021561129a565b3480156103f157600080fd5b506102406112a9565b34801561040657600080fd5b506102406112af565b34801561041b57600080fd5b506102c16112b5565b34801561043057600080fd5b5061021561147b565b34801561044557600080fd5b5061024061148a565b34801561045a57600080fd5b506102c1610469366004612345565b611490565b34801561047a57600080fd5b50610240611551565b34801561048f57600080fd5b5061021561049e3660046123f0565b61171b565b3480156104af57600080fd5b506102c16104be3660046123f0565b611745565b6006546001600160a01b031681565b60105481565b475b90565b60045481565b60006104ed6119ee565b6001600160a01b03166104fe61129a565b6001600160a01b03161461052d5760405162461bcd60e51b81526004016105249061271b565b60405180910390fd5b600260005414156105505760405162461bcd60e51b8152600401610524906128fa565b60026000819055600a5460ff16600381111561057c57634e487b7160e01b600052602160045260246000fd5b141580156105af57506003600a5460ff1660038111156105ac57634e487b7160e01b600052602160045260246000fd5b14155b6105cb5760405162461bcd60e51b815260040161052490612523565b600260009054906101000a90046001600160a01b03166001600160a01b03166399da053a6040518163ffffffff1660e01b815260040160206040518083038186803b15801561061957600080fd5b505afa15801561062d573d6000803e3d6000fd5b505050506040513d601f19601f820116820180604052508101906106519190612408565b61065e90620151806129b3565b60075461066b9190612987565b42101561068a5760405162461bcd60e51b815260040161052490612750565b6001600a54610100900460ff1660018111156106b657634e487b7160e01b600052602160045260246000fd5b1415610708576001600a5460ff1660038111156106e357634e487b7160e01b600052602160045260246000fd5b146107005760405162461bcd60e51b81526004016105249061280d565b6107086119f2565b60085460095460405163020604bf60e21b815230926001600160a01b03169163081812fc9161073a9190600401612968565b60206040518083038186803b15801561075257600080fd5b505afa158015610766573d6000803e3d6000fd5b505050506040513d601f19601f8201168201806040525081019061078a9190612368565b6001600160a01b0316146107b05760405162461bcd60e51b81526004016105249061287b565b6107b8611bde565b600e80546001600160a01b0319166001600160a01b0392909216919091179055600a8054600260ff199091161790819055600190610100900460ff168181111561081257634e487b7160e01b600052602160045260246000fd5b141561082b57610820611c5a565b60115560105561083a565b610833611e29565b6011556010555b600854600654600e546009546040516323b872dd60e01b81526001600160a01b03948516946323b872dd9461087894908216939116916004016124b8565b600060405180830381600087803b15801561089257600080fd5b505af11580156108a6573d6000803e3d6000fd5b5050600e546001600160a01b031692505050600160005590565b600a5460ff1681565b6000600a5460ff1660038111156108f057634e487b7160e01b600052602160045260246000fd5b1461090d5760405162461bcd60e51b815260040161052490612694565b8060045461091b91906129b3565b34146109395760405162461bcd60e51b815260040161052490612793565b336000908152600c602052604081208054839290610958908490612987565b90915550600090505b818110156109bd57600d80546001810182556000919091527fd7b6990105719101dabeb77144f2a3385c8033acd3af97e9423a695e81ad1eb50180546001600160a01b03191633179055806109b5816129e9565b915050610961565b5080600b60008282546109d09190612987565b9091555050600254600354604051630445481160e01b81526001600160a01b0390921691630445481191610a08913490600401612459565b600060405180830381600087803b158015610a2257600080fd5b505af1158015610a36573d6000803e3d6000fd5b50505050336001600160a01b03167fc8c5c2b0e44fb6312c0098ec42642058527713d0a1d29a5c6ccbfe34d714d41e6003548334604051610a7993929190612971565b60405180910390a250565b6001600160a01b03166000908152600c602052604090205490565b600f5481565b600080600260009054906101000a90046001600160a01b03166001600160a01b0316637a0ca0886040518163ffffffff1660e01b815260040160206040518083038186803b158015610af657600080fd5b505afa158015610b0a573d6000803e3d6000fd5b505050506040513d601f19601f82011682018060405250810190610b2e9190612368565b9050600080826001600160a01b031663a39fac126040518163ffffffff1660e01b815260040160606040518083038186803b158015610b6c57600080fd5b505afa158015610b80573d6000803e3d6000fd5b505050506040513d601f19601f82011682018060405250810190610ba49190612384565b92509250506000816001600160a01b031663dd62ed3e30856040518363ffffffff1660e01b8152600401610bd992919061247b565b60206040518083038186803b158015610bf157600080fd5b505afa158015610c05573d6000803e3d6000fd5b505050506040513d601f19601f82011682018060405250810190610c299190612408565b94505050505090565b600b5481565b6008546009546001600160a01b039091169082565b60026000541415610c705760405162461bcd60e51b8152600401610524906128fa565b60026000556001600a54610100900460ff166001811115610ca157634e487b7160e01b600052602160045260246000fd5b14610cbe5760405162461bcd60e51b8152600401610524906125e2565b6002600a5460ff166003811115610ce557634e487b7160e01b600052602160045260246000fd5b1480610d1557506003600a5460ff166003811115610d1357634e487b7160e01b600052602160045260246000fd5b145b610d315760405162461bcd60e51b8152600401610524906128c3565b336000908152600c6020526040812054600454909190610d529083906129b3565b905080471015610d745760405162461bcd60e51b8152600401610524906127d6565b336000908152600c60205260408120819055600b8054849290610d989084906129d2565b909155505060025460035460405163505a3d5b60e11b81526001600160a01b039092169163a0b47ab691610dd0918590600401612459565b600060405180830381600087803b158015610dea57600080fd5b505af1158015610dfe573d6000803e3d6000fd5b505060405133925083156108fc02915083906000818181858888f19350505050158015610e2f573d6000803e3d6000fd5b50336001600160a01b03167fb7029a2e3425140d13e631737cd4269675a18664ebe4356d84ea6943db8216586003548484604051610e6f93929190612971565b60405180910390a250506001600055565b60105490565b600080600260009054906101000a90046001600160a01b03166001600160a01b0316637a0ca0886040518163ffffffff1660e01b815260040160206040518083038186803b158015610ed757600080fd5b505afa158015610eeb573d6000803e3d6000fd5b505050506040513d601f19601f82011682018060405250810190610f0f9190612368565b90506000816001600160a01b031663a39fac126040518163ffffffff1660e01b815260040160606040518083038186803b158015610f4c57600080fd5b505afa158015610f60573d6000803e3d6000fd5b505050506040513d601f19601f82011682018060405250810190610f849190612384565b925050506000816001600160a01b03166370a08231306040518263ffffffff1660e01b8152600401610fb69190612467565b60206040518083038186803b158015610fce57600080fd5b505afa158015610fe2573d6000803e3d6000fd5b505050506040513d601f19601f820116820180604052508101906110069190612408565b935050505090565b600a54610100900460ff1681565b6110246119ee565b6001600160a01b031661103561129a565b6001600160a01b03161461105b5760405162461bcd60e51b81526004016105249061271b565b6001546040516000916001600160a01b0316907f8be0079c531659141344cd1fd0a4f28419497f9722a3daafe3b4186f6b6457e0908390a3600180546001600160a01b0319169055565b6110ad6119ee565b6001600160a01b03166110be61129a565b6001600160a01b0316146110e45760405162461bcd60e51b81526004016105249061271b565b6002600a5460ff16600381111561110b57634e487b7160e01b600052602160045260246000fd5b1415801561113e57506003600a5460ff16600381111561113b57634e487b7160e01b600052602160045260246000fd5b14155b61115a5760405162461bcd60e51b815260040161052490612523565b476005541161117b5760405162461bcd60e51b815260040161052490612637565b600260009054906101000a90046001600160a01b03166001600160a01b03166399da053a6040518163ffffffff1660e01b815260040160206040518083038186803b1580156111c957600080fd5b505afa1580156111dd573d6000803e3d6000fd5b505050506040513d601f19601f820116820180604052508101906112019190612408565b61120e90620151806129b3565b60075461121b9190612987565b42101561123a5760405162461bcd60e51b815260040161052490612750565b6001600a54610100900460ff16600181111561126657634e487b7160e01b600052602160045260246000fd5b1415611283576112746119f2565b61127c611fe5565b6011556010555b600a80546003919060ff19166001835b0217905550565b6001546001600160a01b031690565b60115481565b60055481565b6112bd6119ee565b6001600160a01b03166112ce61129a565b6001600160a01b0316146112f45760405162461bcd60e51b81526004016105249061271b565b600047116113145760405162461bcd60e51b815260040161052490612931565b6001600a54610100900460ff16600181111561134057634e487b7160e01b600052602160045260246000fd5b1461135d5760405162461bcd60e51b8152600401610524906126cb565b6000600a5460ff16600381111561138457634e487b7160e01b600052602160045260246000fd5b146113a15760405162461bcd60e51b815260040161052490612565565b600260009054906101000a90046001600160a01b03166001600160a01b03166399da053a6040518163ffffffff1660e01b815260040160206040518083038186803b1580156113ef57600080fd5b505afa158015611403573d6000803e3d6000fd5b505050506040513d601f19601f820116820180604052508101906114279190612408565b61143490620151806129b3565b6007546114419190612987565b4210156114605760405162461bcd60e51b815260040161052490612750565b611468612169565b600a80546001919060ff19168280611293565b600e546001600160a01b031681565b60035481565b6114986119ee565b6001600160a01b03166114a961129a565b6001600160a01b0316146114cf5760405162461bcd60e51b81526004016105249061271b565b6001600160a01b0381166114f55760405162461bcd60e51b81526004016105249061259c565b6001546040516001600160a01b038084169216907f8be0079c531659141344cd1fd0a4f28419497f9722a3daafe3b4186f6b6457e090600090a3600180546001600160a01b0319166001600160a01b0392909216919091179055565b60006001600a54610100900460ff16600181111561157f57634e487b7160e01b600052602160045260246000fd5b14156117135760025460408051630f41941160e31b815290516000926001600160a01b031691637a0ca088916004808301926020929190829003018186803b1580156115ca57600080fd5b505afa1580156115de573d6000803e3d6000fd5b505050506040513d601f19601f820116820180604052508101906116029190612368565b90506000816001600160a01b031663a39fac126040518163ffffffff1660e01b815260040160606040518083038186803b15801561163f57600080fd5b505afa158015611653573d6000803e3d6000fd5b505050506040513d601f19601f820116820180604052508101906116779190612384565b925050506000816001600160a01b03166370a08231306040518263ffffffff1660e01b81526004016116a99190612467565b60206040518083038186803b1580156116c157600080fd5b505afa1580156116d5573d6000803e3d6000fd5b505050506040513d601f19601f820116820180604052508101906116f99190612408565b9050600f548161170991906129d2565b93505050506104da565b5060006104da565b600d818154811061172b57600080fd5b6000918252602090912001546001600160a01b0316905081565b600260005414156117685760405162461bcd60e51b8152600401610524906128fa565b60026000908155600a5460ff16600381111561179457634e487b7160e01b600052602160045260246000fd5b146117b15760405162461bcd60e51b815260040161052490612694565b336000908152600c60205260409020548111156117e05760405162461bcd60e51b815260040161052490612844565b6000816004546117f091906129b3565b9050804710156118125760405162461bcd60e51b8152600401610524906127d6565b604051339082156108fc029083906000818181858888f1935050505015801561183f573d6000803e3d6000fd5b50336000908152600c60205260408120805484929061185f9084906129d2565b9250508190555081600b600082825461187891906129d2565b9091555060009050805b600d5481101561193757336001600160a01b0316600d82815481106118b757634e487b7160e01b600052603260045260246000fd5b6000918252602090912001546001600160a01b03161480156118d857508382105b1561192557600d81815481106118fe57634e487b7160e01b600052603260045260246000fd5b600091825260209091200180546001600160a01b0319169055611922600183612987565b91505b8061192f816129e9565b915050611882565b5060025460035460405163505a3d5b60e11b81526001600160a01b039092169163a0b47ab69161196b918690600401612459565b600060405180830381600087803b15801561198557600080fd5b505af1158015611999573d6000803e3d6000fd5b50505050336001600160a01b03167fdb8e3aedce772b982e904cfc947914829d47da2eb7b13e8cb30a726805abdad460035485856040516119dc93929190612971565b60405180910390a25050600160005550565b3390565b60025460408051630f41941160e31b815290516000926001600160a01b031691637a0ca088916004808301926020929190829003018186803b158015611a3757600080fd5b505afa158015611a4b573d6000803e3d6000fd5b505050506040513d601f19601f82011682018060405250810190611a6f9190612368565b90506000806000836001600160a01b031663a39fac126040518163ffffffff1660e01b815260040160606040518083038186803b158015611aaf57600080fd5b505afa158015611ac3573d6000803e3d6000fd5b505050506040513d601f19601f82011682018060405250810190611ae79190612384565b9250925092506000846001600160a01b0316848484604051602401611b0e93929190612495565b60408051601f198184030181529181526020820180516001600160e01b03166307be0fa560e21b17905251611b439190612420565b600060405180830381855af49150503d8060008114611b7e576040519150601f19603f3d011682016040523d82523d6000602084013e611b83565b606091505b50915050600081806020019051810190611b9d9190612408565b90507faac50b7fd37b9353a223df3787678aad7d567416d8cf6c3571bda75ee687ce5281604051611bce9190612968565b60405180910390a1505050505050565b600d546040516000918291611bf99042904490602001612459565b6040516020818303038152906040528051906020012060001c611c1c9190612a04565b9050600d8181548110611c3f57634e487b7160e01b600052603260045260246000fd5b6000918252602090912001546001600160a01b031691505090565b6000806000600f5447611c6d91906129d2565b905060006064600260009054906101000a90046001600160a01b03166001600160a01b031663be74264d6040518163ffffffff1660e01b815260040160206040518083038186803b158015611cc157600080fd5b505afa158015611cd5573d6000803e3d6000fd5b505050506040513d601f19601f82011682018060405250810190611cf99190612408565b611d0390846129b3565b611d0d919061299f565b90506000611d1b82846129d2565b90506000600260009054906101000a90046001600160a01b03166001600160a01b031663132996046040518163ffffffff1660e01b815260040160206040518083038186803b158015611d6d57600080fd5b505afa158015611d81573d6000803e3d6000fd5b505050506040513d601f19601f82011682018060405250810190611da59190612368565b6040519091506001600160a01b0382169084156108fc029085906000818181858888f19350505050158015611dde573d6000803e3d6000fd5b506006546040516001600160a01b0390911690819084156108fc029085906000818181858888f19350505050158015611e1b573d6000803e3d6000fd5b509195509193505050509091565b60008060006064600260009054906101000a90046001600160a01b03166001600160a01b031663be74264d6040518163ffffffff1660e01b815260040160206040518083038186803b158015611e7e57600080fd5b505afa158015611e92573d6000803e3d6000fd5b505050506040513d601f19601f82011682018060405250810190611eb69190612408565b611ec090476129b3565b611eca919061299f565b90506000611ed882476129d2565b90506000600260009054906101000a90046001600160a01b03166001600160a01b031663132996046040518163ffffffff1660e01b815260040160206040518083038186803b158015611f2a57600080fd5b505afa158015611f3e573d6000803e3d6000fd5b505050506040513d601f19601f82011682018060405250810190611f629190612368565b6040519091506001600160a01b0382169084156108fc029085906000818181858888f19350505050158015611f9b573d6000803e3d6000fd5b506006546040516001600160a01b0390911690819084156108fc029085906000818181858888f19350505050158015611fd8573d6000803e3d6000fd5b5091945091925050509091565b6000806000600f5447611ff891906129d2565b905060006064600260009054906101000a90046001600160a01b03166001600160a01b031663be74264d6040518163ffffffff1660e01b815260040160206040518083038186803b15801561204c57600080fd5b505afa158015612060573d6000803e3d6000fd5b505050506040513d601f19601f820116820180604052508101906120849190612408565b61208e90846129b3565b612098919061299f565b90506000600260009054906101000a90046001600160a01b03166001600160a01b031663132996046040518163ffffffff1660e01b815260040160206040518083038186803b1580156120ea57600080fd5b505afa1580156120fe573d6000803e3d6000fd5b505050506040513d601f19601f820116820180604052508101906121229190612368565b6040519091506001600160a01b0382169083156108fc029084906000818181858888f1935050505015801561215b573d6000803e3d6000fd5b506000945090925050509091565b60025460408051630f41941160e31b815290516000926001600160a01b031691637a0ca088916004808301926020929190829003018186803b1580156121ae57600080fd5b505afa1580156121c2573d6000803e3d6000fd5b505050506040513d601f19601f820116820180604052508101906121e69190612368565b9050600080826001600160a01b031663a39fac126040518163ffffffff1660e01b815260040160606040518083038186803b15801561222457600080fd5b505afa158015612238573d6000803e3d6000fd5b505050506040513d601f19601f8201168201806040525081019061225c9190612384565b60405163095ea7b360e01b815291945092506001600160a01b038316915063095ea7b390612292908590600019906004016124dc565b602060405180830381600087803b1580156122ac57600080fd5b505af11580156122c0573d6000803e3d6000fd5b505050506040513d601f19601f820116820180604052508101906122e491906123d0565b5047600f81905550826001600160a01b031663f6326fb3476040518263ffffffff1660e01b81526004016000604051808303818588803b15801561232757600080fd5b505af115801561233b573d6000803e3d6000fd5b5050505050505050565b600060208284031215612356578081fd5b813561236181612a5a565b9392505050565b600060208284031215612379578081fd5b815161236181612a5a565b600080600060608486031215612398578182fd5b83516123a381612a5a565b60208501519093506123b481612a5a565b60408501519092506123c581612a5a565b809150509250925092565b6000602082840312156123e1578081fd5b81518015158114612361578182fd5b600060208284031215612401578081fd5b5035919050565b600060208284031215612419578081fd5b5051919050565b60008251815b818110156124405760208186018101518583015201612426565b8181111561244e5782828501525b509190910192915050565b918252602082015260400190565b6001600160a01b0391909116815260200190565b6001600160a01b0392831681529116602082015260400190565b6001600160a01b0393841681529183166020830152909116604082015260600190565b6001600160a01b039384168152919092166020820152604081019190915260600190565b6001600160a01b03929092168252602082015260400190565b602081016002831061250957612509612a44565b91905290565b602081016004831061250957612509612a44565b60208082526022908201527f546865206c6f747465727920706f6f6c20697320616c726561647920636c6f73604082015261195960f21b606082015260800190565b60208082526017908201527f546865206c6f7474657279206973206e6f74206f70656e000000000000000000604082015260600190565b60208082526026908201527f4f776e61626c653a206e6577206f776e657220697320746865207a65726f206160408201526564647265737360d01b606082015260800190565b60208082526035908201527f5469636b6574732063616e206f6e6c792062652072656465656d656420696e206040820152747374616b696e67206c6f747465727920706f6f6c7360581b606082015260800190565b6020808252603a908201527f43616e6e6f742063616e63656c206c6f74746572792e20546865206d696e696d60408201527f756d20616d6f756e7420686173206265656e2072656163686564000000000000606082015260800190565b6020808252601c908201527f546865206c6f747465727920706f6f6c206973206e6f74206f70656e00000000604082015260600190565b60208082526030908201527f4c6f747465727920706f6f6c2074797065206973206e6f7420636f6d7061746960408201526f626c652077697468207374616b696e6760801b606082015260800190565b6020808252818101527f4f776e61626c653a2063616c6c6572206973206e6f7420746865206f776e6572604082015260600190565b60208082526023908201527f596f75206d757374207761697420746865206d696e696d756d206f70656e206460408201526261797360e81b606082015260800190565b60208082526023908201527f416d6f756e742073656e7420697320646966666572656e74207468616e20707260408201526269636560e81b606082015260800190565b6020808252601f908201527f4e6f7420656e6f756768206d6f6e657920696e207468652062616c616e636500604082015260600190565b6020808252601f908201527f546865206c6f747465727920706f6f6c206973206e6f74207374616b696e6700604082015260600190565b6020808252601e908201527f596f7520646f206e6f74206861766520656e6f756768207469636b6574730000604082015260600190565b60208082526028908201527f436f6e7472616374206973206e6f7420617070726f76656420746f207472616e6040820152671cd9995c8813919560c21b606082015260800190565b6020808252601e908201527f546865206c6f747465727920706f6f6c206973206e6f7420636c6f7365640000604082015260600190565b6020808252601f908201527f5265656e7472616e637947756172643a207265656e7472616e742063616c6c00604082015260600190565b6020808252601e908201527f42616c616e6365206d7573742062652067726561746572207468616e20300000604082015260600190565b90815260200190565b9283526020830191909152604082015260600190565b6000821982111561299a5761299a612a18565b500190565b6000826129ae576129ae612a2e565b500490565b60008160001904831182151516156129cd576129cd612a18565b500290565b6000828210156129e4576129e4612a18565b500390565b60006000198214156129fd576129fd612a18565b5060010190565b600082612a1357612a13612a2e565b500690565b634e487b7160e01b600052601160045260246000fd5b634e487b7160e01b600052601260045260246000fd5b634e487b7160e01b600052602160045260246000fd5b6001600160a01b0381168114612a6f57600080fd5b5056fea2646970667358221220bb99ef6bf053ff7ab638fd7996b9af3c1d0681f04f3f61466062bb2d35af795164736f6c63430008000033",
  "linkReferences": {},
  "deployedLinkReferences": {}
}