{
  "_format": "hh-sol-artifact-1",
  "contractName": "Lottery",
  "sourceName": "contracts/Lottery.sol",
  "abi": [
    {
      "inputs": [
        {
          "internalType": "uint256",
          "name": "_lotteryId",
          "type": "uint256"
        },
        {
          "internalType": "address",
          "name": "_creator",
          "type": "address"
        },
        {
          "internalType": "address",
          "name": "_nftAddress",
          "type": "address"
        },
        {
          "internalType": "uint256",
          "name": "_nftIndex",
          "type": "uint256"
        },
        {
          "internalType": "uint256",
          "name": "_ticketPrice",
          "type": "uint256"
        },
        {
          "internalType": "uint256",
          "name": "_created",
          "type": "uint256"
        }
      ],
      "stateMutability": "nonpayable",
      "type": "constructor"
    },
    {
      "anonymous": false,
      "inputs": [
        {
          "indexed": true,
          "internalType": "address",
          "name": "previousOwner",
          "type": "address"
        },
        {
          "indexed": true,
          "internalType": "address",
          "name": "newOwner",
          "type": "address"
        }
      ],
      "name": "OwnershipTransferred",
      "type": "event"
    },
    {
      "anonymous": false,
      "inputs": [
        {
          "indexed": false,
          "internalType": "uint256",
          "name": "lotteryId",
          "type": "uint256"
        },
        {
          "indexed": true,
          "internalType": "address",
          "name": "buyer",
          "type": "address"
        },
        {
          "indexed": false,
          "internalType": "uint256",
          "name": "numberOfTickets",
          "type": "uint256"
        },
        {
          "indexed": false,
          "internalType": "uint256",
          "name": "amount",
          "type": "uint256"
        }
      ],
      "name": "TicketsBought",
      "type": "event"
    },
    {
      "anonymous": false,
      "inputs": [
        {
          "indexed": false,
          "internalType": "uint256",
          "name": "lotteryId",
          "type": "uint256"
        },
        {
          "indexed": true,
          "internalType": "address",
          "name": "buyer",
          "type": "address"
        },
        {
          "indexed": false,
          "internalType": "uint256",
          "name": "numberOfTickets",
          "type": "uint256"
        },
        {
          "indexed": false,
          "internalType": "uint256",
          "name": "amount",
          "type": "uint256"
        }
      ],
      "name": "TicketsCancelled",
      "type": "event"
    },
    {
      "inputs": [
        {
          "internalType": "uint256",
          "name": "_numberOfTickets",
          "type": "uint256"
        }
      ],
      "name": "buyTickets",
      "outputs": [],
      "stateMutability": "payable",
      "type": "function"
    },
    {
      "inputs": [
        {
          "internalType": "uint256",
          "name": "_numberOfTickets",
          "type": "uint256"
        }
      ],
      "name": "cancelTickets",
      "outputs": [],
      "stateMutability": "nonpayable",
      "type": "function"
    },
    {
      "inputs": [],
      "name": "creator",
      "outputs": [
        {
          "internalType": "address",
          "name": "",
          "type": "address"
        }
      ],
      "stateMutability": "view",
      "type": "function"
    },
    {
      "inputs": [
        {
          "internalType": "address",
          "name": "_addr",
          "type": "address"
        }
      ],
      "name": "getAddressTickets",
      "outputs": [
        {
          "internalType": "uint256",
          "name": "",
          "type": "uint256"
        }
      ],
      "stateMutability": "view",
      "type": "function"
    },
    {
      "inputs": [],
      "name": "getBalance",
      "outputs": [
        {
          "internalType": "uint256",
          "name": "",
          "type": "uint256"
        }
      ],
      "stateMutability": "view",
      "type": "function"
    },
    {
      "inputs": [],
      "name": "lotteryId",
      "outputs": [
        {
          "internalType": "uint256",
          "name": "",
          "type": "uint256"
        }
      ],
      "stateMutability": "view",
      "type": "function"
    },
    {
      "inputs": [],
      "name": "nft",
      "outputs": [
        {
          "internalType": "address",
          "name": "addr",
          "type": "address"
        },
        {
          "internalType": "uint256",
          "name": "index",
          "type": "uint256"
        }
      ],
      "stateMutability": "view",
      "type": "function"
    },
    {
      "inputs": [],
      "name": "numberOfTickets",
      "outputs": [
        {
          "internalType": "uint256",
          "name": "",
          "type": "uint256"
        }
      ],
      "stateMutability": "view",
      "type": "function"
    },
    {
      "inputs": [],
      "name": "owner",
      "outputs": [
        {
          "internalType": "address",
          "name": "",
          "type": "address"
        }
      ],
      "stateMutability": "view",
      "type": "function"
    },
    {
      "inputs": [
        {
          "internalType": "uint256",
          "name": "",
          "type": "uint256"
        }
      ],
      "name": "players",
      "outputs": [
        {
          "internalType": "address",
          "name": "",
          "type": "address"
        }
      ],
      "stateMutability": "view",
      "type": "function"
    },
    {
      "inputs": [],
      "name": "renounceOwnership",
      "outputs": [],
      "stateMutability": "nonpayable",
      "type": "function"
    },
    {
      "inputs": [],
      "name": "state",
      "outputs": [
        {
          "internalType": "enum Lottery.State",
          "name": "",
          "type": "uint8"
        }
      ],
      "stateMutability": "view",
      "type": "function"
    },
    {
      "inputs": [],
      "name": "ticketPrice",
      "outputs": [
        {
          "internalType": "uint256",
          "name": "",
          "type": "uint256"
        }
      ],
      "stateMutability": "view",
      "type": "function"
    },
    {
      "inputs": [
        {
          "internalType": "address",
          "name": "newOwner",
          "type": "address"
        }
      ],
      "name": "transferOwnership",
      "outputs": [],
      "stateMutability": "nonpayable",
      "type": "function"
    },
    {
      "inputs": [],
      "name": "winner",
      "outputs": [
        {
          "internalType": "address",
          "name": "",
          "type": "address"
        }
      ],
      "stateMutability": "view",
      "type": "function"
    }
  ],
  "bytecode": "0x60806040523480156200001157600080fd5b506040516200197b3803806200197b8339818101604052810190620000379190620002a0565b6000620000496200024160201b60201c565b9050806000806101000a81548173ffffffffffffffffffffffffffffffffffffffff021916908373ffffffffffffffffffffffffffffffffffffffff1602179055508073ffffffffffffffffffffffffffffffffffffffff16600073ffffffffffffffffffffffffffffffffffffffff167f8be0079c531659141344cd1fd0a4f28419497f9722a3daafe3b4186f6b6457e060405160405180910390a350620000f76200024960201b60201c565b600160006101000a81548173ffffffffffffffffffffffffffffffffffffffff021916908373ffffffffffffffffffffffffffffffffffffffff1602179055508560028190555084600460006101000a81548173ffffffffffffffffffffffffffffffffffffffff021916908373ffffffffffffffffffffffffffffffffffffffff1602179055508160038190555083600660000160006101000a81548173ffffffffffffffffffffffffffffffffffffffff021916908373ffffffffffffffffffffffffffffffffffffffff160217905550826006600101819055506000600b60006101000a81548160ff0219169083600281111562000221577f4e487b7100000000000000000000000000000000000000000000000000000000600052602160045260246000fd5b0217905550806005819055506000600981905550505050505050620003a8565b600033905090565b60008060009054906101000a900473ffffffffffffffffffffffffffffffffffffffff16905090565b600081519050620002838162000374565b92915050565b6000815190506200029a816200038e565b92915050565b60008060008060008060c08789031215620002ba57600080fd5b6000620002ca89828a0162000289565b9650506020620002dd89828a0162000272565b9550506040620002f089828a0162000272565b94505060606200030389828a0162000289565b93505060806200031689828a0162000289565b92505060a06200032989828a0162000289565b9150509295509295509295565b600062000343826200034a565b9050919050565b600073ffffffffffffffffffffffffffffffffffffffff82169050919050565b6000819050919050565b6200037f8162000336565b81146200038b57600080fd5b50565b62000399816200036a565b8114620003a557600080fd5b50565b6115c380620003b86000396000f3fe6080604052600436106100e85760003560e01c80638da5cb5b1161008a578063e580f47b11610059578063e580f47b146102b6578063f2fde38b146102e1578063f71d96cb1461030a578063fc22389a14610347576100e8565b80638da5cb5b146101f8578063bb6acfc614610223578063c19d93fb14610260578063dfbf53ae1461028b576100e8565b80632f366637116100c65780632f3666371461016e57806345745c101461018a57806347ccca02146101b5578063715018a6146101e1576100e8565b806302d05d3f146100ed57806312065fe0146101185780631209b1f614610143575b600080fd5b3480156100f957600080fd5b50610102610370565b60405161010f91906111b4565b60405180910390f35b34801561012457600080fd5b5061012d610396565b60405161013a91906112d3565b60405180910390f35b34801561014f57600080fd5b5061015861039e565b60405161016591906112d3565b60405180910390f35b61018860048036038101906101839190610f6c565b6103a4565b005b34801561019657600080fd5b5061019f61068e565b6040516101ac91906112d3565b60405180910390f35b3480156101c157600080fd5b506101ca610694565b6040516101d89291906111cf565b60405180910390f35b3480156101ed57600080fd5b506101f66106c6565b005b34801561020457600080fd5b5061020d610800565b60405161021a91906111b4565b60405180910390f35b34801561022f57600080fd5b5061024a60048036038101906102459190610f43565b610829565b60405161025791906112d3565b60405180910390f35b34801561026c57600080fd5b50610275610872565b60405161028291906111f8565b60405180910390f35b34801561029757600080fd5b506102a0610885565b6040516102ad91906111b4565b60405180910390f35b3480156102c257600080fd5b506102cb6108ab565b6040516102d891906112d3565b60405180910390f35b3480156102ed57600080fd5b5061030860048036038101906103039190610f43565b6108b1565b005b34801561031657600080fd5b50610331600480360381019061032c9190610f6c565b610a5a565b60405161033e91906111b4565b60405180910390f35b34801561035357600080fd5b5061036e60048036038101906103699190610f6c565b610a99565b005b600460009054906101000a900473ffffffffffffffffffffffffffffffffffffffff1681565b600047905090565b60035481565b600060028111156103de577f4e487b7100000000000000000000000000000000000000000000000000000000600052602160045260246000fd5b600b60009054906101000a900460ff166002811115610426577f4e487b7100000000000000000000000000000000000000000000000000000000600052602160045260246000fd5b14610466576040517f08c379a000000000000000000000000000000000000000000000000000000000815260040161045d90611233565b60405180910390fd5b8060035461047491906113b5565b34146104b5576040517f08c379a00000000000000000000000000000000000000000000000000000000081526004016104ac90611273565b60405180910390fd5b80600860003373ffffffffffffffffffffffffffffffffffffffff1673ffffffffffffffffffffffffffffffffffffffff1681526020019081526020016000206000828254610504919061135f565b9250508190555060005b8181101561058c57600a339080600181540180825580915050600190039060005260206000200160009091909190916101000a81548173ffffffffffffffffffffffffffffffffffffffff021916908373ffffffffffffffffffffffffffffffffffffffff1602179055508080610584906114a4565b91505061050e565b50806009600082825461059f919061135f565b92505081905550600160009054906101000a900473ffffffffffffffffffffffffffffffffffffffff1673ffffffffffffffffffffffffffffffffffffffff166304454811600254346040518363ffffffff1660e01b81526004016106059291906112ee565b600060405180830381600087803b15801561061f57600080fd5b505af1158015610633573d6000803e3d6000fd5b505050503373ffffffffffffffffffffffffffffffffffffffff167fc8c5c2b0e44fb6312c0098ec42642058527713d0a1d29a5c6ccbfe34d714d41e600254833460405161068393929190611317565b60405180910390a250565b60095481565b60068060000160009054906101000a900473ffffffffffffffffffffffffffffffffffffffff16908060010154905082565b6106ce610f11565b73ffffffffffffffffffffffffffffffffffffffff166106ec610800565b73ffffffffffffffffffffffffffffffffffffffff1614610742576040517f08c379a000000000000000000000000000000000000000000000000000000000815260040161073990611253565b60405180910390fd5b600073ffffffffffffffffffffffffffffffffffffffff1660008054906101000a900473ffffffffffffffffffffffffffffffffffffffff1673ffffffffffffffffffffffffffffffffffffffff167f8be0079c531659141344cd1fd0a4f28419497f9722a3daafe3b4186f6b6457e060405160405180910390a360008060006101000a81548173ffffffffffffffffffffffffffffffffffffffff021916908373ffffffffffffffffffffffffffffffffffffffff160217905550565b60008060009054906101000a900473ffffffffffffffffffffffffffffffffffffffff16905090565b6000600860008373ffffffffffffffffffffffffffffffffffffffff1673ffffffffffffffffffffffffffffffffffffffff168152602001908152602001600020549050919050565b600b60009054906101000a900460ff1681565b600b60019054906101000a900473ffffffffffffffffffffffffffffffffffffffff1681565b60025481565b6108b9610f11565b73ffffffffffffffffffffffffffffffffffffffff166108d7610800565b73ffffffffffffffffffffffffffffffffffffffff161461092d576040517f08c379a000000000000000000000000000000000000000000000000000000000815260040161092490611253565b60405180910390fd5b600073ffffffffffffffffffffffffffffffffffffffff168173ffffffffffffffffffffffffffffffffffffffff16141561099d576040517f08c379a000000000000000000000000000000000000000000000000000000000815260040161099490611213565b60405180910390fd5b8073ffffffffffffffffffffffffffffffffffffffff1660008054906101000a900473ffffffffffffffffffffffffffffffffffffffff1673ffffffffffffffffffffffffffffffffffffffff167f8be0079c531659141344cd1fd0a4f28419497f9722a3daafe3b4186f6b6457e060405160405180910390a3806000806101000a81548173ffffffffffffffffffffffffffffffffffffffff021916908373ffffffffffffffffffffffffffffffffffffffff16021790555050565b600a8181548110610a6a57600080fd5b906000526020600020016000915054906101000a900473ffffffffffffffffffffffffffffffffffffffff1681565b60006002811115610ad3577f4e487b7100000000000000000000000000000000000000000000000000000000600052602160045260246000fd5b600b60009054906101000a900460ff166002811115610b1b577f4e487b7100000000000000000000000000000000000000000000000000000000600052602160045260246000fd5b14610b5b576040517f08c379a0000000000000000000000000000000000000000000000000000000008152600401610b5290611233565b60405180910390fd5b80600860003373ffffffffffffffffffffffffffffffffffffffff1673ffffffffffffffffffffffffffffffffffffffff168152602001908152602001600020541015610bdd576040517f08c379a0000000000000000000000000000000000000000000000000000000008152600401610bd4906112b3565b60405180910390fd5b600081600354610bed91906113b5565b905080471015610c32576040517f08c379a0000000000000000000000000000000000000000000000000000000008152600401610c2990611293565b60405180910390fd5b3373ffffffffffffffffffffffffffffffffffffffff166108fc829081150290604051600060405180830381858888f19350505050158015610c78573d6000803e3d6000fd5b5081600860003373ffffffffffffffffffffffffffffffffffffffff1673ffffffffffffffffffffffffffffffffffffffff1681526020019081526020016000206000828254610cc8919061140f565b925050819055508160096000828254610ce1919061140f565b925050819055506000805b600a80549050811015610e26573373ffffffffffffffffffffffffffffffffffffffff16600a8281548110610d4a577f4e487b7100000000000000000000000000000000000000000000000000000000600052603260045260246000fd5b9060005260206000200160009054906101000a900473ffffffffffffffffffffffffffffffffffffffff1673ffffffffffffffffffffffffffffffffffffffff16148015610d9757508382105b15610e1357600a8181548110610dd6577f4e487b7100000000000000000000000000000000000000000000000000000000600052603260045260246000fd5b9060005260206000200160006101000a81549073ffffffffffffffffffffffffffffffffffffffff0219169055600182610e10919061135f565b91505b8080610e1e906114a4565b915050610cec565b50600160009054906101000a900473ffffffffffffffffffffffffffffffffffffffff1673ffffffffffffffffffffffffffffffffffffffff1663a0b47ab6600254846040518363ffffffff1660e01b8152600401610e869291906112ee565b600060405180830381600087803b158015610ea057600080fd5b505af1158015610eb4573d6000803e3d6000fd5b505050503373ffffffffffffffffffffffffffffffffffffffff167fdb8e3aedce772b982e904cfc947914829d47da2eb7b13e8cb30a726805abdad46002548585604051610f0493929190611317565b60405180910390a2505050565b600033905090565b600081359050610f288161155f565b92915050565b600081359050610f3d81611576565b92915050565b600060208284031215610f5557600080fd5b6000610f6384828501610f19565b91505092915050565b600060208284031215610f7e57600080fd5b6000610f8c84828501610f2e565b91505092915050565b610f9e81611443565b82525050565b610fad81611492565b82525050565b6000610fc060268361134e565b91507f4f776e61626c653a206e6577206f776e657220697320746865207a65726f206160008301527f64647265737300000000000000000000000000000000000000000000000000006020830152604082019050919050565b600061102660228361134e565b91507f546865206c6f7474657279206f70656e20706572696f642077617320636c6f7360008301527f65640000000000000000000000000000000000000000000000000000000000006020830152604082019050919050565b600061108c60208361134e565b91507f4f776e61626c653a2063616c6c6572206973206e6f7420746865206f776e65726000830152602082019050919050565b60006110cc60238361134e565b91507f416d6f756e742073656e7420697320646966666572656e74207468616e20707260008301527f69636500000000000000000000000000000000000000000000000000000000006020830152604082019050919050565b6000611132601f8361134e565b91507f4e6f7420656e6f756768206d6f6e657920696e207468652062616c616e6365006000830152602082019050919050565b6000611172601e8361134e565b91507f596f7520646f206e6f74206861766520656e6f756768207469636b65747300006000830152602082019050919050565b6111ae81611488565b82525050565b60006020820190506111c96000830184610f95565b92915050565b60006040820190506111e46000830185610f95565b6111f160208301846111a5565b9392505050565b600060208201905061120d6000830184610fa4565b92915050565b6000602082019050818103600083015261122c81610fb3565b9050919050565b6000602082019050818103600083015261124c81611019565b9050919050565b6000602082019050818103600083015261126c8161107f565b9050919050565b6000602082019050818103600083015261128c816110bf565b9050919050565b600060208201905081810360008301526112ac81611125565b9050919050565b600060208201905081810360008301526112cc81611165565b9050919050565b60006020820190506112e860008301846111a5565b92915050565b600060408201905061130360008301856111a5565b61131060208301846111a5565b9392505050565b600060608201905061132c60008301866111a5565b61133960208301856111a5565b61134660408301846111a5565b949350505050565b600082825260208201905092915050565b600061136a82611488565b915061137583611488565b9250827fffffffffffffffffffffffffffffffffffffffffffffffffffffffffffffffff038211156113aa576113a96114ed565b5b828201905092915050565b60006113c082611488565b91506113cb83611488565b9250817fffffffffffffffffffffffffffffffffffffffffffffffffffffffffffffffff0483118215151615611404576114036114ed565b5b828202905092915050565b600061141a82611488565b915061142583611488565b925082821015611438576114376114ed565b5b828203905092915050565b600061144e82611468565b9050919050565b60008190506114638261154b565b919050565b600073ffffffffffffffffffffffffffffffffffffffff82169050919050565b6000819050919050565b600061149d82611455565b9050919050565b60006114af82611488565b91507fffffffffffffffffffffffffffffffffffffffffffffffffffffffffffffffff8214156114e2576114e16114ed565b5b600182019050919050565b7f4e487b7100000000000000000000000000000000000000000000000000000000600052601160045260246000fd5b7f4e487b7100000000000000000000000000000000000000000000000000000000600052602160045260246000fd5b6003811061155c5761155b61151c565b5b50565b61156881611443565b811461157357600080fd5b50565b61157f81611488565b811461158a57600080fd5b5056fea26469706673582212203e43f155dfafa9e5b9eca18366fea45f00fbcfcb515f7ed9173e29338c6536d464736f6c63430008000033",
  "linkReferences": {},
  "deployedLinkReferences": {}
}