{
  "_format": "hh-sol-artifact-1",
  "contractName": "LotteryPoolStaking",
  "sourceName": "contracts/LotteryPoolStaking.sol",
  "abi": [
    {
      "inputs": [
        {
          "internalType": "address",
          "name": "_lendingPoolAddressesProvider",
          "type": "address"
        },
        {
          "internalType": "address",
          "name": "_wethGateway",
          "type": "address"
        },
        {
          "internalType": "address",
          "name": "_aWethAddress",
          "type": "address"
        }
      ],
      "stateMutability": "nonpayable",
      "type": "constructor"
    },
    {
      "inputs": [],
      "name": "depositETH",
      "outputs": [],
      "stateMutability": "payable",
      "type": "function"
    },
    {
      "inputs": [
        {
          "internalType": "address",
          "name": "_addr",
          "type": "address"
        }
      ],
      "name": "getAWETHAllowance",
      "outputs": [
        {
          "internalType": "uint256",
          "name": "",
          "type": "uint256"
        }
      ],
      "stateMutability": "view",
      "type": "function"
    },
    {
      "inputs": [
        {
          "internalType": "address",
          "name": "_addr",
          "type": "address"
        }
      ],
      "name": "getAWETHBalance",
      "outputs": [
        {
          "internalType": "uint256",
          "name": "",
          "type": "uint256"
        }
      ],
      "stateMutability": "view",
      "type": "function"
    },
    {
      "inputs": [],
      "name": "getAddresses",
      "outputs": [
        {
          "internalType": "address",
          "name": "",
          "type": "address"
        },
        {
          "internalType": "address",
          "name": "",
          "type": "address"
        },
        {
          "internalType": "address",
          "name": "",
          "type": "address"
        }
      ],
      "stateMutability": "view",
      "type": "function"
    },
    {
      "inputs": [],
      "name": "getUserAccountData",
      "outputs": [
        {
          "internalType": "uint256",
          "name": "",
          "type": "uint256"
        },
        {
          "internalType": "uint256",
          "name": "",
          "type": "uint256"
        },
        {
          "internalType": "uint256",
          "name": "",
          "type": "uint256"
        },
        {
          "internalType": "uint256",
          "name": "",
          "type": "uint256"
        },
        {
          "internalType": "uint256",
          "name": "",
          "type": "uint256"
        },
        {
          "internalType": "uint256",
          "name": "",
          "type": "uint256"
        }
      ],
      "stateMutability": "view",
      "type": "function"
    },
    {
      "inputs": [
        {
          "internalType": "address",
          "name": "_lendingPoolAddressesProvider",
          "type": "address"
        },
        {
          "internalType": "address",
          "name": "_wethGateway",
          "type": "address"
        },
        {
          "internalType": "address",
          "name": "_aWethAddress",
          "type": "address"
        }
      ],
      "name": "withdrawETH",
      "outputs": [
        {
          "internalType": "uint256",
          "name": "",
          "type": "uint256"
        }
      ],
      "stateMutability": "nonpayable",
      "type": "function"
    }
  ],
  "bytecode": "0x608060405234801561001057600080fd5b5060405161099a38038061099a83398101604081905261002f91610110565b600080546001600160a01b038086166001600160a01b031992831617909255600180548584169083161790819055600280548585169316929092179182905560405163095ea7b360e01b81529183169263095ea7b392610099929091169060001990600401610179565b602060405180830381600087803b1580156100b357600080fd5b505af11580156100c7573d6000803e3d6000fd5b505050506040513d601f19601f820116820180604052508101906100eb9190610152565b50505050610192565b80516001600160a01b038116811461010b57600080fd5b919050565b600080600060608486031215610124578283fd5b61012d846100f4565b925061013b602085016100f4565b9150610149604085016100f4565b90509250925092565b600060208284031215610163578081fd5b81518015158114610172578182fd5b9392505050565b6001600160a01b03929092168252602082015260400190565b6107f9806101a16000396000f3fe6080604052600436106100555760003560e01c80631ef83e941461005a57806334bb90b614610090578063a39fac12146100b0578063e125e5b8146100d4578063f6326fb3146100fb578063fff0834814610105575b600080fd5b34801561006657600080fd5b5061007a610075366004610634565b610125565b604051610087919061077a565b60405180910390f35b34801561009c57600080fd5b5061007a6100ab3660046105fc565b610288565b3480156100bc57600080fd5b506100c561031a565b6040516100879392919061070d565b3480156100e057600080fd5b506100e9610337565b60405161008796959493929190610783565b61010361047b565b005b34801561011157600080fd5b5061007a6101203660046105fc565b6104f2565b600080846001600160a01b0316630261bf8b6040518163ffffffff1660e01b815260040160206040518083038186803b15801561016157600080fd5b505afa158015610175573d6000803e3d6000fd5b505050506040513d601f19601f820116820180604052508101906101999190610618565b90506000836001600160a01b03166370a08231306040518263ffffffff1660e01b81526004016101c991906106df565b60206040518083038186803b1580156101e157600080fd5b505afa1580156101f5573d6000803e3d6000fd5b505050506040513d601f19601f82011682018060405250810190610219919061067e565b604051630402806960e51b81529091506001600160a01b038616906380500d209061024c90859085903090600401610757565b600060405180830381600087803b15801561026657600080fd5b505af115801561027a573d6000803e3d6000fd5b509298975050505050505050565b600254600154604051636eb1769f60e11b815260009283926001600160a01b039182169263dd62ed3e926102c39288929116906004016106f3565b60206040518083038186803b1580156102db57600080fd5b505afa1580156102ef573d6000803e3d6000fd5b505050506040513d601f19601f82011682018060405250810190610313919061067e565b9392505050565b6000546001546002546001600160a01b0392831693918316921690565b60008060008060008060008060009054906101000a90046001600160a01b03166001600160a01b0316630261bf8b6040518163ffffffff1660e01b815260040160206040518083038186803b15801561038f57600080fd5b505afa1580156103a3573d6000803e3d6000fd5b505050506040513d601f19601f820116820180604052508101906103c79190610618565b9050600080600080600080866001600160a01b031663bf92857c306040518263ffffffff1660e01b81526004016103fe91906106df565b60c06040518083038186803b15801561041657600080fd5b505afa15801561042a573d6000803e3d6000fd5b505050506040513d601f19601f8201168201806040525081019061044e9190610696565b9550955095509550955095508585858585859c509c509c509c509c509c5050505050505050909192939495565b6000610485610579565b60015460405163474cf53d60e01b81529192506001600160a01b03169063474cf53d9034906104bd9085903390600090600401610730565b6000604051808303818588803b1580156104d657600080fd5b505af11580156104ea573d6000803e3d6000fd5b505050505050565b6002546040516370a0823160e01b81526000916001600160a01b0316906370a08231906105239085906004016106df565b60206040518083038186803b15801561053b57600080fd5b505afa15801561054f573d6000803e3d6000fd5b505050506040513d601f19601f82011682018060405250810190610573919061067e565b92915050565b6000805460408051630261bf8b60e01b8152905183926001600160a01b031691630261bf8b916004808301926020929190829003018186803b1580156105be57600080fd5b505afa1580156105d2573d6000803e3d6000fd5b505050506040513d601f19601f820116820180604052508101906105f69190610618565b91505090565b60006020828403121561060d578081fd5b8135610313816107ab565b600060208284031215610629578081fd5b8151610313816107ab565b600080600060608486031215610648578182fd5b8335610653816107ab565b92506020840135610663816107ab565b91506040840135610673816107ab565b809150509250925092565b60006020828403121561068f578081fd5b5051919050565b60008060008060008060c087890312156106ae578182fd5b865195506020870151945060408701519350606087015192506080870151915060a087015190509295509295509295565b6001600160a01b0391909116815260200190565b6001600160a01b0392831681529116602082015260400190565b6001600160a01b0393841681529183166020830152909116604082015260600190565b6001600160a01b03938416815291909216602082015261ffff909116604082015260600190565b6001600160a01b0393841681526020810192909252909116604082015260600190565b90815260200190565b958652602086019490945260408501929092526060840152608083015260a082015260c00190565b6001600160a01b03811681146107c057600080fd5b5056fea264697066735822122024fa8a077b63fc6c0df95646aa04330fa81b74fc3f1170848f0920f89b61ffa964736f6c63430008000033",
  "linkReferences": {},
  "deployedLinkReferences": {}
}