{
  "_format": "hh-sol-artifact-1",
  "contractName": "LotteryPoolFactory",
  "sourceName": "contracts/LotteryPoolFactory.sol",
  "abi": [
    {
      "inputs": [],
      "stateMutability": "nonpayable",
      "type": "constructor"
    },
    {
      "anonymous": false,
      "inputs": [
        {
          "indexed": false,
          "internalType": "uint256",
          "name": "feePercent",
          "type": "uint256"
        }
      ],
      "name": "FeePercentChanged",
      "type": "event"
    },
    {
      "anonymous": false,
      "inputs": [
        {
          "indexed": false,
          "internalType": "uint256",
          "name": "lotteryId",
          "type": "uint256"
        }
      ],
      "name": "LotteryCancelled",
      "type": "event"
    },
    {
      "anonymous": false,
      "inputs": [
        {
          "indexed": false,
          "internalType": "uint256",
          "name": "lotteryId",
          "type": "uint256"
        },
        {
          "indexed": false,
          "internalType": "address",
          "name": "winner",
          "type": "address"
        }
      ],
      "name": "LotteryClosed",
      "type": "event"
    },
    {
      "anonymous": false,
      "inputs": [
        {
          "indexed": false,
          "internalType": "uint256",
          "name": "lotteryId",
          "type": "uint256"
        },
        {
          "indexed": false,
          "internalType": "address",
          "name": "creator",
          "type": "address"
        },
        {
          "indexed": false,
          "internalType": "address",
          "name": "lotteryAddress",
          "type": "address"
        },
        {
          "indexed": false,
          "internalType": "address",
          "name": "nftAddress",
          "type": "address"
        },
        {
          "indexed": false,
          "internalType": "uint256",
          "name": "nftIndex",
          "type": "uint256"
        },
        {
          "indexed": false,
          "internalType": "uint256",
          "name": "ticketPrice",
          "type": "uint256"
        },
        {
          "indexed": false,
          "internalType": "uint256",
          "name": "created",
          "type": "uint256"
        },
        {
          "indexed": false,
          "internalType": "enum LotteryPoolFactory.LotteryPoolType",
          "name": "lotteryPoolType",
          "type": "uint8"
        },
        {
          "indexed": false,
          "internalType": "uint256",
          "name": "minAmount",
          "type": "uint256"
        }
      ],
      "name": "LotteryCreated",
      "type": "event"
    },
    {
      "anonymous": false,
      "inputs": [
        {
          "indexed": false,
          "internalType": "uint256",
          "name": "lotteryId",
          "type": "uint256"
        }
      ],
      "name": "LotteryStaked",
      "type": "event"
    },
    {
      "anonymous": false,
      "inputs": [
        {
          "indexed": true,
          "internalType": "address",
          "name": "previousOwner",
          "type": "address"
        },
        {
          "indexed": true,
          "internalType": "address",
          "name": "newOwner",
          "type": "address"
        }
      ],
      "name": "OwnershipTransferred",
      "type": "event"
    },
    {
      "anonymous": false,
      "inputs": [
        {
          "indexed": true,
          "internalType": "address",
          "name": "addr",
          "type": "address"
        }
      ],
      "name": "WalletChanged",
      "type": "event"
    },
    {
      "inputs": [
        {
          "internalType": "uint256",
          "name": "_lotteryId",
          "type": "uint256"
        }
      ],
      "name": "cancelLottery",
      "outputs": [],
      "stateMutability": "nonpayable",
      "type": "function"
    },
    {
      "inputs": [
        {
          "internalType": "address",
          "name": "_nftAddress",
          "type": "address"
        },
        {
          "internalType": "uint256",
          "name": "_nftIndex",
          "type": "uint256"
        },
        {
          "internalType": "uint256",
          "name": "_ticketPrice",
          "type": "uint256"
        },
        {
          "internalType": "enum LotteryPoolFactory.LotteryPoolType",
          "name": "_lotteryPoolType",
          "type": "uint8"
        },
        {
          "internalType": "uint256",
          "name": "_minAmount",
          "type": "uint256"
        }
      ],
      "name": "createLottery",
      "outputs": [],
      "stateMutability": "nonpayable",
      "type": "function"
    },
    {
      "inputs": [
        {
          "internalType": "uint256",
          "name": "_lotteryId",
          "type": "uint256"
        }
      ],
      "name": "declareWinner",
      "outputs": [],
      "stateMutability": "nonpayable",
      "type": "function"
    },
    {
      "inputs": [
        {
          "internalType": "uint256",
          "name": "_lotteryId",
          "type": "uint256"
        },
        {
          "internalType": "uint256",
          "name": "_amount",
          "type": "uint256"
        }
      ],
      "name": "decreaseTotalBalance",
      "outputs": [],
      "stateMutability": "nonpayable",
      "type": "function"
    },
    {
      "inputs": [],
      "name": "getFeePercent",
      "outputs": [
        {
          "internalType": "uint256",
          "name": "",
          "type": "uint256"
        }
      ],
      "stateMutability": "view",
      "type": "function"
    },
    {
      "inputs": [],
      "name": "getWallet",
      "outputs": [
        {
          "internalType": "address",
          "name": "",
          "type": "address"
        }
      ],
      "stateMutability": "view",
      "type": "function"
    },
    {
      "inputs": [
        {
          "internalType": "uint256",
          "name": "_lotteryId",
          "type": "uint256"
        },
        {
          "internalType": "uint256",
          "name": "_amount",
          "type": "uint256"
        }
      ],
      "name": "increaseTotalBalance",
      "outputs": [],
      "stateMutability": "nonpayable",
      "type": "function"
    },
    {
      "inputs": [
        {
          "internalType": "uint256",
          "name": "_lotteryId",
          "type": "uint256"
        }
      ],
      "name": "launchStaking",
      "outputs": [],
      "stateMutability": "nonpayable",
      "type": "function"
    },
    {
      "inputs": [
        {
          "internalType": "uint256",
          "name": "",
          "type": "uint256"
        }
      ],
      "name": "lotteries",
      "outputs": [
        {
          "internalType": "contract LotteryPool",
          "name": "",
          "type": "address"
        }
      ],
      "stateMutability": "view",
      "type": "function"
    },
    {
      "inputs": [],
      "name": "numberOfActiveLotteries",
      "outputs": [
        {
          "internalType": "uint256",
          "name": "",
          "type": "uint256"
        }
      ],
      "stateMutability": "view",
      "type": "function"
    },
    {
      "inputs": [],
      "name": "owner",
      "outputs": [
        {
          "internalType": "address",
          "name": "",
          "type": "address"
        }
      ],
      "stateMutability": "view",
      "type": "function"
    },
    {
      "inputs": [],
      "name": "renounceOwnership",
      "outputs": [],
      "stateMutability": "nonpayable",
      "type": "function"
    },
    {
      "inputs": [
        {
          "internalType": "uint256",
          "name": "_feePercent",
          "type": "uint256"
        }
      ],
      "name": "setFeePercent",
      "outputs": [],
      "stateMutability": "nonpayable",
      "type": "function"
    },
    {
      "inputs": [
        {
          "internalType": "address payable",
          "name": "_addr",
          "type": "address"
        }
      ],
      "name": "setWallet",
      "outputs": [],
      "stateMutability": "nonpayable",
      "type": "function"
    },
    {
      "inputs": [],
      "name": "totalBalance",
      "outputs": [
        {
          "internalType": "uint256",
          "name": "",
          "type": "uint256"
        }
      ],
      "stateMutability": "view",
      "type": "function"
    },
    {
      "inputs": [
        {
          "internalType": "address",
          "name": "newOwner",
          "type": "address"
        }
      ],
      "name": "transferOwnership",
      "outputs": [],
      "stateMutability": "nonpayable",
      "type": "function"
    }
  ],
  "bytecode": "0x60806040523480156200001157600080fd5b506000620000246200013060201b60201c565b9050806000806101000a81548173ffffffffffffffffffffffffffffffffffffffff021916908373ffffffffffffffffffffffffffffffffffffffff1602179055508073ffffffffffffffffffffffffffffffffffffffff16600073ffffffffffffffffffffffffffffffffffffffff167f8be0079c531659141344cd1fd0a4f28419497f9722a3daafe3b4186f6b6457e060405160405180910390a350620000d26200013860201b60201c565b600560006101000a81548173ffffffffffffffffffffffffffffffffffffffff021916908373ffffffffffffffffffffffffffffffffffffffff160217905550600a6004819055506000600281905550600060038190555062000161565b600033905090565b60008060009054906101000a900473ffffffffffffffffffffffffffffffffffffffff16905090565b615c2080620001716000396000f3fe60806040523480156200001157600080fd5b5060043610620001175760003560e01c8063715018a611620000a5578063ad7a672f116200006f578063ad7a672f14620002a4578063be74264d14620002c6578063deaa59df14620002e8578063f2fde38b14620003085762000117565b8063715018a614620002365780637ce3489b14620002425780638da5cb5b1462000262578063a0b47ab614620002845762000117565b80631398e07611620000e75780631398e076146200019e5780631b3896bc14620001d45780634538f29714620001f65780636e43ec6c14620002165762000117565b8062c2943c146200011c57806304454811146200013c57806309220a5e146200015c57806313299604146200017c575b600080fd5b6200013a600480360381019062000134919062001fa7565b62000328565b005b6200015a600480360381019062000154919062001fff565b620009d6565b005b6200017a600480360381019062000174919062001ecd565b62000acb565b005b6200018662000cf3565b6040516200019591906200243e565b60405180910390f35b620001bc6004803603810190620001b6919062001fa7565b62000d1d565b604051620001cb91906200245b565b60405180910390f35b620001de62000d5d565b604051620001ed9190620025ee565b60405180910390f35b6200021460048036038101906200020e919062001fa7565b62000d63565b005b6200023460048036038101906200022e919062001fa7565b620012f9565b005b6200024062001765565b005b6200026060048036038101906200025a919062001fa7565b620018a6565b005b6200026c6200196e565b6040516200027b91906200243e565b60405180910390f35b620002a260048036038101906200029c919062001fff565b62001997565b005b620002ae62001a8c565b604051620002bd9190620025ee565b60405180910390f35b620002d062001a92565b604051620002df9190620025ee565b60405180910390f35b62000306600480360381019062000300919062001ea1565b62001a9c565b005b62000326600480360381019062000320919062001e49565b62001bc8565b005b60006001828154811062000365577f4e487b7100000000000000000000000000000000000000000000000000000000600052603260045260246000fd5b9060005260206000200160009054906101000a900473ffffffffffffffffffffffffffffffffffffffff1690503373ffffffffffffffffffffffffffffffffffffffff168173ffffffffffffffffffffffffffffffffffffffff166302d05d3f6040518163ffffffff1660e01b815260040160206040518083038186803b158015620003f057600080fd5b505afa15801562000405573d6000803e3d6000fd5b505050506040513d601f19601f820116820180604052508101906200042b919062001e75565b73ffffffffffffffffffffffffffffffffffffffff161462000484576040517f08c379a00000000000000000000000000000000000000000000000000000000081526004016200047b90620025cc565b60405180910390fd5b60026003811115620004bf577f4e487b7100000000000000000000000000000000000000000000000000000000600052602160045260246000fd5b8173ffffffffffffffffffffffffffffffffffffffff1663200d2ed26040518163ffffffff1660e01b815260040160206040518083038186803b1580156200050657600080fd5b505afa1580156200051b573d6000803e3d6000fd5b505050506040513d601f19601f8201168201806040525081019062000541919062001f7b565b60038111156200057a577f4e487b7100000000000000000000000000000000000000000000000000000000600052602160045260246000fd5b141580156200067c5750600380811115620005be577f4e487b7100000000000000000000000000000000000000000000000000000000600052602160045260246000fd5b8173ffffffffffffffffffffffffffffffffffffffff1663200d2ed26040518163ffffffff1660e01b815260040160206040518083038186803b1580156200060557600080fd5b505afa1580156200061a573d6000803e3d6000fd5b505050506040513d601f19601f8201168201806040525081019062000640919062001f7b565b600381111562000679577f4e487b7100000000000000000000000000000000000000000000000000000000600052602160045260246000fd5b14155b620006be576040517f08c379a0000000000000000000000000000000000000000000000000000000008152600401620006b59062002478565b60405180910390fd5b600180811115620006f8577f4e487b7100000000000000000000000000000000000000000000000000000000600052602160045260246000fd5b8173ffffffffffffffffffffffffffffffffffffffff1663702766fa6040518163ffffffff1660e01b815260040160206040518083038186803b1580156200073f57600080fd5b505afa15801562000754573d6000803e3d6000fd5b505050506040513d601f19601f820116820180604052508101906200077a919062001f4f565b6001811115620007b3577f4e487b7100000000000000000000000000000000000000000000000000000000600052602160045260246000fd5b1415620008f45760016003811115620007f5577f4e487b7100000000000000000000000000000000000000000000000000000000600052602160045260246000fd5b8173ffffffffffffffffffffffffffffffffffffffff1663200d2ed26040518163ffffffff1660e01b815260040160206040518083038186803b1580156200083c57600080fd5b505afa15801562000851573d6000803e3d6000fd5b505050506040513d601f19601f8201168201806040525081019062000877919062001f7b565b6003811115620008b0577f4e487b7100000000000000000000000000000000000000000000000000000000600052602160045260246000fd5b14620008f3576040517f08c379a0000000000000000000000000000000000000000000000000000000008152600401620008ea9062002588565b60405180910390fd5b5b60008173ffffffffffffffffffffffffffffffffffffffff166314034bd26040518163ffffffff1660e01b8152600401602060405180830381600087803b1580156200093f57600080fd5b505af115801562000954573d6000803e3d6000fd5b505050506040513d601f19601f820116820180604052508101906200097a919062001e75565b9050600260008154809291906200099190620028b1565b91905055507fe983b889c5b0419f1fb6aded8b9552b95691be88059a486820b5c342ebf974f48382604051620009c99291906200260b565b60405180910390a1505050565b6001828154811062000a11577f4e487b7100000000000000000000000000000000000000000000000000000000600052603260045260246000fd5b9060005260206000200160009054906101000a900473ffffffffffffffffffffffffffffffffffffffff1673ffffffffffffffffffffffffffffffffffffffff163373ffffffffffffffffffffffffffffffffffffffff161462000aac576040517f08c379a000000000000000000000000000000000000000000000000000000000815260040162000aa39062002566565b60405180910390fd5b806003600082825462000ac0919062002776565b925050819055505050565b600073ffffffffffffffffffffffffffffffffffffffff168573ffffffffffffffffffffffffffffffffffffffff16141562000b3e576040517f08c379a000000000000000000000000000000000000000000000000000000000815260040162000b3590620025aa565b60405180910390fd5b6000831162000b84576040517f08c379a000000000000000000000000000000000000000000000000000000000815260040162000b7b9062002500565b60405180910390fd5b6000429050600060018054905084600181111562000bcb577f4e487b7100000000000000000000000000000000000000000000000000000000600052602160045260246000fd5b33898989888860405162000bdf9062001d83565b62000bf2989796959493929190620026d7565b604051809103906000f08015801562000c0f573d6000803e3d6000fd5b5090506001819080600181540180825580915050600190039060005260206000200160009091909190916101000a81548173ffffffffffffffffffffffffffffffffffffffff021916908373ffffffffffffffffffffffffffffffffffffffff1602179055506002600081548092919062000c8a90620028e0565b91905055507f1fff386a12009c15874797ae54eaf5409f7e8b872be329b18e606eb531dd59c56001808054905062000cc39190620027d3565b33838a8a8a888b8b60405162000ce29998979695949392919062002638565b60405180910390a150505050505050565b6000600560009054906101000a900473ffffffffffffffffffffffffffffffffffffffff16905090565b6001818154811062000d2e57600080fd5b906000526020600020016000915054906101000a900473ffffffffffffffffffffffffffffffffffffffff1681565b60025481565b60006001828154811062000da0577f4e487b7100000000000000000000000000000000000000000000000000000000600052603260045260246000fd5b9060005260206000200160009054906101000a900473ffffffffffffffffffffffffffffffffffffffff1690503373ffffffffffffffffffffffffffffffffffffffff168173ffffffffffffffffffffffffffffffffffffffff166302d05d3f6040518163ffffffff1660e01b815260040160206040518083038186803b15801562000e2b57600080fd5b505afa15801562000e40573d6000803e3d6000fd5b505050506040513d601f19601f8201168201806040525081019062000e66919062001e75565b73ffffffffffffffffffffffffffffffffffffffff161462000ebf576040517f08c379a000000000000000000000000000000000000000000000000000000000815260040162000eb690620025cc565b60405180910390fd5b6002600381111562000efa577f4e487b7100000000000000000000000000000000000000000000000000000000600052602160045260246000fd5b8173ffffffffffffffffffffffffffffffffffffffff1663200d2ed26040518163ffffffff1660e01b815260040160206040518083038186803b15801562000f4157600080fd5b505afa15801562000f56573d6000803e3d6000fd5b505050506040513d601f19601f8201168201806040525081019062000f7c919062001f7b565b600381111562000fb5577f4e487b7100000000000000000000000000000000000000000000000000000000600052602160045260246000fd5b14158015620010b7575060038081111562000ff9577f4e487b7100000000000000000000000000000000000000000000000000000000600052602160045260246000fd5b8173ffffffffffffffffffffffffffffffffffffffff1663200d2ed26040518163ffffffff1660e01b815260040160206040518083038186803b1580156200104057600080fd5b505afa15801562001055573d6000803e3d6000fd5b505050506040513d601f19601f820116820180604052508101906200107b919062001f7b565b6003811115620010b4577f4e487b7100000000000000000000000000000000000000000000000000000000600052602160045260246000fd5b14155b620010f9576040517f08c379a0000000000000000000000000000000000000000000000000000000008152600401620010f09062002478565b60405180910390fd5b8073ffffffffffffffffffffffffffffffffffffffff166312065fe06040518163ffffffff1660e01b815260040160206040518083038186803b1580156200114057600080fd5b505afa15801562001155573d6000803e3d6000fd5b505050506040513d601f19601f820116820180604052508101906200117b919062001fd3565b8173ffffffffffffffffffffffffffffffffffffffff16639b2cb5d86040518163ffffffff1660e01b815260040160206040518083038186803b158015620011c257600080fd5b505afa158015620011d7573d6000803e3d6000fd5b505050506040513d601f19601f82011682018060405250810190620011fd919062001fd3565b1162001240576040517f08c379a00000000000000000000000000000000000000000000000000000000081526004016200123790620024de565b60405180910390fd5b8073ffffffffffffffffffffffffffffffffffffffff1663859bd0f06040518163ffffffff1660e01b8152600401600060405180830381600087803b1580156200128957600080fd5b505af11580156200129e573d6000803e3d6000fd5b5050505060026000815480929190620012b790620028b1565b91905055507fc3dac690cf4c3ae8964f18b8f09f7f9a75d3962a8cbb7cd689df2c291bb5b2dd82604051620012ed9190620025ee565b60405180910390a15050565b60006001828154811062001336577f4e487b7100000000000000000000000000000000000000000000000000000000600052603260045260246000fd5b9060005260206000200160009054906101000a900473ffffffffffffffffffffffffffffffffffffffff169050600060038111156200139e577f4e487b7100000000000000000000000000000000000000000000000000000000600052602160045260246000fd5b8173ffffffffffffffffffffffffffffffffffffffff1663200d2ed26040518163ffffffff1660e01b815260040160206040518083038186803b158015620013e557600080fd5b505afa158015620013fa573d6000803e3d6000fd5b505050506040513d601f19601f8201168201806040525081019062001420919062001f7b565b600381111562001459577f4e487b7100000000000000000000000000000000000000000000000000000000600052602160045260246000fd5b146200149c576040517f08c379a000000000000000000000000000000000000000000000000000000000815260040162001493906200249a565b60405180910390fd5b600180811115620014d6577f4e487b7100000000000000000000000000000000000000000000000000000000600052602160045260246000fd5b8173ffffffffffffffffffffffffffffffffffffffff1663702766fa6040518163ffffffff1660e01b815260040160206040518083038186803b1580156200151d57600080fd5b505afa15801562001532573d6000803e3d6000fd5b505050506040513d601f19601f8201168201806040525081019062001558919062001f4f565b600181111562001591577f4e487b7100000000000000000000000000000000000000000000000000000000600052602160045260246000fd5b14620015d4576040517f08c379a0000000000000000000000000000000000000000000000000000000008152600401620015cb9062002522565b60405180910390fd5b3373ffffffffffffffffffffffffffffffffffffffff168173ffffffffffffffffffffffffffffffffffffffff166302d05d3f6040518163ffffffff1660e01b815260040160206040518083038186803b1580156200163257600080fd5b505afa15801562001647573d6000803e3d6000fd5b505050506040513d601f19601f820116820180604052508101906200166d919062001e75565b73ffffffffffffffffffffffffffffffffffffffff1614620016c6576040517f08c379a0000000000000000000000000000000000000000000000000000000008152600401620016bd90620025cc565b60405180910390fd5b8073ffffffffffffffffffffffffffffffffffffffff1663a30a24746040518163ffffffff1660e01b8152600401600060405180830381600087803b1580156200170f57600080fd5b505af115801562001724573d6000803e3d6000fd5b505050507fb44faaa07212bb441b7019dc3716dba761d69c0be651ee5e02332160500145ae82604051620017599190620025ee565b60405180910390a15050565b6200176f62001d7b565b73ffffffffffffffffffffffffffffffffffffffff166200178f6200196e565b73ffffffffffffffffffffffffffffffffffffffff1614620017e8576040517f08c379a0000000000000000000000000000000000000000000000000000000008152600401620017df9062002544565b60405180910390fd5b600073ffffffffffffffffffffffffffffffffffffffff1660008054906101000a900473ffffffffffffffffffffffffffffffffffffffff1673ffffffffffffffffffffffffffffffffffffffff167f8be0079c531659141344cd1fd0a4f28419497f9722a3daafe3b4186f6b6457e060405160405180910390a360008060006101000a81548173ffffffffffffffffffffffffffffffffffffffff021916908373ffffffffffffffffffffffffffffffffffffffff160217905550565b620018b062001d7b565b73ffffffffffffffffffffffffffffffffffffffff16620018d06200196e565b73ffffffffffffffffffffffffffffffffffffffff161462001929576040517f08c379a0000000000000000000000000000000000000000000000000000000008152600401620019209062002544565b60405180910390fd5b806004819055507f91955c12515f4eb8f1ff79df82d1933ff11b6d3b9a3019c6568840616ec36a74600454604051620019639190620025ee565b60405180910390a150565b60008060009054906101000a900473ffffffffffffffffffffffffffffffffffffffff16905090565b60018281548110620019d2577f4e487b7100000000000000000000000000000000000000000000000000000000600052603260045260246000fd5b9060005260206000200160009054906101000a900473ffffffffffffffffffffffffffffffffffffffff1673ffffffffffffffffffffffffffffffffffffffff163373ffffffffffffffffffffffffffffffffffffffff161462001a6d576040517f08c379a000000000000000000000000000000000000000000000000000000000815260040162001a649062002566565b60405180910390fd5b806003600082825462001a819190620027d3565b925050819055505050565b60035481565b6000600454905090565b62001aa662001d7b565b73ffffffffffffffffffffffffffffffffffffffff1662001ac66200196e565b73ffffffffffffffffffffffffffffffffffffffff161462001b1f576040517f08c379a000000000000000000000000000000000000000000000000000000000815260040162001b169062002544565b60405180910390fd5b80600560006101000a81548173ffffffffffffffffffffffffffffffffffffffff021916908373ffffffffffffffffffffffffffffffffffffffff160217905550600560009054906101000a900473ffffffffffffffffffffffffffffffffffffffff1673ffffffffffffffffffffffffffffffffffffffff167f3ce716f94fe275e52428cbf6b7f388e5a65976d4edabc34355a77f5e89655bdc60405160405180910390a250565b62001bd262001d7b565b73ffffffffffffffffffffffffffffffffffffffff1662001bf26200196e565b73ffffffffffffffffffffffffffffffffffffffff161462001c4b576040517f08c379a000000000000000000000000000000000000000000000000000000000815260040162001c429062002544565b60405180910390fd5b600073ffffffffffffffffffffffffffffffffffffffff168173ffffffffffffffffffffffffffffffffffffffff16141562001cbe576040517f08c379a000000000000000000000000000000000000000000000000000000000815260040162001cb590620024bc565b60405180910390fd5b8073ffffffffffffffffffffffffffffffffffffffff1660008054906101000a900473ffffffffffffffffffffffffffffffffffffffff1673ffffffffffffffffffffffffffffffffffffffff167f8be0079c531659141344cd1fd0a4f28419497f9722a3daafe3b4186f6b6457e060405160405180910390a3806000806101000a81548173ffffffffffffffffffffffffffffffffffffffff021916908373ffffffffffffffffffffffffffffffffffffffff16021790555050565b600033905090565b6131c68062002a2583390190565b60008135905062001da281620029a3565b92915050565b60008151905062001db981620029a3565b92915050565b60008135905062001dd081620029bd565b92915050565b60008151905062001de781620029d7565b92915050565b60008135905062001dfe81620029e8565b92915050565b60008151905062001e1581620029f9565b92915050565b60008135905062001e2c8162002a0a565b92915050565b60008151905062001e438162002a0a565b92915050565b60006020828403121562001e5c57600080fd5b600062001e6c8482850162001d91565b91505092915050565b60006020828403121562001e8857600080fd5b600062001e988482850162001da8565b91505092915050565b60006020828403121562001eb457600080fd5b600062001ec48482850162001dbf565b91505092915050565b600080600080600060a0868803121562001ee657600080fd5b600062001ef68882890162001d91565b955050602062001f098882890162001e1b565b945050604062001f1c8882890162001e1b565b935050606062001f2f8882890162001ded565b925050608062001f428882890162001e1b565b9150509295509295909350565b60006020828403121562001f6257600080fd5b600062001f728482850162001dd6565b91505092915050565b60006020828403121562001f8e57600080fd5b600062001f9e8482850162001e04565b91505092915050565b60006020828403121562001fba57600080fd5b600062001fca8482850162001e1b565b91505092915050565b60006020828403121562001fe657600080fd5b600062001ff68482850162001e32565b91505092915050565b600080604083850312156200201357600080fd5b6000620020238582860162001e1b565b9250506020620020368582860162001e1b565b9150509250929050565b6200204b816200280e565b82525050565b6200205c8162002875565b82525050565b6200206d816200289d565b82525050565b60006200208260228362002765565b91507f546865206c6f747465727920706f6f6c20697320616c726561647920636c6f7360008301527f65640000000000000000000000000000000000000000000000000000000000006020830152604082019050919050565b6000620020ea60178362002765565b91507f546865206c6f7474657279206973206e6f74206f70656e0000000000000000006000830152602082019050919050565b60006200212c60268362002765565b91507f4f776e61626c653a206e6577206f776e657220697320746865207a65726f206160008301527f64647265737300000000000000000000000000000000000000000000000000006020830152604082019050919050565b600062002194603a8362002765565b91507f43616e6e6f742063616e63656c206c6f74746572792e20546865206d696e696d60008301527f756d20616d6f756e7420686173206265656e20726561636865640000000000006020830152604082019050919050565b6000620021fc60208362002765565b91507f412076616c6964207469636b65742070726963652069732072657175697265646000830152602082019050919050565b60006200223e60308362002765565b91507f4c6f747465727920706f6f6c2074797065206973206e6f7420636f6d7061746960008301527f626c652077697468207374616b696e67000000000000000000000000000000006020830152604082019050919050565b6000620022a660208362002765565b91507f4f776e61626c653a2063616c6c6572206973206e6f7420746865206f776e65726000830152602082019050919050565b6000620022e8603b8362002765565b91507f54686973206d6574686f64206d7573742062652063616c6c6564207468726f7560008301527f67682061206c6f7474657279206368696c6420636f6e747261637400000000006020830152604082019050919050565b600062002350601f8362002765565b91507f546865206c6f747465727920706f6f6c206973206e6f74207374616b696e67006000830152602082019050919050565b600062002392601b8362002765565b91507f412076616c6964206164647265737320697320726571756972656400000000006000830152602082019050919050565b6000620023d460248362002765565b91507f596f7520617265206e6f7420746865206f776e6572206f6620746865206c6f7460008301527f74657279000000000000000000000000000000000000000000000000000000006020830152604082019050919050565b62002438816200286b565b82525050565b600060208201905062002455600083018462002040565b92915050565b600060208201905062002472600083018462002051565b92915050565b60006020820190508181036000830152620024938162002073565b9050919050565b60006020820190508181036000830152620024b581620020db565b9050919050565b60006020820190508181036000830152620024d7816200211d565b9050919050565b60006020820190508181036000830152620024f98162002185565b9050919050565b600060208201905081810360008301526200251b81620021ed565b9050919050565b600060208201905081810360008301526200253d816200222f565b9050919050565b600060208201905081810360008301526200255f8162002297565b9050919050565b600060208201905081810360008301526200258181620022d9565b9050919050565b60006020820190508181036000830152620025a38162002341565b9050919050565b60006020820190508181036000830152620025c58162002383565b9050919050565b60006020820190508181036000830152620025e781620023c5565b9050919050565b60006020820190506200260560008301846200242d565b92915050565b60006040820190506200262260008301856200242d565b62002631602083018462002040565b9392505050565b60006101208201905062002650600083018c6200242d565b6200265f602083018b62002040565b6200266e604083018a62002040565b6200267d606083018962002040565b6200268c60808301886200242d565b6200269b60a08301876200242d565b620026aa60c08301866200242d565b620026b960e083018562002062565b620026c96101008301846200242d565b9a9950505050505050505050565b600061010082019050620026ef600083018b6200242d565b620026fe602083018a6200242d565b6200270d604083018962002040565b6200271c606083018862002040565b6200272b60808301876200242d565b6200273a60a08301866200242d565b6200274960c08301856200242d565b6200275860e08301846200242d565b9998505050505050505050565b600082825260208201905092915050565b600062002783826200286b565b915062002790836200286b565b9250827fffffffffffffffffffffffffffffffffffffffffffffffffffffffffffffffff03821115620027c857620027c76200292e565b5b828201905092915050565b6000620027e0826200286b565b9150620027ed836200286b565b9250828210156200280357620028026200292e565b5b828203905092915050565b60006200281b826200284b565b9050919050565b60006200282f826200284b565b9050919050565b600081905062002846826200298c565b919050565b600073ffffffffffffffffffffffffffffffffffffffff82169050919050565b6000819050919050565b6000620028828262002889565b9050919050565b600062002896826200284b565b9050919050565b6000620028aa8262002836565b9050919050565b6000620028be826200286b565b91506000821415620028d557620028d46200292e565b5b600182039050919050565b6000620028ed826200286b565b91507fffffffffffffffffffffffffffffffffffffffffffffffffffffffffffffffff8214156200292357620029226200292e565b5b600182019050919050565b7f4e487b7100000000000000000000000000000000000000000000000000000000600052601160045260246000fd5b7f4e487b7100000000000000000000000000000000000000000000000000000000600052602160045260246000fd5b60028110620029a0576200299f6200295d565b5b50565b620029ae816200280e565b8114620029ba57600080fd5b50565b620029c88162002822565b8114620029d457600080fd5b50565b60028110620029e557600080fd5b50565b60028110620029f657600080fd5b50565b6004811062002a0757600080fd5b50565b62002a15816200286b565b811462002a2157600080fd5b5056fe60806040523480156200001157600080fd5b50604051620031c6380380620031c683398181016040528101906200003791906200033d565b6001600081905550600062000051620002dd60201b60201c565b905080600160006101000a81548173ffffffffffffffffffffffffffffffffffffffff021916908373ffffffffffffffffffffffffffffffffffffffff1602179055508073ffffffffffffffffffffffffffffffffffffffff16600073ffffffffffffffffffffffffffffffffffffffff167f8be0079c531659141344cd1fd0a4f28419497f9722a3daafe3b4186f6b6457e060405160405180910390a35062000100620002e560201b60201c565b600260006101000a81548173ffffffffffffffffffffffffffffffffffffffff021916908373ffffffffffffffffffffffffffffffffffffffff1602179055508760038190555086600181111562000181577f4e487b7100000000000000000000000000000000000000000000000000000000600052602160045260246000fd5b600a60016101000a81548160ff02191690836001811115620001cc577f4e487b7100000000000000000000000000000000000000000000000000000000600052602160045260246000fd5b021790555085600660006101000a81548173ffffffffffffffffffffffffffffffffffffffff021916908373ffffffffffffffffffffffffffffffffffffffff160217905550826004819055508160058190555084600860000160006101000a81548173ffffffffffffffffffffffffffffffffffffffff021916908373ffffffffffffffffffffffffffffffffffffffff160217905550836008600101819055506000600a60006101000a81548160ff02191690836003811115620002bb577f4e487b7100000000000000000000000000000000000000000000000000000000600052602160045260246000fd5b0217905550806007819055506000600b81905550505050505050505062000472565b600033905090565b6000600160009054906101000a900473ffffffffffffffffffffffffffffffffffffffff16905090565b60008151905062000320816200043e565b92915050565b600081519050620003378162000458565b92915050565b600080600080600080600080610100898b0312156200035b57600080fd5b60006200036b8b828c0162000326565b98505060206200037e8b828c0162000326565b9750506040620003918b828c016200030f565b9650506060620003a48b828c016200030f565b9550506080620003b78b828c0162000326565b94505060a0620003ca8b828c0162000326565b93505060c0620003dd8b828c0162000326565b92505060e0620003f08b828c0162000326565b9150509295985092959890939650565b60006200040d8262000414565b9050919050565b600073ffffffffffffffffffffffffffffffffffffffff82169050919050565b6000819050919050565b620004498162000400565b81146200045557600080fd5b50565b620004638162000434565b81146200046f57600080fd5b50565b612d4480620004826000396000f3fe60806040526004361061012a5760003560e01c8063702766fa116100ab578063a30a24741161006f578063a30a24741461037c578063dfbf53ae14610393578063e580f47b146103be578063f2fde38b146103e9578063f71d96cb14610412578063fc22389a1461044f5761012a565b8063702766fa146102cd578063715018a6146102f8578063859bd0f01461030f5780638da5cb5b146103265780639b2cb5d8146103515761012a565b80632f366637116100f25780632f36663714610206578063316579261461022257806345745c101461025f57806347ccca021461028a5780634a1e0a29146102b65761012a565b806302d05d3f1461012f57806312065fe01461015a5780631209b1f61461018557806314034bd2146101b0578063200d2ed2146101db575b600080fd5b34801561013b57600080fd5b50610144610478565b6040516101519190612746565b60405180910390f35b34801561016657600080fd5b5061016f61049e565b60405161017c9190612980565b60405180910390f35b34801561019157600080fd5b5061019a6104a6565b6040516101a79190612980565b60405180910390f35b3480156101bc57600080fd5b506101c56104ac565b6040516101d29190612746565b60405180910390f35b3480156101e757600080fd5b506101f061096a565b6040516101fd91906127a5565b60405180910390f35b610220600480360381019061021b9190612211565b61097d565b005b34801561022e57600080fd5b50610249600480360381019061024491906121bf565b610c67565b6040516102569190612980565b60405180910390f35b34801561026b57600080fd5b50610274610cb0565b6040516102819190612980565b60405180910390f35b34801561029657600080fd5b5061029f610cb6565b6040516102ad929190612761565b60405180910390f35b3480156102c257600080fd5b506102cb610ce8565b005b3480156102d957600080fd5b506102e2611171565b6040516102ef919061278a565b60405180910390f35b34801561030457600080fd5b5061030d611184565b005b34801561031b57600080fd5b506103246112c1565b005b34801561033257600080fd5b5061033b611522565b6040516103489190612746565b60405180910390f35b34801561035d57600080fd5b5061036661154c565b6040516103739190612980565b60405180910390f35b34801561038857600080fd5b50610391611552565b005b34801561039f57600080fd5b506103a86117a4565b6040516103b59190612746565b60405180910390f35b3480156103ca57600080fd5b506103d36117ca565b6040516103e09190612980565b60405180910390f35b3480156103f557600080fd5b50610410600480360381019061040b91906121bf565b6117d0565b005b34801561041e57600080fd5b5061043960048036038101906104349190612211565b61197c565b6040516104469190612746565b60405180910390f35b34801561045b57600080fd5b5061047660048036038101906104719190612211565b6119bb565b005b600660009054906101000a900473ffffffffffffffffffffffffffffffffffffffff1681565b600047905090565b60045481565b60006104b6611e89565b73ffffffffffffffffffffffffffffffffffffffff166104d4611522565b73ffffffffffffffffffffffffffffffffffffffff161461052a576040517f08c379a0000000000000000000000000000000000000000000000000000000008152600401610521906128a0565b60405180910390fd5b60026000541415610570576040517f08c379a000000000000000000000000000000000000000000000000000000000815260040161056790612960565b60405180910390fd5b6002600081905550600260038111156105b2577f4e487b7100000000000000000000000000000000000000000000000000000000600052602160045260246000fd5b600a60009054906101000a900460ff1660038111156105fa577f4e487b7100000000000000000000000000000000000000000000000000000000600052602160045260246000fd5b14158015610687575060038081111561063c577f4e487b7100000000000000000000000000000000000000000000000000000000600052602160045260246000fd5b600a60009054906101000a900460ff166003811115610684577f4e487b7100000000000000000000000000000000000000000000000000000000600052602160045260246000fd5b14155b6106c6576040517f08c379a00000000000000000000000000000000000000000000000000000000081526004016106bd906127c0565b60405180910390fd5b6001808111156106ff577f4e487b7100000000000000000000000000000000000000000000000000000000600052602160045260246000fd5b600a60019054906101000a900460ff166001811115610747577f4e487b7100000000000000000000000000000000000000000000000000000000600052602160045260246000fd5b14156108105760016003811115610787577f4e487b7100000000000000000000000000000000000000000000000000000000600052602160045260246000fd5b600a60009054906101000a900460ff1660038111156107cf577f4e487b7100000000000000000000000000000000000000000000000000000000600052602160045260246000fd5b1461080f576040517f08c379a000000000000000000000000000000000000000000000000000000000815260040161080690612900565b60405180910390fd5b5b6002600a60006101000a81548160ff0219169083600381111561085c577f4e487b7100000000000000000000000000000000000000000000000000000000600052602160045260246000fd5b0217905550610869611e91565b600e60006101000a81548173ffffffffffffffffffffffffffffffffffffffff021916908373ffffffffffffffffffffffffffffffffffffffff160217905550600060018111156108e3577f4e487b7100000000000000000000000000000000000000000000000000000000600052602160045260246000fd5b600a60019054906101000a900460ff16600181111561092b577f4e487b7100000000000000000000000000000000000000000000000000000000600052602160045260246000fd5b141561093a57610939611f3d565b5b600e60009054906101000a900473ffffffffffffffffffffffffffffffffffffffff169050600160008190555090565b600a60009054906101000a900460ff1681565b600060038111156109b7577f4e487b7100000000000000000000000000000000000000000000000000000000600052602160045260246000fd5b600a60009054906101000a900460ff1660038111156109ff577f4e487b7100000000000000000000000000000000000000000000000000000000600052602160045260246000fd5b14610a3f576040517f08c379a0000000000000000000000000000000000000000000000000000000008152600401610a3690612860565b60405180910390fd5b80600454610a4d9190612a93565b3414610a8e576040517f08c379a0000000000000000000000000000000000000000000000000000000008152600401610a85906128c0565b60405180910390fd5b80600c60003373ffffffffffffffffffffffffffffffffffffffff1673ffffffffffffffffffffffffffffffffffffffff1681526020019081526020016000206000828254610add9190612a0c565b9250508190555060005b81811015610b6557600d339080600181540180825580915050600190039060005260206000200160009091909190916101000a81548173ffffffffffffffffffffffffffffffffffffffff021916908373ffffffffffffffffffffffffffffffffffffffff1602179055508080610b5d90612ba7565b915050610ae7565b5080600b6000828254610b789190612a0c565b92505081905550600260009054906101000a900473ffffffffffffffffffffffffffffffffffffffff1673ffffffffffffffffffffffffffffffffffffffff166304454811600354346040518363ffffffff1660e01b8152600401610bde92919061299b565b600060405180830381600087803b158015610bf857600080fd5b505af1158015610c0c573d6000803e3d6000fd5b505050503373ffffffffffffffffffffffffffffffffffffffff167fc8c5c2b0e44fb6312c0098ec42642058527713d0a1d29a5c6ccbfe34d714d41e6003548334604051610c5c939291906129c4565b60405180910390a250565b6000600c60008373ffffffffffffffffffffffffffffffffffffffff1673ffffffffffffffffffffffffffffffffffffffff168152602001908152602001600020549050919050565b600b5481565b60088060000160009054906101000a900473ffffffffffffffffffffffffffffffffffffffff16908060010154905082565b60026000541415610d2e576040517f08c379a0000000000000000000000000000000000000000000000000000000008152600401610d2590612960565b60405180910390fd5b6002600081905550600180811115610d6f577f4e487b7100000000000000000000000000000000000000000000000000000000600052602160045260246000fd5b600a60019054906101000a900460ff166001811115610db7577f4e487b7100000000000000000000000000000000000000000000000000000000600052602160045260246000fd5b14610df7576040517f08c379a0000000000000000000000000000000000000000000000000000000008152600401610dee90612820565b60405180910390fd5b60026003811115610e31577f4e487b7100000000000000000000000000000000000000000000000000000000600052602160045260246000fd5b600a60009054906101000a900460ff166003811115610e79577f4e487b7100000000000000000000000000000000000000000000000000000000600052602160045260246000fd5b1480610f035750600380811115610eb9577f4e487b7100000000000000000000000000000000000000000000000000000000600052602160045260246000fd5b600a60009054906101000a900460ff166003811115610f01577f4e487b7100000000000000000000000000000000000000000000000000000000600052602160045260246000fd5b145b610f42576040517f08c379a0000000000000000000000000000000000000000000000000000000008152600401610f3990612940565b60405180910390fd5b6000600c60003373ffffffffffffffffffffffffffffffffffffffff1673ffffffffffffffffffffffffffffffffffffffff168152602001908152602001600020549050600081600454610f969190612a93565b905080471015610fdb576040517f08c379a0000000000000000000000000000000000000000000000000000000008152600401610fd2906128e0565b60405180910390fd5b6000600c60003373ffffffffffffffffffffffffffffffffffffffff1673ffffffffffffffffffffffffffffffffffffffff1681526020019081526020016000208190555081600b60008282546110329190612aed565b92505081905550600260009054906101000a900473ffffffffffffffffffffffffffffffffffffffff1673ffffffffffffffffffffffffffffffffffffffff1663a0b47ab6600354836040518363ffffffff1660e01b815260040161109892919061299b565b600060405180830381600087803b1580156110b257600080fd5b505af11580156110c6573d6000803e3d6000fd5b505050503373ffffffffffffffffffffffffffffffffffffffff166108fc829081150290604051600060405180830381858888f19350505050158015611110573d6000803e3d6000fd5b503373ffffffffffffffffffffffffffffffffffffffff167fb7029a2e3425140d13e631737cd4269675a18664ebe4356d84ea6943db821658600354848460405161115d939291906129c4565b60405180910390a250506001600081905550565b600a60019054906101000a900460ff1681565b61118c611e89565b73ffffffffffffffffffffffffffffffffffffffff166111aa611522565b73ffffffffffffffffffffffffffffffffffffffff1614611200576040517f08c379a00000000000000000000000000000000000000000000000000000000081526004016111f7906128a0565b60405180910390fd5b600073ffffffffffffffffffffffffffffffffffffffff16600160009054906101000a900473ffffffffffffffffffffffffffffffffffffffff1673ffffffffffffffffffffffffffffffffffffffff167f8be0079c531659141344cd1fd0a4f28419497f9722a3daafe3b4186f6b6457e060405160405180910390a36000600160006101000a81548173ffffffffffffffffffffffffffffffffffffffff021916908373ffffffffffffffffffffffffffffffffffffffff160217905550565b6112c9611e89565b73ffffffffffffffffffffffffffffffffffffffff166112e7611522565b73ffffffffffffffffffffffffffffffffffffffff161461133d576040517f08c379a0000000000000000000000000000000000000000000000000000000008152600401611334906128a0565b60405180910390fd5b60026003811115611377577f4e487b7100000000000000000000000000000000000000000000000000000000600052602160045260246000fd5b600a60009054906101000a900460ff1660038111156113bf577f4e487b7100000000000000000000000000000000000000000000000000000000600052602160045260246000fd5b1415801561144c5750600380811115611401577f4e487b7100000000000000000000000000000000000000000000000000000000600052602160045260246000fd5b600a60009054906101000a900460ff166003811115611449577f4e487b7100000000000000000000000000000000000000000000000000000000600052602160045260246000fd5b14155b61148b576040517f08c379a0000000000000000000000000000000000000000000000000000000008152600401611482906127c0565b60405180910390fd5b47600554116114cf576040517f08c379a00000000000000000000000000000000000000000000000000000000081526004016114c690612840565b60405180910390fd5b6003600a60006101000a81548160ff0219169083600381111561151b577f4e487b7100000000000000000000000000000000000000000000000000000000600052602160045260246000fd5b0217905550565b6000600160009054906101000a900473ffffffffffffffffffffffffffffffffffffffff16905090565b60055481565b61155a611e89565b73ffffffffffffffffffffffffffffffffffffffff16611578611522565b73ffffffffffffffffffffffffffffffffffffffff16146115ce576040517f08c379a00000000000000000000000000000000000000000000000000000000081526004016115c5906128a0565b60405180910390fd5b600180811115611607577f4e487b7100000000000000000000000000000000000000000000000000000000600052602160045260246000fd5b600a60019054906101000a900460ff16600181111561164f577f4e487b7100000000000000000000000000000000000000000000000000000000600052602160045260246000fd5b1461168f576040517f08c379a000000000000000000000000000000000000000000000000000000000815260040161168690612880565b60405180910390fd5b600060038111156116c9577f4e487b7100000000000000000000000000000000000000000000000000000000600052602160045260246000fd5b600a60009054906101000a900460ff166003811115611711577f4e487b7100000000000000000000000000000000000000000000000000000000600052602160045260246000fd5b14611751576040517f08c379a0000000000000000000000000000000000000000000000000000000008152600401611748906127e0565b60405180910390fd5b6001600a60006101000a81548160ff0219169083600381111561179d577f4e487b7100000000000000000000000000000000000000000000000000000000600052602160045260246000fd5b0217905550565b600e60009054906101000a900473ffffffffffffffffffffffffffffffffffffffff1681565b60035481565b6117d8611e89565b73ffffffffffffffffffffffffffffffffffffffff166117f6611522565b73ffffffffffffffffffffffffffffffffffffffff161461184c576040517f08c379a0000000000000000000000000000000000000000000000000000000008152600401611843906128a0565b60405180910390fd5b600073ffffffffffffffffffffffffffffffffffffffff168173ffffffffffffffffffffffffffffffffffffffff1614156118bc576040517f08c379a00000000000000000000000000000000000000000000000000000000081526004016118b390612800565b60405180910390fd5b8073ffffffffffffffffffffffffffffffffffffffff16600160009054906101000a900473ffffffffffffffffffffffffffffffffffffffff1673ffffffffffffffffffffffffffffffffffffffff167f8be0079c531659141344cd1fd0a4f28419497f9722a3daafe3b4186f6b6457e060405160405180910390a380600160006101000a81548173ffffffffffffffffffffffffffffffffffffffff021916908373ffffffffffffffffffffffffffffffffffffffff16021790555050565b600d818154811061198c57600080fd5b906000526020600020016000915054906101000a900473ffffffffffffffffffffffffffffffffffffffff1681565b60026000541415611a01576040517f08c379a00000000000000000000000000000000000000000000000000000000081526004016119f890612960565b60405180910390fd5b600260008190555060006003811115611a43577f4e487b7100000000000000000000000000000000000000000000000000000000600052602160045260246000fd5b600a60009054906101000a900460ff166003811115611a8b577f4e487b7100000000000000000000000000000000000000000000000000000000600052602160045260246000fd5b14611acb576040517f08c379a0000000000000000000000000000000000000000000000000000000008152600401611ac290612860565b60405180910390fd5b80600c60003373ffffffffffffffffffffffffffffffffffffffff1673ffffffffffffffffffffffffffffffffffffffff168152602001908152602001600020541015611b4d576040517f08c379a0000000000000000000000000000000000000000000000000000000008152600401611b4490612920565b60405180910390fd5b600081600454611b5d9190612a93565b905080471015611ba2576040517f08c379a0000000000000000000000000000000000000000000000000000000008152600401611b99906128e0565b60405180910390fd5b3373ffffffffffffffffffffffffffffffffffffffff166108fc829081150290604051600060405180830381858888f19350505050158015611be8573d6000803e3d6000fd5b5081600c60003373ffffffffffffffffffffffffffffffffffffffff1673ffffffffffffffffffffffffffffffffffffffff1681526020019081526020016000206000828254611c389190612aed565b9250508190555081600b6000828254611c519190612aed565b925050819055506000805b600d80549050811015611d96573373ffffffffffffffffffffffffffffffffffffffff16600d8281548110611cba577f4e487b7100000000000000000000000000000000000000000000000000000000600052603260045260246000fd5b9060005260206000200160009054906101000a900473ffffffffffffffffffffffffffffffffffffffff1673ffffffffffffffffffffffffffffffffffffffff16148015611d0757508382105b15611d8357600d8181548110611d46577f4e487b7100000000000000000000000000000000000000000000000000000000600052603260045260246000fd5b9060005260206000200160006101000a81549073ffffffffffffffffffffffffffffffffffffffff0219169055600182611d809190612a0c565b91505b8080611d8e90612ba7565b915050611c5c565b50600260009054906101000a900473ffffffffffffffffffffffffffffffffffffffff1673ffffffffffffffffffffffffffffffffffffffff1663a0b47ab6600354846040518363ffffffff1660e01b8152600401611df692919061299b565b600060405180830381600087803b158015611e1057600080fd5b505af1158015611e24573d6000803e3d6000fd5b505050503373ffffffffffffffffffffffffffffffffffffffff167fdb8e3aedce772b982e904cfc947914829d47da2eb7b13e8cb30a726805abdad46003548585604051611e74939291906129c4565b60405180910390a25050600160008190555050565b600033905090565b600080600d805490504244604051602001611ead92919061271a565b6040516020818303038152906040528051906020012060001c611ed09190612bfa565b9050600d8181548110611f0c577f4e487b7100000000000000000000000000000000000000000000000000000000600052603260045260246000fd5b9060005260206000200160009054906101000a900473ffffffffffffffffffffffffffffffffffffffff1691505090565b60006064600260009054906101000a900473ffffffffffffffffffffffffffffffffffffffff1673ffffffffffffffffffffffffffffffffffffffff1663be74264d6040518163ffffffff1660e01b8152600401602060405180830381600087803b158015611fab57600080fd5b505af1158015611fbf573d6000803e3d6000fd5b505050506040513d601f19601f82011682018060405250810190611fe3919061223a565b47611fee9190612a93565b611ff89190612a62565b9050600081476120089190612aed565b90506000600260009054906101000a900473ffffffffffffffffffffffffffffffffffffffff1673ffffffffffffffffffffffffffffffffffffffff1663132996046040518163ffffffff1660e01b8152600401602060405180830381600087803b15801561207657600080fd5b505af115801561208a573d6000803e3d6000fd5b505050506040513d601f19601f820116820180604052508101906120ae91906121e8565b90508073ffffffffffffffffffffffffffffffffffffffff166108fc849081150290604051600060405180830381858888f193505050501580156120f6573d6000803e3d6000fd5b506000600660009054906101000a900473ffffffffffffffffffffffffffffffffffffffff1690508073ffffffffffffffffffffffffffffffffffffffff166108fc849081150290604051600060405180830381858888f19350505050158015612164573d6000803e3d6000fd5b5050505050565b60008135905061217a81612ce0565b92915050565b60008151905061218f81612ce0565b92915050565b6000813590506121a481612cf7565b92915050565b6000815190506121b981612cf7565b92915050565b6000602082840312156121d157600080fd5b60006121df8482850161216b565b91505092915050565b6000602082840312156121fa57600080fd5b600061220884828501612180565b91505092915050565b60006020828403121561222357600080fd5b600061223184828501612195565b91505092915050565b60006020828403121561224c57600080fd5b600061225a848285016121aa565b91505092915050565b61226c81612b21565b82525050565b61227b81612b83565b82525050565b61228a81612b95565b82525050565b600061229d6022836129fb565b91507f546865206c6f747465727920706f6f6c20697320616c726561647920636c6f7360008301527f65640000000000000000000000000000000000000000000000000000000000006020830152604082019050919050565b60006123036017836129fb565b91507f546865206c6f7474657279206973206e6f74206f70656e0000000000000000006000830152602082019050919050565b60006123436026836129fb565b91507f4f776e61626c653a206e6577206f776e657220697320746865207a65726f206160008301527f64647265737300000000000000000000000000000000000000000000000000006020830152604082019050919050565b60006123a96035836129fb565b91507f5469636b6574732063616e206f6e6c792062652072656465656d656420696e2060008301527f7374616b696e67206c6f747465727920706f6f6c7300000000000000000000006020830152604082019050919050565b600061240f603a836129fb565b91507f43616e6e6f742063616e63656c206c6f74746572792e20546865206d696e696d60008301527f756d20616d6f756e7420686173206265656e20726561636865640000000000006020830152604082019050919050565b6000612475601c836129fb565b91507f546865206c6f747465727920706f6f6c206973206e6f74206f70656e000000006000830152602082019050919050565b60006124b56030836129fb565b91507f4c6f747465727920706f6f6c2074797065206973206e6f7420636f6d7061746960008301527f626c652077697468207374616b696e67000000000000000000000000000000006020830152604082019050919050565b600061251b6020836129fb565b91507f4f776e61626c653a2063616c6c6572206973206e6f7420746865206f776e65726000830152602082019050919050565b600061255b6023836129fb565b91507f416d6f756e742073656e7420697320646966666572656e74207468616e20707260008301527f69636500000000000000000000000000000000000000000000000000000000006020830152604082019050919050565b60006125c1601f836129fb565b91507f4e6f7420656e6f756768206d6f6e657920696e207468652062616c616e6365006000830152602082019050919050565b6000612601601f836129fb565b91507f546865206c6f747465727920706f6f6c206973206e6f74207374616b696e67006000830152602082019050919050565b6000612641601e836129fb565b91507f596f7520646f206e6f74206861766520656e6f756768207469636b65747300006000830152602082019050919050565b6000612681601e836129fb565b91507f546865206c6f747465727920706f6f6c206973206e6f7420636c6f73656400006000830152602082019050919050565b60006126c1601f836129fb565b91507f5265656e7472616e637947756172643a207265656e7472616e742063616c6c006000830152602082019050919050565b6126fd81612b79565b82525050565b61271461270f82612b79565b612bf0565b82525050565b60006127268285612703565b6020820191506127368284612703565b6020820191508190509392505050565b600060208201905061275b6000830184612263565b92915050565b60006040820190506127766000830185612263565b61278360208301846126f4565b9392505050565b600060208201905061279f6000830184612272565b92915050565b60006020820190506127ba6000830184612281565b92915050565b600060208201905081810360008301526127d981612290565b9050919050565b600060208201905081810360008301526127f9816122f6565b9050919050565b6000602082019050818103600083015261281981612336565b9050919050565b600060208201905081810360008301526128398161239c565b9050919050565b6000602082019050818103600083015261285981612402565b9050919050565b6000602082019050818103600083015261287981612468565b9050919050565b60006020820190508181036000830152612899816124a8565b9050919050565b600060208201905081810360008301526128b98161250e565b9050919050565b600060208201905081810360008301526128d98161254e565b9050919050565b600060208201905081810360008301526128f9816125b4565b9050919050565b60006020820190508181036000830152612919816125f4565b9050919050565b6000602082019050818103600083015261293981612634565b9050919050565b6000602082019050818103600083015261295981612674565b9050919050565b60006020820190508181036000830152612979816126b4565b9050919050565b600060208201905061299560008301846126f4565b92915050565b60006040820190506129b060008301856126f4565b6129bd60208301846126f4565b9392505050565b60006060820190506129d960008301866126f4565b6129e660208301856126f4565b6129f360408301846126f4565b949350505050565b600082825260208201905092915050565b6000612a1782612b79565b9150612a2283612b79565b9250827fffffffffffffffffffffffffffffffffffffffffffffffffffffffffffffffff03821115612a5757612a56612c2b565b5b828201905092915050565b6000612a6d82612b79565b9150612a7883612b79565b925082612a8857612a87612c5a565b5b828204905092915050565b6000612a9e82612b79565b9150612aa983612b79565b9250817fffffffffffffffffffffffffffffffffffffffffffffffffffffffffffffffff0483118215151615612ae257612ae1612c2b565b5b828202905092915050565b6000612af882612b79565b9150612b0383612b79565b925082821015612b1657612b15612c2b565b5b828203905092915050565b6000612b2c82612b59565b9050919050565b6000819050612b4182612cb8565b919050565b6000819050612b5482612ccc565b919050565b600073ffffffffffffffffffffffffffffffffffffffff82169050919050565b6000819050919050565b6000612b8e82612b33565b9050919050565b6000612ba082612b46565b9050919050565b6000612bb282612b79565b91507fffffffffffffffffffffffffffffffffffffffffffffffffffffffffffffffff821415612be557612be4612c2b565b5b600182019050919050565b6000819050919050565b6000612c0582612b79565b9150612c1083612b79565b925082612c2057612c1f612c5a565b5b828206905092915050565b7f4e487b7100000000000000000000000000000000000000000000000000000000600052601160045260246000fd5b7f4e487b7100000000000000000000000000000000000000000000000000000000600052601260045260246000fd5b7f4e487b7100000000000000000000000000000000000000000000000000000000600052602160045260246000fd5b60028110612cc957612cc8612c89565b5b50565b60048110612cdd57612cdc612c89565b5b50565b612ce981612b21565b8114612cf457600080fd5b50565b612d0081612b79565b8114612d0b57600080fd5b5056fea2646970667358221220813c0356490bd632b2e799014ed530331d6ea2ce64c8fcf1374243858c996c9b64736f6c63430008000033a26469706673582212207a3e6311b09c2bf2aeda1d9ee7f873c50a40daf1f229bc7c88a84489d2e9acdd64736f6c63430008000033",
  "linkReferences": {},
  "deployedLinkReferences": {}
}