{
  "_format": "hh-sol-artifact-1",
  "contractName": "Lottery",
  "sourceName": "contracts/Lottery.sol",
  "abi": [
    {
      "inputs": [
        {
          "internalType": "uint256",
          "name": "_lotteryId",
          "type": "uint256"
        },
        {
          "internalType": "address",
          "name": "_nftAddress",
          "type": "address"
        },
        {
          "internalType": "uint256",
          "name": "_nftIndex",
          "type": "uint256"
        },
        {
          "internalType": "uint256",
          "name": "_ticketPrice",
          "type": "uint256"
        }
      ],
      "stateMutability": "nonpayable",
      "type": "constructor"
    },
    {
      "anonymous": false,
      "inputs": [
        {
          "indexed": true,
          "internalType": "address",
          "name": "previousOwner",
          "type": "address"
        },
        {
          "indexed": true,
          "internalType": "address",
          "name": "newOwner",
          "type": "address"
        }
      ],
      "name": "OwnershipTransferred",
      "type": "event"
    },
    {
      "anonymous": false,
      "inputs": [
        {
          "indexed": false,
          "internalType": "uint256",
          "name": "lotteryId",
          "type": "uint256"
        },
        {
          "indexed": true,
          "internalType": "address",
          "name": "buyer",
          "type": "address"
        },
        {
          "indexed": false,
          "internalType": "uint256",
          "name": "numberOfTickets",
          "type": "uint256"
        }
      ],
      "name": "TicketsBought",
      "type": "event"
    },
    {
      "inputs": [
        {
          "internalType": "uint256",
          "name": "_numberOfTickets",
          "type": "uint256"
        }
      ],
      "name": "buyTickets",
      "outputs": [],
      "stateMutability": "payable",
      "type": "function"
    },
    {
      "inputs": [
        {
          "internalType": "uint256",
          "name": "_numberOfTickets",
          "type": "uint256"
        }
      ],
      "name": "cancelTickets",
      "outputs": [],
      "stateMutability": "nonpayable",
      "type": "function"
    },
    {
      "inputs": [],
      "name": "declareWinner",
      "outputs": [],
      "stateMutability": "nonpayable",
      "type": "function"
    },
    {
      "inputs": [
        {
          "internalType": "address",
          "name": "_addr",
          "type": "address"
        }
      ],
      "name": "getAddressTickets",
      "outputs": [
        {
          "internalType": "uint256",
          "name": "",
          "type": "uint256"
        }
      ],
      "stateMutability": "view",
      "type": "function"
    },
    {
      "inputs": [],
      "name": "getBalance",
      "outputs": [
        {
          "internalType": "uint256",
          "name": "",
          "type": "uint256"
        }
      ],
      "stateMutability": "view",
      "type": "function"
    },
    {
      "inputs": [],
      "name": "getTotalTickets",
      "outputs": [
        {
          "internalType": "uint256",
          "name": "",
          "type": "uint256"
        }
      ],
      "stateMutability": "view",
      "type": "function"
    },
    {
      "inputs": [],
      "name": "launchStaking",
      "outputs": [],
      "stateMutability": "nonpayable",
      "type": "function"
    },
    {
      "inputs": [],
      "name": "lotteryId",
      "outputs": [
        {
          "internalType": "uint256",
          "name": "",
          "type": "uint256"
        }
      ],
      "stateMutability": "view",
      "type": "function"
    },
    {
      "inputs": [],
      "name": "nft",
      "outputs": [
        {
          "internalType": "address",
          "name": "addr",
          "type": "address"
        },
        {
          "internalType": "uint256",
          "name": "index",
          "type": "uint256"
        }
      ],
      "stateMutability": "view",
      "type": "function"
    },
    {
      "inputs": [],
      "name": "owner",
      "outputs": [
        {
          "internalType": "address",
          "name": "",
          "type": "address"
        }
      ],
      "stateMutability": "view",
      "type": "function"
    },
    {
      "inputs": [
        {
          "internalType": "uint256",
          "name": "",
          "type": "uint256"
        }
      ],
      "name": "players",
      "outputs": [
        {
          "internalType": "address",
          "name": "",
          "type": "address"
        }
      ],
      "stateMutability": "view",
      "type": "function"
    },
    {
      "inputs": [],
      "name": "redeemTickets",
      "outputs": [],
      "stateMutability": "nonpayable",
      "type": "function"
    },
    {
      "inputs": [],
      "name": "renounceOwnership",
      "outputs": [],
      "stateMutability": "nonpayable",
      "type": "function"
    },
    {
      "inputs": [],
      "name": "state",
      "outputs": [
        {
          "internalType": "enum Lottery.State",
          "name": "",
          "type": "uint8"
        }
      ],
      "stateMutability": "view",
      "type": "function"
    },
    {
      "inputs": [],
      "name": "ticketPrice",
      "outputs": [
        {
          "internalType": "uint256",
          "name": "",
          "type": "uint256"
        }
      ],
      "stateMutability": "view",
      "type": "function"
    },
    {
      "inputs": [
        {
          "internalType": "address",
          "name": "newOwner",
          "type": "address"
        }
      ],
      "name": "transferOwnership",
      "outputs": [],
      "stateMutability": "nonpayable",
      "type": "function"
    },
    {
      "inputs": [],
      "name": "winner",
      "outputs": [
        {
          "internalType": "address",
          "name": "",
          "type": "address"
        }
      ],
      "stateMutability": "view",
      "type": "function"
    }
  ],
  "bytecode": "0x60806040523480156200001157600080fd5b5060405162001dd138038062001dd18339818101604052810190620000379190620001dc565b600062000049620001a660201b60201c565b9050806000806101000a81548173ffffffffffffffffffffffffffffffffffffffff021916908373ffffffffffffffffffffffffffffffffffffffff1602179055508073ffffffffffffffffffffffffffffffffffffffff16600073ffffffffffffffffffffffffffffffffffffffff167f8be0079c531659141344cd1fd0a4f28419497f9722a3daafe3b4186f6b6457e060405160405180910390a350836001819055508060028190555082600460000160006101000a81548173ffffffffffffffffffffffffffffffffffffffff021916908373ffffffffffffffffffffffffffffffffffffffff160217905550816004600101819055506000600860006101000a81548160ff0219169083600281111562000190577f4e487b7100000000000000000000000000000000000000000000000000000000600052602160045260246000fd5b02179055504260038190555050505050620002ba565b600033905090565b600081519050620001bf8162000286565b92915050565b600081519050620001d681620002a0565b92915050565b60008060008060808587031215620001f357600080fd5b60006200020387828801620001c5565b94505060206200021687828801620001ae565b93505060406200022987828801620001c5565b92505060606200023c87828801620001c5565b91505092959194509250565b600062000255826200025c565b9050919050565b600073ffffffffffffffffffffffffffffffffffffffff82169050919050565b6000819050919050565b620002918162000248565b81146200029d57600080fd5b50565b620002ab816200027c565b8114620002b757600080fd5b50565b611b0780620002ca6000396000f3fe6080604052600436106100fe5760003560e01c80638da5cb5b11610095578063dfbf53ae11610064578063dfbf53ae146102bb578063e580f47b146102e6578063f2fde38b14610311578063f71d96cb1461033a578063fc22389a14610377576100fe565b80638da5cb5b14610211578063a30a24741461023c578063bb6acfc614610253578063c19d93fb14610290576100fe565b80632f366637116100d15780632f3666371461019b57806347ccca02146101b75780634a1e0a29146101e3578063715018a6146101fa576100fe565b806306e8337f1461010357806312065fe01461012e5780631209b1f61461015957806314034bd214610184575b600080fd5b34801561010f57600080fd5b506101186103a0565b6040516101259190611601565b60405180910390f35b34801561013a57600080fd5b506101436103ad565b6040516101509190611601565b60405180910390f35b34801561016557600080fd5b5061016e6103b5565b60405161017b9190611601565b60405180910390f35b34801561019057600080fd5b506101996103bb565b005b6101b560048036038101906101b091906112ae565b61067a565b005b3480156101c357600080fd5b506101cc6108b8565b6040516101da92919061149d565b60405180910390f35b3480156101ef57600080fd5b506101f86108ea565b005b34801561020657600080fd5b5061020f610ab5565b005b34801561021d57600080fd5b50610226610bef565b6040516102339190611482565b60405180910390f35b34801561024857600080fd5b50610251610c18565b005b34801561025f57600080fd5b5061027a60048036038101906102759190611285565b610da9565b6040516102879190611601565b60405180910390f35b34801561029c57600080fd5b506102a5610df2565b6040516102b291906114c6565b60405180910390f35b3480156102c757600080fd5b506102d0610e05565b6040516102dd9190611482565b60405180910390f35b3480156102f257600080fd5b506102fb610e2b565b6040516103089190611601565b60405180910390f35b34801561031d57600080fd5b5061033860048036038101906103339190611285565b610e31565b005b34801561034657600080fd5b50610361600480360381019061035c91906112ae565b610fda565b60405161036e9190611482565b60405180910390f35b34801561038357600080fd5b5061039e600480360381019061039991906112ae565b611019565b005b6000600780549050905090565b600047905090565b60025481565b6103c3611253565b73ffffffffffffffffffffffffffffffffffffffff166103e1610bef565b73ffffffffffffffffffffffffffffffffffffffff1614610437576040517f08c379a000000000000000000000000000000000000000000000000000000000815260040161042e90611581565b60405180910390fd5b600280811115610470577f4e487b7100000000000000000000000000000000000000000000000000000000600052602160045260246000fd5b600860009054906101000a900460ff1660028111156104b8577f4e487b7100000000000000000000000000000000000000000000000000000000600052602160045260246000fd5b14156104f9576040517f08c379a00000000000000000000000000000000000000000000000000000000081526004016104f0906114e1565b60405180910390fd5b600060078054905011610541576040517f08c379a000000000000000000000000000000000000000000000000000000000815260040161053890611521565b60405180910390fd5b6000600780549050424460405160200161055c929190611456565b6040516020818303038152906040528051906020012060001c61057f91906117ee565b9050600781815481106105bb577f4e487b7100000000000000000000000000000000000000000000000000000000600052603260045260246000fd5b9060005260206000200160009054906101000a900473ffffffffffffffffffffffffffffffffffffffff16600860016101000a81548173ffffffffffffffffffffffffffffffffffffffff021916908373ffffffffffffffffffffffffffffffffffffffff1602179055506002600860006101000a81548160ff02191690836002811115610672577f4e487b7100000000000000000000000000000000000000000000000000000000600052602160045260246000fd5b021790555050565b600060028111156106b4577f4e487b7100000000000000000000000000000000000000000000000000000000600052602160045260246000fd5b600860009054906101000a900460ff1660028111156106fc577f4e487b7100000000000000000000000000000000000000000000000000000000600052602160045260246000fd5b1461073c576040517f08c379a000000000000000000000000000000000000000000000000000000000815260040161073390611561565b60405180910390fd5b8060025461074a91906116ac565b341461078b576040517f08c379a0000000000000000000000000000000000000000000000000000000008152600401610782906115a1565b60405180910390fd5b80600660003373ffffffffffffffffffffffffffffffffffffffff1673ffffffffffffffffffffffffffffffffffffffff16815260200190815260200160002060008282546107da9190611656565b9250508190555060005b81811015610862576007339080600181540180825580915050600190039060005260206000200160009091909190916101000a81548173ffffffffffffffffffffffffffffffffffffffff021916908373ffffffffffffffffffffffffffffffffffffffff160217905550808061085a9061179b565b9150506107e4565b503373ffffffffffffffffffffffffffffffffffffffff167f2fe7f3fce87dc8184aed61d2307d6f46c968decd48a64b99c3d961a4c8d9b7bd600154836040516108ad92919061161c565b60405180910390a250565b60048060000160009054906101000a900473ffffffffffffffffffffffffffffffffffffffff16908060010154905082565b600280811115610923577f4e487b7100000000000000000000000000000000000000000000000000000000600052602160045260246000fd5b600860009054906101000a900460ff16600281111561096b577f4e487b7100000000000000000000000000000000000000000000000000000000600052602160045260246000fd5b146109ab576040517f08c379a00000000000000000000000000000000000000000000000000000000081526004016109a290611541565b60405180910390fd5b600660003373ffffffffffffffffffffffffffffffffffffffff1673ffffffffffffffffffffffffffffffffffffffff16815260200190815260200160002054471015610a2d576040517f08c379a0000000000000000000000000000000000000000000000000000000008152600401610a24906115c1565b60405180910390fd5b3373ffffffffffffffffffffffffffffffffffffffff166108fc600660003373ffffffffffffffffffffffffffffffffffffffff1673ffffffffffffffffffffffffffffffffffffffff168152602001908152602001600020549081150290604051600060405180830381858888f19350505050158015610ab2573d6000803e3d6000fd5b50565b610abd611253565b73ffffffffffffffffffffffffffffffffffffffff16610adb610bef565b73ffffffffffffffffffffffffffffffffffffffff1614610b31576040517f08c379a0000000000000000000000000000000000000000000000000000000008152600401610b2890611581565b60405180910390fd5b600073ffffffffffffffffffffffffffffffffffffffff1660008054906101000a900473ffffffffffffffffffffffffffffffffffffffff1673ffffffffffffffffffffffffffffffffffffffff167f8be0079c531659141344cd1fd0a4f28419497f9722a3daafe3b4186f6b6457e060405160405180910390a360008060006101000a81548173ffffffffffffffffffffffffffffffffffffffff021916908373ffffffffffffffffffffffffffffffffffffffff160217905550565b60008060009054906101000a900473ffffffffffffffffffffffffffffffffffffffff16905090565b610c20611253565b73ffffffffffffffffffffffffffffffffffffffff16610c3e610bef565b73ffffffffffffffffffffffffffffffffffffffff1614610c94576040517f08c379a0000000000000000000000000000000000000000000000000000000008152600401610c8b90611581565b60405180910390fd5b60006002811115610cce577f4e487b7100000000000000000000000000000000000000000000000000000000600052602160045260246000fd5b600860009054906101000a900460ff166002811115610d16577f4e487b7100000000000000000000000000000000000000000000000000000000600052602160045260246000fd5b14610d56576040517f08c379a0000000000000000000000000000000000000000000000000000000008152600401610d4d906114e1565b60405180910390fd5b6001600860006101000a81548160ff02191690836002811115610da2577f4e487b7100000000000000000000000000000000000000000000000000000000600052602160045260246000fd5b0217905550565b6000600660008373ffffffffffffffffffffffffffffffffffffffff1673ffffffffffffffffffffffffffffffffffffffff168152602001908152602001600020549050919050565b600860009054906101000a900460ff1681565b600860019054906101000a900473ffffffffffffffffffffffffffffffffffffffff1681565b60015481565b610e39611253565b73ffffffffffffffffffffffffffffffffffffffff16610e57610bef565b73ffffffffffffffffffffffffffffffffffffffff1614610ead576040517f08c379a0000000000000000000000000000000000000000000000000000000008152600401610ea490611581565b60405180910390fd5b600073ffffffffffffffffffffffffffffffffffffffff168173ffffffffffffffffffffffffffffffffffffffff161415610f1d576040517f08c379a0000000000000000000000000000000000000000000000000000000008152600401610f1490611501565b60405180910390fd5b8073ffffffffffffffffffffffffffffffffffffffff1660008054906101000a900473ffffffffffffffffffffffffffffffffffffffff1673ffffffffffffffffffffffffffffffffffffffff167f8be0079c531659141344cd1fd0a4f28419497f9722a3daafe3b4186f6b6457e060405160405180910390a3806000806101000a81548173ffffffffffffffffffffffffffffffffffffffff021916908373ffffffffffffffffffffffffffffffffffffffff16021790555050565b60078181548110610fea57600080fd5b906000526020600020016000915054906101000a900473ffffffffffffffffffffffffffffffffffffffff1681565b60006002811115611053577f4e487b7100000000000000000000000000000000000000000000000000000000600052602160045260246000fd5b600860009054906101000a900460ff16600281111561109b577f4e487b7100000000000000000000000000000000000000000000000000000000600052602160045260246000fd5b146110db576040517f08c379a00000000000000000000000000000000000000000000000000000000081526004016110d290611561565b60405180910390fd5b80600660003373ffffffffffffffffffffffffffffffffffffffff1673ffffffffffffffffffffffffffffffffffffffff16815260200190815260200160002054101561115d576040517f08c379a0000000000000000000000000000000000000000000000000000000008152600401611154906115e1565b60405180910390fd5b60008160025461116d91906116ac565b9050804710156111b2576040517f08c379a00000000000000000000000000000000000000000000000000000000081526004016111a9906115c1565b60405180910390fd5b3373ffffffffffffffffffffffffffffffffffffffff166108fc829081150290604051600060405180830381858888f193505050501580156111f8573d6000803e3d6000fd5b5081600660003373ffffffffffffffffffffffffffffffffffffffff1673ffffffffffffffffffffffffffffffffffffffff16815260200190815260200160002060008282546112489190611706565b925050819055505050565b600033905090565b60008135905061126a81611aa3565b92915050565b60008135905061127f81611aba565b92915050565b60006020828403121561129757600080fd5b60006112a58482850161125b565b91505092915050565b6000602082840312156112c057600080fd5b60006112ce84828501611270565b91505092915050565b6112e08161173a565b82525050565b6112ef81611789565b82525050565b6000611302601783611645565b915061130d826118ac565b602082019050919050565b6000611325602683611645565b9150611330826118d5565b604082019050919050565b6000611348602083611645565b915061135382611924565b602082019050919050565b600061136b601983611645565b91506113768261194d565b602082019050919050565b600061138e602283611645565b915061139982611976565b604082019050919050565b60006113b1602083611645565b91506113bc826119c5565b602082019050919050565b60006113d4602383611645565b91506113df826119ee565b604082019050919050565b60006113f7601f83611645565b915061140282611a3d565b602082019050919050565b600061141a601e83611645565b915061142582611a66565b602082019050919050565b6114398161177f565b82525050565b61145061144b8261177f565b6117e4565b82525050565b6000611462828561143f565b602082019150611472828461143f565b6020820191508190509392505050565b600060208201905061149760008301846112d7565b92915050565b60006040820190506114b260008301856112d7565b6114bf6020830184611430565b9392505050565b60006020820190506114db60008301846112e6565b92915050565b600060208201905081810360008301526114fa816112f5565b9050919050565b6000602082019050818103600083015261151a81611318565b9050919050565b6000602082019050818103600083015261153a8161133b565b9050919050565b6000602082019050818103600083015261155a8161135e565b9050919050565b6000602082019050818103600083015261157a81611381565b9050919050565b6000602082019050818103600083015261159a816113a4565b9050919050565b600060208201905081810360008301526115ba816113c7565b9050919050565b600060208201905081810360008301526115da816113ea565b9050919050565b600060208201905081810360008301526115fa8161140d565b9050919050565b60006020820190506116166000830184611430565b92915050565b60006040820190506116316000830185611430565b61163e6020830184611430565b9392505050565b600082825260208201905092915050565b60006116618261177f565b915061166c8361177f565b9250827fffffffffffffffffffffffffffffffffffffffffffffffffffffffffffffffff038211156116a1576116a061181f565b5b828201905092915050565b60006116b78261177f565b91506116c28361177f565b9250817fffffffffffffffffffffffffffffffffffffffffffffffffffffffffffffffff04831182151516156116fb576116fa61181f565b5b828202905092915050565b60006117118261177f565b915061171c8361177f565b92508282101561172f5761172e61181f565b5b828203905092915050565b60006117458261175f565b9050919050565b600081905061175a82611a8f565b919050565b600073ffffffffffffffffffffffffffffffffffffffff82169050919050565b6000819050919050565b60006117948261174c565b9050919050565b60006117a68261177f565b91507fffffffffffffffffffffffffffffffffffffffffffffffffffffffffffffffff8214156117d9576117d861181f565b5b600182019050919050565b6000819050919050565b60006117f98261177f565b91506118048361177f565b9250826118145761181361184e565b5b828206905092915050565b7f4e487b7100000000000000000000000000000000000000000000000000000000600052601160045260246000fd5b7f4e487b7100000000000000000000000000000000000000000000000000000000600052601260045260246000fd5b7f4e487b7100000000000000000000000000000000000000000000000000000000600052602160045260246000fd5b7f546865206c6f7474657279206973206e6f74206f70656e000000000000000000600082015250565b7f4f776e61626c653a206e6577206f776e657220697320746865207a65726f206160008201527f6464726573730000000000000000000000000000000000000000000000000000602082015250565b7f4174206c65617374206f6e6520706c61796572206973206e6563657373617279600082015250565b7f546865206c6f7474657279206973206e6f7420636c6f73656400000000000000600082015250565b7f546865206c6f7474657279206f70656e20706572696f642077617320636c6f7360008201527f6564000000000000000000000000000000000000000000000000000000000000602082015250565b7f4f776e61626c653a2063616c6c6572206973206e6f7420746865206f776e6572600082015250565b7f416d6f756e742073656e7420697320646966666572656e74207468616e20707260008201527f6963650000000000000000000000000000000000000000000000000000000000602082015250565b7f4e6f7420656e6f756768206d6f6e657920696e207468652062616c616e636500600082015250565b7f596f7520646f206e6f74206861766520656e6f756768207469636b6574730000600082015250565b60038110611aa057611a9f61187d565b5b50565b611aac8161173a565b8114611ab757600080fd5b50565b611ac38161177f565b8114611ace57600080fd5b5056fea26469706673582212200b92eac2c22cd34457d2d198052fba58290118841ec165e276b5ace6428fe66964736f6c63430008030033",
  "linkReferences": {},
  "deployedLinkReferences": {}
}